:1000000070350020A94B00007D330100954B0000A6
:10001000954B0000954B0000954B0000954B000060
:10002000000000000000000000000000E94C00009B
:10003000954B000000000000C54F0000954B0000EC
:10004000815000008150000081500000815000006C
:10005000815000008150000081500000815000005C
:10006000815000008150000081500000815000004C
:10007000815000008150000081500000815000003C
:10048000844641EA000313F0030349D1403A23D3E1
:100490000B6803604B6843608B688360CB68C36004
:1004A0000B6903614B6943618B698361CB69C361EC
:1004B0000B6A03624B6A43628B6A8362CB6AC362D4
:1004C0000B6B03634B6B43638B6B8363CB6BC363BC
:1004D00040304031403ADBD230320BD30B680360FE
:1004E0004B6843608B688360CB68C3601030103109
:1004F000103AF3D20C3205D351F8043B40F8043BD8
:10050000043AF9D2043208D0D2071CBF11F8013BDB
:1005100000F8013B01D30B8803806046704700BFA1
:10052000082A13D38B07B1D010F00303AED0C3F168
:100530000403D21ADB071CBF11F8013B00F8013B92
:10054000A4D331F8023B20F8023B9FE7043AD9D309
:10055000013A11F8013B00F8013BF9D20B78037026
:100560004B7843708B788370604670477BB972B963
:100570000029BEBF00204FF0004106E008BF002860
:100580001CBF6FF000414FF0FF3000F057B8ADF1E5
:10059000080C6DE904CE002909DB002B1ADB00F002
:1005A0004FF8DDF804E0DDE9022304B07047404273
:1005B00061EB4101002B1BDB00F042F8DDF804E0A9
:1005C000DDE9022304B0404261EB4101524263EB9A
:1005D00043037047524263EB430300F031F8DDF808
:1005E00004E0DDE9022304B0404261EB41017047C1
:1005F000524263EB430300F023F8DDF804E0DDE949
:10060000022304B0524263EB4303704753B94AB923
:10061000002908BF00281CBF4FF0FF314FF0FF300A
:1006200000F00CB8ADF1080C6DE904CE00F008F84C
:10063000DDF804E0DDE9022304B07047704700BF35
:100640002DE9F0478C468E46089E1546044619460D
:10065000002B40F0D080724547D9B2FA82F74FB1F3
:10066000C7F120030EFA07FCBD40BC4020FA03F39B
:1006700043EA0C0C4FEA154EA8B2230CBCFBFEF863
:100680000EFB18CC08FB00F943EA0C43994528D926
:10069000EB1808F1FF3204D2994502D9A8F1020201
:1006A0002B44A3EB0903A4B2B3FBFEFC0EFB1C33EB
:1006B0000CFB00F044EA0344A04214D92C190CF1BD
:1006C000FF3304D2A04202D9ACF102032C44241A15
:1006D00043EA02401EB1FC40002334607360BDE871
:1006E000F0874246DDE76346F1E7002A79D0B2FAA7
:1006F00082F3002B3FD01946C1F1200302FA01F525
:1007000000FA01F42EFA03F20EFA01FE20FA03F3C6
:10071000AFB243EA0E034FEA154EB2FBFEFC0EFBEE
:100720001C201A0C0CFB07F842EA004290455AD9EB
:10073000AA180CF1FF3004D2904502D9ACF10200A6
:100740002A44A2EB08029BB2B2FBFEFC0EFB1C2269
:100750000CFB07F743EA02439F4246D9EB180CF122
:10076000FF3204D29F4202D9ACF102022B44DB1BC0
:1007700042EA004202E0AEEB020301224FEA154ECC
:10078000AFB2200CB3FBFEFC0EFB1C330CFB07F8D6
:1007900040EA034398452AD9EB180CF1FF3004D204
:1007A000984502D9ACF102002B44A3EB0803A4B294
:1007B000B3FBFEFC0EFB1C330CFB07F744EA0344BF
:1007C000A74216D92C190CF1FF3304D2A74202D943
:1007D000ACF102032C44E41B43EA00400F461146EF
:1007E00078E71F2188E76046ABE76246BFE76046CF
:1007F000DBE76346EFE7734506D916B900210846E3
:100800006DE7C6E9000EF9E7B3FA83F787B97345D8
:1008100001D3824207D8841A6EEB030301209C4661
:100820001EB900215BE73846FAE7C6E9004CF8E755
:10083000C7F1200CBB4000FA07F422FA0CF520FAAD
:100840000CF1BA401D432EFA0CF30EFA07FE4FEAE4
:10085000154941EA0E011FFA85FEB3FBF9F809FBC1
:1008600018300B0C08FB0EFA43EA00439A4540D9B6
:10087000EB1808F1FF3004D29A4502D9A8F1020022
:100880002B44A3EB0A0389B2B3FBF9F809FB183335
:1008900008FB0EFE41EA03418E452CD9691808F188
:1008A000FF3304D28E4502D9A8F10203294443EA5A
:1008B0000040A1EB0E01A0FB02984145CE46434605
:1008C00002D306D14C4504D20138B9EB020E68EBD5
:1008D0000503002EA5D0B4EB0E0261EB030101FA73
:1008E0000CFC22FA07F3F9404CEA0303C6E9003195
:1008F00097E74046C5E74346D9E7000000000000FF
:1009000080B582B000AF00F03DF838603B68002B46
:1009100003D03968124810F02CF900F087F841F63E
:100920006A024FF00003104619460FF09DFC00F0DC
:10093000B3F801237B6008A3D3E9002310461946CE
:100940000FF092FC786800F03DF97B6801337B6022
:1009500000BFF0E7AFF30080389C1C0000000000EF
:10096000B8BB010080B584B000AFF860B9607A60B0
:100970003B6003480FF096FC00BF1037BD4680BDBA
:100980000408002080B582B000AF002005F0E6F931
:1009900003461D4A13601C4B1B68002B05D11B48E6
:1009A00010F0E7F86FF0120329E0194919480FF029
:1009B00084FC154B1B681849184611F059F97860EA
:1009C0007B68002B05DA7968144810F0D2F87B6850
:1009D00015E04FF224404FF0000102460B4610484C
:1009E0000FF050FC0346002B05D00E4810F0C1F864
:1009F0006FF0730303E00C4810F0BBF800231846B7
:100A00000837BD4680BD00BFF80F002060B7010069
:100A10006509000000100020FC0F002078B70100DD
:100A20000408002094B70100A4B7010080B500AF0E
:100A300004210E480FF057FC0C210C480FF053FC1A
:100A400000210A480FF05FFC032108480FF072FCF8
:100A5000002106480FF085FC002104480FF043FCFC
:100A60000349044810F085F800BF80BD00A00C5079
:100A70000024F400C4B7010080B500AF4021054850
:100A80000FF031FC002103480FF079FC03461846B3
:100A900080BD00BF00A00C5080B586B000AF364BC3
:100AA000364A1A60EFF31183BB60BB687B6020237A
:100AB0003B603B6883F3128800BFBFF36F8F00BFBA
:100AC0007B687B61FFF7D8FF03462D4A13600FF068
:100AD000C4FB03462B4A13607B693B613B69FB60A7
:100AE000FB6883F3118800BFBFF36F8F00BF00BFA7
:100AF00025494FF000024FF00003C1E900232349CC
:100B00004FF000024FF00003C1E90023204810F02D
:100B100030F8204810F02DF81F4810F02AF81F492F
:100B20001F4810F026F81F4810F023F8124B1B68DE
:100B300019461D4810F01DF83C211C4810F019F80A
:100B40001B4B1B6809221B4918460DF0C3F80346CE
:100B5000002B03D1184810F00CF805E0174B1B6868
:100B60001946174810F005F80B4810F002F800BFBE
:100B70001837BD4680BD00BF1410002040420F0052
:100B80000C10002010100020400800204808002011
:100B9000F0B701002CB8010054B8010090B8010072
:100BA000ACB80100BCB80100E8B8010014B90100FC
:100BB000B00500202CB9010038B90100B4050020AF
:100BC00054B901002DE9B04FF2B000AFC7F81401DD
:100BD000EFF31183C7F82031D7F82031C7F81C3163
:100BE0002023C7F81831D7F8183183F3128800BFD3
:100BF000BFF36F8F00BFD7F81C31C7F8C431FFF7C0
:100C00003BFFC7F8C0010FF028FBC7F8BC01D7F8BD
:100C1000C431C7F82831D7F82831C7F82431D7F8BC
:100C2000243183F3118800BFBFF36F8F00BF00BF73
:100C3000B24B1A68D7F8C0319B1AC7F8B831B04B1D
:100C40001A68D7F8BC319B1AC7F8B431AB4AD7F849
:100C5000C0311360AA4AD7F8BC311360D7F8B83155
:100C60000022C7F8C030C7F8C420A64BD3E9002340
:100C7000D7F8C0108918C7F8B010D7F8C41043EBE4
:100C80000101C7F8B4109F4BD7E92C12C3E9001239
:100C9000D7F8B4310022C7F8B830C7F8BC209A4B57
:100CA000D3E90023D7F8B8108918C7F8A810D7F8E7
:100CB000BC1043EB0101C7F8AC10934BD7E92A12E3
:100CC000C3E900128F4BD3E90001904A4FF00003B3
:100CD000FFF79CFC02460B46C7E96A23894BD3E920
:100CE00000018A4A4FF00003FFF790FCC7E9682330
:100CF000D7F8AC21864B03FB02F1D7F8A8210023DB
:100D000002FB03F31944D7F8A821814BA2FB03454A
:100D10004B191D46D7F8A4217D4B03FB02F1D7F8F0
:100D2000A021002302FB03F31944D7F8A021784B3C
:100D3000A2FB0332C7F80C21C7F80831D7F80C31F1
:100D4000CB18C7F80C31714A4FF00003D7E94201C4
:100D5000FFF70CFC02460B46A118B96745EB0303ED
:100D6000FB67D7E91E34C7E96634674BD3E9000156
:100D7000684B1B680022C7F8A030C7F8A420D7E949
:100D80002823FFF743FC02460B46C7E964235E4B6A
:100D9000D3E900015F4B1B680022C7F89830C7F801
:100DA0009C20D7E92623FFF731FCC7E96223D7F857
:100DB0009421574B03FB02F1D7F89021002302FB4B
:100DC00003F31944D7F89021514BA2FB0332C7F823
:100DD0000421C7F80031D7F80431CB18C7F8043123
:100DE000D7F88C214A4B03FB02F1D7F88821002366
:100DF00002FB03F31944D7F88821454BA2FB0332C9
:100E0000C7F8FC20C7F8F830D7F8FC30CB18C7F883
:100E1000FC30404B1B680022C7F89030C7F8942084
:100E2000D7E92423D7E93E01FFF7A0FB02460B4692
:100E3000D7E94045214689183967294643EB010126
:100E40007967D7E91C34C7E96034D7E96001D7E98D
:100E50006623841ABC6661EB0303FB66D7E91A3488
:100E6000C7E95E34D7E96623012A73F1000353DB37
:100E7000D7E95E4522462B464FF000004FF00001B7
:100E8000590141EAD261500102460B46B2EB040817
:100E900063EB05094FF000024FF000034FEA4923CE
:100EA00043EAD8534FEA48229046994618EB040A81
:100EB00049EB050B4FF000024FF000034FEA8B1394
:100EC00043EA9A634FEA8A12B2EB0A01396663EB8E
:100ED0000B037B66D7E918120B461B19C7F888303D
:100EE000134645EB0303C7F88C30D7E96623D7E9EF
:100EF0002201FFF73BFB02460B4611E00C100020DD
:100F00001010002040080020480800200024F400B1
:100F100000CA9A3B141000204FF000024FF000036B
:100F2000C7E95C23D7E96623012A73F1000321DBBB
:100F3000D7F87C21BB4B03FB02F1D7F878210023C3
:100F400002FB03F31944D7F87821B64BA2FB033216
:100F5000C7F8F420C7F8F030D7F8F430CB18C7F84A
:100F6000F430D7E96623D7E93C01FFF7FFFA0246E0
:100F70000B4603E04FF000024FF00003C7E95A238D
:100F8000D7F8B821A84BA3FB02239B0D0022BB6519
:100F9000FA65D7E91634C7E95834D7F8B811A24B27
:100FA000A3FB01239A0DA14B02FB03F3CA1A0023F2
:100FB0003A657B65D7E91434C7E95634D7F864211C
:100FC000984B03FB02F1D7F86021002302FB03F3E7
:100FD0001944D7F86021934BA2FB0332C7F8EC20E9
:100FE000C7F8E830D7F8EC30CB18C7F8EC30D7F8B2
:100FF0005C218C4B03FB02F1D7F85821002302FB44
:1010000003F31944D7F85821864BA2FB0332C7F8E3
:10101000E420C7F8E030D7F8E430CB18C7F8E43064
:10102000824A4FF00003D7E93801FFF79FFA0246E2
:101030000B46D7E93A4521468918B964294643EB5E
:101040000101F964D7E91234C7E95434784B1A68BE
:10105000D7F8B431B3FBF2F300223B647A64D7E9EA
:101060001034C7E95234724B1968D7F8B421B2FB77
:10107000F1F301FB03F3D31A0022BB63FA63D7E950
:101080000E34C7E95034D7F84C21664B03FB02F10C
:10109000D7F84821002302FB03F31944D7F848216D
:1010A000604BA2FB0332C7F8DC20C7F8D830D7F872
:1010B000DC30CB18C7F8DC30D7F84421594B03FBA0
:1010C00002F1D7F84021002302FB03F31944D7F8BB
:1010D0004021544BA2FB0332C7F8D420C7F8D030CC
:1010E000D7F8D430CB18C7F8D430514B1B68002246
:1010F000C7F88030C7F88420D7E92023D7E9340126
:10110000FFF734FA02460B46D7E9364521468918DF
:101110003963294643EB01017963D7E90C34C7E908
:101120004E34D7E94E01D7E95423841ABC6261EBEF
:101130000303FB62D7E90A34C7E94C34D7F814211A
:1011400013461B019B1A9B00C7F82C31D7F81411CA
:1011500038480FF00EFDD7F82C1137480FF009FD75
:1011600036480FF006FDD7E96601354A4FF0000317
:10117000FFF7FCF902460B4632480FF0FAFC2C4B05
:101180001B68194630480FF0F4FCD7E960012C4A7F
:101190004FF00003FFF7EAF902460B4629480FF02B
:1011A000E8FC2A480FF0E5FCD7E95E23002B01DBC1
:1011B0002B2400E02D24D7E95E23002B07DA002141
:1011C0005042386261EB03037B62D7E90823104683
:1011D00019464FF47A724FF00003FFF7C7F9024641
:1011E0000B4621461A480FF0C4FCD7E95C23002BBC
:1011F00001DB2B2100E02D21D7E95C23002B07DA4E
:1012000000205442BC6160EB0303FB61D7E9062375
:1012100010480FF0AEFCD7E95A23002B1CDB2B2122
:101220001BE000BF00CA9A3B83DE1B430024F4008E
:101230001410002078B9010094B90100B4B901007C
:1012400040420F00DCB90100FCB9010024BA0100E2
:1012500048BA01006CBA01002D21D7E95A23002BAE
:1012600007DA002054423C6160EB03037B61D7E95D
:1012700004233F480FF07DFCD7E95C23012A73F17A
:10128000000307DAD7E95C23002B01DA394B02E0CF
:10129000394B00E0394B194639480FF06AFC3C21C4
:1012A00038480FF066FCD7E94C23002B01DB2B24D8
:1012B00000E02D24D7E94C23002B07DA002150420F
:1012C000B86061EB0303FB60D7E9022310461946BF
:1012D0004FF47A724FF00003FFF748F902460B46CD
:1012E000214629480FF045FCD7E94C23002B01DBB0
:1012F0002B2400E02D24D7E95423012A73F10003A5
:1013000027DBD7E94C23002B07DA00215042386055
:1013100061EB03037B60D7E900231C4901FB03F069
:10132000002102FB01F101441848A2FB0032C7F87A
:10133000CC20C7F8C830D7F8CC30CB18C7F8CC30A1
:10134000D7E95423D7E93201FFF710F902460B46DB
:1013500003E04FF000024FF0000321460C480FF06D
:1013600008FC00BF07F5E477BD46BDE8B08F00BFBD
:1013700090BA0100B4BA0100E0BA0100F8BA010065
:1013800024BB010044BB010068BB010000CA9A3BBA
:101390008CBB010080B582B000AF184BD3F8043984
:1013A0007B60174B1B685B00164AA2FB03239B095B
:1013B0000C3B154AD2F82426C2F3080202F5C47287
:1013C00003FB02F2104BD3F824361B0CC3F30903C2
:1013D000DB00134403F580735B0A3B60074A3B68FC
:1013E000C2F80439064B19683B687A6807480FF061
:1013F000C0FB002318460837BD4680BD00001250D0
:10140000B4050020D34D621000C0FF00F4BB010002
:1014100080B483B000AF78607B68094A934205D3FB
:101420007B68084A934201D2012300E0002303F0C5
:101430000103DBB218460C37BD4680BC704700BFC5
:1014400048AC0100BCD7010080B5A4B000AFF86083
:10145000B9607A603B60FB68FB65FB6DC7F88C3058
:101460000023C7F880300023FB670023BB674FF0E1
:10147000FF337B67002387F86B307B6803F004033E
:10148000002B14BF0123002387F85B307B68DB0847
:1014900003F0070301337B66002387F86330FB68A2
:1014A0007B65FB6803F00303002B02D06FF00D0394
:1014B000A2E3D7F88C300433C7F88C30FB6D002BD7
:1014C0000DD1BB6803F00703D7F88C201344C7F88D
:1014D0008C30BB6803F00703C3F10803BB60FB6DEE
:1014E000002B0AD0FB6DD7F88C20D31A0433BA68CE
:1014F0009A4202D26FF01B037EE33B68FB663B68B7
:10150000013B3B600423C7F884300423C7F88830CC
:1015100097E197F86B3083F00103DBB2002B11D019
:101520003B681B78252B40F07882012387F86B30CD
:101530007B6F01337B670423C7F884300423C7F82B
:1015400088306AE23B681B787A2B00F349814C2B88
:1015500011DA472B00F344812A2B71DA252B00F096
:101560009280252B00F33C81202B00F05882232B06
:1015700000F0558234E14C3B2E2B00F2318101A268
:1015800052F823F01F1A0000E1170000E1170000D5
:10159000E1170000E1170000E1170000E11700006B
:1015A000E1170000E1170000E1170000E11700005B
:1015B000E1170000BF160000E1170000E11700006E
:1015C000E1170000E1170000E1170000E11700003B
:1015D000E1170000E11700000F170000E1170000FD
:1015E000BF160000BF1600000F1700000F17000005
:1015F0000F1700001F1A0000BF160000951600000C
:10160000E11700001F1A0000E1170000FB160000A0
:10161000BF160000FB160000E1170000E1170000F4
:10162000F5160000B1160000BF160000E11700001B
:10163000E1170000BF160000E1170000A31600002C
:101640002A3B012202FA03F34FF6DA721A40002A0B
:1016500014BF01220022D2B2002A40F0E08103F040
:101660006252002A14BF01220022D2B2002A4ED1B7
:1016700003F00103002B14BF01230023DBB2002B76
:1016800040F0B280ACE0002387F86B307B6F013B09
:101690007B67C5E10823C7F884300823C7F8883082
:1016A000BEE10423C7F884300423C7F88830B7E1CB
:1016B0000423C7F884300423C7F88830B0E13B68BE
:1016C000013B1B786C2B11D13B68023B1B786C2BC8
:1016D00006D10823C7F884300823C7F8883005E00E
:1016E0000423C7F884300423C7F88830002387F820
:1016F0006B307AE0012387F863300423C7F8843025
:101700000423C7F88830002387F86B306DE03B680E
:10171000013B1B784C2B13D1D7F89830073323F0BB
:10172000070303F10802C7F89820D3E90023C7E9AB
:1017300006230823C7F884300823C7F8883012E04E
:10174000D7F89830073323F0070303F10802C7F8EE
:101750009820D3E90023C7E906230823C7F884307B
:101760000823C7F88830D7F88420D7F88C30134482
:101770005A1ED7F88430B2FBF3F2D7F8843002FB5C
:1017800003F3C7F88C30FB6D002B1ED0FB6DD7F830
:101790008C20D21AD7F888301344BA689A4202D201
:1017A0006FF01B0328E23B68013B1B784C2B06D1F2
:1017B000D7F88C10D7E90623C1E9002305E0D7F854
:1017C0008C10D7E90623C1E90023D7F88C20D7F87D
:1017D00088301344C7F88C30002387F86B301FE142
:1017E000002387F86B301BE100BFD7F88420D7F8BF
:1017F0008C3013445A1ED7F88430B2FBF3F2D7F87A
:10180000843002FB03F3C7F88C30FB6D002B0CD047
:10181000FB6DD7F88C20D21AD7F888301344BA68F9
:101820009A4202D26FF01B03E6E197F86330002B77
:1018300000F0A080D7F898301A1DC7F898201B68D0
:10184000FB66FB6D002B03D0D7F88C30FA6E1A6064
:101850007B6E5A1E7A66002B05DCF86E0FF03BF8A3
:101860000346002B01D0012300E0002387F853300A
:101870007B6803F00203002B14BF0123002387F8C9
:10188000523097F85330002B06D097F8523083F03F
:101890000103DBB2002B64D1FB6DD7F88C20D31A87
:1018A0009B08FB6497F85230002B05D0FB6C7F2B14
:1018B00002D96FF015039FE1D7F880300F2B02D9C2
:1018C0006FF0150398E1FB6D002B2DD0FB6CD9B2A6
:1018D00007F13002D7F8803013440A461A707B6F44
:1018E000D9B207F12002D7F8803013440A461A70A3
:1018F00097F85330002B13D007F13002D7F880301F
:1019000013441B7863F07F03D9B207F13002D7F894
:10191000803013440A461A70BB6F0133BB671BE06B
:10192000FB6F0133FB6717E097F85330002B03D0B0
:10193000BB680133BB600FE097F85B30002B03D02E
:10194000BB680233BB6007E0F86E0CF095F9024605
:10195000BB6813440233BB60D7F880300133C7F84B
:101960008030D7F88C300433C7F88C30002387F8E8
:10197000633055E0D7F88830042B13D1D7F898306E
:101980001A1DC7F898201B687B64FB6D002B03D0E1
:10199000D7F88C307A6C1A60D7F88C300433C7F8DB
:1019A0008C303DE0D7F88830042B13D1D7F898302D
:1019B0001A1DC7F898201B68BB64FB6D002B03D071
:1019C000D7F88C30BA6C1A60D7F88C300433C7F86B
:1019D0008C3025E0D7F88830082B1BD1D7F8983009
:1019E000073323F0070303F10802C7F89820D3E96F
:1019F0000023C7E90423FB6D002B05D0D7F88C101A
:101A0000D7E90423C1E90023D7F88C300833C7F89D
:101A10008C3005E06FF01503EEE000BF00E000BF82
:101A20003B6801333B603B681B78002B7FF471AD52
:101A300000BFFB6DD7F88C20D31AB3F5806F02D3AB
:101A40006FF01503D8E0FB6D002B07D1FB6DD7F8C5
:101A50008C20D21ABB681344083BCDE0FB6D0022FA
:101A60001A60FB6DD7F88C20D31A9B08DAB27B6D15
:101A70001A7097F85B30002B07D07B6D00225A70EC
:101A8000FB6FDAB27B6DDA7006E0FB6FDAB27B6D6A
:101A90005A707B6D0022DA70BB6FDAB27B6D9A7080
:101AA000BB6F002B32D000233B672AE007F13002E6
:101AB0003B6F13441B785BB2002B1EDA07F1300238
:101AC0003B6F13441B7803F07F0387F84330FB6DB3
:101AD000D7F88C20D31A0133BA689A4202D26FF039
:101AE0001B0389E0D7F88C3097F843201A70D7F899
:101AF0008C300133C7F88C3000E000BF3B6F0133FE
:101B00003B673A6FD7F880309A42CFD300233B67C8
:101B100069E0BB6F002B07D007F130023B6F134425
:101B20001B785BB2002B5ADB97F85B30002B10D090
:101B30000023C7F88830D7F88C3007F120013A6FBE
:101B40000A4412781A70D7F88C300133C7F88C30F9
:101B50001AE007F130023B6F13441B789B00FA6DCB
:101B600013441B68FB6607F130023B6F13441B787C
:101B70009B00FA6D134400221A60F86E0CF07CF89A
:101B800003460133C7F88830FB6DD7F88C20D21A92
:101B9000D7F8883013440133BA689A4202D26FF002
:101BA0001B0329E0D7F88C3007F130013A6F0A4463
:101BB00012781A70D7F88C300133C7F88C30D7F808
:101BC0008C30D7F88820F96E1846FEF759FCD7F804
:101BD0008C20D7F888301344C7F88C3000E000BF61
:101BE0003B6F01333B673A6FD7F880309A4290D30E
:101BF000FB6DD7F88C20D31A18469037BD4680BDB0
:101C000080B5B6B006AFF860B9607A603B60FB683B
:101C1000C7F89830FB68C7F89430D7F8C830DB08AD
:101C200087F8933097F8933003F0010387F89330E7
:101C3000FB68C7F88C30BB68002B04D1F8680EF045
:101C40006AFE034600E0BB68BB60D7F88C309B7827
:101C5000C7F88830D7F88830002B07D0D7F8C830BD
:101C600003F00103002B01D0012300E0002387F8DB
:101C7000873097F8873003F0010387F88730D7F86B
:101C80008C30DB78C7F88030D7F88030002B07D055
:101C9000D7F8C83003F00203002B01D0012300E085
:101CA000002387F87F3097F87F3003F0010387F82F
:101CB0007F3097F87F3083F00103DBB2002B10D028
:101CC00097F8873083F00103DBB2002B09D07B68E3
:101CD000002B04D07B683A68B968F8689847BB68FD
:101CE000CAE2D7F88C301B789B00BB67D7F89830D6
:101CF0005B687B67D7F89820BB6F1344C7F8B83090
:101D00000023C7F8B4307B68002B40F00181BB682A
:101D1000C7F8BC3097F88730002B40D00023C7F8B5
:101D2000B03035E0D7F8B8301B789B00D7F8942056
:101D300013441B68BB650023BA6D002178680EF060
:101D400022FE7865D7F8CC30002B11D0D7F8B4201C
:101D5000D7F8D0309A420BD2D7F8B4305A1CC7F813
:101D6000B4205B00D7F8CC2013447A6D92B21A806D
:101D7000D7F8BC207B6D1344C7F8BC30D7F8B83017
:101D80000133C7F8B830D7F8B0300133C7F8B030F6
:101D9000D7F8B020D7F888309A42C3D306E0D7F8F6
:101DA000B820D7F888301344C7F8B830D7F8C8300F
:101DB00003F00503002B0CBF0123002387F85330E9
:101DC0000023C7F8AC3099E0D7F8B8305A1CC7F8F0
:101DD000B8201B7887F85230D7F8B8305A1CC7F8AB
:101DE000B8201B7887F8513097F851309B00D7F80E
:101DF000942013441B68FB64F86C0EF06CFD0346E2
:101E000087F84B3097F89330002B2FD097F852304B
:101E10001946786F0EF04DFE0346002B26D00323A3
:101E2000012B1DD9012387F84A3097F84A3083F0F7
:101E30000103DBB2002B13D1C14B196897F8523064
:101E400004937B6F0393BF4B029300230193002302
:101E500000930023022200200EF01FFD00237B646C
:101E6000D7F8BC30023BC7F8BC3042E097F84B30A3
:101E7000002B12D0D7F8C83003F00103002B13D188
:101E800097F85330002B01D0022300E00123D7F84C
:101E9000BC20D31AC7F8BC302BE0D7F8C83003F009
:101EA0000203002B25D000E000BF0023FA6C0021C4
:101EB00078680EF068FD3864D7F8CC30002B11D06C
:101EC000D7F8B420D7F8D0309A420BD2D7F8B43034
:101ED0005A1CC7F8B4205B00D7F8CC2013443A6CE6
:101EE00092B21A803B6C013BD7F8BC201344C7F870
:101EF000BC30D7F8AC300133C7F8AC30D7F8AC20E1
:101F0000D7F880309A42FFF45FAFD7F8BC30B3E126
:101F100097F88730002B0BD0D7F8883087F8AB3094
:101F2000002387F8AA3007F12C03C7F8A4301EE07D
:101F3000D7F88830002B11D0D7F8C83003F004034D
:101F4000002B0BD0002387F8AB30D7F8883087F808
:101F5000AA3007F11C03C7F8A43008E0002387F873
:101F6000AB30002387F8AA300023C7F8A430D7F895
:101F7000A430002B07D0D7F88820D7F8B810D7F8AE
:101F8000A400FEF77DFAD7F8B820D7F888301344BC
:101F9000C7F8B8300023C7F8A03081E0D7F8B830D0
:101FA0005A1CC7F8B8201B7887F86530D7F8B830C6
:101FB0005A1CC7F8B8201B7887F8643097F864304B
:101FC0009B00D7F8942013441B683B66386E0EF0D4
:101FD00082FC034687F85F3097F89330002B08D0D7
:101FE00097F865301946786F0EF063FD0346002BB5
:101FF00050D197F85F30002B23D0D7F8C83003F0CA
:102000000103002B0BD097F8AB305A1C87F8AB209C
:10201000C0333B4497F8642003F8942C3BE0D7F896
:10202000C83003F00403002B35D097F8AA305A1CAF
:1020300087F8AA20C0333B4497F8642003F8A42C07
:1020400029E0D7F8C83003F00203002B0BD097F833
:10205000AB305A1C87F8AB20C0333B4497F8642060
:1020600003F8942C17E097F8AA305A1C87F8AA2096
:10207000C0333B4497F8652003F8A42C97F8AA30A6
:102080005A1C87F8AA20C0333B4497F8642003F811
:10209000A42C00E000BFD7F8A0300133C7F8A0306F
:1020A000D7F8A020D7F880309A42FFF477AFD7F85E
:1020B0008C301B7887F83C30D7F88C305A7897F8FA
:1020C000AB301344DBB287F83D30D7F8C83003F0AB
:1020D0000203002B04D197F8AA305B08DBB200E0C2
:1020E000002387F83F30D7F8C83003F00103002BF6
:1020F0000AD1D7F8C83003F00403002B02D097F8B8
:10210000AA3002E0002300E0002387F83E30D7F831
:102110008C2007F1180310681860D7F88C301A4625
:1021200007F13C03186810607B683A68B96FF8687B
:10213000984738673B6F002B06DA3B6F9CE000BF87
:10214000B8050020D8BC01003B6FC7F8BC30D7F8F9
:102150008C301A4607F118031868106097F8AA1017
:1021600007F11C007B683A68984738673B6F002B83
:1021700001DA3B6F80E0D7F8BC203B6F1344C7F80F
:10218000BC30BA6FD7F888301A44D7F880305B007B
:102190001344BA68D31AFB667B683A68F96ED7F8BD
:1021A000B800984738673B6F002B01DA3B6F63E05C
:1021B000D7F8BC203B6F1344C7F8BC300023C7F8E6
:1021C0009C304CE007F12C02D7F89C3013441B786C
:1021D000FB75FB7D9B00D7F8942013441B68BB66FE
:1021E000D7F8CC30002B0DD0D7F89C20D7F8D030C2
:1021F0009A4207D2D7F89C305B00D7F8CC20134422
:102200001B8800E00023A7F8663007F117007B6801
:102210003A680121984738673B6F002B01DA3B6F22
:102220002AE0D7F8BC203B6F1344C7F8BC30B7F89E
:102230006630BA6E396878680EF0A5FB38673B6F78
:10224000002B01DA3B6F17E0D7F8BC203B6F13443B
:10225000C7F8BC30D7F89C300133C7F89C3097F8EA
:10226000AB30D7F89C209A42ACD37B683A68002107
:1022700000209847D7F8BC301846C037BD4680BD0F
:1022800080B483B000AF7860034A7B68136000BFFE
:102290000C37BD4680BC7047BC05002080B500AF40
:1022A00002F00CFF0346024A9B58184680BD00BF4F
:1022B0000800000080B584B000AFF860B9607A60B3
:1022C0003B600EF068FC024602F0F8FE0346064949
:1022D0005A50FB683A687968B8689847FFF7DEFF9C
:1022E000034618460EF05EFC0800000080B59AB068
:1022F00000AFF860B9607A60FB681B8B03F00703DE
:102300007B6600233B66FB681B8B03F00803002BF6
:1023100014BF0123002387F85B3097F85B30002B54
:1023200012D0BB68012B07D1FB681B8B43F0100355
:102330009AB2FB681A830BE1FB681B8B43F0200306
:102340009AB2FB681A8303E107F11C0318460FF0E9
:10235000DEF90023FB65BB68022B03D1F8680FF0A0
:10236000C3FBB860BB68002B00F0F18000233B6624
:10237000BB68012B0AD1FB685B693B6607F11C0354
:102380003A6E1946F8680FF0E8FB22E0BB68032BB1
:1023900008D1FB681B691B68FB650621F8680FF014
:1023A00086FA16E0BB68042B08D1FB681B695B68E2
:1023B000FB650421F8680FF07AFA0AE0BB68052B88
:1023C00007D1FB681B699B68FB650521F8680FF066
:1023D0006EFAFB681B8B03F007037A6E9A420CD0EF
:1023E000FB68083318460FF0E9F9034683F0010350
:1023F000DBB2002B01D0012300E0002387F85A3024
:1024000097F85A3003F0010387F85A300023BB6075
:1024100097F85A30002B0DD107F11C0318460FF026
:10242000CDF9034683F00103DBB2002B02D1FB6D33
:10243000002B63D0FB681B8B43F008039BB27B65CA
:102440007B6D9AB2FB681A837B6D03F007037B6692
:10245000FB6814337A683A613B653B69FB64FB6C4B
:10246000BB64BB6C83F3118800BFBFF36F8F00BFE9
:1024700000BF00BF97F85A30002B04D03A6E796E37
:10248000F8680FF078FA07F11C0318460FF096F978
:10249000034683F00103DBB2002B06D007F11C01D9
:1024A0003B6E7A6EF8680FF0D1FAFB6D002B03D00B
:1024B000FB6D3249F8689847FB6814337B64EFF38F
:1024C00011833B643B6CFB632023BB63BB6B83F3D7
:1024D000128800BFBFF36F8F00BFFB6B7B617B6C0B
:1024E0007B6300BF7B6C3B6300BF7B697B60FB68E9
:1024F0001B8B23F008039AB2FB681A83FB681B8BC3
:1025000003F01003002B09D0FB681B8B23F0100392
:102510009AB2FB681A830123BB600EE0FB681B8B39
:1025200003F02003002B08D0FB681B8B23F0200353
:102530009AB2FB681A830223BB60FB681B8B03F013
:1025400007037B66BB68002B7FF403AF00E000BF8E
:10255000FB6814337A68BA61FB62BB69BB62BB6A11
:102560007B627B6A83F3118800BFBFF36F8F00BF6C
:1025700000BF00BF00BF6837BD4680BD911A010093
:1025800080B500AF02F09AFD0346024A9B581846F8
:1025900080BD00BF0800000080B485B000AF786047
:1025A0007B681B01044A1344FB60FB681846143720
:1025B000BD4680BC704700BF80B6010080B483B0C8
:1025C00000AF7860044A7B6852F8233018460C3715
:1025D000BD4680BC704700BF88D1010080B590B077
:1025E00002AF2D480FF083FC78632C4B1B78002B37
:1025F0002DD02B4B7B62EFF311833B623B6AFB6177
:102600002023BB61BB6983F3128800BFBFF36F8FC8
:1026100000BFFB69BB607B6A7B6100BF7B6A3B617B
:1026200000BFBB68FB600FF0BBFEFB687B601C4B10
:102630003B637B68FB62FB6ABB62BB6A83F3118806
:1026400000BFBFF36F8F00BF00BF00BF1FE0154B7F
:102650001B68002B1BD07B6B002B0FD147F6122081
:102660004FF000014FF000024FF00003CDE90023CE
:1026700002460B460C480FF0B8FD08E07B6B092BB7
:1026800005D109480FF0C4FD08480FF0E5FD00BF73
:102690003837BD4680BD00BF1C10002064150020E7
:1026A00030100020241000205008002014080020C2
:1026B00080B584B000AF1B4B00221A701A4B002269
:1026C0001A601A4B00221A60194BBB60B96819488E
:1026D00000F0B2F800F050FA174BFB6015E0012350
:1026E0007B600020FFF758FF0246FB689B1A1B1116
:1026F0001A467B6813447B607B68DBB21946F86836
:102700000FF010FEFB681033FB60FB680B4A93422E
:1027100034BF01230023DBB2002BE0D11037BD46CC
:1027200080BD00BF64150020201000201C10002078
:1027300040420F00E923010080B60100A0B601006D
:1027400080B586B000AF03460A46FB711346BB71E5
:1027500000237B6128480FF0CAFB0346002B01D001
:10276000002344E000233B61244BFB6024E0FB6832
:102770001B7B002B1AD00423BB60F8680FF077FD99
:10278000F8680FF08AFD0346002B08D1FB685B68F0
:102790001B68BA681946F8680FF04DFF06E0012281
:1027A0003B6902FA03F37A6913437B613B690133A6
:1027B0003B61FB681033FB60FB68114A934234BFF6
:1027C00001230023DBB2002BD1D1FB79002B0DD0EC
:1027D00009E078690FF00FFE7861BB79002B02D019
:1027E0000A200FF01AFC7B69002BF2D17B69184696
:1027F0001837BD4680BD00BF1810002080B601000C
:10280000A0B6010080B582B000AF7860074A7B684F
:1028100013607B68002B06D0054B1B68092B02DD7B
:1028200004480FF019FD0837BD4680BD2410002074
:102830001C1000201408002080B582B000AF786022
:1028400039607B68002B02D16FF0150309E0074A5D
:102850007B681360064A3B681360386801F016F81D
:10286000002318460837BD4680BD00BFC4050020C0
:102870002810002080B582B000AF174B1B78002BCA
:1028800026D100210120FFF75BFF144B7B600BE09A
:1028900078680FF056FD0346002B02D078680FF0E1
:1028A00034FD7B6810337B607B680D4A934234BFF4
:1028B00001230023DBB2002BEAD100BF0FF070FD33
:1028C0000346002BFAD100BF034B01221A7000E02F
:1028D00000BF0837BD4680BD6415002080B60100EA
:1028E000A0B6010080B584B000AF7860124BFB60E9
:1028F00013E0F8680FF025FD0346002B0AD0796835
:10290000F8680FF0B5FD0346002B03D07968F8682E
:102910000FF0D8FCFB681033FB60FB68074A93425A
:1029200034BF01230023DBB2002BE2D100BF00BF84
:102930001037BD4680BD00BF80B60100A0B60100C3
:1029400080B582B000AF00F0FBF838600E4B7B60C2
:102950000CE078680FF0F5FC0346002B03D03968D3
:1029600078680FF0BEFC7B6810337B607B68074A99
:10297000934234BF01230023DBB2002BE9D100BF17
:1029800000BF0837BD4680BD80B60100A0B601007B
:1029900080B588B004AF002112480FF0C2FA034698
:1029A000FB600323012B19D90123FB72FB7A83F00F
:1029B0000103DBB2002B11D10B4B1968FB680393A9
:1029C0000A4B029300230193002300930023022269
:1029D00000200FF0C0FA00237B6000BF00BF10375B
:1029E000BD4680BD2C100020C0050020D4BD0100D4
:1029F00080B500AF074B1B7883F00103DBB2002BDF
:102A000002D005480FF028FC024B01221A7000BFCB
:102A100080BD00BF65150020140800202DE9B043DB
:102A200084B000AF4FF000024FF00003C7E900236D
:102A3000304B1B7883F00103DBB2002B01D0002365
:102A400052E03B46184600F0D9F8F860FB68002BCE
:102A500008D0F868FFF746FFF86800F0E9F8264864
:102A60000FF052FA00F078F80346FB720FF015FDF4
:102A70000346BB72FB7A002B02D1BB7A002B1BD022
:102A80000FF02EFB02460B46104619461B4BD3E9AE
:102A90000023841A61EB030540F2E9339C4275F18F
:102AA000000309D3FB7A002B01D0FFF749FFBB7A63
:102AB000002B01D0FFF76CFF104BD3E9002312F578
:102AC0007A7843F100090D4BC3E90089FB68002BBC
:102AD00006D000F0BDF80346002B01D0012300E032
:102AE000002303F00103DBB218461037BD46BDE8F2
:102AF000B08300BF651500201C100020880800204E
:102B000080B582B000AF0346FB7109480FF0EFF9C2
:102B1000FB79002B02D007480FF0F6F906480FF0BA
:102B200077FB06480FF098FB00BF0837BD4680BD15
:102B3000201000201C100020500800201408002045
:102B400080B500AF002103480FF0EBF903461846AB
:102B500080BD00BF2010002080B400AF054B1B6873
:102B6000002BCCBF01230023DBB21846BD4680BC3E
:102B7000704700BF2010002080B500AF0449054811
:102B80000EF05EF8044B034A1A6000BF80BD00BF20
:102B900098D101008C0700203010002080B582B051
:102BA00000AF7860796804480FF07EFC0346184651
:102BB0000837BD4680BD00BF8C07002080B582B0BD
:102BC00000AF7860064B1B68984702467B689A60A6
:102BD000796804480FF07CFC00BF0837BD4680BD13
:102BE000C40500208C07002080B500AF02480EF01D
:102BF00029FC0346184680BD8C07002080B584B0B0
:102C000000AF7860074A084BD31ADB08074AA2FBDB
:102C10000323FB60FFF7E8FF034618461037BD4665
:102C200080BD00BFC40700208C07002025499224E6
:102C300080B582B000AF7860044B1B687968184695
:102C40000FF059FC00BF0837BD4680BD3010002092
:102C500080B584B000AF0023FB60084A084BD31A4C
:102C6000DB08084AA2FB0323BB6007480FF051FCB6
:102C7000034618461037BD4680BD00BFC40700207C
:102C80008C070020254992248C07002080B584B051
:102C900000AF03463960FB710C4BFB6008E0FB7929
:102CA0003A681946F8680FF058FBFB681033FB6070
:102CB000FB68074A934234BF01230023DBB2002B99
:102CC000EDD100BF00BF1037BD4680BD80B601000A
:102CD000A0B6010080B582B000AF786003480FF065
:102CE000BBFA00BF0837BD4680BD00BF14080020F6
:102CF00080B58AB000AFF860B9607A604FF0FF33FA
:102D0000FB610023FB7600210020FFF719FD7862AC
:102D10007B6A002B06D040F21B624FF00003C7E92C
:102D2000042305E04FF0FF324FF0FF33C7E90423DF
:102D3000002387F82330FFF723FC03461846FFF7EC
:102D400061FD7B6A002B0CD0786A0FF054FB78622F
:102D50007B6A002B05D14FF0FF324FF0FF33C7E9FC
:102D600004230FF01DFB034683F00103DBB2002BAD
:102D700010D097F82330002B06D0002387F823309B
:102D800000210020FFF782FFD7E9042303480FF05A
:102D900053FAD6E7012387F82330D2E7140800203E
:102DA00080B588B008AF00221149124816F039FDED
:102DB0004FF000024FF00003CDE9062300230493F7
:102DC0000E23039300230293002301930023009317
:102DD000094B4FF48052094909480FF0CAF90949D3
:102DE00007480FF0F4F900231846BD4680BD00BF28
:102DF000D52C000050080020F12C00007015002098
:102E0000900C0020FCBD010080B483B000AF78605E
:102E10007B68044A9B1ADB0818460C37BD4680BC09
:102E2000704700BF10B6010080B500AF0248FFF741
:102E3000EBFF0346184680BD80B6010080B485B024
:102E400000AF03463960FB71184BFB601BE0FB6869
:102E50009B689B68DAB2FB689B681B68DBB2134413
:102E6000FB72FA79FB7A9A420AD2FB689B689B68EC
:102E7000DBB2FA79D31ADAB23B681A70FB680FE05A
:102E8000FB681833FB60FB68094A934234BF012397
:102E90000023DBB2002BDAD13B6800221A7000233A
:102EA00018461437BD4680BC704700BFA0B601006D
:102EB000A0B6010080B58AB002AF03463960FB714D
:102EC0001C4BDB693B61FB793B733B689BB2FB812D
:102ED000FB6807F11402194616480FF0D0FC0346B0
:102EE00083F00103DBB2002B1FD007F10B02FB794B
:102EF00011461846FFF7A2FFF861FB7A18463B68B7
:102F00009AB2796907F1100300930B460146F869FC
:102F10000FF03FFBB861BB69002B01DA002305E02D
:102F20007B69194603480FF02DFD7B691846203751
:102F3000BD4680BD3410002080B582B000AF7860FF
:102F400039607B68DBB218460FF0F6FA0346002BB7
:102F50000DD078680FF04BFB02463B68934204D2D9
:102F6000084A3B6852F8333008E0002306E07B68EB
:102F7000DBB239681846FFF79DFF0346184608374D
:102F8000BD4680BD10B6010080B58CB004AFF860BE
:102F9000B9607A603B607B687B613B68BB61002302
:102FA000FB617B68002B01D00A4A00E0002207F198
:102FB00014013B6B0293FB6A0193BB6A00930B46BF
:102FC000B968F868FEF71CFE034618462037BD4670
:102FD00080BD00BFB729010080B483B000AF786026
:102FE0007B68044A9B1ADB0818460C37BD4680BC38
:102FF000704700BF10B6010080B594B006AFF8600E
:10300000B9607A603B60BB68BB61BB68C3F34A23AD
:103010009BB23B633B6B002B61DD0A23FB62396B88
:103020000423029307F110030193FB6A009300232A
:1030300000227868FFF7A8FFB862BB6AB3F5006F9B
:1030400024D37B687B620323012B56D9012387F8A5
:10305000233097F8233083F00103DBB2002B4CD1EF
:10306000274B19687B6A5B6840F2FF7204920393F6
:10307000244B029300230193002300930023022298
:1030800000200FF0C5FC0023FB6136E0BB6AC3F3F0
:103090000A039AB2BB6962F35323BB61B8690FF0AC
:1030A000D5FC03461846FFF779FD78637B6B002B50
:1030B0001DD0396B7B6B03F11002BB69C3F34A234C
:1030C0009BB218460423029307F110030193FB6A95
:1030D000009303467868FFF757FFB86207E0B869C6
:1030E0000FF0B4FC03461846FFF758FD78633B68C1
:1030F000BA69F968786B0FF002FD3837BD4680BDBC
:10310000C80500201CBE010080B590B004AFB960B6
:103110007B600346FB731346BB733B6C002B0BD0E9
:103120007B6C3B613B6900933B6CFA6B1021002088
:10313000FEF78AF9786201E000237B627B6AB3F5CF
:10314000006F1FD30323012B40F291800123FB77F3
:10315000FB7F83F00103DBB2002B40F08880454BFE
:10316000196840F2FF730393434B029300230193CA
:10317000002300930023022200200FF049FC0023CB
:10318000BB6174E07A6ABB6B1344173323F0070307
:1031900003339B083B623B7D23F001033B753B7D82
:1031A00023F002033B753B7D23F004033B75FB7B5F
:1031B00003F00703DAB23B7D62F3C5033B75BB7BCB
:1031C00003F00703DAB2BB8A62F38813BB827B6A1F
:1031D000C3F30A039AB27B6962F353237B61BB6B2F
:1031E000C3F30B039AB2FB8A62F30F13FB820FF057
:1031F000DBFB0346002B0DD07B6A0733DB08DB00CB
:10320000ADEB030D04AB0733DB08DB00FB620023EF
:10321000BB620BE0386AFFF7C1FCB862BB6A002BE7
:1032200002D0BB6A103300E00023FB62FB6A002B74
:103230000BD03B6C002B08D0796A7B6C00933B6C05
:10324000FA6BF86AFEF700F978620FF0ADFB0346FF
:10325000002B06D07B68FA6A7969B8680FF027FC02
:1032600005E07B687A69B968B86A0FF048FC3037C6
:10327000BD4680BDC80500205CBE010080B584B09D
:1032800000AFF860B9607A607B68BA680449F86892
:103290000DF0A0FB034618461037BD4680BD00BFA9
:1032A000D95900000EB480B585B000AF7860002316
:1032B000FB6007F12003BB60BB68FA6979680648C8
:1032C00002F08AFBF860FB6818461437BD46BDE87B
:1032D000804003B0704700BF332D010080B5A2B01D
:1032E00004AFF860B9607A60BB6803F04403002B58
:1032F00014BF0123002387F8633097F8633083F00D
:103300000103DBB2002B06D07A683849F868FFF772
:10331000C9FF786765E0364B1B68002B5FD0354BE3
:103320001B687A68B2FBF3F37B60314B1B687A68E9
:10333000B2FBF3F3FB652E4B1A687B68B3FBF2F12B
:1033400001FB02F29B1ABB65BB6D4FF47A7203FB63
:1033500002F2274B1B68B2FBF3F37B65BB6D4FF4A6
:103360007A7203FB02F2224B1B68796D01FB03F3B7
:10337000D31A4FF47A7203FB02F21D4B1B68B2FBA7
:10338000F3F33B67FB6DFB66FB6E1B4AA2FB03235B
:10339000DB0ABB66BB6E4FF4616202FB03F3FA6E9D
:1033A000D31AFB66FB6E154AA2FB03235B097B66FF
:1033B0007A6E13461B019B1A9B001A46FB6E9B1AE2
:1033C000FB663B6F02937B6D0193FB6E00937B6EFC
:1033D000BA6E0B49F868FFF765FF786701E00023D4
:1033E0007B677B6F18467837BD4680BDB4BE010051
:1033F0005410002058100020C5B3A29189888888F5
:10340000C0BE010080B586B000AFF8607B600B469F
:10341000FB721346BB72FB7A002B14D0BB7A002BD5
:103420000AD00B4A7B6852F82330002B04D0084A9C
:103430007B6852F8233000E0064B7B617A690649CD
:10344000F868FFF72FFF00BF1837BD4680BD00BFEB
:10345000C0D10100DCBE0100E4BE010080B584B033
:1034600000AF7860084611461A460346FB700B46CB
:10347000BB7013467B700023FB60FB78002B0CD0E5
:10348000194AFB6A52F823301A4618497868FFF740
:1034900009FF0246FB681344FB60FB69002B08D060
:1034A000FA6913497868FFF7FDFE0246FB6813448A
:1034B000FB603B6A002B11D0BB78002B04D0FB6A69
:1034C000042B01D10B4B00E00B4B3A6A194678688C
:1034D000FFF7E8FE0246FB681344FB60FB681846F2
:1034E0001037BD4680BD00BFACD10100E8BE010071
:1034F000F0BE0100F4BE0100F8BE010080B582B04C
:1035000000AF786039603B6803F01003002B0ED1E8
:103510003B6803F02003002B04D007497868FFF7CD
:10352000C1FE05E005497868FFF7BCFE00E000BF7A
:103530000837BD4680BD00BF00BF010004BF0100C9
:1035400080B588B000AFF860B9607A603B60B96A56
:10355000F868FFF7D3FF0023FB6106E03749F868FE
:10356000FFF7A0FEFB690133FB61FA693B689A42F1
:10357000F4DB0023BB6120E0BB69002B08DDBB69E5
:1035800003F00703002B03D12C49F868FFF78AFEEC
:10359000BB697A689A4209D9BB69BA6813441B7837
:1035A0001A462749F868FFF77DFE03E02549F868C9
:1035B000FFF778FEBB690133BB61BB690F2BDBDD15
:1035C0002149F868FFF76EFE00237B612DE07B69DF
:1035D000002B08DD7B6903F00703002B03D117499B
:1035E000F868FFF75FFE7B697A689A4216D97B69B3
:1035F000BA6813441B78FB74FB7C8033134A134472
:103600001B7803F09703002B01D0FB7C00E02E23F6
:103610001A460F49F868FFF745FE03E00749F868C6
:10362000FFF740FE7B6901337B617B690F2BCEDDA9
:1036300000BF00BF2037BD4680BD00BF08BF0100EE
:103640000CBF010014BF010018BF01007CD50100B0
:103650001CBF010090B591B006AFF860B9603B6047
:103660001346FB7100237B62BB6803F00203002B4F
:1036700014BF0123002387F82330BB6887F822306A
:1036800097F8223003F0010387F82230BB6803F07B
:103690000803002B14BF0123002387F821300023E7
:1036A000FB75002387F82030BB6803F48073002B80
:1036B00014BF01230023FB770EF037FFB861BB690D
:1036C000002B09D0BA692349F868FFF7EBFD0346E0
:1036D0001A467B6A13447B6297F82330002B09D08B
:1036E0003A68B968F868FFF7F9FD03461A467B6A3D
:1036F00013447B6297F8482097F822301946F868FF
:103700000FF04FFBFC7DFB7F002B01D0002300E07E
:10371000FB6B97F84820F87997F82110059297F8F5
:10372000442004923A6C03920293BB6B019397F886
:103730002030009323460246F868FFF78FFE0346C9
:103740001A467B6A13447B627B6A18462C37BD4657
:1037500090BD00BF28BF010080B58EB006AFF860F5
:10376000B9607A603B6097F83030002B0CBF0123C2
:103770000023FB75FB7D83F00103DBB2002B15D02A
:1037800097F83030049397F82C300393BB6A029378
:103790003B6801937B680093BB680022396CF86832
:1037A000FFF758FFF8611A4BBB6108E00023FB618B
:1037B0003B68012B01D1164B00E0164BBB617B6BC4
:1037C000002B05D07A6BF968B869FFF757FD3861AF
:1037D000FB6B002B08D0FA693B6C00931346FA6B25
:1037E000B96BF8680FF0FFFAFB7D83F00103DBB2E1
:1037F000002B06D097F830301A46396CF8680FF075
:1038000016FBF8680FF07CFA00BF2037BD4680BD7C
:10381000332D0100792D010080B586B000AF7860AE
:1038200039607B681B687B613B6842F20F72934290
:1038300028BF13463B6007F108003B68104A05218A
:103840000AF0B4FA38617B685B685B680B220D494B
:1038500078690FF037FA3A697B685B685B6807F153
:10386000080178690FF02EFA7B685B685B681B22A1
:10387000054978690FF026FA00BF1837BD4680BDAC
:1038800040BF0100D4D10100E0D1010080B483B079
:1038900000AF78600B4B01221A6007E07B685B0881
:1038A0007B60084B1B685B00064A13607B68064A16
:1038B0009342F3D8054A7B68136000BF0C37BD46BE
:1038C00080BC70475810002040420F005410002068
:1038D00080B400AF024B1B781846BD4680BC7047D1
:1038E0006615002080B400AF024B1B781846BD4619
:1038F00080BC70476615002080B582B000AF78604C
:103900007B68002B03D10A4B00221A700CE0FFF7F2
:10391000DFFF0346002B04D041F288300FF070FB2C
:1039200002E005200FF0FBFA00BF0837BD4680BD5E
:103930006715002080B582B000AF78600E4B012281
:103940001A70FFF7CFFF0346002B10D005E07B680D
:103950005A1E7A601846FFF7CFFF002005F064F882
:103960000346002B03D0044B1B78002BEFD100BF84
:103970000837BD4680BD00BF6715002080B588B000
:1039800000AFF860B9607A600023FB610423BB617B
:10399000FFF79EFF034683F00103DBB2002B0DD03F
:1039A00014F081FC7861BA68F968002004F0C0FF67
:1039B0000346FB61786914F08DFC06E0BA68F9688B
:1039C000002004F0B5FF0346FB61FB69002B03D028
:1039D000B869FFF7AFFF09E00F4B1B78002B05D04C
:1039E000BB69013BBB61B869FFF786FFFB69002B30
:1039F00003D1094B1B78002BCAD1FB69002B03D1E3
:103A0000054B1B78002B01D1BB6800E00023184652
:103A10002037BD4680BD00BF6715002080B584B04B
:103A200000AFF860B9607A60044B7A68B968F868EA
:103A30009847034618461037BD4680BD7D390000C3
:103A400080B483B000AF7860054B01221A70054B3B
:103A5000054A1A6000BF0C37BD4680BC704700BFE6
:103A600067150020741000205C10002080B582B023
:103A700000AF7860044B01221A7004480FF01DFB60
:103A800000BF0837BD4680BD66150020FCD101008F
:103A900080B582B000AF78603960396803480FF0B4
:103AA00017FB00BF0837BD4680BD00BFFCD1010039
:103AB00080B584B000AF786039600FF0E3FAF86049
:103AC000074B1B681846FEF779FDB8603968BB687C
:103AD000FA680448984700BF1037BD4680BD00BF54
:103AE00088100020FCD1010080B483B000AF786062
:103AF0003960044A3B681360002318460C37BD4602
:103B000080BC70478810002080B588B000AFF86096
:103B1000B9607A607B68BB61BB695B687B61154B90
:103B20003B6138690FF07BFB0346002B01DAB96873
:103B30001AE00023FB610AE0FA68FB6913441B7872
:103B4000194638690FF05CFBFB690133FB61FA69C8
:103B5000BB689A42F0D300BF4FF020024FF0000341
:103B600038690FF066FBB9680B4618462037BD462A
:103B700080BD00BF30AD010080B586B000AF786079
:103B80007B685B681B683B61064BFB603B695B685D
:103B90007B613B691B68396918460FF0DDFA1837FD
:103BA000BD4680BD30AD010080B586B000AF786005
:103BB0007B685B681B687B617B695B683B61074B6B
:103BC000FB603B6901221A757B691B6818460FF080
:103BD000ECFA00BF1837BD4680BD00BF30AD010014
:103BE00080B483B000AF78607B68044A1A60002319
:103BF00018460C37BD4680BC704700BF5CD2010040
:103C000080B500AF04480CF0B4FF04480CF0B1FFDD
:103C10000023184680BD00BF94BF0100CCBF010047
:103C200080B500AF044A054BD31A1A460021034859
:103C30000FF052FB80BD00BF6C1500204008002033
:103C400080B500AF084A094BD31A1A4608490748FD
:103C50000FF051FB074A084BD31A1A46074906488A
:103C60000FF049FB00BF80BD3C080020200500206C
:103C7000C4D701002005002018050020BCD7010092
:103C800080B590B006AF78600323002B20D00123CD
:103C9000BB73BB7B83F00103DBB2002B18D13E4B1F
:103CA00018687B681B687A6852687968896805912A
:103CB00004920393394B0293002301930023009352
:103CC00000230122014600200FF024FB00233B616A
:103CD0000323002B20D00123FB73FB7B83F0010324
:103CE000DBB2002B18D12C4B18687B68DB687A6834
:103CF000126979684969059104920393284B0293EC
:103D00000023019300230093002301220146002099
:103D10000FF000FB00233B620323002B19D001238B
:103D2000FB77FB7F83F00103DBB2002B11D11A4B31
:103D300019687B68DB6903931A4B02930023019394
:103D4000002300930023012200200FF0E3FA002358
:103D5000BB610323002B1AD00123FB75FB7D83F08D
:103D60000103DBB2002B12D10B4B19687B689B69F6
:103D700003930D4B02930023019300230093002330
:103D8000012200200FF0C6FA00237B6200BF00BFB3
:103D90002837BD4680BD00BFD4050020FCBF010010
:103DA0002CC001005CC001006CC0010080B58AB06D
:103DB00004AF786039603B68002B02D03868FFF7A9
:103DC0005FFF7B68012B21D1EFF30583BB60BB68EC
:103DD000103B7B610323002B18D00123FB74FB7C79
:103DE00083F00103DBB2002B10D10C4B19687B6907
:103DF00003930B4B029300230193002300930023B2
:103E0000012200200FF086FA0023FB6039687868F1
:103E100004F0C8FE00BF1837BD4680BDD4050020A1
:103E20009CC0010030BFFFF7FDBF00BF80B400AFF2
:103E3000034A044B13441846BD4680BC704700BF7C
:103E4000000000000400000080B582B000AF786080
:103E5000094B1A4609497868FCF712FB064A7B6849
:103E600013447B60064B1A460021786809F0ACFECB
:103E700000BF0837BD4680BD00000000E1B601006C
:103E80000400000080B59AB004AFF860B9607A60B1
:103E900010237B656FF015033B650323002B18D0BF
:103EA000012387F84F3097F84F3083F00103DBB2DE
:103EB000002B0ED18C4B19688C4B0293002301937D
:103EC000002300930023012200200FF07DFA00233D
:103ED000BB64874B9B6A03F01003002B1DD011239A
:103EE0007B650323002B18D0012387F8473097F810
:103EF000473083F00103DBB2002B0ED17A4B1968F7
:103F00007C4B0293002301930023009300230122A2
:103F100000200FF059FA00233B64754B9B6A03F0B5
:103F20000803002B1DD012237B650323002B18D020
:103F3000012387F83F3097F83F3083F00103DBB26D
:103F4000002B0ED1684B19686B4B02930023019331
:103F5000002300930023012200200FF035FA0023F4
:103F6000BB63634B9B6A03F00203002B4FD0132308
:103F70007B650323002B18D0012387F8373097F88F
:103F8000373083F00103DBB2002B0ED1564B19689A
:103F90005A4B029300230193002300930023012234
:103FA00000200FF011FA00233B63514B5B6BFB6267
:103FB0004F4B9B6A03F08003002B28D0FB6A3B65C4
:103FC0000323002B1AD0012387F82B3097F82B30CE
:103FD00083F00103DBB2002B10D1434B19683B6D1A
:103FE0000393474B02930023019300230093002384
:103FF000012200200FF0E8F900237B62BB68002B50
:1040000005D03B4B9B6A3A4A23F080039362384BBE
:104010009B6A03F00103002B1DD014237B6503234F
:10402000002B18D0012387F8233097F8233083F032
:104030000103DBB2002B0ED12B4B1968314B0293DD
:1040400000230193002300930023012200200FF09E
:10405000BBF90023FB61264B9B6A03F02003002B76
:104060001BD015237B650323002B16D00123FB7681
:10407000FB7E83F00103DBB2002B0ED11A4B1968D3
:10408000214B02930023019300230093002301227C
:1040900000200FF099F900237B61154B9B6A03F018
:1040A0001003002B01D1124B9B6A114B9B6A03F04A
:1040B0002003002B05D00E4B5B6A0D4A23F40053FE
:1040C00053620B4B9B6A0A4A43F0FF039362012140
:1040D000F8680FF0A1F903461A467B681A707B6DE9
:1040E00018465837BD4680BDD8050020B0C0010035
:1040F00000ED00E0C8C00100FCC0010010C10100DB
:1041000028C1010040C1010060C1010080B59AB022
:1041100004AFF860B9607A6016237B650323002B37
:1041200018D0012387F8533097F8533083F00103F8
:10413000DBB2002B0ED1934B1968934B02930023F3
:104140000193002300930023012200200FF03CF98B
:104150000023FB648D4B9B6A03F48053002B1DD01E
:1041600017237B650323002B18D0012387F84B30DE
:1041700097F84B3083F00103DBB2002B0ED1814B5B
:104180001968834B029300230193002300930023BB
:10419000012200200FF018F900237B647B4B9B6AFF
:1041A00003F40063002B1DD018237B650323002B31
:1041B00018D0012387F8433097F8433083F0010388
:1041C000DBB2002B0ED16F4B1968724B02930023A8
:1041D0000193002300930023012200200FF0F4F844
:1041E0000023FB63694B9B6A03F40073002B4DD0E3
:1041F00019237B650323002B18D0012387F83B305C
:1042000097F83B3083F00103DBB2002B0ED15D4BFE
:104210001968614B0293002301930023009300234C
:10422000012200200FF0D0F800237B63574B9B6BDB
:104230003B63564B9B6A03F40043002B26D00323B9
:10424000002B1AD0012387F82F3097F82F3083F0F6
:104250000103DBB2002B10D14A4B19683B6B03936F
:104260004E4B02930023019300230093002301226D
:1042700000200FF0A9F80023BB62BB68002B05D01B
:10428000424B9B6A414A23F4004393623F4B9B6A33
:1042900003F48063002B1DD01A237B650323002BBE
:1042A00018D0012387F8273097F8273083F00103CF
:1042B000DBB2002B0ED1334B1968394B029300232C
:1042C0000193002300930023012200200FF07CF8CB
:1042D00000233B622D4B9B6A03F48073002B1CD0A0
:1042E0001B237B650323002B39D00123FB75FB7D4A
:1042F00083F00103DBB2002B31D1224B1968294B2B
:104300000293002301930023009300230122002045
:104310000FF05AF800233B6121E01C4B9B6A03F429
:104320000053002B1BD01C237B650323002B16D0CE
:104330000123FB77FB7F83F00103DBB2002B0ED15F
:10434000104B1968184B029300230193002300932C
:104350000023012200200FF037F80023BB610B4B34
:104360009B6A0A4A43F47F4393620121F8680FF085
:1043700053F803461A467B681A707B6D1846583707
:10438000BD4680BDD805002090C1010000ED00E0D1
:10439000A8C10100FCC00100BCC10100D8C10100DE
:1043A000F0C101000CC2010060C1010080B598B0ED
:1043B00004AF78601D23FB640323002B18D0012376
:1043C00087F84B3097F84B3083F00103DBB2002BBA
:1043D0000ED18B4B19688B4B029300230193002362
:1043E00000930023012200200EF0EEFF00237B64E7
:1043F000854B9B6A03F00073002B1DD01E23FB64CA
:104400000323002B18D0012387F8433097F843305B
:1044100083F00103DBB2002B0ED1794B19687B4B83
:104420000293002301930023009300230122002024
:104430000EF0CAFF0023FB63734B9B6A03F080738B
:10444000002B1DD01F23FB640323002B18D0012356
:1044500087F83B3097F83B3083F00103DBB2002B49
:104460000ED1674B19686A4B029300230193002316
:1044700000930023012200200EF0A6FF00237B639F
:10448000614B9B6A03F48013002B1FD02023FB6435
:104490000323002B18D0012387F8333097F83330EB
:1044A00083F00103DBB2002B0ED1554B1968594B39
:1044B0000293002301930023009300230122002094
:1044C0000EF082FF0023FB620223FB644E4B9B6ACB
:1044D00003F40023002B1DD02123FB640323002BB6
:1044E00018D0012387F82B3097F82B3083F0010385
:1044F000DBB2002B0ED1424B1968474B02930023CD
:104500000193002300930023012200200EF05CFFA2
:1045100000237B623C4B9B6A03F48023002B1DD05D
:104520002223FB640323002B18D0012387F82330B8
:1045300097F8233083F00103DBB2002B0ED1304B10
:104540001968364B02930023019300230093002344
:10455000012200200EF038FF0023FB612A4B9B6AEA
:1045600003F40033002B1BD02323FB640323002B15
:1045700016D00123FB76FB7E83F00103DBB2002B18
:104580000ED11F4B1968264B029300230193002381
:1045900000930023012200200EF016FF00237B6110
:1045A000194B9B6A03F48033002B1BD02423FB643C
:1045B0000323002B16D00123FB74FB7C83F0010343
:1045C000DBB2002B0ED10E4B1968164B0293002361
:1045D0000193002300930023012200200EF0F4FE3B
:1045E0000023FB60084B9B6A074A6FEA03436FEAAC
:1045F00013439362FB6C18465037BD4680BD00BF25
:10460000D805002024C2010000ED00E03CC20100FA
:1046100050C201006CC2010098C20100B8C2010082
:10462000E0C20100FCC2010080B588B004AF786030
:1046300039603B6800221A700323002B17D0012336
:10464000FB73FB7B83F00103DBB2002B0FD10A4B22
:1046500019680A4B0293002301930023009300235F
:10466000012200200EF0B0FE0023BB6000BF00BF9F
:104670001037BD4680BD00BFD805002028C301000B
:1046800080B485B000AF78607B689B69FB601B4B92
:104690005B691A4A43F480735361BFF34F8F00BFC5
:1046A00000BF00BFBFF36F8F00BF00BF00BFFB683C
:1046B00033F8023C7B81114B5B69104A23F4807311
:1046C0005361BFF34F8F00BF00BF00BFBFF36F8FB9
:1046D00000BF00BF00BF7B8903F47F43B3F55F4F8A
:1046E00005D17B89DBB2022B01D1012300E000233D
:1046F00018461437BD4680BC704700BF00ED00E08F
:1047000080B592B004AF786039600023FB62032368
:10471000002B18D0012387F8333097F8333083F01B
:104720000103DBB2002B0ED1634B1968634B02937C
:1047300000230193002300930023012200200EF0A8
:1047400043FE00237B633B6800221A705C4BDB6AEC
:1047500003F00203002B1CD00323002B00F0A780E2
:104760000123FB74FB7C83F00103DBB2002B40F0E0
:104770009E80514B1968534B0293002301930023F1
:1047800000930023012200200EF01EFE0023FB6098
:104790008DE04B4BDB6A002B1BDA0323002B00F070
:1047A00086800123FB76FB7E83F00103DBB2002BC6
:1047B0007DD1414B1968444B0293002301930023A0
:1047C00000930023012200200EF0FEFD00237B61F8
:1047D0006DE03B4BDB6A03F08043002B67D0032383
:1047E000002B18D0012387F82B3097F82B3083F05B
:1047F0000103DBB2002B0ED12F4B1968334B029310
:1048000000230193002300930023012200200EF0D7
:10481000DBFD00237B627868FFF732FF0346002B45
:1048200022D00323002B1BD0012387F8233097F8D5
:10483000233083F00103DBB2002B11D11E4B19682A
:104840007B681B680393224B029300230193002390
:1048500000930023012200200EF0B6FD0023FB612F
:104860007B681B68FB6222E0154B9B6ADBB2002B66
:1048700006D03A6801217868FFF704FBF86216E079
:104880000F4B9B6A03F47F43002B07D03A6801214A
:104890007868FFF73BFC0346FB6208E0084B9B6A25
:1048A000B3F5803F03D37868FFF780FDF862FB6AB9
:1048B00018463837BD4680BDD80500204CC30100DE
:1048C00000ED00E064C3010088C3010098C301004B
:1048D000B8C3010080B58AB006AF786039600323A1
:1048E000002B21D00123FB73FB7B83F00103DBB2A0
:1048F000002B19D10E4B19683B680F2B01DC0D4BB7
:1049000000E00D4B3A68103A049203930B4B02936C
:1049100000230193002300930023012200200EF0C6
:1049200053FD0023BB6000BF00BF1037BD4680BDF4
:10493000D8050020D4C30100ECC3010008C4010065
:1049400080B586B000AFF860B9607A6000237B6103
:104950007B6800221A70BB68033B092B35D801A283
:1049600052F823F08D49000099490000A749000042
:10497000B7490000CB490000CB490000CB490000FB
:10498000CB490000CB490000C14900007968F868B4
:10499000FFF7B6FE78611DE07A680021F868FFF73E
:1049A00071FA786116E07A680021F868FFF7AEFBCB
:1049B00003467B610EE0F868FFF7F8FC786109E0D8
:1049C0007968F868FFF730FE04E0B968F868FFF727
:1049D00081FF00BF7B681B7883F00103DBB2002BF3
:1049E00003D0B968F8680EF00DFD7B6918461837DA
:1049F000BD4680BD80B58CB004AFF860B9607A6008
:104A00003B600023FB760023FB613B6800221A70A9
:104A10007B6803F07F43B3F17F4F01D0002339E07F
:104A20007B6803F00803002B20D07B6803F00403AD
:104A3000002B1BD10323002B16D00123BB76BB7E9A
:104A400083F00103DBB2002B0ED1144B1968144B19
:104A500002930023019300230093002301220020EE
:104A60000EF0B2FC00237B61002313E0FB7E83F099
:104A70000103DBB2002B0CD07B6803F00803002B92
:104A800002D0BB68FB6104E0FB68FB613B6801226C
:104A90001A70FB6918462037BD4680BDD805002036
:104AA0001CC4010080B594B000AFF860B9607A60B2
:104AB0003B600023FB64294B5B68C3F30803BB64C2
:104AC0000023BB63BB6B7B637B6B83F3118800BFED
:104AD000BFF36F8F00BF00BF07F132037A68B96878
:104AE000F868FFF787FF78647B6C3B647B68FB6347
:104AF00000BF07F133031A46B96C786CFFF720FF4B
:104B0000F86497F83330002B23D107F110032022EB
:104B1000796C1846FBF7B4FC97F83230002B0BD0B9
:104B2000FB6AC3F30803002B0CD1FB6A6FEA532323
:104B30006FEA4323FB6205E0FB6A23F4FF7323F073
:104B40000103FB6207F110031946F86CFFF72EF919
:104B500000E000BF5037BD4680BD00BF00ED00E063
:104B600080B400AF0A4B5B69094A43F010035361FC
:104B7000074B5B69064A43F480635361044B5B69EE
:104B8000034A23F00803536100BFBD4680BC704751
:104B900000ED00E0EFF30880EFF3098101B5724604
:104BA000FFF780FF01BD00BF002080F31488BFF332
:104BB0006F8F002080F30A8880F30B88104880F301
:104BC000088800200F49087002F0AAF900200E4959
:104BD0000860BFF34F8F00F047F8202080F3118862
:104BE0000A484FF40061401880F30988EFF31480FD
:104BF0000221084380F31488BFF36F8F0EF061FC2D
:104C0000703500206B15002094ED00E0B0360020D8
:104C100080B582B000AF7860796803480EF008FC78
:104C200000BF0837BD4680BD90ED00E080B582B082
:104C300000AF0C4B1B681B0ADBB23B6000237B60A0
:104C400006E07B681846FFF7E3FF7B6801337B6073
:104C50007A683B689A42F4DB00BF00BF0837BD4664
:104C600080BD00BF90ED00E080B582B000AF72B6AD
:104C700000BF00233B603B6883F3138800BFFFF74E
:104C8000D5FF0023FB7109E0164AFB7920334FF072
:104C9000FF3142F82310FB790133FB71FB790F2BB5
:104CA000F2D90023BB7109E00E4ABB7960334FF0A3
:104CB000FF3142F82310BB790133BB71BB790F2B55
:104CC000F2D962B600BFBFF34F8F00BF00BF00BF75
:104CD000BFF36F8F00BF00BF00BF00BF0837BD46E6
:104CE00080BD00BF00E100E01EF0040F0CBFEFF339
:104CF0000880EFF30980816911F8021C0229FFD0B6
:104D000001B572460EF024FB01BD00BF80B483B034
:104D100000AF0346FB80B7F90630002B0BDBFB88A6
:104D200003F01F020649B7F906305B09012000FABB
:104D300002F241F8232000BF0C37BD4680BC70470B
:104D400000E100E080B483B000AF0346FB80B7F918
:104D50000630002B12DBFB8803F01F020A49B7F96B
:104D600006305B09012000FA02F2203341F82320CB
:104D7000BFF34F8F00BFBFF36F8F00BF00BF0C3773
:104D8000BD4680BC704700BF00E100E080B483B046
:104D900000AF03463960FB80B7F90630002B0ADB11
:104DA0003B68DAB20C49B7F906305201D2B20B4473
:104DB00083F800230AE03B68DAB20849FB8803F075
:104DC0000F03043B5201D2B20B441A7600BF0C37DA
:104DD000BD4680BC704700BF00E100E000ED00E090
:104DE00080B483B000AF7860084A7B685B0952F8F2
:104DF00023207B6803F01F03012101FA03F3134012
:104E000018460C37BD4680BC704700BF00E100E08B
:104E100080B400AF094B0A4A23F07F039360BFF3CD
:104E20004F8F00BF00BF00BFBFF36F8F00BF00BF39
:104E300000BF00BFBD4680BC704700BF000000003F
:104E400000ED00E080B400AF054BD3F88830044A91
:104E500023F47003C2F8883000BFBD4680BC7047A1
:104E600000ED00E080B487B000AFF860B9607A6010
:104E70003B60154B7B617B68203B3B617A693B69FA
:104E80009A613B699B6923F001023B699A613A6828
:104E90003B691A603A6A3B695A607A6A3B699A6070
:104EA000BA6A3B69DA603B694FF08072DA613A694D
:104EB000FB681A65FB680022C3F8B02000BF1C37EE
:104EC000BD4680BC704700BFB5220000F0B587B07A
:104ED00000AFF860B9607A600EF01FFB104AFB6803
:104EE0009360FB68D3F8AC300E4A1360FB68D3F8CC
:104EF0009C307B617B6983F30B8800BF7D68BE6853
:104F00002C4686F309880020034B98472046002151
:104F100000220023014C204727350100B522000064
:104F2000B4110020C810002080B400AF034B102241
:104F30001A6100BFBD4680BC704700BF00ED00E0B5
:104F400080B400AF074B5A69064B9B689A4205D064
:104F5000054B5B68044A43F08053536000BFBD4675
:104F600080BC7047B411002000ED00E080B584B033
:104F700000AF7860114B9B687A689A4216D1EFF3C4
:104F80000583FB60FB68002B14BF01230023DBB209
:104F9000002B0BD00A4B5B68094A43F080535360E7
:104FA000074B5B6A064A23F400435362786806F0B5
:104FB0004FF800BF1037BD4680BD00BFB4110020C0
:104FC00000ED00E016498A684FF030001044EFF31E
:104FD000098C80E8F01F202080F31288BFF36F8FC8
:104FE000104F4FF000664A698A603E60D2F8AC000C
:104FF0000D4C2060D2F8B0000023C2F8B03080F32E
:10500000118802F1300090E8F01F8CF3098802F15A
:10501000000004B50EF063FABDE8044070470000DC
:10502000B411002004ED00E0C810002080B483B06B
:1050300000AF03463960FB80B7F90630002B0ADB6E
:105040003B68DAB20C49B7F906305201D2B20B44D0
:1050500083F800230AE03B68DAB20849FB8803F0D2
:105060000F03043B5201D2B20B441A7600BF0C3737
:10507000BD4680BC704700BF00E100E000ED00E0ED
:1050800080B584B000AFEFF305837B607B68FB6085
:10509000FB68103BFB60FB68DB00074A1344BB6006
:1050A000BB685B68BA68126810469847FFF748FF0C
:1050B00000BF1037BD4680BD4CAD010001480068FF
:1050C00070470000C810002080B584B000AF0D4AC2
:1050D0000D4B01210D480EF081FD3B1D00221A6091
:1050E0005A609A600A4B7B60074A094BD31ABB602F
:1050F0003B1D012118460EF083FD00BF1037BD4651
:1051000080BD00BF00000020000004205CD2010030
:105110004008002080B582B000AF7860796803480D
:105120000EF08FFA00BF0837BD4680BD90ED00E05D
:1051300080B483B000AF7860034A7B68136300BF1C
:105140000C37BD4680BC704790ED00E080B483B062
:1051500000AF7860034A7B68936000BF0C37BD46A0
:1051600080BC704790ED00E080B483B000AF786001
:10517000034A7B68D36000BF0C37BD4680BC7047D4
:1051800090ED00E080B400AF024BDB681846BD46EE
:1051900080BC704790ED00E080B483B000AF7860D1
:1051A000034A7B68136100BF0C37BD4680BC704763
:1051B00090ED00E080B400AF024B1B691846BD467D
:1051C00080BC704790ED00E080B483B000AF074B27
:1051D0001B687B607B681B0ADBB27B607B68DBB291
:1051E00018460C37BD4680BC704700BF90ED00E00C
:1051F00080B500AF0248FFF79BFF00BF80BD00BF36
:10520000AAFF440090B58FB00AAF786039603B6860
:105210001B6823F01F033A68127AC2F30402D2B269
:1052200043EA02013B68DB6823F01F023B681B7AFC
:10523000C3F34213DBB25B0003F00E03134343F0EE
:1052400001031A4678680EF035FA0323032B2FD991
:105250000123FB72FB7A83F00103DBB2002B27D121
:10526000154B19683B681B683A68127AC2F304024E
:10527000D2B210463A68127AC2F34212D2B214463F
:105280003A68D26808920794069005937B68049365
:105290000A4B03930A4B02930823019300230093C4
:1052A0000023042200200EF0DCF90023FB6000BF85
:1052B00000BF1437BD4690BDDC05002068D2010058
:1052C0004CC4010080B594B004AF78600846114624
:1052D0001A460346FB700B46BB7013467B70BB78C7
:1052E000FB630023BB6397E1BA6B13465B00134477
:1052F0009B001A467B6813445B68002B00F0888192
:105300007B78002B2ED0BA6B13465B0013449B00B6
:105310001A467B68134418460EF0DFF90346002B4B
:1053200020D10323002B1AD0012387F8373097F8B8
:10533000373083F00103DBB2002B10D1AF4B19687B
:10534000BB6B0393AE4B02930023019300230093A6
:105350000023012200200EF084F900233B636FF04C
:1053600015035FE1BA6B13465B0013449B001A46BA
:105370007B6813441868BA6B13465B0013449B00A8
:105380001A467B6813445B6819460EF0C4F9F8624C
:10539000FB6A13F1160F03D0FA6BFB6A9A421EDC0C
:1053A0000323002B18D00123FB77FB7F83F001033D
:1053B000DBB2002B10D1914B1968FB6A0393914B20
:1053C0000293002301930023009300230122002075
:1053D0000EF047F90023BB616FF0150322E1FB6A71
:1053E00018460EF0B7F9B862FB6A18460EF0DAF903
:1053F0007862BA6B13465B0013449B001A467B68C5
:1054000013441968BA6B13465B0013449B001A4699
:105410007B6813445B680B44013B3B62BA6B1346E9
:105420005B0013449B001A467B6813441B68BA6AEE
:105430009A4211D13A6A7B6A9A420DD1FB6AD8B27C
:10544000BA6B13465B0013449B001A467B681344F7
:10545000194600F0DBF9DCE0BA6B13465B0013443D
:105460009B001A467B6813441B68BA6A9A422ED185
:10547000F86ABA6B13465B0013449B001A467B68BC
:1054800013441968BA6B13465B0013449B001A4619
:105490007B6813445B680B4419460EF06BF9FB6B99
:1054A000D8B2BA6B13465B0013449B001A467B6864
:1054B0001344194600F0AAF9F863FB6B13F1160FB9
:1054C00001D1FB6BAEE0FB6B0133FB63A1E03A6AF9
:1054D0007B6A9A4225D1F86ABA6B13465B00134483
:1054E0009B001A467B6813441B68013B19460EF06B
:1054F00069F9FB6BD8B2BA6B13465B0013449B008F
:105500001A467B681344194600F080F9F863FB6B78
:1055100013F1160F01D1FB6B84E0FB6B0133FB63CE
:1055200077E0F86ABA6B13465B0013449B001A4697
:105530007B6813441B68013B19460EF043F9FB6B73
:10554000D8B2BA6B13465B0013449B001A467B68C3
:105550001344194600F05AF9F863FB6B13F1160F68
:1055600001D1FB6B5EE0FB6B0133FB63FA6A07F171
:1055700008030833194610460EF03CF9BA6B13467F
:105580005B0013449B001A467B6813441968BA6B8E
:1055900013465B0013449B001A467B6813445B6808
:1055A0000B44BB60BA6B13465B0013449B001A4666
:1055B0007B6813441968BA6B13465B0013449B0065
:1055C0001A467B6813445B680B4423F01F02796A18
:1055D0003B6ACB1A1344013B23F01F037B61FB6B37
:1055E000DBB207F108021146184600F0B3F8F86381
:1055F000FB6B13F1160F07D1FB6B13E0DC050020EA
:1056000074C401009CC40100FB6B0133FB6300E028
:1056100000BFBB6B0133BB63FB78BA6B9A42FFF6EA
:1056200063AEFB6B18464037BD4680BD80B586B083
:1056300000AFF8607A603B600B46FB72094B1B7849
:105640007B617B69DAB2F97A0123F868FFF73AFEE9
:1056500078617B69DAB2034B1A707B691846183798
:10566000BD4680BD6815002080B584B000AF78606D
:105670000B46FB700023FB605EE0FA6813465B009C
:1056800013449B001A467B6813445B68002B4FD081
:10569000FA6813465B0013449B001A467B68134468
:1056A0001868FA6813465B0013449B001A467B682F
:1056B00013445B6819460EF02EF801462348FA6839
:1056C00013469B0013449B00034419601F49FA686A
:1056D00013469B0013449B000B441B6813F1160FE9
:1056E00002D16FF015032CE01849FA6813469B00AD
:1056F00013449B000B441B68154A1278934202DB4B
:105700006FF015031DE01149FA6813469B0013441E
:105710009B000B441B681846FA6813469B00134411
:105720009B000A4A1344043319460EF086F800E041
:1057300000BFFB680133FB60FB78FA689A429CDB90
:10574000002318461037BD4680BD00BFCC10002096
:105750006815002090B58DB006AF03463960FB7127
:10576000FC790EF0B4F80346013B9C421ED903239A
:10577000002B18D00123FB73FB7B83F00103DBB20A
:10578000002B10D11D4B1968FB7903931C4B02931E
:1057900000230193002300930023012200200DF039
:1057A00060FF0023BB606FF0150323E00323032B8E
:1057B0001AD90123FB75FB7D83F00103DBB2002BBB
:1057C00012D10E4B1968FB7904930E4B03930E4BC9
:1057D0000293082301930023009300230422002056
:1057E0000DF03FFF00233B61FB7939681846FFF756
:1057F00009FDFB7918461C37BD4690BDDC0500202D
:10580000C0C4010074D20100E8C4010090B58FB09B
:1058100006AF03463960FB710323032B1AD901231A
:10582000FB77FB7F83F00103DBB2002B12D1184B17
:105830001968FB790493174B0393174B02930823C2
:105840000193002300930023042200200DF009FFA0
:105850000023BB613B681B68BB603B6803F1080128
:105860003B681A683B685C6807F1080303F10800AD
:1058700023460EF002F807F10802FB79114618469C
:10588000FFF768FF034618462437BD4690BD00BFAA
:10589000DC05002090D2010010C5010080B400AFEB
:1058A000084B05225A60BFF34F8F00BF00BF00BFF7
:1058B000BFF36F8F00BF00BF00BF00BFBD4680BCFD
:1058C000704700BF90ED00E080B400AFBFF35F8F82
:1058D00000BF00BF00BF034B00225A6000BFBD469F
:1058E00080BC704790ED00E090B58BB006AF354BB3
:1058F0001C680DF0ECFF03469C4202D94FF0FF33C9
:105900005CE00323032B1DD90123FB71FB7983F09A
:105910000103DBB2002B15D12B4B1C680DF0D7FF18
:1059200003460493294B0393294B029308230193C5
:105930000023009300230422214600200DF091FE55
:1059400000233B60FFF7C0FFFFF752FC0023FB6022
:105950000BE01C4B5A68FB681B0113441946F8689E
:10596000FFF750FCFB680133FB60164B1B68FA68BD
:105970009A42EED3134B1B68DAB2164B1A701548D5
:105980000DF0ACFF034613F1160F02D16FF01503B3
:1059900014E0104B1B78BB6006E0BB6818460DF0A6
:1059A0007EFEBB680133BB600DF091FF03461A46D3
:1059B000BB689342F1DBFFF771FF002318461437F1
:1059C000BD4690BDD8D20100DC050020A8D2010060
:1059D0008CC501006815002080B58AB000AFF86062
:1059E000B9607A603B6007F1100300221A605A60C8
:1059F0009A60DA601A615A610223BB74084B7B61BA
:105A0000FB683B62BB687B6207F110033A68796808
:105A1000184608F097FB034618462837BD4680BD58
:105A20001F3C010080B582B000AF78603960044B44
:105A30001B6878689847002318460837BD4680BD24
:105A4000E010002080B483B000AF7860074A7B6824
:105A50001360074B9B7843F00203DAB2044B9A7051
:105A600000BF0C37BD4680BC704700BFE01000206F
:105A7000E005002080B582B000AF00237B600C4BB6
:105A8000073323F007037B60094B073323F0070339
:105A9000C3F1005303F580233B603A6879680548F9
:105AA0000AF07FFE002318460837BD4680BD00BFC0
:105AB000B03E0020E410002080B584B000AF7860D4
:105AC0007B68002B11D00B4B43F00103FB600A4BAA
:105AD0001B680A4AA2FB03239A0C7B6802FB03F3B0
:105AE000BB60FB68B868984700E000BF1037BD4650
:105AF00080BD00BFE0CE0100F006002083DE1B4326
:105B000080B592B000AF504BD3F82436FB63FB6BEB
:105B1000C3F30803BB6340F2FF137B637B6B5B083B
:105B20007A6BD31A3B63BA6B3B6B53401A463B6BA1
:105B3000D31AFB62FB6B1B0CC3F30903BB6244F279
:105B400068237B627A6A414B1344FA6A02F5C47295
:105B500003FB02F2BB6A4FF47A6101FB03F31344C7
:105B60005B003B623B6A3A4AA2FB0323DB0B7B648C
:105B70003A6A374BA3FB0213DB0B4FF4FA2101FB0C
:105B800003F3D31AB3F57A3F02D37B6C01337B6402
:105B9000796C30480EF089F82B4BD3F82036FB6136
:105BA000FB69C3F30803BB6140F2FF137B617B69B0
:105BB0005B087A69D31A3B61BA693B6953401A465C
:105BC0003B69D31AFB60FB691B0CC3F30903BB6081
:105BD00043F698237B607B68A3F5AB531C3BFA68C4
:105BE00002F2173203FB02F2BB684FF47A6101FB49
:105BF00003F313441B0A3B603B68154AA2FB0323D3
:105C00009B093B643A68124BA3FB02139B094FF4B8
:105C10007A7101FB03F3D31AB3F5FA7F02D33B6C1D
:105C200001333B643A6C01210A480EF04CF8002124
:105C300008480EF026F80122002106480EF058F818
:105C400000BF4837BD4680BD00C0FF0090E8FF7F21
:105C5000D34D62100000125080B500AF054B064ACC
:105C60001A6000F00BF800BFFFF74AFF0023184648
:105C700080BD00BFF00600200020A10780B500AF66
:105C800002480EF05BF800BF80BD00BF002008E0B6
:105C900080B483B000AF0346FB80B7F90630002B19
:105CA0000CDBFB8803F01F020749B7F906305B09DC
:105CB000012000FA02F2603341F8232000BF0C37C4
:105CC000BD4680BC704700BF00E100E080B500AF7A
:105CD0000EF054F80346002B01D000230CE0074BD4
:105CE0001B78002B14BF01230023DBB283F00103D8
:105CF000DBB203F00103DBB2184680BD6B15002058
:105D000080B582B000AF78607A68002103480EF059
:105D100054F9034618460837BD4680BD00E01050D0
:105D200080B584B000AF78607A6801210A480EF02F
:105D300044F90346FB73FB7B002B05D07B681B7883
:105D4000002B01D1012300E0002303F00103DBB2AB
:105D500018461037BD4680BD00E0105080B582B0B7
:105D600000AF78607B68DBB2194604480EF0FAF9A0
:105D7000034618460837BD4680BD00BFC0AC0100D1
:105D800090B58FB006AF78600B46FB70FB78194674
:105D900078680EF0BCF9F861FB691B68BB61FB69B0
:105DA0005B687B61FB6900221A60FB690833184657
:105DB0000EF082FA0323032B21D90123FB74FB7C11
:105DC00083F00103DBB2002B19D1134B1C68FB7865
:105DD000194678680EF0B1F903469B6804930F4B9F
:105DE00003930F4B02930823019300230093002396
:105DF0000422214600200EF06CF90023FB60BB69F1
:105E0000002B05D0FB781946BB697A6978689847FA
:105E100000BF2437BD4690BDE0060020F8D2010047
:105E2000D8C5010080B483B000AF044B7B607B68B1
:105E3000403318460C37BD4680BC7047F410002034
:105E400080B588B000AF0023FB77EFF311837B614F
:105E50007B693B612023FB60FB6883F3128800BFF2
:105E6000BFF36F8F00BF3B69BB611B4B1B6843F0E7
:105E700002031A46184B1A60174B1B6803F0010304
:105E8000002B0FD0FB1C194601200EF008F9FB78FF
:105E9000002B07D10123FB77FFF7C4FF0346184609
:105EA0000EF00AFABB69BB60BB687B607B6883F35A
:105EB000118800BFBFF36F8F00BF00BFFB7F002BB7
:105EC00004D000210548FFF75BFF01E00EF02DFA3A
:105ED0002037BD4680BD00BFF0100020C0AC0100DF
