:10000000804A0020759C0100AD300200619C010017
:10001000619C0100619C0100619C010000000000E6
:100020000000000000000000000000005D9D0100D5
:10003000619C010000000000919F0100619C010093
:100040000DA00100753502000DA001000DA00100FA
:100050000DA001000DA001000DA001000DA00100E8
:100060008B3502000DA001000DA00100A13502009A
:100070000DA001000DA001000DA001000DA00100C8
:100080000DA001000DA001000DA001000DA00100B8
:100090000DA001000DA001000DA001000DA00100A8
:1000A0000DA001000DA001000DA001000DA0010098
:1000B0000DA001000DA001000DA001000DA0010088
:1000C0000DA001000DA001000DA001000DA0010078
:1000D0000DA001000DA001000DA001000DA0010068
:1000E0000DA001000DA001000DA001000DA0010058
:1000F0000DA001000DA001000DA001000DA0010048
:10010000054B1B780022013382600260034A426083
:10011000C371FF2303727047400300208001080071
:10012000064B074A9B7802604FF424728280C371A9
:100130000822002382710372704700BF4003002031
:100140006B830100064B074ADB7802604FF4427272
:100150008280C3710822002382710372704700BF3E
:1001600040030020AD800100064B074ADB7A0260A5
:100170004FF4B0728280C3710822FF238271037230
:10018000704700BF400300204D7A0100094991F8F3
:1001900028308A78C97803EB4303DB00103383806F
:1001A00004230A4483710021FF2381600160C2712E
:1001B00003727047400300202DE9F341C41D00285D
:1001C00024F00704064614BF2046002000F052FC2D
:1001D000071E04DA6FF00B0002B0BDE8F081364D67
:1001E000E988A8886B7A2A7A0331033089B280B211
:1001F00014F08CF80028EDDBA978EB783C4403344C
:10020000002E194424F0030400FB01F114BF204622
:10021000002000F0DFFD20440EB90028DADBEA7A86
:100220000446B2B1EB7B697C13441944FF29D1D851
:100230000330002E20F0030414BF20460020AA89BA
:10024000C9B200F039FE0028C4DB04440EB9002C0A
:10025000C0DB012000F004FCB0B1A97BA1B195F88E
:100260002A3033B340234FF481720734002E24F038
:10027000070414BF2046002003F05EFF0028A9DB1E
:1002800004440EB9002CA5DBAB7AF3B1EB7AABB129
:100290000734002E24F0070414BF20460020A97A5A
:1002A00008F022FF002895DB044476B9002C0CDA14
:1002B00090E725232822D8E740030020012000F002
:1002C000CFFB10B1AB7B002BE2D1734B1B6893B11A
:1002D000A97D81B10334002E24F0030414BF20460D
:1002E0000020EA7D98470028FFF674AF044416B951
:1002F000002CFFF66FAF694B1B688BB1297C79B17D
:100300000334002E24F0030414BF20460020984735
:100310000028FFF65FAF044416B9002CFFF65AAF71
:100320005F4B1F68AFB1697C99B12B7D009303349B
:10033000002E24F0030414BF20460020EB7CAA7C8E
:10034000B8470028FFF646AF044416B9002CFFF664
:1003500041AF072000F084FB98B1A97D89B1033437
:10036000002E24F0030414BF204600202A7E00F053
:1003700091FE0028FFF62EAF044416B9002CFFF6BC
:1003800029AF95F82300B6FA86F77F09A0B16B7FF5
:10039000A97E033424F00704194444F004043B46C6
:1003A0002246C9B200F0B6FE0028FFF613AF04449F
:1003B00016B9002CFFF60EAF95F8241000294CD08A
:1003C00004F10708002E28F0070814BF404600205B
:1003D000EA8C13F0AFFF041EFFF6FCAE4444002E7F
:1003E0003ED1002CFFF6F6AEA97F002945D095F846
:1003F0002230002B41D02A8C0734002E02F1240237
:1004000024F0070814BF4046002092B213F092FF78
:100410000028FFF6DFAE404416B90028FFF6DAAE3A
:100420002B7FA97E033020F0070040F0040419441C
:1004300095F822003B462246C9B200F05DFE002836
:10044000FFF6C8AE044486B9002CFFF6C3AEEB6AD3
:10045000F3B1C6B1EC620020BEE6002EC4D08846DF
:10046000E98C40460FF0FAFDBEE72A8CA97F0832DE
:1004700092B240460FF0F8FDE9E7002EE7D00022E7
:1004800011461046F6E728343FF5A4AE2046A3E611
:10049000002EE0D1FAE700BFEC100020F0100020A1
:1004A000F41000201FB572B6194B1D6BEDB9BFF3E8
:1004B0004F8F1849184BCA6802F4E0621343CB60AF
:1004C000BFF34F8F00BFFDE72346B2FBF6F25C1C83
:1004D000002AF9D104AEDCB256FA83F303F80C2CEF
:1004E0000A2234B901A8A847E1E7024600230A26F8
:1004F000EDE7631E04AEDCB256FA83F3B0FBF2F60E
:1005000002FB1600303003F80C0C3046E9E700BF60
:100510004003002000ED00E00400FA0513B5124C82
:100520002389ADF80030E388ADF804306846A3882D
:10053000ADF8023006F00AFD18B1FA219C20FFF751
:10054000B1FF207D06F058FD08B1FD21F6E7E07C03
:1005500006F04CFD08B1FE21F0E794F828000DF0FC
:1005600021FC02B010BD00BF4003002038B5054695
:1005700000283DD012F08CFE10B94FF0FF3038BD8E
:1005800010F01EFEB0F5FA7FF7D81B4C25631B2533
:1005900000212A4604F10F0084F83410217084F8F9
:1005A0002A10E16213F044F90123A370E370E372AF
:1005B000A3742376F723032108202384FB2302223C
:1005C0002172A072A1731F204921E3840A23A58010
:1005D000E5806272A081E174E27584F82830EFF35F
:1005E000108472B600F0A6FD04B962B60020C6E71A
:1005F0006FF01500C3E700BF4003002038B5144674
:10060000002840F0C480634D95F83430032B00F08F
:10061000BB80B9B112B96FF0150038BD0139172987
:1006200000F2B580DFE801F00C1D20366069873CE0
:100630006C6F814248565B8D909FA2A596B3B3A87C
:100640001378AB700020FFF7B7FD0028B7BF012378
:10065000022385F834306FF00B00A8BF85F83430E2
:10066000DBE71378EB70EDE71379002BD3D05379E8
:10067000002BD0D01288FB2ACDD863881B3B9BB2BD
:10068000E02BC8D81A2AC6D923686B60424BA288CF
:100690009A80D7E71378EA7B9342BCD3EB72D1E719
:1006A0001378EA7A9342B6D8EB73CBE71378EA7AF9
:1006B0009342B0D86B74C5E71378002BABD0537856
:1006C000013BDBB2F82BA6D813886B82334B9278B0
:1006D0009A70B7E7107868750DF002FBB2E71378EF
:1006E000002B98D02B76ADE7012000F0B9F92378E4
:1006F00008B1012B8FD9AB73A4E71388AB81A1E7B5
:100700001378AB759EE7072000F0AAF910B923789B
:10071000012B80D9072000F0A3F918B12378002B12
:100720003FF479AF2378EB758CE71378082B3FF60D
:1007300072AF2B7486E71388FF2B3FF66CAFAB725A
:1007400080E713786B767DE713780E2B3FF663AF67
:10075000AB7677E72368124AC5F81E3063685360AA
:10076000238913816EE71378EB766BE713786B7749
:1007700068E713782B7765E713785A1E092A3FF646
:100780004AAF85F828305DE74FF0FF3045E76FF05E
:100790002C0042E7400300204403002052030020C5
:1007A0005E030020F8B50D46064630B329B311F0BC
:1007B000070422D1124F97F83430012B02D16FF089
:1007C0000B00F8BD032B02D14FF0FF30F9E700F02A
:1007D000EDFC0028F8D02846FFF7EEFC0028EEDB01
:1007E00017F034FF3046F96A06F0B0FCFFF796FECA
:1007F000032387F834302046E3E76FF01500E0E785
:100800004003002010B5074C94F83430032B03D17B
:1008100006F0B4FC07F092FC13F0D7FE002084F839
:10082000340010BD4003002008B506F027FCBDE8E9
:1008300008400249032000F00BB900BF6901000025
:1008400008B506F02FFCBDE808400249022000F080
:10085000FFB800BF4501000008B506F045FC05499A
:10086000012000F0F5F8BDE808400349002000F041
:10087000EFB800BF010100002101000008B50449E4
:10088000102000F0E5F8BDE8084006F0C3BB00BF4B
:100890008D01000008B50449102000F0D9F8BDE82A
:1008A000084006F0C9BB00BF8D010000074B4FF0A8
:1008B000FF3141F6FF72C3E9001205490022C1E988
:1008C00000221F21C3E90212704700BF0000002070
:1008D000780300203F280CD801380B4BC0F342129C
:1008E00000F01F0053F8223023FA00F000F001005E
:1008F0007047FF2806D04038C0F34212034B00F087
:100900001F00EFE70120704700000020780300205F
:100910000146074B006849681A4603C240F48C221E
:100920001A6041F0107242F4FF625A600020704772
:10093000000000200246034B0068516803C30020FA
:10094000704700BF780300200246034B00685168DF
:1009500003C30020704700BF080000200138064B89
:10096000C0F3421203EB820300F01F009B6823FADE
:1009700000F000F00100704700000020F0B50C8886
:10098000C37C0288A5B2C4F30E0404F11806023336
:10099000865B1A44334497B213FA82F3013B4288D0
:1009A000B3FBF7F313FB07439BB29A42044A93BF8E
:1009B00022EA05032A4013439BB20B80F0BD00BF1F
:1009C0000080FFFF4A1E062A08B50346084604D8E1
:1009D0004FF4D1711520FFF765FD094A914202D904
:1009E00040F2A311F6E711B903B1196008BD2BB1AC
:1009F0001B680022C3E901211A1D1A600430F5E7C3
:100A0000FAFFFF7F10B5114B00EB41041A786389A0
:100A1000B3FBF2F303FB0223013A1A44B2F5706F01
:100A20000279807828BF00231A440B18B2FBF0F13A
:100A300000FB11215B1AB3FBF0F100FB11331344EF
:100A40006FEA43436FEA5343638110BD8003002084
:100A5000024B03EB80035960704700BF8003002006
:100A6000034B03EB80035868003818BF0120704720
:100A7000800300202DE9F04F10F0070A85B00546ED
:100A800004D040F26F111720FFF70CFD544F07F10F
:100A90004C06B1460446B0464FF0010B57F8043BF4
:100AA0008DF80BA03BB101A898479DF80A30082BA0
:100AB00001D9F521E7E79DF80B1041BB05B1316085
:100AC0004F4506F10406E9D1002D70D0DFF81491EE
:100AD000002289F800209646122758F827A0013FE7
:100AE000BAF1000F56D09AF804609AF802C0FF2EAF
:100AF00061D039460023481C39D19C44BCF1FF0F1A
:100B000040D90AB189F800E04FF49A71BBE79DF82B
:100B10000AC06046022838BF02204B1D5A0004EB71
:100B20004303441E2344BDF808406444013CCCF117
:100B3000000C04EA0C044042B4F5803F03EA0003D1
:100B400002D340F205119EE775B19A1A3260917096
:100B5000148082F803B09DF80C0010710198108188
:100B60004FEA104CA2F806C004FB0134A8E758F87D
:100B7000210028B190F804B0B34504BF80781B1859
:100B80000139B8E7DBB2E6458AF804303CBF5FFACA
:100B90008CFE01227B1CA0D10AB189F800E012264C
:100BA00040F6FF6A58F82670B7B9013EFAD2601BCA
:100BB00005B0BDE8F08F0023E5E707EB41033846B9
:100BC000A3F80AA0FFF71EFF09F10109BB785FFA3D
:100BD00089F18B42F1D8E8E74FF00009F6E700BF52
:100BE000840300208003002038B54FF6FF73038094
:100BF000184B03EB81030246186DA8B18478037982
:100C0000B3FBF4F104FB1133DBB2194600EB4105F1
:100C1000B5F90A50002D0EDB0131B1FBF4F504FBF0
:100C20001511C9B28B42F1D1002038BD6381BDE8F6
:100C3000384013F047BB00EB41046389C3F30E0354
:100C40001380C278002AF1D14FF4E5711720FFF725
:100C500029FC00BF800300201C4B03EB810370B50F
:100C60001C6D054644B3030404D54FF4EC71172002
:100C7000FFF718FC0146204613F006FBFF2801464B
:100C800004D02046BDE8704013F01CBBA078B5FB33
:100C9000F0F300FB1353DBB219460A1D04EB4206C6
:100CA000B6F90260002E09DB0131B1FBF0F200FB66
:100CB0001211C9B28B42F0D1002070BD8B4201D01D
:100CC0000023E37004EB42025580DAE78003002042
:100CD000094B03EB810310B51C6D0146204613F050
:100CE000D3FAFF28014604D02046BDE8104013F097
:100CF000E9BA002010BD00BF80030020F8B5104BFA
:100D000003EB810307461C6D0146204613F0BCFA35
:100D1000FF28054611D0E288238953EA024606D00F
:100D20000146204613F0CEFA01463846B047204629
:100D30002946FFF767FE0020F8BD0520FCE700BF4D
:100D40008003002038B50E4B827903EB8203044602
:100D5000186D08B9052038BD8278E1799142F9D241
:100D60004B1CE37100EB41035D89B3F90A30002BA2
:100D7000F3DBA58013F0A6FA20600020EBE700BFAC
:100D80008003002008B5124B03EB81031A6D22B9D2
:100D900040F246211720FFF785FB9178831A481D02
:100DA000A3EB40031088B3FBF0F3002B01DB994267
:100DB00002DC40F24921EDE702EB4302B2F90A30CE
:100DC0005089002B02DA40F24B21E3E708BD00BF57
:100DD0008003002070B5044610F003000E4603D0D7
:100DE0004E211820FFF75EFBFFF7ECFD054624B10E
:100DF000034831460460FFF7E5FD284670BD00BF9B
:100E00001C0400202DE9F14FDFF870B09DF828A0F8
:100E10009DF82C901E46DBF8003007460D469046A4
:100E20001BB960211820FFF73DFB524609214046BF
:100E300013F0ABF84A4684B20921304613F0A5F806
:100E400014FA80F1DBF8000013F0F2F9386018B9F9
:100E5000286001B0BDE8F08F04442C603868534628
:100E60004146092213F054F828684B4609223146BE
:100E700001B0BDE8F04F13F04BB800BF1C040020D8
:100E800070B50E46044613F093F80546304613F04D
:100E90008FF8044B2A1821461868BDE8704013F0FB
:100EA000ECB900BF1C040020024B186808B113F015
:100EB000B3B970471C0400201F2AF8B50446134636
:100EC0000ED89200033222F00303B3F5803F2DD2F7
:100ED000184DACB1A00710D068210920FFF7E2FA45
:100EE000FF2B4FEA420204D9FF339A42A8BF1A46A9
:100EF000E8E77C2AB8BF7C22E4E729706C602B818C
:100F000022F003022823120403FB01F001276B687F
:100F1000120C0025EEB2B14200D8F8BD14B126186B
:100F20001F705E60104401352833F3E74FF0FF3047
:100F3000F3E700BF2004002070B5154A1578536808
:100F40000021C8B2854203D8BA210920FFF7AAFAC6
:100F50001C46184614F8286B01310EB92346F0E7F9
:100F600000219970128999610124D96159685C70D6
:100F7000920803F11E0403F1260524F8022FA5426E
:100F800043F8041F1144F8D100234361037070BD7E
:100F9000200400200A4B1B89B3F5FF7F4FEA930022
:100FA00006D25A089B1A9BB2984238BF184670471F
:100FB000B3F5EE6F01D8FF22F4E740F27263F3E776
:100FC000200400204B782DE9F04106460C4602F043
:100FD000040702F0FB05E3B1A5BBFF23A3707B0868
:100FE00004EB57073A7D032A02D1022D18BF0133C3
:100FF000E2180121117503F10C0104EB83030022B7
:1010000024F811205B68A2703360B2803046BDE8DE
:10101000F081002DE1D101234B701D4B8D611B89A7
:10102000CD6101F11E0249689B08204604F1260C9F
:1010300022F8023F944540F8041F1944F8D10023D8
:101040006361CAE7D1F80480142200216170A018FE
:1010500012F0EEFB0E4B1B89B3F5FF7F0FD25A083F
:101060009B1A9BB208EB0301C4F804802384A1609F
:101070006284C4F80C80A3842161E284ADE7B3F5F7
:10108000EE6F4FF0FF02EBD940F27263EAE700BF68
:10109000200400202DE9F84305460C46F7200521E1
:1010A000914612F072FF061E21DB1DB914FB06F0FB
:1010B000BDE8F88315F0030703D098211920FFF746
:1010C000F1F9DFF83080C8F81050A8F81460BBB20E
:1010D0009C42EBD9B8F81450D8F810004B4607FBE7
:1010E00005000522F72112F013FF0137EFE74FF05B
:1010F000FF30DDE73404002007B5CDE900230B46BF
:1011000003490246081D13F03AFA03B05DF804FBE8
:101110004C04002013B5064CCDE900230B460246D3
:1011200004F1080104F10C0013F029FA02B010BD1B
:101130004C040020134B012200214FF0FF309A6035
:10114000C3F80012C3F80803C3F80015C3F8042558
:101150009A60C3F80803C3F80015C3F804250A49C8
:101160000A4A03F580334FF40040C3F80825C1F85C
:101170008000BFF34F8FBFF36F8FC1F88001C3F8BA
:101180000825704700F0004000E100E00000F63F55
:10119000024B02681A600020704700BF5C04002008
:1011A000014B1B68184700BF5C040020024B186805
:1011B000003818BF012070475C0400208C469B2338
:1011C00000B50CF8033B054B8E4607CBCEF8030069
:1011D000CCF80410CCF808205DF804FB6C04002067
:1011E00070B51B4E736A93F8A84005460CB10128F0
:1011F0000DD0012912D8F36A2846984770B196F8A5
:10120000300058B964B9012D1FD0204670BD338D10
:101210001A07EED596F82A30002BEAD0012070BDCF
:10122000002DF3D1308D83070AD40028F6D196F82B
:101230003130002BEAD196F8320080F0010070BD09
:1012400096F82A0080F0010070BD308DEDE700BFF8
:101250006004002010B5154C0EF0CCF80EF020FC08
:10126000A36BA08E00219847237E93B9A18E606A5C
:1012700008F0A0F9636AB3F8AA0007F0EBFE236C4C
:1012800094F8301094F83C009847002384F84430D8
:1012900010BD94E8070004F10C0383E8070004493B
:1012A00004F1190015F0D0F9E0E700BF6004002058
:1012B000BD110000034B93F8443003B97047FFF7AA
:1012C000C9BF00BF6004002008B5094B93F8442053
:1012D000022A07D1DA7A42F00102DA72BDE8084048
:1012E000FFF7B8BF40F257312720FFF7DBF800BF08
:1012F0006004002010B41E4942788C6C2378D20020
:1013000002F0080203F0F30313438278920002F024
:1013100004021343C278120102F0100203F0EC033E
:101320001343027802F0030213432370B1F85430E0
:1013300063700223A1F84C308C6C00792378420151
:1013400023F0200302F020021343012823700CD164
:101350004B6A93F8BA2093F8BB30032A08BF0022E7
:1013600003F01F0343EA8213A37010BC704700BF51
:1013700060040020F0B5194CA56D83B04DB3636EC9
:101380003BB3B4F868306B702B782F4601F0030143
:1013900023F003030B4307F8033B0646B4F8682029
:1013A000616E384612F0C6FA0DF1020201A9E06E34
:1013B000E565676612F026FF019812F011FF0346FB
:1013C000B4F86810E06E3360012212F0B4FE03B08E
:1013D000F0BD40F6C4012720FFF764F86004002048
:1013E000F8B5254C656A276F2A7D95F82111E765C8
:1013F0004FF48173A4F8603094F87430064603EB20
:10140000820308B9FF2B17D018460DF0CDF92B7DBC
:101410005BB3A06F0DF0EAFDA16FE06D0EF00CFB69
:10142000AEB1B5F8E0000DF077F900200DF090FFB7
:10143000022384F84430F8BD95F820018842E3D1B6
:10144000002AE6D138460DF0D1FD0EF029FB95F8C3
:101450002131B5F8E420033B012B8CBF002028206C
:10146000104480B20DF066FEDBE7E06D0DF0BEFDCE
:101470000EF016FBD4E700BF600400202DE9F04F0A
:10148000C44C666A87B096F8201138B9327D94F85A
:10149000743003EB8203FF2B00F0F180FF200DF08E
:1014A00083F9676A002304938DF814308DF80930AE
:1014B000ADF80A303B7A062B00F21B81DFE813F00F
:1014C0007B00E600610061001901070007000DF1D3
:1014D0000A0103A806F0B8F8002800F0F680039D82
:1014E000002D00F0F2800122062384F87D20BDF853
:1014F0000A203B72002A5CD0E91CA4F85420216524
:10150000B7F80920A564022BADF811206AD0053B7D
:10151000012B66D80B780322022B8DF8102000F0E7
:10152000A180D4F8800012F0C5FD0546002840F0E7
:10153000C780236D1B781B2B00F0EB8000238DF8F8
:101540001430F37C84F8315004A823B1B4F854303B
:10155000002B40F08A80FFF7CDFEA06C0DF046FD19
:101560000EF09EFAB6F8E2000DF0D6F801200DF06C
:10157000EFFE012384F8873084F8443007B0BDE8DB
:10158000F08FB7F81031D4F88000ADF80A300DF1C3
:1015900009020DF10A0112F032FD0546002800F0A3
:1015A0000781BDF80A20012384F87D303B7A002AA8
:1015B000A2D11146A1E794F87C30A7F810310DF1C3
:1015C0000A0103A8ADF80A3006F03EF8E8B1039D21
:1015D000DDB10122052384F87D203B72BDF80A208D
:1015E00088E701238DF81030D4F8800012F062FDF6
:1015F0000546074600285ED106F040F880F0010558
:10160000EDB28DF813503B4699E7636A93F8518029
:10161000B8F1000F5ED1D4F880000DF10A010DF190
:10162000090212F0ECFC0546002853D09DF809A0F1
:10163000BAF1000F74D1BDF80A30002B5ED101233E
:101640003B7284F87D300023A4F854302365B7F84A
:101650000930A564ADF8113001238DF81030B8F1D0
:10166000000FC1D000252B4669E7FFF743FEA06FAE
:101670000DF0BCFCA16CA06F0EF0A2F972E796F819
:1016800021318B427FF40AAF37460BE7424BA3640C
:101690000023A4F854302365B7F80920D4F880005B
:1016A000ADF8112001238DF8103012F003FD05462E
:1016B00007460028A0D001238DF8133000233EE711
:1016C00001238DF81330236D34E740F2D2512720E7
:1016D000FEF7E8FE4FF00008002301223A722E4A7E
:1016E000A4F854302365ADF80A30A264B7F8093085
:1016F000B0E740F2DC512720FEF7D4FE00232B8018
:10170000AB700122032384F87D203B72BDF80A20D0
:10171000F0E607F1BA0001210DF08CF801230EE785
:101720002946D4F8800012F057FD12F059FD0368E5
:10173000D0F804B053EA0B0281462FD1BDF80A203D
:10174000002389F8003089F8013089F8023089F8DF
:10175000033089F8043089F8053089F8063089F8B3
:101760000730002A3FF46BAF9DF809100029C5D05F
:10177000297801F00301012906D0BB75012102235C
:101780003B7284F87D10B7E6032384F87D103B722A
:10179000B2E600BF60040020E404002001930FF0D3
:1017A000DBFE019B83427BEB0101C7D2D04693E76E
:1017B00040F2C3512720FEF775FE00BF2DE9F04F20
:1017C000A94C656A94F844208BB005F1A8030693F0
:1017D000022A4FF00003CDE9083340F06D82E36D3B
:1017E000032293F8009088465978A4F868101344AF
:1017F000636609EA02030646A4F8602007934FEAED
:10180000291AC9F3001B002800F0B180002940F01C
:10181000C5816B7AA28EA1650133DBB283EA99019F
:1018200042F4007211F00107A28640F0D5802A7AB6
:10183000A2B1032A6B7200F2FF81012A0ED0D4F804
:10184000800008A912F000FC002800F03F822B6FF6
:1018500001332B676B6F43F100036B67636A0021F1
:10186000297293F8A8304BB16B793BB1238D697124
:1018700043F0100323851020A36B9847A38E43F4F5
:101880000063A3862B7D0027C9F3C009002B40F01D
:10189000AA80AB7A03F00102914500F0E980A36DC4
:1018A000002B00F09C810AF0010A84F832A0B8F104
:1018B000000F40F0C4804FF0000994F88A10012016
:1018C000FFF78EFC82468046002800F04E810DF026
:1018D00091FDD146A38E5A0607D4A36B0021402068
:1018E0009847A38E43F04003A38687B1EB884BB99A
:1018F000636A93F8A8302BB1B4F80530B4F8072028
:10190000134304D0B4F809300133A4F80930002E91
:101910005CD0B4F8053000220133A4F8053084F817
:101920008A20524807F084FB089830B112F058FC26
:1019300000220272069906F029FD099B33B10022AC
:101940001A720C220998069906F0EEFCB9F1000F04
:1019500070D1A38E1B0607D4A36B494680209847FD
:10196000A38E43F08003A3860BB0BDE8F08F2B7DE0
:10197000002B40F0108194F88A30013384F88A30CB
:10198000A38E43F48063A38695F82131033B012B9A
:1019900004D906F01FFD074600285AD00CF0D2FEED
:1019A0000328A76D00F0FF80002F00F086800AF06A
:1019B000010A84F832A0B8F1000F51D00DF01AFDE1
:1019C000A78E17F040074FF0010986D0B4F8073012
:1019D0000133A4F80730A4E72B7D3746C9F3C009CB
:1019E000002B3FF456AFB4F868308BB9AB7A03F0F4
:1019F000010291457FF453AF0133AB72079B032B78
:101A000000F02A81A26D002A7FF44DAF914657E085
:101A10000EF062F80328FBD002280BD000287FF4D8
:101A200038AFAB7A03F0010399457FF438AF012357
:101A300084F83C30FFF70EFC0BB0BDE8F08F0DF0E2
:101A4000D9FCA38E5A0636D5002F00F01A81B14674
:101A50004CE7A36D002BAAD1B4F8682081462FE093
:101A60004FF000094F4628E760040020840400205E
:101A7000B4F86820002ABFD00798411E012938D940
:101A800001330328AB7200F0E780AB6F0133AB6723
:101A9000EB6F43F10003EB67A36D002B7FF403AF03
:101AA00099460DE00DF0A6FC079909A8FFF762FC26
:101AB000A38E5B06C8D4B1460FE7B4F86820B946D8
:101AC000002A14BF4FF0000B0BF0010B84F832B06A
:101AD000B8F1000F40F0098194F88A100120FFF757
:101AE0007FFB8046002840D00DF084FC4FF00109B8
:101AF000F0E6A38E95F8149043F48053A3860CF07F
:101B000021FE032894F8883007D1B9F1000F0CBFEB
:101B10001F221B22934228BF1346B4F86820A16DF0
:101B20009A4200F2B080002900F0B88094F8893021
:101B3000002B4CD1AB6F0133AB67AB7A03F10103E0
:101B4000AB72EB6F0AF0010A43F1000384F832A094
:101B5000EB67B8F1000FA5D194F88A100120FFF7C8
:101B60003FFB814600289DD1B046EB7C002B3AD14B
:101B7000002095F82021B5F8E0100DF087F800203E
:101B8000FFF77CFCB8F1000F3FF4A4AE079909A859
:101B9000FFF7F0FB9EE60DF0DFFFECE6E06E12F0E3
:101BA000AAFA014635E6B4F868201B2A94BF4FF024
:101BB00000094FF00109002F82D00AF0010A84F8D1
:101BC00032A0B8F1000F7FF4F9AE474675E6A36B7B
:101BD000002120209847A36D002B7FF464AEB4F859
:101BE000682099466CE7636A95F82A0193F8A82063
:101BF00095F82031013BDBB2B2FA82F28000032B70
:101C0000D5E91CAB4FEA5212C0B205F1800105F1D3
:101C1000900C60D8CDE9002C4FF0010E4FF0000C75
:101C2000CDE904CE4FF0FB0C039352465B46CDF852
:101C300008C00DF015FE9BE7053A012A41D805F0D2
:101C400011FD00284CD0238D43F00803238539462D
:101C5000A36B08209847FAE5A38E264943F48053E6
:101C6000A386238D012043F0010323852871A36BF4
:101C70009847AB6F0133AB67EB6F43F10003EB6742
:101C80000DE6B14645E694F8303043F0100384F891
:101C9000303000297FF407AE894611E7002A14BFCF
:101CA0004FF0000B0BF0010B84F832B0C146B8F1D5
:101CB000000F7FF419AF0FE740F6AD112720FEF7B4
:101CC000F1FB40F2B3712720FEF7ECFB40F2D47138
:101CD0002720FEF7E7FB40F225410620FEF7E2FB56
:101CE00040F2DE712720FEF7DDFB0DF083FBC146DD
:101CF000F0E500BFC40400202DE9F0413E4C94F80B
:101D00004430012B86B06CD1666A5FFA83F8337970
:101D100005460F4673B1238D002143F0040323854C
:101D20003171A36B04209847636A93F8A8300BB114
:101D300086F80580337A052B06D005B9DFB906B0E1
:101D4000BDE8F041FFF786BA238D2C4943F002032A
:101D500023850220A36B9847636A93F8A830002B71
:101D6000EBD0236D1B78A3F10203B3FA83F35B0975
:101D700084F82A30E1E729462846FFF731FA00289F
:101D8000DDD1337D676A63B997F82121B7F8E21096
:101D900001200CF07BFF002006B0BDE8F041FFF70A
:101DA0001FBB97F8213197F8A82094F874C0013B25
:101DB000003ADBB218BF0122032BD6E91E0106F15F
:101DC000800406F1900611D8009202460120CDE968
:101DD0000335CDE9016C0B46059021460DF040FD21
:101DE000D2E740F60C112720FEF75CFB40F22541BC
:101DF0000620FEF757FB00BF60040020B00400205F
:101E000010B50C4C0C4A94F844300C49116023B1C5
:101E10004FF4B1712720FEF745FB03F0FF02227655
:101E200007F0C0FB05F0C2F9206705F0C3F9A06711
:101E300010BD00BF60040020F81000205C210000ED
:101E400010B5074A92F8443013B10C24204610BD57
:101E500003F0FF04147607F0A5FB204610BD00BF79
:101E6000600400202DE9F043A54C87B094F844604D
:101E70009DF838C0002E40F03981002900F03681ED
:101E8000002A00F03381002B00F03081054606F077
:101E9000FF002364A163E26284F889C084F8300003
:101EA00084F88A0084F83C0084F887002085A086A6
:101EB00084F8310084F8320084F87D0084F82A0028
:101EC000A0642065A4F85400E0656066A4F868008A
:101ED00065620CF013FD0DF0E3FD95F928010CF09F
:101EE000BFFDD5F8D460D5F8CC000CF0BFFD30466E
:101EF0000DF060F895F825000CF0C2FDB5F8E03063
:101F0000672B40F28980B5F8E230672B40F284807D
:101F1000636A93F8A860002E00F0868093F8073378
:101F2000002B40F0A08015F0C2FA95F8212100F1B5
:101F3000890101200CF096FE724B18680DF040F8F4
:101F4000AB7BD5E93012243B072BC4F88010E26646
:101F500040F28C80EB7B243B072B40F28780B5F866
:101F6000F230B5F8F80095F82011984228BF1846CD
:101F7000042908BF032113F099FE024695F8F400E6
:101F800095F8F030904228BF104680B2984268D24F
:101F900095F8211184F87C3005F1E80014F08BFBF2
:101FA00095F821112F7DB5F8FC60032908BF0421A5
:101FB00013F07CFE002F51D0864228BF0646F6B2B1
:101FC00084F8886006F006FA002851D1636A84F824
:101FD000746093F8A830002B3AD02B7D002B4ED1A3
:101FE0000120FFF7FDF9636AD3F8E8010DF06AF804
:101FF0000023C4E90033A360D5F82431E888B5F89C
:10200000AA1095F825206080218022710BB1012251
:102010001A6007B0BDE8F0830CF084FB636A93F8A4
:10202000A860002E7FF47AAF15F041FA95F82021D0
:10203000354B33F8123001463046344E03F5FA730F
:10204000A6FB036301EB931166310CF00BFE73E703
:10205000EA7C72BB0120FFF711FAC9E7043080B2B5
:10206000AAE7C3B294E70CF02BFC5CE71B238FE7D5
:1020700006F0B6F9B04238BF3046C6B2A6E795F8CA
:102080002131013BDBB2032BD5E91E0105F18007AD
:1020900005F190022FD8CDE9026301920026024695
:1020A00001200B4605903946009004960DF0D8FBB0
:1020B00096E795F8206195F82A01013EF6B2800076
:1020C000032ED5E91C89C0B205F1800105F190020B
:1020D00011D8CDE90363012605960096FB260192EF
:1020E0004B46424602960DF0BBFBB3E74FF420711E
:1020F0002720FEF7D7F940F225410620FEF7D2F956
:1021000060040020F81000200C430200D34D621040
:10211000FFF7A0B8014B93F88700704760040020D8
:10212000064A938E13F4C06F03F4805103D092F8E3
:102130007D0000B17047080B704700BF60040020AD
:10214000024B93F83500C0F3C000704760040020D4
:10215000014B93F88A00704760040020C912000008
:10216000BD170000F91C0000B51200000B468122CB
:1021700003F8032BB0F809C0C27AA1F803C09A7023
:10218000704700BF08B540F2BD213220FEF78AF942
:1021900090F8DE2012B902F0FF00704710B5363813
:1021A00082B00C4602F0D0FE8F230420237002B0D0
:1021B00010BD00BF70B5002857D0437A0D460446C5
:1021C000BBB340890021FEF783FD002852D0B0F850
:1021D000AA000021FEF792FD002850D194F8546027
:1021E00094F8A6302BB194F8A7301E43002384F84E
:1021F000A630204602F0A8FEB3072CD12B46882239
:1022000003F8032B04F10902293416685068916819
:10221000D2F80CC0C3F80CC01032A2421E60586045
:10222000996003F11003F0D1117819700022AA719E
:1022300070BD036DD0F80E20C3F8AD20428AA3F81C
:10224000B120437B026D03F0FD03003B18BF012367
:1022500082F8AC30C2E726F00406002284F854600D
:102260001146204603F0E2F8C8E740F2063132207A
:10227000FEF718F940F212313220FEF713F940F25E
:1022800015313220FEF70EF9044B1B680022A3F82B
:10229000792183F87B2183F870207047EC040020BB
:1022A00008B50BF035FD034B18700CF031FD032021
:1022B00008BD00BF1000002038B5114C20686C30FC
:1022C00001F0ACFF656801F059FF63682860186889
:1022D00058B101F081FF68B10CF088FE00200CF0CD
:1022E00029FF636804221A7138BD40F2F54132209B
:1022F000FEF7D8F840F2F7413220FEF7D3F800BFDE
:10230000EC040020F0B54B4C2568002383B06B72C1
:102310002B6DB3F8AA206A8106460F46D3F8C80091
:1023200093F8291113F015FD236828841A6DD2F84B
:10233000D020C3F822204FF47F42DA844FF6FF7298
:102340001A85002E49D00121384613F08EFF3A78C5
:10235000D209236893F8481009B1002A47D1002117
:1023600059611983207B082851D003F10E0203F133
:102370000D0105F00BFC002857D023685A7B42F072
:1023800002025A7303F11A05002E3AD103F17800C4
:1023900002682A608288AA80186D93F95810A830C4
:1023A00005F066FD2068244914F045F920682349AA
:1023B000036DB3F8AA20A0F83320DB7D80F8353018
:1023C0002A3014F041F92068022103F071F92068E5
:1023D0006C3001F023FF03B0F0BDA068694613F034
:1023E0003CFEA3681A786846C2F38012B1E74279CE
:1023F00002F0C002402AB2D102685A6182881A8370
:10240000B0E70021384613F030FF2368C0E793F8A7
:102410007E00996F5873C3F80E10B3F87C00588291
:102420000021C3F81A10D983B6E741F213413220D4
:10243000FEF738F8EC040020B52100006D21000003
:1024400008B540F29B313220FEF72CF810B5047825
:102450008CB004F00F04224602A902F0C7F80BF07A
:1024600057FC234A042C107002D003200CB010BD7E
:10247000204C0399236891F800E093F878C0E64572
:10248000F3D191F801E093F879C0E645EDD191F8E8
:1024900002E093F87AC0E645E7D191F803E093F8BB
:1024A0007BC0E645E1D191F804E093F87CC0E645B5
:1024B000DBD191F805C093F87D108C45D5D193F808
:1024C0007E309DF819109942CFD17F280DD0009011
:1024D0004FF07F0C606882F800C0237C227B02A949
:1024E00002F008F803200CB010BDFFF7A9FF00BFF1
:1024F00010000020EC04002010B50E4A5368197932
:1025000002290DD9197908290FD81B79526903F1CD
:1025100080439268033BBDE8104052F823301847CF
:1025200041F2BC413220FDF7BDFF41F2BD413220F6
:10253000FDF7B8FFEC04002038B5194D6B681B7926
:10254000022B28D82B68027C83F8A420C1689966E6
:102550001A44044692F87C2183F878214268C3F833
:102560008820037A022B0ED00CF0C8F90CF054FE30
:102570000BF02CFD0B480CF023FD0B480CF01AFD62
:102580000A480CF073FA637C23B12B685B6E0BB1C5
:1025900001221A6038BD40F6FC013220FDF782FFAF
:1025A000EC040020883B000055555500D6BE898EAE
:1025B00070B53B4C63681A79032A064643D01A79F2
:1025C000042A40D0226892F85420920740D1A5688E
:1025D000002D4CD0236893F85430002B3DD03EB1F1
:1025E000284613F0EEFEE0B9284613F005FFC0B907
:1025F00063681A79022A3FD91A79082A41D81B79C7
:10260000626903F180435269033B52F823309847D3
:102610000C2827D86369DB68BDE8704053F8203088
:10262000184763681A79022A30D91A79082A32D8E9
:102630001B79626903F180431269033B284652F813
:1026400023309847E4E7186801F0C6FD0546BFE768
:10265000186801F0C3FD0546BAE741F2CA313220DD
:10266000FDF720FF41F2DD313220FDF71BFF41F283
:10267000C4313220FDF716FF41F2AA313220FDF7B6
:1026800011FF41F2AB313220FDF70CFF41F24A312C
:102690003220FDF707FF41F24B313220FDF702FFF8
:1026A000EC04002070B5154D2C6894F84830EBB15F
:1026B000D4E920126FF000439A4208BFB1F1FF3F06
:1026C00014D00EF0FDFDD4E92023904299410DD3A2
:1026D0002E6896F8483053B905F052FA04460EF0C9
:1026E000EFFD074BE4FB0301C6E9200170BD0120AB
:1026F00005F008FB0028F9D02E68EDE7EC04002077
:1027000040420F002DE9F04F044687B006290AD851
:10271000DFE801F0512E0F0909090400B24D686885
:102720008379002B71D10CF0F3FA032007B0BDE8D8
:10273000F08F0CF0EDFAAC4A136893F854108F0741
:10274000F3D0506881790029EFD0A84D95F9001099
:102750007F2900F025820291127B01922146FF22FF
:102760007F240092423302222C7001F01BFEDCE732
:102770009D4DA27C2968686891F8483090F806A0C1
:1027800090F80790012A83F001035AD0002791F8AE
:10279000542012F0040600F0EF8091F84B60002EF8
:1027A00059D091F84C80B8F1080F59D191F84100F7
:1027B000002680466DE08C4DD5E9003093F854201A
:1027C00057071AD5C279002A00F0DF80626893F8B3
:1027D0005B1016788E4200F03C8193F85620012A57
:1027E00000F05B8193F84C30082B03D042799A4279
:1027F00000F053810CF08CFA68688379002B40F06C
:10280000C880C379002B90D18DE72B6893F85420B2
:10281000960740F1ED80754A92F900107F2900F08B
:10282000BF81029121462C7B0194FF2400947F24D8
:1028300042331470062201F0B5FD002309202B74E9
:1028400074E7A268577907F0C007A7F14007B7FA05
:1028500087F77F099BE790F80580B8F1080F40D013
:102860004046059305F0A0F8059B8346002F40F0F5
:102870004581296891F8542091F8418002F0040CB8
:102880003E464046BCF1000F41D043EA0B0B5FFAD5
:102890008BF3626891F85BC092F800E0E64500F0C7
:1028A000FF804FF0000B6A685279082A00F03D81E2
:1028B00091F84CC0ACEB0202B2FA82F252090592D6
:1028C000E6B1B9F1000F1DD091F85630012B00F0A0
:1028D000E48023B9059B5BEA030B40F0DE804E46A3
:1028E00010E0626891F85BC092F800E091F8410056
:1028F000E64500F0D480B34680460596002B40F0B4
:10290000178100260CF004FA2B6893F854209307E3
:102910003FF40BAF0CF0FCF9BAF1000F3FF405AF38
:102920002968A36891F84100A27C423113F0F5F8C0
:10293000002840F01981002E40F016812B6893F892
:102940005520023A012A3FF6F0AE002F3FF4EDAEDB
:10295000264E96F900207F2A00F0228102922A7BDF
:10296000686801922146FE227F24009242330122B0
:10297000347001F017FDD8E690F80580B8F1080F23
:102980007FF46EAF91F84180C1E78379002B3FF46B
:10299000CAAE2B6893F85420960744D4D0077FF52D
:1029A000C4AE510700F1F380104B93F900207F2A49
:1029B00000F0F68002922A7B0192FF2200927F2093
:1029C00018702B68686821464233002201F0EAFC47
:1029D00003206B68DA79002A7FF4A8AE9B79002B7C
:1029E0007FF4A4AE9FE600BFEC040020100000209E
:1029F000D1077FF598AE530700F1B380694B93F987
:102A000000207F2A00F0CC8002922A7B0192FF22D4
:102A100000927F201870D5E900302146423306220B
:102A200001F0C0FC81E65F4A92F900107F2900F0B6
:102A3000B780029121462C7B0194FF2400947F24CF
:102A400042331470002201F0ADFC012309202B74E5
:102A5000BFE7567893F85C108E427FF4BEAE96784E
:102A600093F85D108E427FF4B8AED67893F85E107E
:102A70008E427FF4B2AE167993F85F108E427FF4E7
:102A8000ACAE517993F8602091427FF4A6AE617CA0
:102A900093F85A2091427FF4A0AE0A2046E6804681
:102AA00092F801E091F85CC0E6457FF4FAAE92F846
:102AB00002E091F85DC0E6457FF4F3AE92F803E0E2
:102AC00091F85EC0E6457FF4ECAE92F804E091F830
:102AD0005FC0E6457FF4E5AE92F805C091F860204E
:102AE00094457FF4DEAE94F811B091F85A20ABEB28
:102AF0000202D2F1000B4BEB020BD4E6A168059366
:102B0000404605F033F92968059B91F854200646A4
:102B100002F0040C91F84100002E3BD040F0020876
:102B2000BCF1000F7FF4B1AEF1E600220592C7E6DA
:102B3000A368A27C423112F0F0FFB9F1000F3FF41C
:102B4000E0AE2B6893F85630012B07D0002B7FF4B2
:102B5000D8AE059B53EA0B0B3FF4D3AE00289CD1B3
:102B6000CFE60CF0D5F849E70E4E96F900307F2BF2
:102B700016D002932B7BCDE90083D5E900302146A6
:102B80007F2401224233347001F00CFCCDE50CF0BF
:102B9000BFF809E78046BCF1000F7FF476AEB6E6D9
:102BA000FFF74EFC100000202DE9F843664C074665
:102BB000A068D4F800800023038089460CF04EFA08
:102BC000002800F0A380A568032F2B78064600F0AC
:102BD000A98023F02F0343EA491343F005032B7028
:102BE000222223686A701A6DD2F8CC20C5F80F2013
:102BF0001A6DD2F8D430EB74190A1B0C29756B7559
:102C000092F82A01B2F8DC10D2F8D830002840F04F
:102C100091804E48A0FB01C1A0FB0303890A9B0AD7
:102C2000EB75C3F307232B76A97592F82911D2F817
:102C3000C80013F08EF86876000AA8762068A568A8
:102C4000036D95F82420D3F8D010C5F81B109969AE
:102C5000C5F81F101B7F85F82330036D93F82330D0
:102C600022F01F0203F01F03134385F8243004F001
:102C70002DFB95F8243003F01F0343EA401385F839
:102C80002430A568D8F87830C5F80930B8F87C3019
:102C9000A5F80D3098F87E10284613F0EEF9236859
:102CA00093F8482093F8418003F14209AAB393F8BE
:102CB0005420520733D593F84B2082B393F84C003D
:102CC00005F08EF8054640B34FF00108A0682B6868
:102CD000C0F80330AB88A0F80730414613F0C4F9C0
:102CE0001B4BD3F804317BB9052F13D12368296816
:102CF0001A6DC2F8B410A988A2F8B8101B6D83F839
:102D0000B3803046BDE8F8830CF002F8032005F0EC
:102D10002BFB00263046BDE8F8834D46D6E76368B6
:102D20005879CDE723F00F0343F003032B700C23F6
:102D30006B70A7E70748A0FB01C1A0FB0330C1F3FC
:102D4000471143096CE700BFEC0400205917B7D1C5
:102D5000001000401F85EB5110B50A4C0AF0D8FF57
:102D6000094A637B10701BB90BF0D2FF032010BD22
:102D70000CF052FA0BF02AF9002363730BF0C8FF32
:102D8000032010BDEC0400201000002010B50B4CF7
:102D9000637B63B9A1680020FFF7B4FA23680022BF
:102DA000A3F8792183F87B2183F8702010BD0CF003
:102DB00033FA0BF00BF900236373EBE7EC0400200C
:102DC00010B50F4C637B9BB9D4E9003000224FF063
:102DD000010C80F804C003F16C00A3F8792183F89A
:102DE0007B2101F01BFA2068BDE8104002F036BBE1
:102DF0000CF012FA0BF0EAF800236373E4E700BF6B
:102E0000EC0400202DE9F04F0729044687B0406804
:102E10000D46904644D100285ED0637C012B00F023
:102E2000AB80A74E73685879082844D004AA0DF1E6
:102E30000F0104F0ABFE002800F069819DF80F003F
:102E400004A914F0B0F98146D6E9001791F854307E
:102E500013F0030240F08280BA715A0763D4002352
:102E6000FB71984B1B6823B1414620469847387246
:102E70007768636843B13268617C82F87E101968B4
:102E800091679B88A2F87C303B7A0120002B00F0F0
:102E90004381A3680BB1072D4DD007B0BDE8F08F7B
:102EA000874E002800F08680637C7268012B4DD02D
:102EB00050790828BAD16168607C14F074F972689E
:102EC000616881460532607C04F096FD77680028D1
:102ED000BAD1F8803872DCE7794ED6E9001791F85C
:102EE000543003F00302B8F1000F65D0002A40F01F
:102EF000B88013F00403BA71B2D091F84BA0FB79FB
:102F00009146002BACD063688BB9386801F068FB40
:102F10000346002840F0A380BAF1000F00F0F380D0
:102F2000776853469CE7062D91F84BA07DD84AEA76
:102F30000900C3B294E779790829AED00028ACD053
:102F4000184604F059FE0123F373A6E7437903F012
:102F5000C003402BACD1737B13BBA9E7062D91F8BE
:102F60004AA04CD84AEA090A5B0787F806A07FF511
:102F700076AF91F84BA0DAE7437903F0C003402B1A
:102F80007FF44FAF4E4E737B002B3FF44BAFB8F145
:102F9000000F05D1336893F87811012900F09D8066
:102FA000776812F0FEFD73687871587930730123E9
:102FB000B37339E7814647E7B2F1000918BF4FF014
:102FC000010913F0040387F8069005D02378A3F1D4
:102FD0000103B3FA83F35B09FB7191F89430002B82
:102FE0003FF45BAF3368D3F89000503014F065F9CC
:102FF00000287FF452AF736801221A724DE7082D42
:1030000002D90023BB712AE797F806B0B8F1000F88
:103010002CD16268002A46D04AEA090A580787F884
:1030200006A07FF51CAF91F84BA0082D3FF617AF17
:10303000FB79B8F1000F7FF464AF6268002A7FF477
:1030400076AF62780193D30657D4386801F0C8FA96
:1030500000283FF461AF019B002B3FF45DAF776820
:10306000FEE691F84AA097F806B08146BBF1000F42
:103070002AD06268002ACFD1386801F0B1FA80B94D
:10308000BAF1000F3BD07768326887F806A092F853
:10309000543013F004033FF4E3AE92F84BA0FB79F5
:1030A000C7E78246EFE76278D0061DD4386801F0A2
:1030B00097FA0028E4D0BBF1000FE1D0DA46E2E74E
:1030C000EC040020FC1000205B0787F806B07FF5B9
:1030D000C6AE91F84BA0FB7913E704F06FFD707357
:1030E00000287FF45DAF9DE60120B87158077FF599
:1030F000B6AE91F84BA0FB79A4E70123B0E604F04B
:1031000075FC8246BFE704F071FC0346A7E740F672
:10311000A5313220FDF7C6F9F888003818BF012024
:10312000B7E600BF70B5194E8AB005460AF0F0FD4B
:103130003368174A93F85430107013F0060F16D105
:103140002C7804F00F0422462846694601F04EFA16
:10315000214600226846FFF755FE21466846FFF7E4
:10316000D1FA737B044643B920460AB070BD0122F0
:10317000962100200BF08AFDE2E70CF04DF80AF0F2
:1031800025FF0023204673730AB070BDEC040020B5
:103190001000002010B5104C606801F0B7F8637B98
:1031A0009BB9D4E9003000224FF0010C80F804C034
:1031B00003F16C00A3F8792183F87B2101F02EF84C
:1031C0002068BDE8104002F049B90CF025F80AF07B
:1031D000FDFE00236373E4E7EC04002010B500213A
:1031E0000320FFF7E1FC164C20B12068032101F019
:1031F00037FFA8B9637BDBB9D4E9003000224FF078
:10320000010C80F804C003F16C00A3F8792183F865
:103210007B2101F003F82068BDE8104002F01EB9E0
:10322000012108460CF02AF8636809221A7110BDC2
:103230000BF0F2FF0AF0CAFE00236373DCE700BF65
:10324000EC04002038B5224C6368186800F0C4FF15
:10325000002837D063680A2205461A7120680021C9
:1032600002F026FA22682B78126DD57DC3F3401345
:103270001D4005202946FFF797FC40B12068042136
:1032800001F0EEFE18B123681B6DDD7538BD637B60
:103290008BB9D4E9003000220125057103F16C00DF
:1032A000A3F8792183F87B2100F0B8FF2068BDE8FE
:1032B000384002F0D3B80BF0AFFF0AF087FE0023CE
:1032C0006373E6E740F261513220FDF7EBF800BF8F
:1032D000EC04002010B51F4C636888B981B11A79DD
:1032E000082A2DD91A790C2A2FD81B79626903F183
:1032F00080435268093BBDE8104052F8233018471C
:10330000184601F003F8637B9BB9D4E90030002232
:103310004FF0010C80F804C003F16C00A3F8792190
:1033200083F87B2100F07AFF2068BDE8104002F0AE
:1033300095B80BF071FF0AF049FE00236373E4E7D0
:1033400041F28C413220FDF7ADF841F28D4132203F
:10335000FDF7A8F8EC040020F0B55A4C206883B0C3
:103360006C3000F05BFF656800F008FF6368286060
:103370001868002800F09B8000F02EFF054600280A
:1033800000F09A80236893F8A630002B47D1D4E947
:10339000000290F8A430034493F87C7180F87871AF
:1033A000137913B11379012B4AD1474A90F8A5300C
:1033B000D05C0BF065FB236893F8A420134493F8CA
:1033C0007C61022E3AD04DD8012E4ED100F0D0FEB5
:1033D00031460BF0E9F928460BF008FE3146012092
:1033E0000BF062FB012F31D1E81C04F015FC607377
:1033F00028B140250AF0CCFD28460BF001FFD4E9A6
:10340000000208210023517121730321D38013721C
:10341000E38180F895302374117103B0F0BD236807
:1034200093F8542093F8A700196DC3F810110243C4
:1034300083F85420002283F8A620A8E70D20C7E7D0
:10344000002101F00DFEA8B12068AEE7681D04F070
:10345000E3FB60730028D2D0033F012F8CBF5025BF
:103460005525C7E7F31E012BB0D940F2F771322082
:10347000FDF718F8637B93B9D4E9003000220125E9
:10348000057103F16C00A3F8792183F87B2100F02A
:10349000C5FE206803B0BDE8F04001F0DFBF019039
:1034A0000BF0BAFE0AF092FD01986073E4E740F277
:1034B00052413220FCF7F6FF40F254413220FCF733
:1034C000F1FF00BFEC040020B040020008B50AF094
:1034D0001FFC044B18700BF01BFCBDE80840FFF705
:1034E0003BBF00BF1000002010B50C4C0AF010FCD0
:1034F0000B4A637B10702BB90BF00AFCBDE810403F
:10350000FFF72ABF0BF088FE0AF060FD002363730B
:103510000BF0FEFBBDE81040FFF71EBFEC040020DF
:103520001000002010B50446FFF706F8237A032B9D
:1035300034D01D4A12683BBB92F8A5301B490133B9
:10354000A1FB030C0CF4FF7404EB5C0492F849003B
:103550001B1B40FA03F4E40713D40133A1FB034C13
:103560002CF0010404EB5C041B1B40FA03F4E0079D
:1035700007D40133A1FB034121F0010404EB510105
:103580005B1ADBB282F8A53092F958000BF068FAAA
:10359000FFF7E2FEBDE81040FFF784B840F62E11B9
:1035A0003220FCF77FFF00BFEC040020ABAAAAAAE0
:1035B00090F83E00003818BF01207047007A0038AC
:1035C00018BF0120704700BF036D10B58BB10222F8
:1035D0004272B3F8AA1041814FF6FF73FF220446EE
:1035E0000385064980F8272013F025F8002323657A
:1035F00010BD40F261313220FCF754FFB5210000CC
:1036000038B5012105460020FDF762FB20B30446D2
:1036100001F090FC02E094F870301BB194F8703027
:10362000012BF8D13F220021204610F001F90023A0
:1036300040F201110722A4F84A1084F8543084F8AB
:10364000A53084F8585084F84920636684F8943093
:10365000C4F8903084F8A63001210846FDF738FB05
:10366000044618B301F066FC02E094F870301BB118
:1036700094F87030012BF8D13F220021204610F041
:10368000D7F8002340F201110722A4F84A1084F869
:10369000543084F8A53084F8585084F84920636683
:1036A00084F89430C4F8903084F8A630BDE83840EF
:1036B00000F054BDF8B5064603F078FD1C4F0346F4
:1036C00001210020BB60FDF7C7FA30B34FF4C07290
:1036D0000021044610F0ACF801210846FDF7BCFAC1
:1036E0007F69054680B14FF4C072002110F0A0F848
:1036F000C7B13046FFF784FF204601F011FC284691
:10370000BDE8F84001F00CBC67B13046FFF778FF28
:103710002046BDE8F84001F003BC40F685013220A8
:10372000FCF7C0FE40F68F013220FCF7BBFE00BF65
:10373000EC040020014B024A5A617047EC0400205F
:10374000EC3B000003683BB1064A03F16C011360D7
:10375000536951601B68184710B540F67711322045
:10376000FCF7A0FEEC04002010B5104C606800F0DF
:10377000CDFD637B9BB9D4E9003000224FF0010CF2
:1037800080F804C003F16C00A3F8792183F87B2151
:1037900000F044FD2068BDE8104001F05FBE0BF072
:1037A0003BFD0AF013FC00236373E4E7EC04002004
:1037B00080F84910704700BF11F001031DBF0123BD
:1037C00080F87C310222012211F0020F05D003445F
:1037D0004FF0020C83F87CC113464A0703D5184406
:1037E000032380F87C31704780F85710704700BF82
:1037F00010B5044690F84000A0F1020CBCF1010F96
:1038000007D910B1023818BF0120BDE8104003F0FD
:1038100071BF0029F6D102F0FD02101E18BF012071
:10382000194612F0B4F9082801D0012010BD94F80F
:1038300040000028E6D1E8E790F8400000F0FD00E5
:10384000003818BF012003F055BF00BF38B590F80D
:10385000A630DBB9044603F0FF0094F85430013B76
:10386000012B00D938BD04290D46FBD1D4F8103105
:1038700073B9216D89B104F1E80001F04FFC84F8BF
:10388000A750FF2384F8A630012038BD002038BDA2
:1038900040F6F8113220FCF705FE40F6F91132200F
:1038A000FCF700FE80F84010704700BF38B500F10B
:1038B0004201044690F8400000F0FD00003818BFB7
:1038C000012084F8410003F0FBFE94F84030023BF5
:1038D000DBB2012B94BF0123002384F8483000D9C8
:1038E00038BD04F04DF905460DF0EAFC094BE5FB47
:1038F000030194F84830C4E92001002BF0D00020E7
:1039000004F000FA0028EBD140F621213220FCF728
:10391000C9FD00BF40420F00B1F1000C0CBF0121F6
:10392000002180F84B104FF0080180F856C080F855
:103930004C100CD102F0FD0210B50446101E1946C1
:1039400018BF012012F023F984F84C0010BD704715
:1039500008B5AAB180F85A101368C0F85B30036D3F
:10396000918890F84120A0F85F1083F8B320D0F838
:103970004220C3F8B420B0F84620A3F8B82008BD10
:1039800040F63F213220FCF78DFD00BFF0B5D0F8A6
:10399000C8409DF814E0944203D190F840208A4238
:1039A00001D00020F0BD1EF0020190F8454120D169
:1039B0000D460A468618013596F87C61F71E012FE0
:1039C00000EB820788BF314353F82260D7F8CC2040
:1039D00002F1200C98BF41F004016645EAB2E0D143
:1039E000A242E7D90EF00500401AB0FA80F0400973
:1039F000F0BD0025AC4629462A46861800EB820217
:103A000096F87C61D2F8CC20F71E012F9CBF0CF1F8
:103A1000010C5FFA8CFC02F1200253F82C708CBF71
:103A2000314341F004010CF10106BA4205F10105F0
:103A30005FFA86FCB5D1EAB2A242DED9D2E700BF76
:103A400090F854305A070ED413F0030301D11846EE
:103A5000704790F8550000F0FD00A0F10100B0FAA9
:103A600080F04009704790F85600A0F10100B0FACC
:103A700080F04009704700BF012938B5044610D0D6
:103A800094F854309B0704F16C051AD1284600F0D5
:103A9000C5FB0023A4F8793184F87B3184F87030B9
:103AA00038BD0A4D6B7B002BEAD00BF0B5FB0AF05A
:103AB0008DFA00236B7394F854309B0704F16C0566
:103AC000E4D0284600F022FCE0E700BFEC04002030
:103AD000A03011F0B9BD00BF0149363012F0AEBDC3
:103AE0009121000010B5012104460020FDF7F0F8F7
:103AF00020B3627880F85420217811F001021CBFB5
:103B0000012280F87C214907034603D502440321A2
:103B100082F87C11A27883F84020E27883F855205F
:103B200002F0FD02B2FA82F2520983F84A202279A9
:103B300083F84920627983F8572010BD40F6CB21E5
:103B40003220FCF7AFFC00BF10B504466C3000F02B
:103B5000DDFB0023A4F8793184F87B3184F87030E0
:103B600010BD00BF08B501210020FDF7B1F828B154
:103B700090F89400003818BF012008BD40F64A3183
:103B80003220FCF78FFC00BFF9240000B1250000B3
:103B9000D532000095310000B92200008D2D0000C3
:103BA000E9340000CD34000089220000C12D00005E
:103BB0008521000059330000852100008521000087
:103BC000852100008521000085210000DD310000F5
:103BD00045320000852100008521000025310000CC
:103BE0004D240000592D0000A122000025350000C1
:103BF000983B0000A03B0000A83B0000DC3B00001D
:103C0000E43B00002DE9F04705468CB00E4600204D
:103C10000121FDF75DF8002800F074820446A83009
:103C200001F09CF9002846D094F85430042B42D07F
:103C3000AF6A002F00F06981B74B9F427AD0043BF6
:103C40009F4277D003F0C0FA07F13B09804602A9F2
:103C5000484600F071FDEB7AB8F1000F00F0D58016
:103C6000DC0606F10D0100F1FD81002F00F0588205
:103C70009DF80830022B00F0538295F83230E5228F
:103C8000484612F035FB95F8323004462344484646
:103C900085F8323012F024FB95F83290A9EB000938
:103CA000B9FA89F94FEA5919B8F1000F48D104F16E
:103CB0001802D2B2B8E02046FFF77AFC0746002887
:103CC000B6D1AB6A954C0BB304F1080804F10C06AD
:103CD00001E0AB6AD3B1A96A0B68AB6241450F70D2
:103CE0004F708F70CF70F4D0B142F2D0206810F0D6
:103CF00059FB231DD3E84F3F0133DBB2211DC1E83F
:103D0000423F002AF5D1AB6A002BE4D12068A5F12F
:103D1000080110F047FB231DD3E84F3F0133DBB20E
:103D2000211DC1E8423F002AF5D14FF40073ADF8E0
:103D300004305EE003F048FA8146002870D0002489
:103D4000EB7ADA0640F1EC815807AA7A697B03D551
:103D5000E87EFE2800F05A8104F10A0313FB02F307
:103D6000023373703E23337002237171F270B370AB
:103D7000D5F80E30C6F806306B8A7381347334443C
:103D80002B7E6373EB7A13F0080100F0E780634C3D
:103D900004F1080804234745337178D133790222AE
:103DA00062F34613AA6A33716AB1EFF3108272B6F6
:103DB000AB6A1968A962002A00F0C68000221A7056
:103DC0005A709A70DA702068A5F1080110F0EAFACA
:103DD000231DD3E84F3F0133DBB2211DC1E8423F31
:103DE000002AF5D102274FF004088DF804808DF8E1
:103DF00005709DF804209DF80530002062F307004F
:103E000063F30F200CB0BDE8F087D80606F11C0163
:103E100000F11E8127B19DF80830022B7FF42DAFF1
:103E2000182200244FF001098E233370AB7AF3700F
:103E300013FB02F302337370D5F80B30D5F80F2063
:103E4000D5F81310D5F8170030617360B260F160D7
:103E5000D5F81B30D5F81F20B261736195F814A016
:103E600095F8158003F0EEF90AF1FF338A05DBB20D
:103E700056D5032B00F24F8186F80DA0B8F1000F44
:103E800064D1F476254C04F10808474586D004F146
:103E90000C0A57456BD0002F00F09180B9F1000F4C
:103EA0002AD0AB6A63B1EFF3108272B6AB6A1968BD
:103EB000A96202B962B600221A705A709A70DA705A
:103EC0002068394610F06EFA231DD3E84F3F0133C6
:103ED000DBB2211DC1E8423F002AF5D1AB6A85F86B
:103EE0003220434500F0C780534500F0E8809DF83C
:103EF0000830022B00F0A5803379012262F34613CB
:103F0000337101274FF004086FE703F05DF905F105
:103F1000330980469BE600BF100500200405002001
:103F2000032B00F20181834AD35C7373B8F1000F55
:103F3000A7D008F1FF385FFA88F8B8F1030F00F254
:103F4000F38012F8088006E062B637E708F1FF3325
:103F5000032B00F2E08086F80E8092E703F0030264
:103F6000032A49D0590749D5012333718AE7AB6A3F
:103F700063B1EFF3108272B6AB6A1968A96202B935
:103F800062B600221A705A709A70DA706B7D83BB29
:103F9000327963F3461232714FF004082068A5F1BC
:103FA000080110F0FFF9231DD3E84F3F0133DBB2C6
:103FB000211DC1E8423F002AF5D1022715E795F8F7
:103FC0000B8018F010083FF410AF3379206867F3C6
:103FD0004613A5F10801337110F0E4F9231DD3E86D
:103FE0004F3F0133DBB2211DC1E8423F002AF5D12A
:103FF000F8E64FF00008D1E7317143E7022A25D0F7
:10400000002A40F08480032333713BE7130102331D
:1040100073703E2333700B23B37001237171F27000
:104020003371D5F80E30C6F806306B8A7381307361
:10403000EB69C6F80D302B8CA6F811302B7EF3748B
:1040400020E7337923F0680333715AE7327119E7B7
:104050009DF818400846224605990FF06BFC4FF07A
:10406000010924E69DF818400846224605990FF0FC
:1040700061FCC14664E63379022262F34613AA6A00
:10408000337162B1EFF3108272B6AB6A1968A9623C
:1040900002B962B600221A705A709A70DA702068FB
:1040A000A5F1080110F07EF9231DD3E84F3F01333D
:1040B000DBB2211DC1E8423F002AF5D192E63379F7
:1040C00062F34613AA6A337162B1EFF3108272B6DB
:1040D000AB6A1968A96202B962B600221A705A70F6
:1040E0009A70DA702068A5F1080110F05BF9231DC1
:1040F000D3E84F3F0133DBB2211DC1E8423F002A24
:10410000F5D16FE64FF4F1713320FCF7CBF9A42120
:104110003320FCF7C7F94FF4EA713320FCF7C2F9FA
:104120005B213320FCF7BEF94FF43F710620FCF70A
:10413000B9F900BFB4400200343270B592B20446FF
:104140001E460D4610F0F6F824B1034B1C601D749A
:104150005E741D7170BD00BF0405002010B5034CD6
:10416000206810F009F9237C237110BD040500209C
:10417000014B587C704700BF0405002038B5154C32
:10418000206810F0FFF800B30546231DD3E84F3F29
:10419000013BDBB2221DC2E8413F0029F5D105F108
:1041A0000803342218460FF043FBEA7CED62034615
:1041B000FF21012447F6FF7064F34612E883697516
:1041C00085F82310EA74184638BD40F257113320A1
:1041D000FCF768F9040500203330704738B5044611
:1041E000406A08B13B3038BD0B4D286810F0CAF862
:1041F000606260B12B1DD3E84F3F013BDBB2291D4C
:10420000C1E8423F002AF5D1606A3B3038BD4FF427
:10421000B8713320FCF746F90405002038B503686F
:104220004BB39A6A52BB596A054629B301F108009B
:10423000154C834208BF2A60206810F0B3F8231D94
:10424000D3E84F3F0133DBB2211DC1E8423F002AD2
:10425000F5D12B687BB12068A3F1080110F0A2F81A
:10426000231DD3E84F3F0133DBB2211DC1E8423F9C
:10427000002AF5D12A6038BD034CECE740F28D11DD
:104280003320FCF70FF900BF0405002070B5056866
:104290000646F5B11B491C4C284612F0D8F90023FC
:1042A000E360EFF3108272B6AB6A23B3E96A04F1FC
:1042B0000C030B60EB6202B962B63368596A29B12C
:1042C00001F10805AB421AD100236B620023336071
:1042D00070BD696A0029F9D00B4C206810F062F8B3
:1042E000231DD3E84F3F0133DBB2211DC1E8423F1C
:1042F000002AF5D1E8E704F10C03AB62DAE71D46CA
:10430000EBE700BF053C00000405002070B506681F
:10431000002E3CD0716A0546002939D001F108030E
:104320009E421E4C0DD0206810F03CF8231DD3E8AF
:104330004F3F0133DBB2211DC1E8423F002AF5D1D6
:104340002B68002272625A7D8AB10022A260EFF3CC
:10435000108172B69A6AF2B1D86A114A0260DA62C2
:1043600001B962B62846BDE87040FFF78FBF2068EC
:10437000A3F1080110F016F8231DD3E84F3F0133D5
:10438000DBB2211DC1E8423F002AF5D12A6070BD91
:10439000024C3346D7E7024A9A62E0E70405002060
:1043A0000C0500202DE9F843504D04689DF820804D
:1043B0000F4629790026994606609DF928309DF818
:1043C000240081B92868A4F108010FF0EBFF2B1D30
:1043D000D3E84F3F0133DBB2291DC1E8423F002A39
:1043E000F5D1BDE8F8830121C4F80960C4F80D6077
:1043F000C4F81160C4F81560C4F81960C4F81D60F1
:10440000A4F82160A172062A66D8DFE802F02B32F8
:1044100039653E650400E27A22F0120242F012028F
:10442000E272237601232375082847F6FF73E3829F
:1044300004F10E0230D004F10D0103F0A7FB0028B7
:104440004FD0637B43F002036373E37A5B072ED4A0
:10445000FF23E3760023237225492046BDE8F84375
:1044600012F0ECB8E27A22F0130242F01302E27288
:10447000D7E7E27A22F0150242F01502E272D0E7A5
:10448000E27A42F01002E272CBE7E27A22F01A02FC
:1044900042F01A02E272C4E77B7C63737B6819689E
:1044A000C4F80E109B889380E37A5B07D0D5A8F1FF
:1044B0000203012B04F11C0207D9BB681968E161F2
:1044C0009B88938084F81B80C4E7D9F80030E361AF
:1044D000B9F804309380F5E740F246413320FBF70A
:1044E000E1FFC3213320FBF7DDFF00BF04050020FF
:1044F000053C0000F8B5384D9DF918E0844610469B
:104500002A79DCF800400026CCF800607AB92868E7
:10451000A4F108010FF046FF2B1DD3E84F3F0133F4
:10452000DBB2291DC1E8423F002AF5D1F8BDC4F82D
:1045300009600F466189C4F8116041F6012545EA1A
:10454000032521F4DF5141F6FF33012221F01F0141
:104550002B4022750B4347F6FF720828C4F81560FC
:10456000C4F80D60E282C4F81960C4F81D60A4F8B4
:10457000216084F818E004F10E02638115D004F183
:104580000D0103F003FB18B3637B43F00203637375
:10459000E37A5B0714D4FF23E376002323720F49E9
:1045A0002046BDE8F84012F049B87B7C63737B6815
:1045B0001968C4F80E109B889380E37A5B07EAD5EC
:1045C000BB681968E1619B882384FF22E276E4E7F7
:1045D000C3213320FBF766FF04050020053C0000E3
:1045E00018B1407BFF3818BF0120704770B50378C1
:1045F000C3F380134B740C461646054611F044FD78
:10460000062EA07424D8012303FA06F212F0550FE7
:1046100011D0E91C0022C4E9011263706B78063BDB
:1046200013F0FF0303D11D462374E56070BD093507
:104630002374E56070BD9E420AD10322AB18093590
:10464000C4E90135627000231D462374E56070BD26
:104650000023C4E901336370F5E700BF38B5C378C0
:104660000C4613F03F0160D00378C3F380136374EA
:10467000054611F009FDA0742B796370E878830971
:1046800023702B7913F0010146D14FF0050C4FF048
:104690000B0E6246616013F002011CBF05EB0C01BA
:1046A0007246A160590744BF0132D2B213F008012B
:1046B00004D002F1020CA9185FFA8CF2616113F0C8
:1046C000100104D002F1030CA9185FFA8CF2A16169
:1046D00013F0200104D002F1120CA9185FFA8CF239
:1046E00013F04003E16102D0AB180132D2B200F006
:1046F0003F002362031D9B1A13F0FF0114BFAB1888
:104700000B4663626B78013B1B1ADBB2237453B117
:104710000A441544E56038BD4FF00B0C691D4FF09D
:10472000110E6246B6E7E36038BD20462822BDE898
:1047300038400FF07DB800BF70B5037803F00F0666
:10474000072E2BD0C3F380134B740C46054611F093
:104750009BFC012202FA06F313F05503A0740CD05F
:104760000023E91CC4E9011362706B78063BDBB2DD
:1047700023748BB10935E56070BD964208D10321E1
:104780006A1823740935C4E901256170E36070BDBE
:10479000C4E9013363702374E36070BDBDE8704009
:1047A000FFF75CBFF0B5D0F81011D0F8C86090F8F2
:1047B000455189B100210C460B4600EB83030131C2
:1047C000D3F8CC20CBB22032AB421444F5D9A64268
:1047D0000CBF02200120F0BD8C460F4600EB81018A
:1047E0000CF1010CD1F8CC405FFA8CF104F1200EF1
:1047F000A9427744F2D90721BE42A6FB011422D078
:10480000D0F8C070C919D0F8C47044EB0704D0F8D0
:10481000CC701DB3D0F8D0C0012D674407F140071C
:1048200003D0D0F8D40020300744BE4205D08A42DD
:1048300073EB040416D30120F0BD8A4273EB040429
:1048400010D20320F0BDD0F8B070C919D0F8B47000
:1048500044EB0704D0F8CC70002DDBD12037BE42EA
:10486000E5D1EAE70220F0BD08B540F28A31212007
:10487000FBF718FE38B50446FF2380F8153100F524
:104880008C7528460CF0D2FD284604F5A4750CF072
:10489000E1FD28460CF0CAFD28460CF0DBFD0021A6
:1048A0002046FFF7E9F894F816313BB1D4F8083107
:1048B00053B104F1E80004F0E7FD09E0D4F8100179
:1048C00010B1D4F808319BB104F1E80004F06CFD9C
:1048D000002384F8153194F8160110F0FF0018BF7A
:1048E0000C2084F81631C4F8103184F8143138BD26
:1048F00000F5EC7004F058FDE6E700BF022910B5A2
:104900002AD013D8012934D1044608460AF0F0FE13
:104910001A4A00F52343A133A2FB0323D4F8102144
:10492000980900F2792002B1400010BDCB1E012B86
:104930001FD840F2BF33084640F29174032918BFD4
:104940001C460AF0D5FE0D4B00F52340A130A3FB19
:10495000003004EB901010BD08460AF0C9FE074B6A
:1049600000F52340A130A3FB0030800900F2611064
:1049700010BD40F217119E20FBF794FDD34D62103D
:104980002DE9F04104460CF09BFCD4F81021D4F83A
:10499000C87005460E4694F84501002A46D04FF0EF
:1049A000000C6146634604EB83030CF1010CD3F861
:1049B000CC205FFA8CF3203283421144F3D98F422A
:1049C0000CBF0227012738460CF06AFD312829D98F
:1049D000411CD4E9363259D0C118914228BFD01AAF
:1049E000D4F8A830D4F8AC205B1B62EB0602012B94
:1049F00072F1000151DB0021984291415EDA41F2EF
:104A00008836864228BF06460CF05AFCC5F174056C
:104A10000544B54206D8394630460CF06DFD0546D2
:104A2000002852D100252846BDE8F081944613465F
:104A300004EB83030132D3F8CC10D3B2203183428C
:104A40008C44F5D907236745D4E92C1EA7FB03380E
:104A50002ED0D4F8C0209B18D4F8C42048EB02080C
:104A6000D4F8CC20D8B1D4F8D0C00128624402F1E7
:104A7000400203D0D4F8D40020300244974211D031
:104A800099427EEB080817D301279CE7D61A41F21A
:104A900088339E4228BF1E46B6E70026B4E7203280
:104AA0009742EDD199427EEB080805D203278AE7A9
:104AB000CB184EEB0808D3E7022784E741F288328F
:104AC000934228BF13461E469EE70CF0FFFBD4F826
:104AD000E020D4F8D830B018D4F8DC20C4F8E000D6
:104AE00033449342C4F8D83003D1D4E93A23C4E91B
:104AF00030230CF0E7FB96E72DE9F04F04468BB02E
:104B0000052900F26B81DFE811F021000900320075
:104B1000D20069010C002046FEF7DEFF0BB0BDE8B5
:104B2000F08F90F8153163B9B0F87A31C3F30C0304
:104B3000002B00F04A8190F87831033B012B40F2C2
:104B40006A810BB0BDE8F04FFEF70EBE90F815314C
:104B500003F0FF05002B00F0B4800121FEF78CFF6D
:104B60000AF074F90BB0BDE8F04F0DF0BDBCB0F821
:104B70007A31C3F30C03002B40F02D810CF0A0FB25
:104B8000D4F8CC70804694F845018B4607F120019B
:104B900050B1012304EB83020133D2F8CC20DBB205
:104BA000203283421144F5D9D4F8C8508D4200F028
:104BB000D280D4E93A365A19A8EB0303B3FBF5F3D4
:104BC00005FB03F346F100069B18A3EB080246F130
:104BD0000006F62A4FF0000900F24481ED1846F174
:104BE0000006CDF8049094F87C112046FFF786FE6D
:104BF000D4E92AA1BAEB050361EB0602012B814639
:104C000072F10000C0F2A58000209F42904100DBBD
:104C10001F46D4F8CC3003939F4228BF1F4604237D
:104C20008DF81930C4E92E563346C4F8D890C4F82C
:104C3000DC702A4620460291FFF7B4FD019B8DF8F7
:104C40001800CDF81490BBB302990123BAEB080AFF
:104C500061EB0B019A458DF8103071F10003C0F241
:104C60004981AE48002350458B4180F2D280D4F870
:104C70001031D4F8C810002B00F01F814FF0FF3224
:104C8000154690457BEB0503C0F0AD800891B94512
:104C90003FF641AF04A904F58C700DF03FFC0028ED
:104CA0007FF43CAF40F273712120FBF7FBFB0BB0AC
:104CB000BDE8F04F0AF0BABBCDE908568DF81030C8
:104CC000E5E70CF049FCD4F8E830B0EB030CC4E99C
:104CD0002C0100F1208194F84561D4F8C870049447
:104CE0000795002E00F00881BCFBF7F207FB0233AA
:104CF000C21A294628462B4604EB8303D3F8CC304E
:104D000003F1200E724503D3203A0130D21AC0B20B
:104D10000131CBB29E42EFD2B4F87A3184F844012B
:104D2000C3F30C038DF82000002B6CD1BC4534BFBD
:104D30000125012304A88DF818508DF82130FEF7C5
:104D400001FDD4F8D800E738C4F8E0000CF0BAFA56
:104D5000E4E600275DE7D4E92A126FF000439A42A7
:104D600008BFB1F1FF3F78D094F844312344204686
:104D700093F87C11FFF7C2FD18F1F70308934BF18C
:104D80000003054605900026099304A840F202435B
:104D90008DF81060ADF818300DF034FC002800F0EC
:104DA000B580089AD4F8A83009999B1AD4F8AC2099
:104DB00062EB01025B1B62F10002002A4DDA012363
:104DC000374645465E4601930DE7FFF7D9FD0028BB
:104DD0007FF4A4AEB5E6FEF7B7FECFE64FF4E5717B
:104DE0002120FBF75FFBB2EB08026FF0010165EBDE
:104DF0000B0500239142AB410146FFF447AF9042BF
:104E000028BF114642E7D4F840310593032500231B
:104E100090E750462BE790F87031002B7FF491AE6D
:104E2000012180F8701144F236500CF065FB002827
:104E30003FF487AE0CF04AFAD4F8D830D4F8E0202A
:104E400044F2365003441044C4F8D830C4F8E000AB
:104E50000BB0BDE8F04F0CF035BA012345465E4675
:104E60000193C0E694F87C112046FFF747FDD4F883
:104E7000C850D4F8E810D4F8B83005905A1AD4F8CD
:104E8000EC30B2FBF5F205FB02F2521843F10003DD
:104E900004212046089209938DF819108DF810907E
:104EA000FFF780FC29468DF8180004A810F0A5FE35
:104EB000DDE90856CDF8049095E6039E94F8455137
:104EC000203655B1012304EB83020133D2F8CC2004
:104ED000DBB22032AB421644F5D907228E42A1FB49
:104EE00002250BD0D4F8C030D218D4F8C43045EB2A
:104EF0000305C6E60020BAE628460DE7D4F8B03030
:104F0000D218D4F8B43045EB0305BAE640F2964126
:104F10002120FBF7C7FAFFF7A7FC00BF0040420FB4
:104F200090F8142112B190F8143103B97047FFF7CB
:104F3000A1BC00BF90F8142112B190F8143103B94C
:104F40007047FFF797BC00BF90F8143103F0FF02E1
:104F50000BB910467047FFF78DBC00BF90F86C008E
:104F6000003818BF0120704730B585B090F8143173
:104F7000002B5FD103F0FF020B780392CDE90122F1
:104F800013F0010203F0040423D08D680195002C76
:104F90003FD04FF0010CD1F80CE080F845C14968D2
:104FA000C0F8F810203DC0E9321540F27121A0F898
:104FB000FC109907CDF808E03AD50DEB820300EB21
:104FC000820559682039531CC5F8CC10BCB905B00E
:104FD00030BD24B940F2BE212120FBF763FACD6831
:104FE00080F845214968C0F8C810C0F8F81013F0DF
:104FF000020340F271210195A0F8FC10DDD10DEB08
:10500000830200EB83035268203AC3F8CC2005B03A
:1050100030BD80F845414968C0F8F810203DC0E92E
:1050200032159B0740F27121A0F8FC10C5D4CEE7E1
:105030001346CBE740F2A5212120FBF733FA00BF4E
:10504000D0F8102142B190F8143103F0FF020BB9EF
:1050500010467047FFF70EBC0C221046704700BF89
:1050600070B590F8153113B10026304670BD044676
:105070000D460CF025F994F87831062D48D8DFE874
:1050800005F02B040407380404000126304670BDE7
:10509000033B012B8CBF4FF457724FF46172D4F86D
:1050A000B010D4F8D830401A6FF480710B448518D2
:1050B000AB428CBF01260026D7D82046FFF760FC04
:1050C0000028D2D0D4F8D8606FF480731E44B54263
:1050D0002CBF00260126C8E7022B17D00CD8012BC5
:1050E00008BF4FF40472DAD040F217119E20FBF78C
:1050F000D9F94FF40272D2E7DA1E012AF4D8032B51
:1051000040F2563208BF4FF4E562C8E7F822C6E71E
:105110004FF44B712120FBF7C5F900BFF8B50D46E0
:1051200006460021D5F8E00104F094F9B04205F5F7
:10513000EC77044613D00146384604F053F90023B7
:1051400033623CB194E80E005B1842F10002C5E9FD
:105150007632F8BD00231A46C5E97632F8BD836879
:10516000D5F8E021934208D2816931B10146384631
:1051700004F038F900232362E4E7934238BF134672
:10518000F2693762B360002AE4D00ECA5B1842F1BC
:105190000002C5E97632F8BD2DE9F04F8BB090F8EA
:1051A0001421002A40F00A8104460D4602F0FF0354
:1051B000FF2280F8142180F8153190F8456180F8BD
:1051C00044311946184604EB83030131D3F8CC204F
:1051D000CBB22032B3421044F5D9D4F8C83098424B
:1051E00000F0BE80D4F8CC30002E00F0B280D4F8AD
:1051F000D020012E134403F1400303D0D4F8D4206F
:1052000020321344C4F8F0300CF05AF8D4F8CC70C3
:1052100094F8456107F1200856B1012304EB83029D
:105220000133D2F8CC20DBB22032B3429044F5D91E
:1052300010F5FA6641F10009D4F8C8B004F000F99D
:105240008246514604F1E800039004F0CBF8D4F80C
:10525000101111B10398FFF761FFC3450CBFD4F8DB
:10526000F080D4F8C880BAF1000F7CD0DAF80800DA
:10527000DAF80030DAF80410C01841F10001CDE985
:105280000069424612F0EAF880456ED3861949F16A
:105290000009D4F8C82002F2CF730344B3FBF2F341
:1052A00002FB03F3F31AC4F8E83069F10003C4F811
:1052B000EC30002D4FD0ADB242F2107132464B4669
:1052C000E5FB0123C4E92A2394F87C112046FFF76B
:1052D00015FBD4F8A8300546D4F8AC00991B60EB58
:1052E0000900012970F1000CD4E93A2342DB8F4216
:1052F0004FF0000C7CEB000CC4E93023D4F8CC3028
:10530000C4F8D850A8BF0F469F4228BF1F460423A9
:105310008DF81930C4E92C694B46C4E92E69C4F8EC
:10532000DC7032462046FFF73DFA0023BD428DF87F
:10533000180008960595CDF824908DF8103033D8D4
:1053400004A904F58C700DF0E9F890B30BB0BDE83A
:10535000F08F203356E74FF0FF326FF00043B1E794
:1053600041F288334EE7504693E740F24D31212019
:10537000FBF798F8C4E93023002704238DF819308F
:10538000C4E92C69C4E92E69C4F8D8503246C4F87F
:10539000DC7020464B46FFF705FACDE908698DF829
:1053A000180005958DF810704FF41F712120FBF740
:1053B00079F840F27D212120FBF774F840F2672153
:1053C0002120FBF76FF800BF38B590F81431DBB936
:1053D0000D4619B304460246134900F58C700DF0D2
:1053E00097F81149224604F5A4700DF091F8C4F81D
:1053F00010516B7B03F0FF015BB984F81611204656
:10540000BDE83840FFF7C8BE4FF423712120FBF7F9
:1054100049F840F293212120FBF744F840F28D2116
:105420002120FBF73FF800BFF94A000038B50246DB
:1054300004460D4600F58C7007490DF069F804F537
:10544000A470054922460DF063F829462046BDE8C0
:105450003840FFF7A1BE00BFF94A00002DE9F04F28
:1054600087B090F81531002B40F0C480044603F05B
:10547000FF0B0BF025FF94F845115B460133DAB2C0
:105480009142FBD2D4F8C830D4F8E820D4F8EC70BC
:10549000861AB6FBF3F603FB06F6B61800F1F7051D
:1054A000A5EB060547F10007AB4294BFA5EB030A45
:1054B000AA46002900F0E780D4F8CC3003F120029E
:1054C000524505D8AAEB0303A3F1200A4FF0010BC4
:1054D00001291DD0D4F8D03003F12002524507D85D
:1054E000AAEB03030BF1010BA3F1200A5FFA8BFB7C
:1054F00002290DD0D4F8D43003F12002924507D30D
:10550000AAEB03030BF1010BA3F1200A5FFA8BFB5B
:1055100004EB0B03204693F87C11FFF7EFF904EB43
:105520008B035044D3F8CC808045D94669D3A8EB8F
:105530000A08B8F1000FC0F2B180D4F8E830D4F80E
:10554000B020D4F8EC10AD1947F10007D21A4FF093
:10555000000600F19C80D4F8C800B2FBF0F200FB1A
:1055600002F2D21841F10001C4E93A21AA1A002A34
:10557000C0F28D8004EB0903204693F87C11FFF7FD
:10558000BDF9D4F8A830D4F8AC205B1B62EB07025D
:10559000012B72F10001824647DB04EB89094FEAD7
:1055A000E8719845D9F8CC60C4F8D8009141A8BFFB
:1055B0009846464528BF464604238DF80930C4E97D
:1055C0002E573B46C4F8DC602A462046FFF7EAF82F
:1055D0000023B2458DF808000495CDF804A0059786
:1055E0008DF8003037D8694604F58C700CF096FFC2
:1055F000002858D009F02AFC07B0BDE8F04F0CF0A5
:1056000073BF94F84521D4F8C8305A452DD90BF111
:10561000010BAB425FFA8BFB3BD904EB8B03D94602
:10562000D3F8CC8008F1200583E70423C4F8D80020
:105630008DF80930C4E92E57C4F8DC602A463B4691
:105640002046FFF7AFF8CDE904578DF80800CDF8F4
:1056500004A08DF800602046FEF73EFA09F0F6FB44
:1056600007B0BDE8F04F0CF03FBFAB420DD85A0079
:10567000B5EB430F38BF1546FFF45BAF40F2454131
:105680002120FAF70FFF8B4642E71D4651E7FFF74F
:10569000EBF84FF485612120FAF704FF40F24E4108
:1056A0002120FAF7FFFE40F25A712120FAF7FAFEA4
:1056B0002DE9F04F012983B005462ED9022940F08B
:1056C000CD80D0F81031002B00F0D28000245C7324
:1056D00090F87811224661F3070261F30F22A3F8D4
:1056E0002021FF2683F822610339D0F81001012917
:1056F0008CBF00210121E83011F010F8D5F810011D
:1057000012F07AFDC5F8104185F8166109F09EFB8C
:1057100003B0BDE8F04F0CF0E7BE01F0010AD0E99C
:105720002C9809F015F895F878718346394650465B
:1057300010F0DEFA0446384609F0DAFF002601468A
:10574000BAF1000F03D0BB1EDBB2022B6ED94FF4AF
:10575000FC7214EB0B0346F1000613EB0904494BF2
:1057600033F8173003F2E7330B444749A1FB031327
:105770004FEA931348EB0606E31A66F100069C18FD
:1057800046F1000611F093FED5F810716630241A28
:1057900066F10006D7F8C88003F04CFE05F1E80377
:1057A000834237D0D7E976014246CDE9004611F071
:1057B00055FE804561D3354BD5F810211B6892F812
:1057C0002A11834215D9D2F8C830C2F8D830034420
:1057D00000293FD141F66A010D468842A2F8DC500B
:1057E00041D21B1946F10006C2E9763603B0BDE886
:1057F000F08F01BB264BA3FB00139B0A40F2E24152
:1058000001FB03F3C2F8D83041F66A03A2F8DC309A
:105810000346E6E797F829010028CCD0CDE90046F9
:105820004246D5E93A0111F019FEC4E7194A02EBE4
:105830008303DA688DE7184BA3FB00135B0964212F
:1058400001FB03F3C2F8D8304FF4FA73A2F8DC304E
:105850000346C6E74FF4FA710D46BEE74FF4046104
:105860002120FAF71FFE4FF4FA612120FAF71AFE01
:1058700040F2DB712120FAF715FE40F26131212060
:10588000FAF710FE0C430200D34D621018050020F9
:105890005917B7D1B84002001F85EB5108B558B170
:1058A00001280CD10B4B40F6C4121A601A6841F65D
:1058B00069039A4208D808BD064B1860F6E740F61F
:1058C00053012120FAF7EEFD40F65C012120FAF7A2
:1058D000E9FD00BF1805002010B504460EF077FE64
:1058E00008B9002010BDE0430EF071FE0028F8D08A
:1058F000E31683EAA4635A1E1A42F2D0E3B25A1E98
:1059000013405A1E1342ECD0A0B211F043F80B28FA
:10591000E7D8204611F03AF81828E2D8A3B2B3EB42
:10592000144F04D184EA142313F0FF1FD9D0044B81
:105930006340581E1840003818BF0120D2E700BF4E
:10594000D6BE898EF0B5070CA7F5AA42144B543A7F
:10595000012A03EA90231FD927F4004042F6AA2225
:10596000801A18BF01200022162116461F2487EA3C
:10597000060562EA0505013510D0DD03ADB245EA42
:105980005606E503ADB2013945EA52024FEA530328
:105990004FEA5404EBD1F0BD0020E4E70020FAE721
:1059A000E0FF3F00F7B5002506462C463278ABB243
:1059B0009A4207D80F4BB3F864201444A3F864400C
:1059C00000200EE006EB850701A9B7F8010010F0F2
:1059D000D4F960B90199B7F80330CA8C934202D95F
:1059E000122003B0F0BDD21A2344CA849CB2013500
:1059F000DCE700BFAC050020F7B50023CDE900339C
:105A000004460E4617466846FBF79CF908B100208D
:105A10001AE0009DA542F6D030460EF0BFFE05F11B
:105A2000AD0395F8AC20394610F077F80028EAD09D
:105A300095F8B32094F8B30005F1B40304F1B40170
:105A400010F06BF80028DED003B0F0BD054A516AB3
:105A500011F8030B02F11D03C0F38010127F10F048
:105A60005CB800BFEC0A0020012817D80D4882421C
:105A700016D8012B0DD140F252739A4210D90A4B1D
:105A8000A1F6C41098420BD88A428CBF1220002085
:105A90007047042BF3D140F6C313EEE71220704792
:105AA000302070478FFD7002CBF370020138C0B216
:105AB000032808B504D94FF43F710620FAF7F2FC29
:105AC000014B185C08BD00BFD44002000138C0B2D1
:105AD000032808B504D94FF43F710620FAF7E2FC19
