:020000040100F9
:10000000E03B0021C58F0101E9040201B18F01012C
:10001000B18F0101B18F0101B18F0101000000001A
:100020000000000000000000000000009D900101A1
:10003000B18F0101000000007D920101B18F01012B
:10004000FD920101FD920101FD920101FD9201016C
:10005000FD920101FD920101FD920101FD9201015C
:10006000810A0201FD920101FD920101FD9201014F
:10007000970A0201FD920101FD920101FD92010129
:10008000FD920101AD0A0201FD920101FD92010103
:10009000FD920101FD920101FD920101FD9201011C
:1000A000FD920101FD920101FD920101FD9201010C
:0800B000FD920101FD92010126
:1000B800054B00221B78826001330260034A4260CC
:1000C800C371FF23037270473802002180010800C2
:1000D800064A074B02604FF424729B7882800822FC
:1000E800C371002382710372704700BF99790101BF
:1000F80038020021064A074B02604FF44272DB784F
:1001080082800822C371002382710372704700BF86
:10011800DB76010138020021064A074B02604FF4E2
:10012800B072DB7A82800822C371FF238271037266
:10013800704700BF8B70010138020021094991F80E
:1001480028308A7803EB4303C978DB000A4400218E
:100158001033C27181608380042301608371FF239F
:1001680003727047380200212DE9F341C41D0028AD
:10017800064624F007040CBF0020204600F052FC7D
:10018800071E04DA6FF00B0002B0BDE8F081374DAE
:10019800E988A88803316B7A03302A7A89B280B259
:1001A80013F0C9FB0028EDDB3C44A978EB78002E5E
:1001B80004F10304194424F0030400FB01F10CBF0B
:1001C8000020204600F0DCFD20440EB90028D9DBD1
:1001D800EA7A0446B2B1EB7B697C13441944FF29DF
:1001E800D0D80330002EAA89C9B220F003040CBF6E
:1001F8000020204600F036FE0028C3DB04440EB978
:10020800002CBFDB012000F003FCB0B1A97BA1B139
:1002180095F82A3033B340234FF481720734002E07
:1002280024F007040CBF0020204603F02FFF00280D
:10023800A8DB04440EB9002CA4DBAB7AFBB1EB7A43
:10024800B3B10734002EA97A24F007040CBF0020AC
:10025800204608F0BFFE002894DB04447EB9002C39
:100268000DDA8FE725232822D8E700BF38020021BE
:10027800012000F0CDFB10B1AB7B002BE1D1734B1B
:100288001B6893B1A97D81B10334002EEA7D24F067
:1002980003040CBF0020204698470028FFF672AFE1
:1002A800044416B9002CFFF66DAF694B1B688BB17F
:1002B800297C79B10334002E24F003040CBF0020FC
:1002C800204698470028FFF65DAF044416B9002C75
:1002D800FFF658AF5F4B1F68B7B1697CA1B1033413
:1002E800002E2B7D24F0030408BF0020009318BFC4
:1002F8002046EB7CAA7CB8470028FFF643AF0444AD
:1003080016B9002CFFF63EAF072000F081FB98B12C
:10031800A97D89B10334002E2A7E24F003040CBF82
:100328000020204600F08CFE0028FFF62BAF044486
:1003380016B9002CFFF626AFB6FA86F795F8230013
:100348007F09A0B103346B7FA97E24F00704194408
:100358003B4644F00404C9B2224600F0B1FE00282E
:10036800FFF610AF044416B9002CFFF60BAF95F852
:10037800241000294CD004F10708002EEA8C28F03C
:1003880007080CBF0020404613F0E9FA041EFFF6E8
:10039800F9AE4444002E3ED1002CFFF6F3AEA97FFF
:1003A800002945D095F82230002B41D02A8C0734FB
:1003B800002E02F1240224F007080CBF002040465A
:1003C80092B213F0CCFA0028FFF6DCAE404416B91E
:1003D8000028FFF6D7AE03302B7FA97E20F0070058
:1003E80019443B4640F0040495F82200C9B222465D
:1003F80000F058FE0028FFF6C5AE044486B9002C6C
:10040800FFF6C0AEEB6AF3B1C6B1EC620020BBE602
:10041800002EC4D08846E98C40460FF05FFABEE74C
:100428002A8C4046A97F083292B20FF05DFAE9E7BC
:10043800002EE7D0002211461046F6E728343FF593
:10044800A1AE2046A0E6002EE0D1FAE7AC0F0021CD
:10045800B00F0021B40F00211FB572B6194B1C6BE9
:10046800ECB9BFF34F8F1849184BCA6802F4E06221
:100478001343CB60BFF34F8F00BFFDE7B2FBF6F22B
:100488002B465D1C002AF9D1DBB203F110056D443F
:1004980005F80C2C0A2233B901A8A047E1E7024667
:1004A80000230A26EDE7013BDBB203F110050DEB53
:1004B8000506B0FBF2F502FB1500303006F80C0C0F
:1004C8002846E8E73802002100ED00E00400FA05BC
:1004D80013B5124C68462389ADF80030E388ADF8AF
:1004E8000430A388ADF8023006F0D4FC18B1FA2124
:1004F8009C20FFF7B1FF207D06F022FD08B1FD2109
:10050800F6E7E07C06F016FD08B1FE21F0E794F866
:1005180028000DF0D1FA02B010BD00BF380200214A
:1005280038B5054600283DD012F020FA10B94FF032
:10053800FF3038BD10F0A8F9B0F5FA7FF7D81B4C9A
:10054800002125631B2504F10F0084F834102A4686
:10055800217084F82A10E16212F07EFC0123032145
:1005680008200222A370E370E372A3742376F723B2
:1005780021722384FB23A0721F20A1734921E384E5
:100588000A23A580E5806272A081E174E27584F88F
:100598002830EFF3108472B600F0A2FD04B962B6F9
:1005A8000020C6E76FF01500C3E700BF380200213E
:1005B80038B51446002840F0C480634D95F83430AF
:1005C800032B00F0BB80B9B112B96FF0150038BD2C
:1005D8000139172900F2B580DFE801F00C1D20363B
:1005E8006069873C6C6F814248565B8D909FA2A5DD
:1005F80096B3B3A81378AB700020FFF7B5FD0028B9
:10060800B7BF012302236FF00B0085F83430A8BF71
:1006180085F83430DBE71378EB70EDE71379002BBE
:10062800D3D05379002BD0D01288FB2ACDD8638839
:100638001B3B9BB2E02BC8D81A2AC6D92368A288CC
:100648006B60424B9A80D7E71378EA7B9342BCD31E
:10065800EB72D1E71378EA7A9342B6D8EB73CBE71B
:100668001378EA7A9342B0D86B74C5E71378002BF5
:10067800ABD05378013BDBB2F82BA6D8138892781D
:100688006B82334B9A70B7E7107868750DF0B4F940
:10069800B2E71378002B98D02B76ADE7012000F055
:1006A800B7F9237808B1012B8FD9AB73A4E7138866
:1006B800AB81A1E71378AB759EE7072000F0A8F996
:1006C80010B92378012B80D9072000F0A1F918B1BF
:1006D8002378002B3FF479AF2378EB758CE71378F8
:1006E800082B3FF672AF2B7486E71388FF2B3FF673
:1006F8006CAFAB7280E713786B767DE713780E2BBF
:100708003FF663AFAB7677E72368124AC5F81E3029
:1007180063685360238913816EE71378EB766BE780
:1007280013786B7768E713782B7765E713785A1E89
:10073800092A3FF64AAF85F828305DE74FF0FF30C9
:1007480045E76FF02C0042E7380200213C02002107
:100758004A02002156020021F8B50D46064630B37C
:1007680029B311F0070422D1124F97F83430012B26
:1007780002D16FF00B00F8BD032B02D14FF0FF3010
:10078800F9E700F0E9FC0028F8D02846FFF7ECFC70
:100798000028EEDB0DF064FA3046F96A06F07AFCC0
:1007A800FFF796FE0323204687F83430E3E76FF01F
:1007B8001500E0E73802002110B5074C94F83430F2
:1007C800032B03D106F07EFC07F030FC13F00AFA85
:1007D800002084F8340010BD3802002108B506F066
:1007E800F1FB03490320BDE8084000F009B900BF48
:1007F8002101000108B506F0F9FB03490220BDE814
:10080800084000F0FDB800BFFD00000108B506F083
:100818000FFC0549012000F0F3F804490020BDE869
:10082800084000F0EDB800BFB9000001D900000190
:1008380008B50449102000F0E3F8BDE8084006F0C8
:100848008DBB00BF4501000108B50449102000F028
:10085800D7F8BDE8084006F093BB00BF450100018A
:10086800074B4FF0FF3141F6FF72C3E9001205490B
:100878000022C1E900221F21C3E90212704700BF0C
:1008880000000021700200213F280CD801380B4BD2
:10089800C0F3421200F01F0053F8223023FA00F090
:1008A80000F001007047FF2806D04038044BC0F321
:1008B800421200F01F00EFE70120704700000021FE
:1008C80070020021074B0146006849681A4603C2B6
:1008D80040F48C2200201A6041F0107242F4FF624A
:1008E8005A607047000000210246034B00685168B7
:1008F80003C30020704700BF700200210246034B6B
:100908000068516803C30020704700BF0800002139
:100918000138064BC0F3421200F01F0003EB8203BC
:100928009B6823FA00F000F00100704700000021E6
:100938000A8870B595B2C67CC2F30E0204880236E6
:1009480002F118033444C35AA4B233442344013B8C
:10095800B3FBF4F303FB0422438892B29342044BA3
:100968008BBF2B40AB4313439BB20B8070BD00BFC2
:100978000080FFFF4A1E062A08B50346084604D829
:100988004FF4D1711520FFF767FD094A914202D94A
:1009980040F2A311F6E711B903B1196008BD2BB1F4
:1009A8001B680022C3E901211A1D1A600430F5E70B
:1009B800FAFFFF7F10B5114B00EB41041A786389E9
:1009C800B3FBF2F303FB0223013A1A44B2F5706F4A
:1009D8000279807828BF00231A440B18B2FBF0F183
:1009E80000FB11215B1AB3FBF0F100FB1133134438
:1009F8006FEA43436FEA5343638110BD78020021D5
:100A0800024B03EB80035960704700BF7802002156
:100A1800034B03EB80035868003818BF0120704768
:100A2800780200212DE9F04F10F0070A85B005463D
:100A380004D040F26F111720FFF70EFD534F044604
:100A48004FF0010B07F14C06B146B04657F8043B8E
:100A58008DF80BA03BB101A898479DF80A30082BE8
:100A680001D9F521E7E79DF80B1041BB05B13160CD
:100A78004F4506F10406E9D1002D6FD00022DFF8BA
:100A880010911227964689F8002058F827A0013FB0
:100A9800BAF1000F55D09AF804609AF802C0FF2EF8
:100AA80060D039460023481C38D19C44BCF1FF0F64
:100AB8003FD90AB189F800E04FF49A71BBE79DF875
:100AC8000AC04B1D60465A0004EB4303022838BF96
:100AD8000220441E40422344BDF808406444CCF13F
:100AE800000C0340013C04EA0C04B4F5803F02D337
:100AF80040F205119FE775B19A1A3260917014801F
:100B080082F803B09DF80C00107101984FEA104C60
:100B18001081A2F806C004FB0134A9E758F82100A7
:100B280028B190F804B0B34504BF80781B18013988
:100B3800B9E7DBB2E6458AF804303CBF5FFA8CFEC1
:100B480001227B1CA1D10AB189F800E0122640F6E7
:100B5800FF6A58F82670B7B9013EFAD2601B05B093
:100B6800BDE8F08F0023E5E707EB410309F1010930
:100B78003846A3F80AA0FFF71DFF5FFA89F1BB7892
:100B88008B42F1D8E8E74FF00009F6E77C02002134
:100B98007802002138B54FF6FF7302460380184BE0
:100BA80003EB8103186DA8B184780379B3FBF4F1E2
:100BB80004FB1133DBB2194600EB4105B5F90A50C5
:100BC800002D0EDB0131B1FBF4F504FB1511C9B2A0
:100BD8008B42F1D1002038BD6381BDE8384012F066
:100BE80086BE00EB41046389C3F30E031380C27809
:100BF800002AF1D14FF4E5711720FFF72DFC00BF53
:100C0800780200211C4B03EB810370B51C6D05466F
:100C180044B3030404D54FF4EC711720FFF71CFC10
:100C28000146204612F046FEFF28014604D0204621
:100C3800BDE8704012F05BBEA078B5FBF0F300FB96
:100C48001353DBB219460A1D04EB4206B6F90260DB
:100C5800002E09DB0131B1FBF0F200FB1211C9B221
:100C68008B42F0D1002070BD8B4201D00023E3708D
:100C780004EB42025580DAE778020021094B03EBC6
:100C88008103014610B51C6D204612F013FEFF28A3
:100C9800014604D02046BDE8104012F028BE0020CE
:100CA80010BD00BF78020021F8B5104B074603EBD2
:100CB800810301461C6D204612F0FCFDFF28054605
:100CC80011D0E288238953EA024606D0014620461D
:100CD80012F00DFE01463846B04720462946FFF778
:100CE80069FE0020F8BD0520FCE700BF780200215E
:100CF80038B50E4B0446827903EB8203186D08B9A8
:100D0800052038BD8278E1799142F9D24B1CE37114
:100D180000EB41035D89B3F90A30002BF3DBA580B2
:100D280012F0E5FD20600020EBE700BF780200210B
:100D380008B5124B03EB81031A6D22B940F2462124
:100D48001720FFF789FB9178831A481DA3EB40030E
:100D58001088B3FBF0F3002B01DB994202DC40F270
:100D68004921EDE702EB4302B2F90A305089002B22
:100D780002DA40F24B21E3E708BD00BF7802002108
:100D880070B5044610F003000E4603D04E2118201B
:100D9800FFF762FBFFF7EEFD054624B10348314635
:100DA8000460FFF7E7FD284670BD00BF140300216B
:100DB8002DE9F14FDFF870B01E4607460D46DBF807
:100DC800003090469DF828A09DF82C901BB9602112
:100DD8001820FFF741FB52460921404612F0EEFB6E
:100DE8004A4684B20921304612F0E8FB81B2DBF8AA
:100DF8000000214412F032FD386018B9286001B0B3
:100E0800BDE8F08F04445346414609222C603868F7
:100E180012F097FB4B4609223146286801B0BDE81D
:100E2800F04F12F08EBB00BF1403002170B50E46C0
:100E3800044612F0D6FB0546304612F0D2FB044BAE
:100E48002A1821461868BDE8704012F02CBD00BF72
:100E580014030021024B186808B112F0F3BC704764
:100E6800140300211F2AF8B5044613460ED8920031
:100E7800033222F00303B3F5803F2DD2184DACB1F5
:100E8800A00710D068210920FFF7E6FAFF2B4FEAE8
:100E9800420204D9FF339A42A8BF1A46E8E77C2ADF
:100EA800B8BF7C22E4E729706C602B8122F0030232
:100EB80028230127120403FB01F06B680025120C9C
:100EC800EEB2B14200D8F8BD14B126181F705E60AA
:100ED800104401352833F3E74FF0FF30F3E700BF44
:100EE80018030021154A002170B553681578C8B257
:100EF800854203D8BA210920FFF7AEFA1C461846E6
:100F0800013114F8286B0EB92346F0E700219970D7
:100F180001241289996103F126055C709208D96150
:100F280003F11E04596824F8022FA54243F8041F50
:100F38001144F8D100234361037070BD18030021E8
:100F48000A4B1B89B3F5FF7F4FEA930006D25A0874
:100F58009B1A9BB2984238BF18467047B3F5EE6F9C
:100F680001D8FF22F4E740F27263F3E71803002187
:100F78004B782DE9F04106460C4602F0040702F0D2
:100F8800FB05E3B1A5BBFF23A3707B0804EB570760
:100F98003A7D032A02D1022D18BF0133E21801213C
:100FA800117503F10C01002204EB830324F81120CE
:100FB8005B68A27030463360B280BDE8F081002DD6
:100FC800E1D1012301F11E028D6120464B7004F12D
:100FD800260C1A4BCD611B8949689B0822F8023FF1
:100FE800944540F8041F1944F8D100236361CAE707
:100FF800D1F8048014220021A018617011F02CFF90
:101008000E4B1B89B3F5FF7F0FD25A089B1A9BB270
:1010180008EB0301C4F804802384A1606284C4F847
:101028000C80A3842161E284ADE7B3F5EE6F4FF045
:10103800FF02EBD940F27263EAE700BF1803002110
:101048002DE9F84305460C46F7200521914612F094
:10105800B5FA061E21DB1DB906FB04F0BDE8F883CE
:1010680015F0030703D098211920FFF7F5F9DFF8E9
:101078003080C8F81050A8F81460BBB29C42EBD975
:10108800B8F814504B46D8F810000522F72107FB92
:101098000500013712F055FAEFE74FF0FF30DDE7B2
:1010A8002C03002107B5CDE900230B46034902466E
:1010B800081D12F071FD03B05DF804FB4403002124
:1010C80013B5064CCDE900230B46024604F108018E
:1010D80004F10C0012F060FD02B010BD44030021C1
:1010E800144B012200214FF0FF309A60C3F8001220
:1010F800C3F80803C3F80015C3F804259A60C3F8B9
:1011080008034FF48040C3F80015C3F8042503F51D
:10111800805341F6F8720849C3F80825C1F88000E1
:10112800BFF34F8FBFF36F8FC1F88001C3F8082555
:10113800704700BF00E0004100E100E002680020C5
:10114800014B1A60704700BF54030021014B1B6814
:10115800184700BF54030021024B1868003818BF15
:1011680001207047540300218C469B22064B00B592
:101178000CF8032B8E4607CBCEF80300CCF80410EE
:10118800CCF808205DF804FB640300212DE9F04148
:101198001C4E044600F00107736A93F8A850B5F195
:1011A800000818BF4FF001081DB117B1338D1A0799
:1011B80014D4012916D8F36A2046984790B196F8B6
:1011C80030307BB98DB987B1308D58B996F8313048
:1011D8004BB996F8320080F0010004E096F82A3006
:1011E800002BE6D00120BDE8F08184F0010010EA70
:1011F8000800F8D0308D8307E7D596F82A0080F0EC
:101208000100F0E75803002110B5154C0DF0F0FE71
:101218000EF004FA0021A36BA08E9847237E93B9A1
:10122800A18E606A08F03CF9636AB3F8AA0007F077
:1012380087FE236C94F8301094F83C0098470023FC
:1012480084F8443010BD94E8070004F10C0383E8E7
:101258000700044904F1190014F013FDE0E700BF8A
:101268005803002171110001034B93F8443003B96E
:101278007047FFF7C9BF00BF5803002108B5094BE5
:1012880093F84420022A07D1DA7A42F00102DA728E
:10129800BDE80840FFF7B8BF40F257312720FFF7F5
:1012A800DBF800BF580300211E4910B48C6C42784B
:1012B8002378D20003F0F30302F008021343827884
:1012C800920002F004021343C278120103F0EC0307
:1012D80002F010021343027802F0030213430222C1
:1012E8002370B1F854306370A1F84C208C6C0079ED
:1012F80023784201012823F0200302F0200243EA68
:10130800020323700CD14B6A93F8BA2093F8BB30D0
:10131800032A03F01F0308BF002243EA8213A370C5
:1013280010BC704758030021F0B5194C83B0A56D67
:101338004DB3636E3BB3B4F8683001F003012F4638
:1013480006466B702B7823F003030B4307F8033B27
:101358003846B4F86820616E11F02AFE0DF10202D9
:1013680001A9E06EE565676612F062FA019812F06D
:101378004DFA0346B4F868100122E06E336012F0AB
:10138800F0F903B0F0BD40F6C4012720FFF764F878
:1013980058030021F8B5244C4FF481730646656A5A
:1013A800A4F860302A7D94F87430276F03EB82002C
:1013B80095F82111E765FF2804D11EB995F8203169
:1013C8008B4216D00DF060F82B7D3BB3A06F0DF06B
:1013D80067FCA16FE06D0EF0E7F88EB1B5F8E0009C
:1013E8000DF00AF800200DF0C5FD022384F8443002
:1013F800F8BD002AEAD138460DF052FC0EF00EF97D
:1014080095F82131B5F8E420033B012B8CBF00206F
:101418002820104480B20DF0DDFCDFE7E06D0DF010
:101428003FFC0EF0FBF8D8E7580300212DE9F04FF8
:10143800C24C87B0666A94F87430327D96F82011F1
:1014480003EB8203FF2B05D120B996F821318B429B
:1014580000F0F080FF200DF017F8676A00233A7A51
:1014680004938DF80930ADF80A308DF81430062A47
:1014780000F21481DFE812F07B00E00061006100F7
:101488001201070007000DF10A0103A806F080F811
:10149800002800F0EF80039D002D00F0EB80012272
:1014A800062384F87D20BDF80A203B72002A5CD010
:1014B800E91CA4F85420022B2165B7F80920A5647B
:1014C800ADF811206AD0053B012B66D80B780322B2
:1014D800022B8DF8102000F0A080D4F8800012F0C4
:1014E800FFF80546002840F0C080236D1B781B2BB1
:1014F80000F0E48000238DF8143004A8F37C84F80D
:10150800315023B1B4F85430002B40F08980FFF7F4
:10151800CBFEA06C0DF0C4FB0EF080F8B6F8E2002C
:101528000CF06AFF01200DF025FD012384F88730B7
:1015380084F8443007B0BDE8F08FB7F810310DF1EA
:1015480009020DF10A01D4F88000ADF80A3012F052
:101558006FF80546002800F0FF800123BDF80A2037
:1015680084F87D303B7A002AA2D11146A1E794F88D
:101578007C3003A80DF10A01A7F81031ADF80A3044
:1015880006F006F8E0B1039DD5B10122052384F8E1
:101598007D203B72BDF80A2088E701238DF81030C2
:1015A800D4F8800012F09CF80546002858D106F0BF
:1015B80009F82B4680F00105EDB28DF813509AE733
:1015C800636A93F85180B8F1000F58D10DF10A0100
:1015D8000DF10902D4F8800012F02AF80546002817
:1015E8004DD09DF809A0BAF1000F6ED1BDF80A30B0
:1015F800002B58D10123A5643B7284F87D30002369
:10160800A4F854302365B7F80930ADF81130012338
:101618008DF81030B8F1000FC2D000252B466AE7CC
:10162800FFF742FEA06F0DF03BFBA16CA06F0DF021
:101638007FFF73E7374611E7414B0122D4F880005A
:10164800A36400238DF81020A4F854302365B7F85C
:101658000930ADF8113012F043F805460028A6D03D
:1016680001238DF81330002345E701238DF813304B
:10167800236D3BE740F2D2512720FEF7EDFE4FF0F5
:101688000008012200233A722D4AADF80A30A4F866
:1016980054302365A264B7F80930B6E740F2DC514C
:1016A8002720FEF7D9FE002301222B80AB700323ED
:1016B80084F87D203B72BDF80A20F7E607F1BA00EE
:1016C80001210CF023FF012315E70146D4F880001F
:1016D80012F098F812F09AF80368D0F804B081462E
:1016E80053EA0B022ED10023BDF80A2089F80030F6
:1016F80089F8013089F8023089F8033089F8043014
:1017080089F8053089F8063089F80730002A3FF44F
:1017180071AF9DF809100029C5D0297801F003019F
:10172800012906D00121BB75022384F87D103B7284
:10173800BEE6032384F87D103B72B9E65803002106
:10174800DC03002101930FF06DFA019B83427BEBD0
:101758000101C8D2D04694E740F2C3512720FEF7D2
:101768007BFE00BF2DE9F04F0023AD4C8BB0656ABE
:10177800CDE9083394F84430022B40F04782E36DFA
:1017880003220E46074693F8009005F1A80A5978F7
:10179800134409EA020B4FEA2918A4F8602063668B
:1017A800A4F86810002800F0C180002940F0728178
:1017B8006B7AA28E0133A16542F40072DBB2A28675
:1017C80083EA990111F0010140F0EA802A7AA2B176
:1017D800032A6B7200F2A781012A0ED008A9D4F857
:1017E800800011F047FF002800F01A822B6F0133A8
:1017F8002B676B6F43F100036B670021636A2972E3
:1018080093F8A8304BB16B793BB1238D10206971E7
:1018180043F010032385A36B9847A38EC9F3C0092F
:1018280043F40063A386002307932B7D002B40F02D
:10183800BE80AB7A03F00102914500F01681A36DDA
:10184800002B00F0C78008F0010884F83280002ED1
:1018580040F0F580079E4FF0000994F88A100120A7
:10186800FFF794FC8046002840F0CC81EB7C002BED
:1018780040F02B81002095F82021B5F8E0100DF0FC
:1018880053F80020FFF7D2FDB8F1000F03D05946F6
:1018980009A8FFF749FDA38E5A0607D4A36B0021B8
:1018A80040209847A38E43F04003A38666B1EB8897
:1018B8002BB9636A93F8A830002B40F0CE80B4F8B7
:1018C80009300133A4F80930002F00F0C080B4F8C3
:1018D80005300022013384F88A20A4F805305148E5
:1018E80007F01CFB089830B111F090FF002202723B
:1018F800514606F0C3FC099B33B100221A720C2230
:101908005146099806F088FCB9F1000F40F0838031
:10191800A38E1B0607D4A36B494680209847A38E45
:1019280043F08003A3860BB0BDE8F08F2B7D002B1E
:1019380040F0B58094F88A30013384F88A30A38E59
:1019480043F48063A38695F82131033B012B16D914
:1019580006F0B8FC98B9A36D002B00F0F58008F0EC
:10196800010884F83280002E3FF475AF0DF040FB7B
:10197800A38E5B0669D400264FF001098EE70CF0B0
:1019880051FD0328A36D00F08D80002B00F0DC8052
:1019980008F0010884F83280002EE7D1B1465CE7F0
:1019A8002B7DC9F3C0090797002B3FF442AFB4F869
:1019B8006830F3B9AB7A03F0010291457FF43FAF89
:1019C8000133BBF1030FAB7200F0C380A26D002A94
:1019D8007FF439AF4FF00009B4F86830002B14BF1A
:1019E8004FF0000808F0010884F832803EBB079EDB
:1019F80033E70DF03BFE0328FBD002280BD000286C
:101A08007FF417AFAB7A03F0010399457FF417AF62
:101A1800012384F83C30FFF7F7FB0BB0BDE8F08FEB
:101A2800580300217C030021002A14BF4FF000084E
:101A380008F0010884F83280002E3FF40BAF0DF057
:101A4800D7FA079E4FF0010925E74FF00109B4F8CE
:101A580007300133A4F8073041E7B4F80530B4F88B
:101A6800072013433FF430AF29E7B4F86820002A71
:101A7800A6D00BF1FF32012A7BD90133BBF1030F4A
:101A8800AB7266D0AB6F0133AB67EB6F43F100030A
:101A9800EB67D4E6E06E11F044FE014688E60DF0EF
:101AA80025FE47E7B4F86890B9F11B0F94BF4FF0D3
:101AB80000094FF00109002B59D008F0010884F8FB
:101AC8003280002E3FF4C9AE50E7636A05F1800109
:101AD80095F82A0105F1900C93F8A82095F8203183
:101AE8008000B2FA82F20791013B5FFA80FE520948
:101AF800DBB2032BD5E91C0100F2A78003930B4648
:101B080005F18001CDE9002C02464FF0000C70462B
:101B18004FF0010ECDE904CE4FF0FB0CCDF808C014
:101B28000DF076FCA6E6053A012A74D8079105F06F
:101B38003DFD0799002878D0238D082043F008033D
:101B48002385A36B984751E64FF00009CDF81C9008
:101B580042E7A38E01203F4943F480532871A386AE
:101B6800238D43F001032385A36B98478AE70793E6
:101B780032E7A38E95F8149043F48053A3860CF0B3
:101B880051FC032894F8883007D1B9F1000F0CBF35
:101B98001F221B22934228BF1346B4F86820A16D68
:101BA8009A421CD800293FF43FAF94F8893003BB10
:101BB800AB6F08F00108013384F83280AB67AB7A69
:101BC80003F10103AB72EB6F43F10003EB678EB3D4
:101BD8000DF00EFA594609A8FFF7A6FB31E794F86D
:101BE800303043F0100384F8303000297FF42BAEF6
:101BF800F0E6A36B002120209847A36D002B7FF40B
:101C080022AEE7E60DF0F4F907961AE740F6AD11B3
:101C18002720FEF721FC40F2B3712720FEF71CFCB9
:101C280040F2D4712720FEF717FC40F2DE7127201E
:101C3800FEF712FC94F88A100120FFF7A7FA8146F4
:101C48000028C5D1079EB84610E640F22541062077
:101C5800FEF702FCBC0300212DE9F041404C86B0A0
:101C680094F84430012B70D1666A5FFA83F8054610
:101C78000F46337903BB337A052B30D0012F16D1A9
:101C8800ADB929462846FFF781FA80B9337D676ADE
:101C9800002B3BD197F821210120B7F8E2100CF076
:101CA80043FE002006B0BDE8F041FFF773BB06B065
:101CB800BDE8F041FFF7A8BA238D0021042043F0C6
:101CC800040331712385A36B9847636A93F8A8309E
:101CD800002BD0D0337A86F80580052BCED1238D02
:101CE8000220204943F002032385A36B9847636AC7
:101CF80093F8A830002BC1D0236D1B78A3F1020301
:101D0800B3FA83F35B0984F82A30B7E797F82131EF
:101D180006F1800C94F874209036013B97F8A8409F
:101D2800DBB2003C18BF0124032B56E9060111D889
:101D38000094CDE9016202460120CDE90335059002
:101D48000B4661460DF064FBA4E740F60C11272012
:101D5800FEF782FB40F225410620FEF77DFB00BF1F
:101D680058030021A803002110B50C4C0C4A0D495A
:101D780094F84430116023B14FF4B1712720FEF775
:101D88006BFB03F0FF02227607F082FB05F0B2F945
:101D9800206705F0B3F9A06710BD00BF5803002104
:101DA800B80F00219C200001074A10B592F8443072
:101DB80013B10C24204610BD03F0FF04147607F07D
:101DC80067FB204610BD00BF580300212DE9F043F2
:101DD8009A4C87B0054694F844009DF8386000286E
:101DE80040F02181002A18BF002900F01C81B3FAB5
:101DF80083F04009002B00F016812364A163E2629E
:101E080084F8300084F88A0084F83C0084F887005D
:101E18002085A08684F8310084F8320084F87D009B
:101E280084F82A00A0642065A4F85400E065606680
:101E3800A4F8680084F8896065620CF099FB0DF0DD
:101E4800EDFB95F928010CF055FCD5F8D460D5F8D0
:101E5800CC000CF055FC30460CF006FF95F8250038
:101E68000CF058FCB5F8E030702B03D9B5F8E23027
:101E7800702B01D80CF0C6FA636A93F8A860002E9C
:101E880072D014F02FFE014695F821210120AF31C0
:101E98000CF034FD6A4B18680CF0ECFEAB7B243B6D
:101EA800D5E93012072BC4F88010E2667BD9EB7BAA
:101EB800243B072B77D9B5F8F230B5F8F80095F838
:101EC8002011984228BF1846042908BF032113F09F
:101ED800FBF9024695F8F40095F8F030904228BFD7
:101EE800104680B2984200D3C3B295F8211105F18B
:101EF800E80084F87C3013F0FBFE95F821112F7D63
:101F08000329B5F8FC6008BF042113F0DDF90FB907
:101F1800043080B2864228BF0646F6B284F888604C
:101F280006F0D0F9002840D1636A84F8746093F809
:101F3800A8306BBBEA7C002A3ED10120FFF776FA75
:101F48000023B5F8AA0095F82520A360C4E900335A
:101F5800D5F82431E9882080618022710BB10122F3
:101F68001A6007B0BDE8F08314F0BCFD95F8202195
:101F7800344B01463046344E33F8123003F5FA73C9
:101F8800A6FB036301EB931191310CF0B7FC81E7D9
:101F98002B7D73BB0120FFF7FDF9636AD3F8E801D5
:101FA8000CF0E6FECCE71B239FE706F091F9B04260
:101FB80038BF3046C6B2B7E795F8206105F1800111
:101FC80095F82A0105F19002013E8000F6B2C0B2F0
:101FD800032ED5E91C892BD801924246CDE903632B
:101FE80001264B4605960096FB2602960DF010FA40
:101FF800A3E795F8213105F1800705F19002013B2F
:10200800DBB2032BD5E91E0112D80192024601204A
:10201800CDE9026300260B460590394600900496E8
:102028000DF0F6F9B6E74FF420712720FEF714FA01
:1020380040F225410620FEF70FFA00BF58030021A1
:10204800B80F002178160201D34D6210FFF7DCB8F3
:10205800014B93F88700704758030021054B9A8E6F
:1020680012F4C06F03D093F87D0000B17047C2F33B
:102078000030704758030021024B93F83500C0F335
:10208800C000704758030021014B93F88A0070473D
:1020980058030021851200016D170001611C000121
:1020A8007112000181220B4603F8032BB0F809C016
:1020B800C27AA1F803C09A70704700BF40F2BD21F0
:1020C800322008B5FEF7C8F990F8DE2012B902F000
:1020D800FF00704710B5363882B00C4602F0E2FEB9
:1020E8008F230420237002B010BD00BF70B50028F4
:1020F8005DD0437A04460D46002B3CD00021408930
:10210800FEF7BCFD002857D00021B0F8AA00FEF762
:10211800CBFD002855D194F8546094F8A6302BB123
:1021280094F8A7301E43002384F8A630204602F016
:10213800B9FEB30731D188212B4604F109022934AD
:1021480003F8031BD2F800C0103252F80C6C10339D
:1021580052F8080C52F8041CA24243F810CC43F879
:102168000C6C43F8080C43F8041CEBD111780022DE
:102178001970AA7170BD036DD0F80E20C3F8AD2098
:10218800428AA3F8B120437B026D03F0FD03003BB4
:1021980018BF012382F8AC30BDE726F00406002200
:1021A8002046114684F8546003F0ECF8C3E740F287
:1021B80006313220FEF750F940F212313220FEF794
:1021C8004BF940F215313220FEF746F9044B002254
:1021D8001B68A3F8792183F87B2183F87020704766
:1021E800E403002108B50BF01FFC034B18700CF03A
:1021F800DDFB032008BD00BF1000002138B5114CDD
:1022080020686C3001F0B4FF656801F061FF636815
:102218002860186858B101F089FF68B10CF040FDDA
:1022280000200CF0D7FD042263681A7138BD40F213
:10223800F5413220FEF710F940F2F7413220FEF75F
:102248000BF900BFE4030021F0B54C4C002383B028
:10225800064625680F466B722B6DB3F8AA2093F8D3
:102268002911D3F8C8006A8113F080F823682884FC
:102278001A6DD2F8D020C3F822204FF47F42DA84B6
:102288004FF6FF721A85002E4AD00121384613F006
:1022980009FB3A78D209236893F8481009B1002A53
:1022A80048D1002159611983207B082852D003F1B5
:1022B8000E0203F10D0105F00BFC002858D023682D
:1022C8005A7B03F11A0542F002025A73002E3BD1E1
:1022D80003F1780002682A608288AA80186D93F951
:1022E8005810A83005F066FD2068254913F0C0FC99
:1022F800236824491A6DB2F8AA00A3F8330003F141
:102308002A00D27D83F8352013F0BBFC0221206817
:1023180003F072F920686C3001F02AFF03B0F0BDB9
:10232800A068694613F0B6F9A36868461A78C2F33C
:102338008012B0E7427902F0C002402AB1D10268A7
:102348005A6182881A83AFE70021384613F0AAFA47
:102358002368BFE793F87E109A6FB3F87C0059732F
:102368000021C3F80E205882C3F81A10D983B5E7A4
:1023780041F213413220FEF76FF800BFE403002159
:10238800F5200001AD20000140F29B31322008B554
:10239800FEF762F810B504788CB004F00F0402A9B7
:1023A800224602F0CFF80BF03FFB234A042C1070B2
:1023B80002D003200CB010BD204C0399236891F87B
:1023C80000E093F878C0E645F3D191F801E093F87E
:1023D80079C0E645EDD191F802E093F87AC0E64578
:1023E800E7D191F803E093F87BC0E645E1D191F895
:1023F80004E093F87CC0E645DBD191F805C093F87A
:102408007D108C45D5D193F87E309DF819109942EE
:10241800CFD17F280DD04FF07F0C009002A96068C3
:1024280082F800C0237C227B02F00EF803200CB057
:1024380010BDFFF7A9FF00BF10000021E403002131
:102448000E4A536810B5197902290CD91979082947
:102458000ED8197952690A4B92680B44BDE81040AE
:1024680052F82330184741F2BC413220FDF7F4FFFF
:1024780041F2BD413220FDF7EFFF00BFE403002128
:10248800FDFFFF3F38B5194D6B681B79022B28D823
:102498002B680446027C83F8A4201A44C168996614
:1024A80092F87C2183F878214268C3F88820037A5F
:1024B800022B0ED00CF05CF80CF0DEFC0BF01AFCD2
:1024C8000B480CF0D7FB0B480CF0CEFB0A480CF07D
:1024D80017F9637C23B12B685B6E0BB101221A607C
:1024E80038BD40F6FC013220FDF7B6FFE4030021B9
:1024F800E83A000155555500D6BE898E70B53A4C5C
:10250800064663681A79032A41D01A79042A3ED00C
:10251800226892F8542092073ED1A568002D4AD02F
:10252800236893F85430002B3BD03EB1284613F073
:1025380065FAD8B9284613F07CFAB8B963681A79ED
:10254800022A3DD91A79082A3FD819796269274B96
:1025580052690B4452F8233098470C2826D86369EF
:10256800DB68BDE8704053F82030184763681A7973
:10257800022A2FD91A79082A31D819792846626986
:102588001A4B12690B4452F823309847E5E718684C
:1025980001F0CCFD0546C1E7186801F0C9FD054604
:1025A800BCE741F2CA313220FDF756FF41F2DD3176
:1025B8003220FDF751FF41F2C4313220FDF74CFFC4
:1025C80041F2AA313220FDF747FF41F2AB31322008
:1025D800FDF742FF41F24A313220FDF73DFF41F25B
:1025E8004B313220FDF738FFE4030021FDFFFF3FA8
:1025F80070B5154D2C6894F84830EBB16FF0004376
:10260800D4E920129A4208BFB1F1FF3F14D00EF06E
:10261800BBF9D4E92023904299410DD32E6896F84E
:10262800483053B905F04EFA04460EF0ADF9074BA1
:10263800E4FB0301C6E9200170BD012005F004FB9D
:102648000028F9D02E68EDE7E403002140420F008E
:102658002DE9F04F044687B006290AD8DFE801F0D3
:10266800522E0F0909090400B34D68688379002BBD
:1026780072D10CF09BF9032007B0BDE8F08F0CF085
:1026880095F9AD4A136893F854108F07F3D0506842
:1026980081790029EFD0A94D95F900107F2900F024
:1026A8001C8202912146127B7F2442330192FF2231
:1026B800009202222C7001F01FFEDCE79E4DA27CE6
:1026C80029686868012A91F8483090F806A090F8BF
:1026D800079083F001035BD00027BB4691F854C0F4
:1026E8001CF0040600F0D78091F84B60002E5AD0F9
:1026F80091F84C80B8F1080F5BD191F84180002621
:1027080040466FE08C4DD5E9003093F854205707C8
:102718001AD5C279002A00F0C680626893F85B1067
:1027280016788E4200F0328193F85620012A00F084
:10273800518193F84C30082B03D042799A4200F02B
:1027480049810CF033F968688379002B40F0AF8039
:10275800C379002B8FD18CE72B6893F85420960708
:1027680040F1CF80754A92F900107F2900F0B581B9
:10277800029121462C7B42330194FF2400947F244C
:102788001470062201F0B8FD002309202B7473E7AA
:10279800A268577907F0C007A7F14007B7FA87F78B
:1027A8007F09BB469AE790F80580B8F1080F00F05A
:1027B800DD804046049305F099F8049B0590BBF131
:1027C800000F40F0388129685E4691F854C091F8AE
:1027D80041800CF00402404692B3059A43EA020B8A
:1027E8005FFA8BF3626891F85BC092F800E0E64507
:1027F80000F0F3804FF0000B6A685279082A00F065
:10280800308191F84CC0ACEB0202B2FA82F2520964
:102818000492002E00F0B680B9F1000F0BD091F8A9
:102828005630012B00F0D6804E4623B9049B53EA5C
:102838000B0B40F0CF800CF0B9F82B6893F854C01C
:102848001CF0030F3FF417AF0CF0B0F8BAF1000F0B
:102858003FF411AF2868A36800F14201A27C90F808
:10286800410012F068FC16B9002800F01481334EBC
:1028780096F900307F2B00F03081029321462B7BA4
:102888007F240122CDE90083D5E90030347042333A
:1028980001F032FDEFE690F80580B8F1080F88D115
:1028A80091F84180CCE78379002B3FF4E2AE2B68A6
:1028B80093F85420960743D4D0077FF5DCAE510730
:1028C80000F1E6801D4B93F900207F2A00F0058176
:1028D8007F2002922A7B21461870FF202B680192E4
:1028E800002200904233686801F006FD03206B68FF
:1028F800DA79002A7FF4C0AE9B79002B7FF4BCAE56
:10290800B7E6D1077FF5B5AE530700F1BE800B4B94
:1029180093F900207F2A00F0E0807F200292214670
:102928002A7B1870FF24D5E9003001920622423331
:10293800009401F0E1FC9EE6E40300211000002170
:10294800674A92F900107F2900F0C780029121465A
:102958002C7B42330194FF2400947F2414700022BE
:1029680001F0CAFC012309202B74C0E7626891F8C2
:102978005B0092F800C091F8418084452CD0B346A2
:1029880040460496002B6FD1002654E7567893F8FA
:102998005C108E427FF4C8AE967893F85D108E4234
:1029A8007FF4C2AED67893F85E108E427FF4BCAE48
:1029B800167993F85F108E427FF4B6AE517993F88A
:1029C800602091427FF4B0AE617C93F85A20914226
:1029D8007FF4AAAE0A204FE6404692F801E091F84B
:1029E8005CC0E6457FF406AF92F802E091F85DC05E
:1029F800E6457FF4FFAE92F803E091F85EC0E64545
:102A08007FF4F8AE92F804E091F85FC0E6457FF4F1
:102A1800F1AE92F805C091F8602094457FF4EAAED3
:102A280094F811B091F85A20ABEB0202D2F1000BE6
:102A38004BEB020BE0E6A1684046049305F038F939
:102A480029680646049B91F854C091F841000CF09F
:102A58000402002E3CD040F00208002A7FF4BDAEEC
:102A6800EEE600220492D4E64231A368A27C12F07A
:102A780062FB002888D0B9F1000F85D02B6893F845
:102A88005630012BA6D00026CFE60BF08FFF3EE78D
:102A98000BF08CFF16E72B6893F85520023A012AB1
:102AA8003FF6E9AD002F3FF4E6AD0D4E96F9002054
:102AB8007F2A12D0029221462A7B7F2468684233FB
:102AC8000192FE2200920122347001F015FCD2E539
:102AD8008046002A7FF481AEB2E6FFF755FC00BFBE
:102AE800100000212DE9F843664C0022074689466C
:102AF800A368D4F8008018461A800CF007F900285B
:102B080000F0A380A568032F06462B7800F0A98063
:102B180023F02F03222243EA49136A7043F0050386
:102B28002B7023681A6DD2F8CC20C5F80F201A6DC7
:102B3800D2F8D430EB74190A1B0C29756B7592F80E
:102B48002A01B2F8DC10D2F8D830002840F0918081
:102B58004D48A0FB01C1A0FB0303890A9B0AEB7542
:102B6800C3F30723A9752B7692F82911D2F8C80068
:102B780012F0FCFB6876000AA8762068A568036D49
:102B880095F82420D3F8D01022F01F02C5F81B10A6
:102B98009969C5F81F101B7F85F82330036D93F8DA
:102BA800233003F01F03134385F8243004F032FB6D
:102BB80095F8243003F01F0343EA401385F82430C6
:102BC800A568D8F878302846C5F80930B8F87C30B8
:102BD800A5F80D3098F87E1012F06CFD236893F874
:102BE800482003F1420993F84180AAB393F854208E
:102BF800520733D593F84B2082B393F84C0005F075
:102C080091F8054640B34FF001082B684146A0688B
:102C1800C0F80330AB88A0F8073012F042FD1B4B18
:102C2800D3F804317BB9052F13D1236830462968BE
:102C38001A6DC2F8B410A988A2F8B8101B6D83F8F1
:102C4800B380BDE8F8830BF0B1FE0026032005F041
:102C580003FB3046BDE8F8834D46D6E763685879EC
:102C6800CDE723F00F0343F003032B700C236B70A5
:102C7800A7E70748A0FB01C1A0FB0330C1F3471138
:102C880043096CE7E40300215917B7D100800041DC
:102C98001F85EB5110B50A4C0AF0C6FE094A637B42
:102CA80010701BB90BF082FE032010BD0CF0E4F885
:102CB8000BF020F8002363730BF078FE032010BD9F
:102CC800E40300211000002110B50B4C637B63B9AD
:102CD800A1680020FFF7B8FA23680022A3F8792139
:102CE80083F87B2183F8702010BD0CF0C5F80BF039
:102CF80001F800236373EBE7E403002110B50E4CE1
:102D0800637B8BB920680121626800231171024638
:102D1800A0F879316C3082F87B3101F029FA20680B
:102D2800BDE8104002F046BB0CF0A6F80AF0E2FF3E
:102D380000236373E6E700BFE403002107292DE9B8
:102D4800F04F044687B00D461646406852D1002819
:102D580008BF002A0CBF4FF0010A4FF0000A72D0DA
:102D6800002800F0D580627C012A00F0B180AB4FCA
:102D78007B685879082848D00DF10F0104AA04F09F
:102D8800A7FE002800F05E8104A99DF80F0013F04B
:102D980024FD8246D7E9000890F8543013F0030266
:102DA80040F088805B0788F8062043D4002388F821
:102DB80007309B4B1B6833B131462046984788F84B
:102DC8000800D7F80480636843B1617C3A6882F8E8
:102DD8007E10196891679B88A2F87C3098F80830B3
:102DE800002B00F03481A06808B1072D4FD007B040
:102DF800BDE8F08F002800F08880627C874F012AA8
:102E080079684FD048790828B6D16168607C13F09A
:102E1800E4FC7A68824661680532607C04F08EFDC5
:102E2800D7F8048003460028B4D1A8F8060088F82B
:102E38000800D8E7062D90F84B9000F2B28049EAD6
:102E48000A00C3B2B3E7754FD7E9001091F85430C0
:102E580013F0030218BF012213F00403827105D096
:102E68002378A3F10103B3FA83F35B09C37191F8E3
:102E78009430002BBBD03B68D3F89000503013F04F
:102E880036FD0028B3D17B6801221A72AFE798F8A3
:102E980005100829ABD0002BA9D004F04FFE012360
:102EA800FB73A4E7437903F0C003402BAAD17B7BD3
:102EB800FBB9A7E7062D90F84A904FD849EA0A09C6
:102EC8005A0788F806907FF571AF90F84B90B6E7EF
:102ED800427902F0C002402A7FF449AF4F4F7A7B13
:102EE800002A3FF445AF26B93A6892F878110129CB
:102EF80060D0D7F8048012F062F97B6888F8050082
:102F0800587901233873BB7334E78246434F41E74E
:102F1800424FD7E9000890F854309A0745D1D14676
:102F280013F0040388F806903FF441AF90F84B90F3
:102F3800311E98F807B018BF0121BBF1010F02D06C
:102F480000297FF433AF6368002B7FF478AF002E3D
:102F58003DD16378D9063AD5012328E7082D03D94E
:102F6800002388F8063021E798F806B0311E18BF0C
:102F78000121BBF1010F0DD061B14FF0000913F031
:102F8800040388F806903FF412AF90F84B9098F835
:102F980007B0D2E762689AB149EA0A095FFA89F983
:102FA800BEE7082D3FF602AFC2E790F84A9098F8BE
:102FB80006B0DBE704F0A4FD7873002899D1D7E6C2
:102FC800A6B96278D20611D54FF00109D7E7D8F82B
:102FD800000001F0B1FA10B1BBF1000F02D1B9F154
:102FE800000F14D0D7F804800123E0E6D8F80000D9
:102FF800019101F0A1FA1BEA000001991CD1B9F175
:10300800000F0FD0D7E9000890F85430B7E704F064
:103018008FFCD7F804800346C9E600BFE40300210B
:10302800BC0F0021019104F083FC81460199D7E986
:10303800000890F85430A2E78146D7E9000890F8D4
:1030480054309CE740F6A5313220FDF705FAB8F870
:103058000630003B18BF0123C5E600BF70B5194E06
:103068008AB005460AF0E0FC3368174A93F85430F2
:10307800107013F0060F16D12C782846694604F014
:103088000F04224601F05EFA214600226846FFF747
:1030980055FE21466846FFF7DBFA737B044643B9C1
:1030A80020460AB070BD0122962100200BF03CFC9E
:1030B800E2E70BF0E1FE0AF01DFE002320467373E1
:1030C8000AB070BDE40300211000002110B50F4CB8
:1030D800606801F0C5F8637B8BB9206801216268DC
:1030E800002311710246A0F879316C3082F87B31E7
:1030F80001F03EF82068BDE8104002F05BB90BF023
:10310800BBFE0AF0F7FD00236373E6E7E403002142
:1031180010B500210320164CFFF7E4FC20B1032171
:10312800206801F04BFF98B9637BCBB92068012177
:103138006268002311710246A0F879316C3082F878
:103148007B3101F015F82068BDE8104002F032B973
:10315800012108460BF0BAFE092263681A7110BDF6
:103168000BF08AFE0AF0C6FD00236373DEE700BF9A
:10317800E403002138B5224C6368186800F0D6FFD4
:10318800002837D063680A22054600211A71206892
:1031980002F032FA22682B780520126DC3F340132F
:1031A800D57D1D402946FFF79DFC40B104212068CC
:1031B80001F004FF18B123681B6DDD7538BD637B12
:1031C8008BB9206801216268002311710246A0F8BA
:1031D80079316C3082F87B3100F0CAFF2068BDE895
:1031E800384002F0E7B80BF047FE0AF083FD0023F1
:1031F8006373E6E740F261513220FDF72DF900BF15
:10320800E403002110B501291D4C636810D178B979
:103218001A79082A2AD91A790C2A2CD819796269B4
:10322800184B52680B44BDE8104052F82330184739
:10323800184601F015F8637B8BB920680121626894
:10324800002311710246A0F879316C3082F87B3185
:1032580000F08EFF2068BDE8104002F0ABB80BF01C
:103268000BFE0AF047FD00236373E6E741F28C4149
:103278003220FDF7F1F841F28D413220FDF7ECF8EC
:10328800E4030021F7FFFF3FF0B55A4C83B02068F4
:103298006C3000F06DFF656800F01AFF6368286005
:1032A8001868002800F09B8000F040FF05460028C1
:1032B80000F09A80236893F8A630002B47D1D4E910
:1032C800000290F8A430034493F87C7180F8787178
:1032D800137913B11379012B4AD1474A90F8A530D5
:1032E800D05C0BF017FA236893F8A420134493F8E2
:1032F8007C61022E3AD04DD8012E4ED100F0E2FE6C
:1033080031460BF0C1F828460BF0CAFC31460120C3
:103318000BF014FA012F31D1E81C04F01FFC607384
:1033280028B140250AF0CAFC28460BF099FD6268CE
:10333800082100232068517121730321D38013725F
:10334800E38180F895302374117103B0F0BD2368D0
:1033580093F8542093F8A700196D0243C3F810118D
:1033680083F85420002283F8A620A8E70D20C7E799
:10337800002101F023FEA8B12068AEE7681D04F023
:10338800EDFB60730028D2D0033F012F8CBF50257E
:103398005525C7E7F31E012BB0D940F2F77132204B
:1033A800FDF75AF8637B93B920680121626800230E
:1033B80011710246A0F879316C3082F87B3100F047
:1033C800D7FE206803B0BDE8F04001F0F3BF0190DC
:1033D8000BF052FD0AF08EFC01986073E4E740F2AE
:1033E80052413220FDF738F840F254413220FDF7BF
:1033F80033F800BFE40300212014020108B50AF0E5
:1034080013FB044B18700BF0D1FABDE80840FFF726
:103418003BBF00BF1000002110B50C4C0AF004FBA4
:103428000B4A637B10702BB90BF0C0FABDE8104053
:10343800FFF72ABF0BF020FD0AF05CFC0023637342
:103448000BF0B4FABDE81040FFF71EBFE4030021FB
:103458001000002110B50446FFF714F8237A032B57
:1034680034D01D4A12683BBB92F8A5301B49013382
:1034780092F84900A1FB034C0CF4FF7404EB5C04C4
:103488001B1B40FA03F4E40713D40133A1FB034CDC
:103498002CF0010404EB5C041B1B40FA03F4E00766
:1034A80007D40133A1FB034121F0010404EB5101CE
:1034B8005B1ADBB282F8A53092F958000BF01AF9C2
:1034C800FFF7E2FEBDE81040FFF792B840F62E1174
:1034D8003220FCF7C1FF00BFE4030021ABAAAAAA6F
:1034E80090F83E00003818BF01207047007A003875
:1034F80018BF0120704700BF036D10B58BB10222C1
:10350800FF2104464272B3F8AA204FF6FF7380F8F1
:10351800271003850549428112F0AAFB0023236581
:1035280010BD40F261313220FCF796FFF520000112
:1035380038B5012105460020FDF7A0FB20B304465D
:1035480001F0A6FC02E094F870301BB194F87030DA
:10355800012BF8D13F22002120460FF07DFC0023EB
:1035680040F20111072284F8543084F8A530A4F8F9
:103578004A1084F8585084F84920636684F89430D7
:10358800C4F8903084F8A63001210846FDF776FB90
:10359800044618B301F07CFC02E094F870301BB1CB
:1035A80094F87030012BF8D13F22002120460FF00B
:1035B80053FC002340F20111072284F8543084F8A8
:1035C800A530A4F84A1084F8585084F84920636656
:1035D80084F89430C4F8903084F8A630BDE83840B8
:1035E80000F066BDF8B506461D4F03F083FD03469F
:1035F80001210020BB60FDF705FB30B34FF4C0721A
:10360800002104460FF028FC01210846FDF7FAFACC
:103618007F69054680B14FF4C07200210FF01CFC91
:10362800C7B13046FFF784FF204601F027FC284643
:10363800BDE8F84001F022BC67B13046FFF778FFDB
:103648002046BDE8F84001F019BC40F6850132205B
:10365800FCF702FF40F68F013220FCF7FDFE00BFA9
:10366800E4030021014B024A5A617047E403002138
:103678004C3B0001036810B54BB1074A03F16C04D9
:103688005169C2E900340B68BDE81040184740F69C
:1036980077113220FCF7E0FEE403002110B50F4C4F
:1036A800606800F0DDFD637B8BB9206801216268EA
:1036B800002311710246A0F879316C3082F87B3111
:1036C80000F056FD2068BDE8104001F073BE0BF015
:1036D800D3FB0AF00FFB00236373E6E7E403002142
:1036E80080F84910704700BF11F001031FD04FF058
:1036F800010C0222634680F87CC111F0020F0ED043
:1037080000EB030C490700B54FF0020E8CF87CE182
:1037180003D51044032380F87C315DF804FB4A0785
:1037280004D51844032380F87C3170477047012280
:10373800E3E700BF80F85710704700BF38B590F82E
:1037480040C0ACF1020EBEF1010F98BF00290CBFBA
:103758000124002408D00CF0FD000038BDE83840F2
:1037680018BF012003F06ABF02F0FD0205461946A2
:10377800101E18BF012011F018FD082801D020469E
:1037880038BD95F840C0E6E790F8400000F0FD002D
:10379800003818BF012003F051BF00BF90F8A630D1
:1037A80013BB10B5044603F0FF0094F85430022B05
:1037B80007D0012B08BF04290CBF0120002002D02C
:1037C80010BD0429FCD1D4F810317BB9216D91B119
:1037D80004F1E80001F04EFC042384F8A730FF232D
:1037E80084F8A630012010BD0020704740F6F8117B
:1037F8003220FCF731FE40F6F9113220FCF72CFE9E
:1038080080F84010704700BF38B5044690F8400073
:1038180000F0FD0004F14201003818BF012084F8CF
:10382800410003F0F1FE94F84030023BDBB2012B7B
:1038380094BF0123002384F8483000D938BD04F030
:1038480041F905460DF0A0F8094BE5FB030194F892
:103858004830C4E92001002BF0D0002004F0F4F92E
:103868000028EBD140F621213220FCF7F5FD00BFFE
:1038780040420F00B1F1000C4FF0080110B50446AA
:103888000CBF0120002084F856C084F84B0084F84F
:103898004C1009D102F0FD021946101E18BF012074
:1038A80011F083FC84F84C0010BD00BF08B5B2B11C
:1038B80080F85A10D2F800C0036DC0F85BC090F8C9
:1038C80041109288A0F85F2083F8B310D0F8422006
:1038D800C3F8B420B0F84620A3F8B82008BD40F6D5
:1038E8003F213220FCF7B8FDF0B5D0F8C8409DF86C
:1038F80014E0944203D190F840208A4201D000207D
:10390800F0BD1EF0020190F8455123D00024A446D2
:103918002146224611E0314300EB820253F82C6025
:103928000CF101070134D2F8CC205FFA87FC2A3267
:10393800B242E4D1E2B2AA4226D8861896F87C614F
:10394800F71E012FE7D80CF1010C41F004015FFAD2
:103958008CFCE1E70E460A468418013694F87C414F
:10396800E71E012F53F8227088BF214300EB820421
:1039780098BF41F00401F2B2D4F8CC4004F12A0C0B
:103988006745BCD1AA42E7D90EF00500401AB0FA43
:1039980080F04009F0BD00BF90F854305A070ED4AB
:1039A80013F0030301D11846704790F8550000F052
:1039B800FD00A0F10100B0FA80F04009704790F8CE
:1039C8005600A0F10100B0FA80F04009704700BF2E
:1039D800012938B5044610D094F8543004F16C0528
:1039E8009B071AD1284600F0C3FB0023A4F87931BD
:1039F80084F87B3184F8703038BD0A4D6B7B002B1E
:103A0800EAD00BF039FA0AF075F900236B7304F168
:103A18006C0594F854309B07E4D0284600F020FC4D
:103A2800E0E700BFE4030021A03011F01BB900BF9C
:103A38000149363012F01FB9D120000110B501211B
:103A480004460020FDF71AF928B36278034680F887
:103A58005420227812F0010103D00120014683F896
:103A68007C01520703D51944032281F87C21A278EE
:103A780083F84020E17801F0FD0283F85510B2FA8E
:103A880082F2520983F84A20227983F84920627920
:103A980083F8572010BD40F6CB213220FCF7DCFC20
:103AA80010B504466C3000F0DBFB0023A4F8793134
:103AB80084F87B3184F8703010BD00BF08B501214F
:103AC8000020FDF7DBF828B190F89400003818BF03
:103AD800012008BD40F64A313220FCF7BDFC00BF8A
:103AE80049240001052500010D320001D5300001EF
:103AF80005220001D12C0001213400010534000108
:103B0800D5210001052D0001C520000191320001D9
:103B1800C5200001C5200001C5200001C520000105
:103B2800C5200001193100017D310001C5200001C7
:103B3800C5200001653000019D2300019D2C000176
:103B4800ED2100015D340001F83A0001003B00015D
:103B5800083B00013C3B0001443B00012DE9F047D4
:103B680005468CB00E4600200121FDF787F8002895
:103B780000F074820446A83001F09EF9002846D06F
:103B880094F85430042B42D0AF6A002F00F05381D0
:103B9800BB4B9F4263D0043B9F4260D003F0B8FA0E
:103BA80007F13B08814602A9404600F071FDEB7A17
:103BB800B9F1000F00F0BE80D80606F10D0100F142
:103BC800F381002F00F04F829DF80830022B00F09F
:103BD8004A8295F83230E522404611F0A6FE95F863
:103BE800323004464046234485F8323011F095FEC1
:103BF80095F83280A8EB0008B8FA88F84FEA581808
:103C0800B9F1000F31D104F11803DBB2A1E020466D
:103C1800FFF766FC0028B7D19A4C04F1080604F1B6
:103C28000C070023AA6A002A00F03081A96A0A68F2
:103C3800B142AA620B704B708B70CB70F2D0B94254
:103C4800F0D020680FF0C3FE231DD3E84F3F0133A7
:103C5800211DDBB2C1E8423F002AF5D1E1E703F0BC
:103C680057FA8046002870D00024EA7AD30640F13B
:103C7800FA815007AB7A697B03D5EA7EFE2A00F009
:103C8800718104F10A02F370717102FB03F30233CC
:103C980073703E2333700223B370D5F80E30C6F824
:103CA80006306B8A3473344473812B7E6373EB7AEA
:103CB80013F0080100F0FE80724C042304F1080997
:103CC80033714F4578D13379022262F34613AA6AD9
:103CD80033716AB1EFF3108272B6AB6A1968A962E0
:103CE800002A00F0C28000221A705A709A70DA70A6
:103CF800A5F1080120680FF06AFE231DD3E84F3FA5
:103D08000133211DDBB2C1E8423F002AF5D1022769
:103D18004FF004088DF804808DF805709DF8042094
:103D280000209DF8053062F3070063F30F200CB004
:103D3800BDE8F087DA0606F11C0100F13E8127B1E3
:103D48009DF80830022B7FF444AF182300244FF06D
:103D580001088E223270AA7A02FB03F3F270023352
:103D68007370D5F80B20D5F80F30D5F81300D5F8B7
:103D780017107260B360F0603161D5F81B20D5F878
:103D88001F307261B36195F814A095F8159003F08F
:103D9800FDF90AF1FF338A05DBB252D5032B00F295
:103DA800668186F80DA0B9F1000F60D1F476354C24
:103DB80004F108094F4586D004F10C0A574500F074
:103DC8008280002F00F0A780B8F1000F2AD0AB6ADC
:103DD80063B1EFF3108272B6AB6A1968A96202B9CF
:103DE80062B600221A705A709A70DA7039462068E2
:103DF8000FF0EDFD231DD3E84F3F0133211DDBB24A
:103E0800C1E8423F002AF5D1AB6A85F832204B451C
:103E180000F0DD80534500F0FE809DF80830022B4D
:103E280000F0BB803379012262F346133371012716
:103E38004FF004086EE703F06BF905F1330881468B
:103E4800B1E6032B00F21C810F4AD35C7373B9F1FE
:103E5800000FABD009F1FF395FFA89F9B9F1030F07
:103E680000F20E8112F8099006E062B63BE709F10C
:103E7800FF33032B00F2FB8086F80E9096E700BF15
:103E880008040021FC03002124140201A5F1080103
:103E980020680FF09CFD231DD3E84F3F0133211DFF
:103EA800DBB2C1E8423F002AF5D14FF40073ADF808
:103EB800043033E703F00302032A49D0590749D5F0
:103EC8000123337173E7AB6A63B1EFF3108272B603
:103ED800AB6A1968A96202B962B600221A705A70F0
:103EE8009A70DA706B7D83BB32794FF0040863F304
:103EF80046123271A5F1080120680FF068FD231DF4
:103F0800D3E84F3F0133211DDBB2C1E8423F002A0D
:103F1800F5D10227FEE695F80B8018F010083FF45B
:103F2800F9AE3379A5F10801206867F346133371B8
:103F38000FF04DFD231DD3E84F3F0133211DDBB2A8
:103F4800C1E8423F002AF5D1E1E64FF00008D1E789
:103F580031712CE7022A25D0002A40F08D800323F6
:103F6800337124E7F3701B017171023373703E23C0
:103F780033700B23B37001233371D5F80E30C6F8B4
:103F880006306B8A32737381EB69C6F80D302B8C5F
:103F9800A6F811302B7EF37409E7337923F0680310
:103FA800337144E7327102E79DF8184008460599D5
:103FB800C84622460EF0FCFF57E69DF81840084612
:103FC80005994FF0010822460EF0F2FF1BE63379FF
:103FD800022262F34613AA6A337162B1EFF31082C8
:103FE80072B6AB6A1968A96202B962B600221A7081
:103FF8005A709A70DA70A5F1080120680FF0E7FC92
:10400800231DD3E84F3F0133211DDBB2C1E8423FF6
:10401800002AF5D17BE6337962F34613AA6A337135
:1040280062B1EFF3108272B6AB6A1968A96202B97D
:1040380062B600221A705A709A70DA70A5F10801F7
:1040480020680FF0C4FC231DD3E84F3F0133211D26
:10405800DBB2C1E8423F002AF5D158E64FF4F171CE
:104068003320FCF7F9F95B213320FCF7F5F94FF41D
:10407800EA713320FCF7F0F9A4213320FCF7ECF9BE
:104088004FF43F710620FCF7E7F900BF343270B5F2
:10409800044692B21E460D460FF061FC24B1034B54
:1040A8001C601D745E741D7170BD00BFFC0300218F
:1040B80010B5034C20680FF074FC237C237110BDED
:1040C800FC030021014B587C704700BFFC03002112
:1040D80038B5154C20680FF06AFC00B30546231D5F
:1040E800D3E84F3F013B221DDBB2C2E8413F002924
:1040F800F5D105F108033422012418460EF0ACFE70
:10410800EA7C0346FF2147F6FF7064F3461269759F
:10411800E883184685F82310EA74ED6238BD40F24A
:1041280057113320FCF798F9FC030021333070470E
:1041380038B50446406A08B13B3038BD0B4D286895
:104148000FF035FC606260B12B1DD3E84F3F013B97
:10415800291DDBB2C1E8423F002AF5D1606A3B3035
:1041680038BD4FF4B8713320FCF776F9FC03002111
:1041780038B503684BB39A6A52BB596A054629B3E6
:1041880001F10800154C8342206808BF2A600FF02F
:104198001EFC231DD3E84F3F0133211DDBB2C1E8CC
:1041A800423F002AF5D12B687BB1A3F108012068B2
:1041B8000FF00DFC231DD3E84F3F0133211DDBB267
:1041C800C1E8423F002AF5D12A6038BD034CECE72C
:1041D80040F28D113320FCF73FF900BFFC030021AA
:1041E80070B505680646F5B11B49284611F04CFD27
:1041F8001A4C0023E360EFF3108272B6AB6A23B364
:10420800E96A04F10C030B60EB6202B962B6336829
:10421800596A29B101F10805AB421AD100236B6232
:104228000023336070BD696A0029F9D00B4C2068FF
:104238000FF0CDFB231DD3E84F3F0133211DDBB227
:10424800C1E8423F002AF5D1E8E704F10C03AB626C
:10425800DAE71D46EBE700BF653B0001FC030021E0
:1042680070B50668002E3CD0716A0546002939D021
:1042780001F108031E4C9E420DD020680FF0A7FBE9
:10428800231DD3E84F3F0133211DDBB2C1E8423F74
:10429800002AF5D12B68002272625A7D8AB1002269
:1042A800A260EFF3108172B69A6AF2B1D86A114A25
:1042B8000260DA6201B962B62846BDE87040FFF7CD
:1042C8008FBFA3F1080120680FF081FB231DD3E8FD
:1042D8004F3F0133211DDBB2C1E8423F002AF5D12F
:1042E8002A6070BD3346024CD7E7024A9A62E0E77B
:1042F800FC030021040400212DE9F843504D0F462A
:10430800002604682979984606609DF820909DF853
:1043180024009DF9283081B9A4F1080128680FF01C
:1043280056FB2B1DD3E84F3F0133291DDBB2C1E8F3
:10433800423F002AF5D1BDE8F8830121C4F809609D
:10434800C4F80D60C4F81160C4F81560C4F81960A9
:10435800C4F81D60A4F82160A172062A66D8DFE8B7
:1043680002F02B3239653E650400E27A22F012022F
:1043780042F01202E27223760123082804F10E02A9
:10438800237547F6FF73E38230D004F10D0103F083
:104398009FFB00284FD0637B43F002036373E37AEB
:1043A8005B072ED4FF23E37600232372254920469A
:1043B800BDE8F84311F05FBCE27A22F0130242F044
:1043C8001302E272D7E7E27A22F0150242F01502F0
:1043D800E272D0E7E27A42F01002E272CBE7E27AC8
:1043E80022F01A0242F01A02E272C4E77B7C63737D
:1043F8007B681968C4F80E109B889380E37A5B0782
:10440800D0D5A9F1020304F11C02012B07D9BB681E
:104418001968E1619B88938084F81B90C4E7D8F8F9
:104428000030E361B8F804309380F5E740F2464184
:104438003320FCF711F8C3213320FCF70DF800BF37
:10444800FC030021653B0001F8B5394D8446002680
:1044580010462A790F46DCF800409DF91810CCF870
:1044680000607AB9A4F1080128680FF0B0FA2B1D92
:10447800D3E84F3F0133291DDBB2C1E8423F002A90
:10448800F5D1F8BDC4F8096041F60125C4F81560F6
:104498000122217645EA0325618941F6FF33C4F8F4
:1044A8001160082821F4DF5103EA0503227547F655
:1044B800FF7221F01F01C4F80D60E28204F10E02C0
:1044C80043EA0103C4F81960C4F81D60A4F8216028
:1044D800638115D004F10D0103F0FAFA18B3637B78
:1044E80043F002036373E37A5B0714D4FF23E37694
:1044F800002323720F492046BDE8F84011F0BBBBEA
:104508007B7C63737B681968C4F80E109B88938062
:10451800E37A5B07EAD5BB68FF221968E1619B88EB
:10452800E2762384E4E7C3213320FBF795FF00BF3D
:10453800FC030021653B000118B1407BFF3818BF20
:104548000120704770B5037816460C460546C3F33C
:1045580080134B7411F0B5F8062EA07424D80123EB
:1045680003FA06F212F0550F11D0E91C002263700D
:10457800C4E901126B78063B13F0FF0303D11D4613
:104588002374E56070BD09352374E56070BD9E42F3
:104598000AD10322AB1809356270C4E9013500233A
:1045A8001D462374E56070BD00236370C4E90133C0
:1045B800F5E700BF38B50C46C17811F03F0160D06F
:1045C80003780546C3F38013637411F07AF8A07476
:1045D8002B796370E878830923702B7913F0010134
:1045E80046D14FF0050C4FF00B0E6246616013F098
:1045F800020102D005EB0C017246A160590701D5F2
:104608000132D2B213F0080104D002F1020CA91849
:104618005FFA8CF2616113F0100104D002F1030C0F
:10462800A9185FFA8CF2A16113F0200104D002F1FD
:10463800120CA9185FFA8CF213F04003E16102D062
:10464800AB180132D2B200F03F002362031D9B1A5F
:1046580013F0FF0114BFAB180B4663626B78013B84
:104668001B1ADBB2237453B10A441544E56038BD04
:104678004FF00B0C691D4FF0110E6246B6E7E36070
:1046880038BD20462822BDE838400EF0E5BB00BF03
:1046980070B5037803F00F06072E2BD0C3F38013F1
:1046A8000C4605464B7411F00CF80122A07402FA6E
:1046B80006F313F055030CD00023E91C6270C4E91B
:1046C80001136B78063BDBB223748BB10935E560C7
:1046D80070BD964208D103212374E3606A18093536
:1046E8006170C4E9012570BD63702374C4E90133A6
:1046F800E36070BDBDE87040FFF75CBFD0F81011F3
:10470800F0B5D0F8C86090F8455189B100210C4641
:104718000B4600EB83030131D3F8CC20CBB22A320D
:10472800AB421444F5D9A6420CBF02200120F0BDCB
:104738008C460F4600EB81010CF1010CD1F8CC40FE
:104748005FFA8CF104F12A0EA9427744F2D90721C5
:10475800BE42A6FB011422D0D0F8C070C919D0F807
:10476800C47044EB0704D0F8CC701DB3D0F8D0C0A7
:10477800012D674407F1540703D0D0F8D4002A303C
:104788000744BE4205D08A4273EB040416D30120C5
:10479800F0BD8A4273EB040410D20320F0BDD0F8B8
:1047A800B070C919D0F8B47044EB0704D0F8CC70D5
:1047B800002DDBD12A37BE42E5D1EAE70220F0BD61
:1047C80040F28A31212008B5FBF746FE38B5044689
:1047D800FF2380F8153100F58C7528460CF08CF90C
:1047E800284604F5A4750CF09BF928460CF084F9CA
:1047F80028460CF095F900212046FFF7E9F894F8CF
:1048080016313BB1D4F8083153B104F1E80004F093
:10481800B1FD09E0D4F8100110B1D4F808319BB10A
:1048280004F1E80004F036FD002384F8153194F80B
:10483800160110F0FF0018BF0C2084F81631C4F8D8
:10484800103184F8143138BD00F5EC7004F022FD05
:10485800E6E700BF022910B52AD013D8012934D1C0
:10486800044608460AF026FD4AF2A133194A0344D1
:10487800D4F81011A2FB0320800900F5257001B1BE
:10488800400010BDCB1E012B1FD840F2DA3340F296
:10489800AC740846032918BF1C460AF00BFD4AF2FF
:1048A800A1330C4A0344A2FB032304EB931010BD6D
:1048B80008460AF0FFFC4AF2A133064A0344A2FB69
:1048C8000320800900F5BE7010BD40F217119E202C
:1048D800FBF7C2FDD34D62102DE9F04104460CF000
:1048E80053F805460E46D4F81021D4F8C8E094F8D9
:1048F8004571002A46D04FF0000C6046634604EB31
:1049080083030CF1010CD3F8CC205FFA8CF32A3224
:10491800BB421044F3D986450CBF0227012738460D
:104928000CF024F93F2829D9411CD4E9363259D052
:10493800C118914228BFD01AD4F8A830D4F8AC20B6
:104948005B1B62EB0602012B72F1000151DB0021B7
:10495800984291415EDA41F28836864228BF06467F
:10496800C5F190050CF010F80544B54206D8394653
:1049780030460CF027F90546002852D10025284674
:10498800BDE8F0811046134604EB83030132D3F8E7
:10499800CC10D3B22A31BB420844F5D90723864547
:1049A800D4E92C1CAEFB03382ED0D4F8C0209B18B9
:1049B800D4F8C42048EB0208D4F8CC20DFB1D4F8EE
:1049C800D000012F024402F1540203D0D4F8D400DD
:1049D8002A300244964511D099427CEB080817D337
:1049E80001279CE7D61A41F288339E4228BF1E460B
:1049F800B6E70026B4E72A329645EDD199427CEB1A
:104A0800080805D203278AE7CB184CEB0808D3E738
:104A1800022784E741F28832934228BF13461E4694
:104A28009EE70BF0B7FFD4F8E020D4F8D830B018E0
:104A3800D4F8DC203344C4F8E0009342C4F8D830FA
:104A480003D1D4E93A23C4E930230BF09FFF96E75A
:104A58002DE9F04F04468BB0052900F26C81DFE8A0
:104A680011F02100090032008F006A010C00204675
:104A7800FEF7DEFF0BB0BDE8F08F90F8153163B993
:104A8800B0F87A31C3F30C03002B00F04B8190F897
:104A98007831033B012B40F26B810BB0BDE8F04F3E
:104AA800FEF7FCBD90F8153103F0FF05002B00F070
:104AB800EF800121FEF78CFF0AF006F80BB0BDE885
:104AC800F04F0DF079B8B0F87A31C3F30C03002B2E
:104AD80040F02E810BF058FFD4F8CC7094F8455173
:104AE8008B46804607F12A0155B1012304EB830266
:104AF8000133D2F8CC20DBB22A32AB421144F5D9CB
:104B0800D4F8C8508D4240D16FF00043D4E92A123E
:104B18009A4208BFB1F1FF3F00F0978194F8443101
:104B280020460026234493F87C11FFF793FE18F5DE
:104B38008E730546059008934BF1000304A88DF881
:104B48001060099340F20243ADF818300DF0C4F834
:104B5800002800F08B81089AD4F8A83009999B1A8C
:104B6800D4F8AC2062EB01025B1B62F10002002A60
:104B780080F26B810123374645465E4601931FE06C
:104B88000BB0BDE8F04F0AF04FBAD4E93A264FF01F
:104B98000009A8EB02035219B3FBF5F305FB03F375
:104BA80046F100069B18A3EB080246F10006B2F591
:104BB8008E7F80F01C81ED18CDF8049046F1000638
:104BC80094F87C112046FFF745FE8146D4E92AA1D6
:104BD800BAEB050361EB0602012B72F10000C0F28B
:104BE8009F8000209F42904100DB1F46D4F8CC30C4
:104BF8002A462046C4F8D8909F420393029128BFC2
:104C08001F460423C4E92E568DF819303346C4F8DC
:104C1800DC70FFF773FD019B8DF81800CDF8149038
:104C28008BB30123BAEB080A02998DF8103061EBB7
:104C38000B019A4571F10003C0F205818E480023EB
:104C480050458B4180F29280D4F81031D4F8C810C6
:104C5800002B00F0AF804FF0FF32154690457BEBFC
:104C680005036DD30891B9453FF601AF04A904F5D2
:104C78008C700CF0BFFF00287FF4FCAE40F273711B
:104C88002120FBF7E9FB8DF81030CDE90856EAE75B
:104C98000BF0C8FFD4F8E830B0EB030CC4E92C01E2
:104CA80000F1E28094F84561D4F8C870049407953F
:104CB800002E00F0CF802946BCFBF7F207FB023339
:104CC800C21A28462B4604EB8303D3F8CC3003F1F1
:104CD8002A0E724503D32A3A0130D21AC0B20131E2
:104CE800CBB29E42EFD2B4F87A3184F84401C3F3D0
:104CF8000C038DF820009BBBBC4534BF0125012364
:104D080004A88DF818508DF82130FEF7B3FCD4F8BC
:104D1800D800A0F58170C4F8E0000BF037FEA9E6D2
:104D2800002763E7FFF7D8FD00287FF4A3AEB4E6B9
:104D3800FEF7B6FECEE64FF4E5712120FBF78CFBBB
:104D4800B2EB08026FF001014FF0000365EB0B05B1
:104D580091420146AB4185D3904228BF114681E775
:104D6800D4F84021032500230592C9E750466BE794
:104D780090F87031002B7FF490AE012144F2365048
:104D880084F870110BF01EFF00283FF486AE0BF07C
:104D980001FED4F8D830D4F8E02044F23650034469
:104DA8001044C4F8D830C4F8E0000BB0BDE8F04FA8
:104DB8000BF0ECBD039E94F845512A3655B10123FA
:104DC80004EB83020133D2F8CC20DBB22A32AB42A7
:104DD8001644F5D907228E42A1FB02253CD0D4F80F
:104DE800C030D218D4F8C43045EB030536E794F840
:104DF8007C112046FFF72EFDD4F8E810D4F8B8301F
:104E0800D4F8C8505A1AD4F8EC30059020468DF8DA
:104E18001090B2FBF5F205FB02F252184FF00401B4
:104E280043F1000308928DF819100993FFF766FC07
:104E380029468DF8180004A810F0EDF9CDF8049073
:104E4800DDE90856BCE60020FEE6012345465E463D
:104E58000193B5E6284646E7D4F8B030D218D4F81E
:104E6800B43045EB0305F9E6FFF7AAFC40F296419A
:104E78002120FBF7F1FA00BF0040420F90F81421FF
:104E880012B190F8143103B97047FFF79FBC00BF07
:104E980090F8142112B190F8143103B97047FFF754
:104EA80095BC00BF90F8143103F0FF020BB910460F
:104EB8007047FFF78BBC00BF90F86C00003818BF34
:104EC8000120704730B585B090F81431002B5FD1C0
:104ED80003F0FF020B78CDE90122039213F00102DF
:104EE80003F0040423D08D680195002C3FD04FF0C7
:104EF800010CD1F80CE02A3D80F845C14968CDF88D
:104F080008E0C0F8F810C0E9321540F27121A0F8A5
:104F1800FC1099073AD50DEB8205531C00EB820172
:104F28006A682A3AC1F8CC20BCB905B030BD24B9AA
:104F380040F2BE212120FBF78FFACD6813F002035F
:104F480080F8452149680195C0F8C810C0F8F810E4
:104F580040F27121A0F8FC10DDD10DEB830200EBCB
:104F6800830352682A3AC3F8CC2005B030BD2A3DE5
:104F780080F8454149689B07C0E93215C0F8F81028
:104F880040F27121A0F8FC10C5D4CEE71346CBE758
:104F980040F2A5212120FBF75FFA00BFD0F81021CD
:104FA80042B190F8143103F0FF020BB91046704774
:104FB800FFF70CBC0C221046704700BF70B590F884
:104FC800153113B10026304670BD04460D460BF06E
:104FD800DBFC94F87831062D46D8DFE805F0290483
:104FE8000407310404000126304670BD033B012B41
:104FF8008CBF4FF457724FF46172D4F8B010D4F8E4
:10500800D830401AA3F58E738518AB428CBF0126A1
:105018000026D8D82046FFF75FFC0028D3D0D4F864
:10502800D860A6F58E76B5422CBF00260126CAE7C1
:10503800022B12D007D8012B11D14FF40472DCE7F0
:105048004FF40272D9E7DA1E012A08D8032B40F27E
:10505800563208BF4FF4E562CFE7F822CDE740F2B9
:1050680017119E20FBF7F8F94FF44B712120FBF73D
:10507800F3F900BFF8B50D4606460021D5F8E00162
:1050880005F5EC7704F05CF9B042044613D001460C
:10509800384604F01DF9002333623CB194E80E0051
:1050A8005B1842F10002C5E97632F8BD00231A46C2
:1050B800C5E97632F8BD8368D5F8E021934208D275
:1050C800816931B10146384604F002F900232362B0
:1050D800E4E79342376238BF1346F269B360002AA7
:1050E800E4D00ECA5B1842F10002C5E97632F8BD79
:1050F8002DE9F04F8BB090F81421002A40F00A8176
:1051080004460D4602F0FF03FF2280F8142180F8C0
:10511800153190F84561194680F84431184604EB7A
:1051280083030131D3F8CC20CBB22A329E421044FB
:10513800F5D2D4F8C830984200F0BE80D4F8CC300C
:10514800002E00F0B280D4F8D020012E134403F1D1
:10515800540303D0D4F8D4202A321344C4F8F030CE
:105168000BF012FCD4F8CC7094F8456107F12A08CA
:1051780056B1012304EB83020133D2F8CC20DBB211
:105188002A32B3429044F5D910F5FA66D4F8C8B07B
:1051980041F1000904F0CAF8824604F1E8005146DA
:1051A800039004F095F8D4F8101111B10398FFF7A3
:1051B80061FFC3450CBFD4F8F080D4F8C880BAF1B9
:1051C800000F7CD0DAF808004246DAF80030DAF846
:1051D8000410C018CDE9006941F1000111F059FC33
:1051E80080456ED3861949F10009D4F8C82002F227
:1051F800CF730344B3FBF2F302FB03F3F31AC4F8CF
:10520800E83069F10003C4F8EC30002D4FD0ADB29E
:1052180042F2107132464B46E5FB0123C4E92A23CA
:1052280094F87C112046FFF715FBD4F8A830054602
:10523800D4F8AC00991B60EB0900012970F1000C4F
:10524800D4E93A2342DB8F424FF0000CC4F8D8501F
:105258007CEB000C2046A8BF0F46C4E93023D4F8E5
:10526800CC3032469F4228BF1F460423C4E92C692C
:105278008DF819304B46C4F8DC70C4E92E69FFF785
:105288003DFA0023BD4208968DF818000595CDF823
:1052980024908DF8103033D804A904F58C700CF0E4
:1052A800A9FC90B30BB0BDE8F08F2A3356E74FF056
:1052B800FF326FF00043B1E741F288334EE75046C2
:1052C80093E740F24D312120FBF7C6F8C4E93023BB
:1052D80000270423324620468DF819304B46C4F87F
:1052E800D850C4F8DC70C4E92C69C4E92E69FFF70A
:1052F80005FA05958DF810708DF81800CDE9086944
:105308004FF41F712120FBF7A7F840F27D212120DF
:10531800FBF7A2F840F267212120FBF79DF800BFB8
:1053280038B590F81431DBB90D4619B30446024676
:10533800134900F58C700CF053FC1149224604F512
:10534800A4700CF04DFCC4F810516B7B03F0FF0106
:105358005BB984F816112046BDE83840FFF7C8BE8F
:105368004FF423712120FBF777F840F29321212095
:10537800FBF772F840F28D212120FBF76DF800BF92
:10538800594A000138B504460D460246084900F559
:105398008C700CF025FC04F5A470224604490CF02E
:1053A8001FFC29462046BDE83840FFF7A1BE00BFD4
:1053B800594A00012DE9F04F87B090F81531002BBC
:1053C80040F0BD80044603F0FF060BF0DDFA94F8C8
:1053D800451133460133DAB29142FBD2D4F8E820C2
:1053E80000F58E7BD4F8C830851AD4F8EC70B5FB7C
:1053F800F3F503FB05F5AD18ABEB050B47F100071B
:105408005B4594BFABEB030ADA46002900F0D9806C
:10541800D4F8CC3003F12A02524504D8AAEB03038E
:105428000126A3F12A0A012919D0D4F8D03003F1B2
:105438002A02524505D8AAEB03030136A3F12A0A2A
:10544800F6B202290BD0D4F8D43003F12A029245DF
:1054580005D3AAEB03030136A3F12A0AF6B2A3196E
:105468002046B14693F87C11FFF7F4F9504404EB59
:105478008603D3F8CC80804568D3A8EB0A08B8F136
:10548800000FC0F2AE801BEB0505D4F8E830D4F865
:10549800B0204FF0000647F10007D4F8EC10D21AFC
:1054A80000F19380D4F8C800B2FBF0F200FB02F2DE
:1054B800D21841F10001C4E93A21AA1A002AC0F21F
:1054C800848004EB0903204693F87C11FFF7C2F9A6
:1054D800D4F8A830D4F8AC2082465B1B62EB0702F4
:1054E800012B72F1000140DB4FEAE871984504EBAB
:1054F800890991412A46D9F8CC60A8BF9846042367
:1055080046458DF809303B4628BF4646C4E92E5724
:10551800C4E936062046FFF7F1F80023B2450495A2
:105528008DF80800CDF804A005978DF8003032D822
:10553800694604F58C700CF05DFB002856D009F024
:10554800C3FA07B0BDE8F04F0CF036BB94F845211C
:10555800D4F8C830B24228D89B4534D3BBEB430FAC
:105568004FEA430238D2934689E70423C4F8D800A7
:105578002A4620468DF809303B46C4F8DC60C4E969
:105588002E57FFF7BBF8CDF804A08DF808008DF86A
:105598000060CDE904572046FEF74AFA09F094FA6C
:1055A80007B0BDE8F04F0CF007BB01369B45F6B2DB
:1055B8000DD204EB8603B146D3F8CC8008F12A0B50
:1055C8005DE70E464BE79B4659E7FFF7F9F84FF4BE
:1055D80085612120FAF740FF40F245412120FAF782
:1055E8003BFF40F24E412120FAF736FF40F25A7154
:1055F8002120FAF731FF00BF01292DE9F04F0546B8
:1056080083B02FD9022940F0CD80D0F81031002B7B
:1056180000F0D280002422465C7390F8781161F380
:10562800070261F30F22A3F82021FF2683F82261E5
:105638000339D0F81001012900F1E8008CBF0021DE
:10564800012110F088FBD5F8100112F0E8F8C5F830
:10565800104185F8166109F037FA03B0BDE8F04F3C
:105668000CF0AABA01F0010A0026D0E92C9808F03B
:10567800DFFE95F878718346504639460FF045FEAF
:105688000446384609F016FE0146BAF1000F03D069
:10569800BB1EDBB2022B6DD94FF4FC7214EB0B036B
:1056A80046F1000613EB0904484B48EB060633F8AD
:1056B800173003F2E7330B444549A1FB03139B0959
:1056C800E31A66F100069C1846F1000611F00AFA82
:1056D8009130D5F81071241AD7F8C88066F1000601
:1056E80003F01EFE05F1E803834237D04246D7E9AE
:1056F8007601CDE9004611F0CCF9804561D3354BF0
:10570800D5F810211B6892F82A11834215D9D2F8CE
:10571800C830C2F8D830034400293FD141F66A01A5
:105728000D468842A2F8DC5041D21B1946F100060A
:10573800C2E9763603B0BDE8F08F01BB264BA3FB68
:10574800001340F2E2419B0A01FB03F3C2F8D83090
:1057580041F66A03A2F8DC300346E6E797F8290128
:105768000028CCD04246CDE90046D5E93A0111F0EF
:1057780090F9C4E7194A02EB8303DA688EE7184BFD
:10578800A3FB001364215B0901FB03F3C2F8D830C3
:105798004FF4FA73A2F8DC300346C6E74FF4FA7107
:1057A8000D46BEE74FF404612120FAF755FE4FF489
:1057B800FA612120FAF750FE40F2DB712120FAF756
:1057C8004BFE40F261312120FAF746FE78160201BD
:1057D800D34D6210100400215917B7D128140201C3
:1057E8001F85EB5108B558B101280CD10B4B40F679
:1057F800C4121A601A6841F669039A4208D808BDAB
:10580800064B1860F6E740F653012120FAF724FE0C
:1058180040F65C012120FAF71FFE00BF10040021AA
:1058280010B504460EF0E0F908B9002010BDE043B9
:105838000EF0DAF90028F8D0E31683EAA4635A1EBA
:105848001A42F2D0E3B25A1E13405A1E1342ECD049
:10585800A0B210F0BDFB0B28E7D8204610F0B4FB2F
:105868001828E2D8A3B2B3EB144F04D184EA142366
:1058780013F0FF1FD9D0044B6340581E184000385E
:1058880018BF0120D2E700BFD6BE898EF0B5070C3D
:10589800164BA7F5AA4203EA9023543A012A20D9C5
:1058A80027F4004042F6AA22801A18BF01200022DD
:1058B80016211F24164687EA060562EA0505013502
:1058C80011D0DD0301394FEA5303ADB245EA56065C
:1058D8004FEAC4354FEA5404ADB245EA5202EAD160
:1058E800F0BD0020E3E70020FAE700BFE0FF3F003B
:1058F800F7B5002506462C463278ABB29A4207D84F
:105908000F4B0020B3F864201444A3F864400EE061
:1059180006EB850701A9B7F801000FF03BFD60B958
:105928000199B7F80330CA8C934202D9122003B008
:10593800F0BDD21A23449CB2CA840135DCE700BF0B
:10594800A4040021F7B5002304460E461746CDE906
:1059580000336846FBF7CCF908B100201AE0009D37
:10596800A542F6D0304605F1AD030EF024FA3946CB
:1059780095F8AC200FF0DFFB0028EAD005F1B4035E
:1059880095F8B32004F1B40194F8B3000FF0D3FBF9
:105998000028DED003B0F0BD054A516A02F11D03AC
:1059A800127F11F8030BC0F380100FF0C4BB00BFC7
:1059B800E0090021012817D80D48824216D8012B8A
:1059C8000DD140F252739A4210D9A1F6C410094B76
:1059D80098420BD88A428CBF122000207047042BB3
:1059E800F3D140F6C313EEE712207047302070471A
:1059F8008FFD7002CBF370020138C0B2032808B5DE
:105A080004D94FF43F710620FAF726FD014B185CC4
:105A180008BD00BF441402010138C0B2032808B50C
:105A280004D94FF43F710620FAF716FD014B185CB4
:105A380008BD00BF9C1402010138C0B2032808B594
:105A480004D94FF43F710620FAF706FD014B185CA4
:105A580008BD00BF7815020107B50D4AB2F86430D9
:105A68009BB1013B01A9A2F864300FF093FC20B16F
:105A780040F22A513920FAF7EFFC019A0120D38C21
:105A88000133D38403B05DF804FB1846FAE700BF7E
:105A9800A404002110B504460A48FDF7CFFF0A49BF
:105AA8002046FFF70FFA2046FDF76EFE38B1204674
:105AB800FDF7AAFE2046FDF7B7FF002010BD122013
:105AC800FCE700BFD8040021E0040021F8B50D462A
