:1000000000680020D14A010067520200BD4A010089
:10001000BD4A0100BD4A0100BD4A010000000000C8
:10002000000000000000000000000000B94B0100CB
:10003000BD4A010000000000B54D0100BD4A0100AD
:10004000314E010045910200314E0100314E010058
:10005000314E010091910200314E0100314E0100FC
:100060005B910200314E0100314E0100719102009E
:10007000314E0100314E0100314E0100314E010080
:10008000314E0100314E0100314E0100314E010070
:10009000314E010099D60100314E0100314E010070
:1000A000314E0100314E0100314E0100314E010050
:1000B000314E0100314E0100314E0100314E010040
:1000C000314E0100314E0100314E0100314E010030
:1000D000314E0100314E0100314E0100314E010020
:1000E000314E0100314E0100314E0100314E010010
:1000F000314E0100314E0100314E0100314E010000
:1001000080EA101404F0F01480EA0410604081EAE0
:10011000111404F0F01481EA0411614082EA12140F
:1001200004F0F01482EA0412624083EA131404F02B
:10013000F01483EA0413634080EA102404F47F443B
:1001400080EA0420604081EA112404F47F4481EABB
:100150000421614082EA122404F47F4482EA0422EA
:10016000624083EA132404F47F4483EA0423634057
:1001700081EA500404F0553480EA4400614083EA87
:10018000520404F0553482EA4402634082EA900447
:1001900004F0333480EA8400624083EA910404F07E
:1001A000333481EA84016340704700BF82EA9004DF
:1001B00004F0333480EA8400624083EA910404F05E
:1001C000333481EA8401634081EA500404F05534F9
:1001D00080EA4400614083EA520404F0553482EA24
:1001E0004402634080EA102404F47F4480EA04203F
:1001F000604081EA112404F47F4481EA04216140D3
:1002000082EA122404F47F4482EA0422624083EAF0
:10021000132404F47F4483EA0423634080EA101427
:1002200004F0F01480EA0410604081EA111404F034
:10023000F01481EA0411614082EA121404F0F0140F
:1002400082EA0412624083EA131404F0F01483EA91
:1002500004136340704700BF2DE9F14F94464FEA05
:10026000930B8A68CB6808684968FFF749FF0BF170
:10027000060E33E083EA134480EA134582EA13470B
:1002800046BA96EA3444604000F00F1684EA063419
:1002900020F00F1684EA161054BA94EA0106724050
:1002A00002F00F1486EA043622F00F1486EA1412C4
:1002B0004CBA6540694001F00F1485EA043521F01D
:1002C0000F1485EA14115CBA67407B4003F00F14E9
:1002D00087EA043723F00F1487EA1413BCE8F00010
:1002E0006040694072407B4000F0E03400F010351F
:1002F00000F00F3040EA540040EAC50080EA900464
:1003000004F0332480EA8400604001F0E03401F01E
:10031000103501F00F3141EA540141EAC50181EA8B
:10032000910404F0332481EA8401614002F0E03456
:1003300002F0103502F00F3242EA540242EAC502DE
:1003400082EA920404F0332482EA8402624003F0D9
:10035000E03403F0103503F00F3343EA540343EA6B
:10036000C50383EA930404F0332483EA84036340DF
:1003700081EA324787EA134581EA354690EA060466
:1003800084EA034B82EA1B4280EA044484EA05447F
:1003900083EA144A85EA14448BEA044B84EA37441E
:1003A00081EA0B4181EA164104EA0A00454082EAEB
:1003B00004082BEA080041408AEA0B0602EA06001C
:1003C00084EA34438AEA3A4603EA0607784045401D
:1003D000414088EA38478BEA3B4007EA000985EA52
:1003E000090583EA0709464006EA0906714085EADD
:1003F000010005EA3546464006EA314181EA3041CE
:1004000081EA364606EA304686EA3546344008EA4E
:10041000010886EA01052A4086EA364003405A4030
:1004200081EA31431F407C4080EA030709EA07095B
:1004300088EA0908544088EA020806EA0A0601EA3E
:100440000B018AEA0B0215408AEA3A421040454005
:100450008BEA3B4003405E404240174079404D40AC
:100460004E40E443F64386EA18435D4085EA054082
:1004700083EA134386EA034183EA384284EA11435C
:1004800083EA04435FEA3343BEF1010E3FF6F2AE66
:100490001ED4BCE8F0006040694072407B4020BC44
:1004A000FFF784FE28606960AA60EB60BDE8F08F0A
:1004B0002DE9E0414FF2F00280EA1031114080EA6C
:1004C0000130484041088208C3084FF0000E4FE752
:1004D00000F0113001F0113102F0113203F011334C
:1004E00040EA410040EA820040EAC3004FF2F002D5
:1004F00080EA1031114080EA01304840BDE8E081D7
:100500002DE9F04F02F11C050646074600EB850871
:1005100051F8040B043A46F8040BF9D14FF0010CE2
:10052000FFF7C6FF5FEA302080EA0C001ECF414093
:100530004A4053405C401EC62000464517D04FEA53
:100540004C0C1CF4807F18BFACF1E50C2C2DE7D0CF
:100550003C2D06D1FFF7ACFF06CF41404A4006C60E
:10056000100006CF41404A4006C61000D8E736E9E1
:100570000F00FFF7C5FD043D86E80F00F7D1BDE889
:10058000F08F00BF2DE9F14F03F11C0402EB840C46
:100590004FEA930B8A68CB6808684968FFF7B0FD9B
:1005A0003CE9F0006040694072407B400BF1060E70
:1005B0004EE083EA134480EA134582EA134746BAC1
:1005C00096EA3444604000F00F1684EA063420F0C6
:1005D0000F1684EA161054BA94EA0106724002F02B
:1005E0000F1486EA043622F00F1486EA14124CBA6D
:1005F0006540694001F00F1485EA043521F00F14BD
:1006000085EA14115CBA67407B4003F00F1487EA57
:10061000043723F00F1487EA141344BA44404DBA48
:100620004D4056BA56405FBA5F4087EA174886EA9F
:10063000174B84EA17464FEA38488BEA1B4485EA91
:100640001B4788EA1B4580EA3440694072407B4082
:1006500000F0703400F0803500F00F3040EA4400C4
:1006600040EAD50080EA900404F0332480EA840054
:10067000604001F0703401F0803501F00F3141EA43
:10068000440141EAD50181EA910404F0332481EA6E
:100690008401614002F0703402F0803502F00F32C4
:1006A00042EA440242EAD50282EA920404F0332488
:1006B00082EA8402624003F0703403F0803503F074
:1006C0000F3343EA440343EAD50383EA930404F077
:1006D000332483EA84036340C943DB4381EA000493
:1006E00083EA044686EA020183EA014382EA33454B
:1006F00083EA14435C4084EA00077FEA040A8AEA3A
:10070000024A8AEA010B87EA11488AEA374A80EAF4
:10071000060181EA1A418AEA030A04EA0A0045400E
:1007200088EA040707EA0B0041408AEA0B0608EA58
:10073000060084EA34428AEA3A4602EA060358404E
:100740004540414087EA37438BEA3B4003EA0009D2
:1007500085EA090582EA0309464006EA090671406E
:1007600085EA010005EA3546464006EA314181EA5C
:10077000304181EA364606EA304686EA354634405C
:100780000F4086EA010508EA050886EA364002407D
:1007900088EA020881EA314213405C4080EA0203A1
:1007A00009EA030987EA0907674088EA040806EAB4
:1007B0000A0601EA0B018AEA0B0425408AEA3A4458
:1007C000204045408BEA3B4B02EA0B02564084EA4C
:1007D0000B04234059406E40694087EA364080EA66
:1007E000384080EA060380EA104481EA134585EA2E
:1007F000344585EA17427D4082EA354180EA05406A
:100800003CE9F0006040694072407B40BEF1010E5F
:100810003FF6CFAE20BCFFF7C9FC28606960AA6034
:10082000EB60BDE8F08F00BFFFF76ABE2DE9F0076F
:1008300091E8F807B2E802105B1854EB0C04B2E838
:1008400002104D4156EB0C06B2E802104F4158EB36
:100850000C08B2E8021059EB01095AEB0C0A80E8C7
:10086000F80780410130BDE8F00770472DE9F00737
:1008700091E8F807B2E802105B1A74EB0C04B2E8D6
:1008800002108D4176EB0C06B2E802108F4178EB36
:100890000C08B2E8021079EB01097AEB0C0A80E847
:1008A000F80780414042BDE8F00770472DE9F007A6
:1008B000524290E87800B1E880071740DB1918EA47
:1008C000020854EB080419EA020955EB09051AEA73
:1008D000020A56EB0A0678C090E87800B1E8800773
:1008E00017407B4118EA020854EB080419EA020990
:1008F00055EB09051AEA020A56EB0A0678C0804150
:100900000130BDE8F00770472DE9F007524290E84A
:100910007800B1E880071740DB1B18EA020874EB87
:10092000080419EA020975EB09051AEA020A76EBCE
:100930000A0678C090E87800B1E880071740BB410C
:1009400018EA020874EB080419EA020975EB0905B4
:100950001AEA020A76EB0A0678C080414042BDE8F6
:10096000F00770472DE9F00152424FF0040890E87B
:10097000300091E8C000A31B1340E41AF618EB1BEB
:100980001340ED1AFF1830C0C0C1B8F10108EED114
:10099000BDE8F001704700BF00B592E8DC072DE923
:1009A000DC07B1E8805702B4A7FB02510A95A8FB07
:1009B000020BE7FB6310E9FB62B00B91A8FB03514C
:1009C000EAFB6201E7FB64B5E7FB6605E8FB661539
:1009D000CDF830B0A9FB03B6EAFB6316ECFB635617
:1009E000E8FB640BE9FB641BEAFB645BECFB646BF8
:1009F0000D90ACFB0230059CEEFB6250E9FB64609D
:100A0000EAFB64B0E7FB6431E8FB6451069CE8FB59
:100A10006461E9FB64B1EAFB64010E93A7FB043255
:100A2000079CE7FB6462E8FB64B2E9FB6402EAFB53
:100A30006412049CE9FB6453EAFB6463089CE7FBD3
:100A400064B3E8FB6403E9FB6413EAFB64230F95DA
:100A50005DF8049B99E80006DDF80080A9FB0854C6
:100A6000EAFB68B4DDF81080ECFB6804EEFB681468
:100A7000E9FB6824EAFB6834DDF80480EEFB686576
:100A8000E9FB68B5EAFB6805DDF81480ECFB681546
:100A9000EEFB6825E9FB6835EAFB68450F96DDF853
:100AA0000880AEFB0876E9FB6806EAFB6816DDF80D
:100AB0001880ECFB6826EEFB6836E9FB6846EAFB2B
:100AC0006856DDF80C80ECFB68B7EEFB6807E9FBC5
:100AD0006817EAFB6827DDF81C80ECFB6837EEFB43
:100AE0006847E9FB6857EAFB686708B000BD00BFCC
:100AF0002DE9F14F87B0FFF74FFFDDF81C8008F1BB
:100B0000200888E8FF00FFBC87E87F08BDE8F08F79
:100B100000B591E89857A3FB03520195A3FB04018C
:100B2000E3FB6420E3FB67100292A3FB0752E3FBA5
:100B30006802E4FB6415E3FB6805E3FB69250391A8
:100B4000A4FB07B6E3FB6926E3FB6A56E4FB670BED
:100B5000E4FB682BE3FB6A5BE3FB6C6B0490A4FB98
:100B60000810E4FB6950E3FB6C60E3FB6EB0E7FB4D
:100B70006721E4FB6951E4FB6A61E3FB6EB1E4FBCE
:100B80006E010592A7FB0832E4FB6A62E4FB6CB2DB
:100B9000E4FB6E02E7FB6E12E7FB6853E7FB696359
:100BA000E4FB6CB3E7FB6C03E7FB6E13E8FB6E231F
:100BB0000695A7FB0954E7FB6AB4E7FB6C04E8FB66
:100BC0006C14E8FB6E24E9FB6E34E8FB6865E7FB18
:100BD0006AB5E8FB6A05E8FB6C15E9FB6C25E9FBE7
:100BE0006E35EAFB6E450796A8FB0976E8FB6A06B8
:100BF000E9FB6A16E9FB6C26EAFB6C36EAFB6E46FB
:100C0000ECFB6E56E8FB69B7E9FB6907E9FB6A177D
:100C1000EAFB6A27EAFB6C37ECFB6C47ECFB6E5790
:100C2000EEFB6E6700BD00BF2DE9F14F87B0FFF707
:100C30006FFFDDF81C8008F1200888E8FF00FFBC8A
:100C400087E87F08BDE8F08F30B44FF0000310F85C
:100C5000014B11F8015B013A84EA050443EA0403FD
:100C6000F5D1A3F101034FEAD37030BC704700BF48
:100C70004FF0000310F8012B013943EA0203F9D1C8
:100C8000A3F101034FEAD370704700BF30B411F8ED
:100C9000014B12F8015B6C4000F8014B013BF6D1AF
:100CA00030BC70472DE9F00791E8F807B2E8021070
:100CB0005B1854EB0C04B2E802104D4156EB0C06E5
:100CC000B2E802104F4158EB0C08B2E8021059EBA1
:100CD00001095AEB0C0A8941B3F1FF3374F1FF3477
:100CE00075F1FF3576F1000677F1000778F100081D
:100CF00079F101097AF1FF3A51F100015B184C4199
:100D00004D4156F1000657F1000758F1000859EB24
:100D1000D1795AEB010A80E8F807BDE8F00770477F
:100D20002DE9F00791E8F807B2E802105B1A74EBBE
:100D30000C04B2E802108D4176EB0C06B2E802100A
:100D40008F4178EB0C08B2E8021079EB01097AEBDD
:100D50000C0A89415B184C414D4156F1000657F190
:100D6000000758F1000859EBD1795AEB010A80E8E5
:100D7000F807BDE8F007704718EB040859EB0509C0
:100D80005AEB060A5BEB070B5FF0000C4CF1000C12
:100D900018EB050859EB06095AEB070A5BEB070B42
:100DA00050EB0C005FF0000C51EB0C0152EB0C020D
:100DB00063414CF1000CB8EB070879F100097AF1B6
:100DC000000A7BEB040BA841B141A241B3416CF195
:100DD000000CBBEB050BB041B941AA41BB416CF122
:100DE000000C4CF001068CF0020718EB060859EBDA
:100DF0006C095AEB6C0A7BEB6C0B70EB6C0471EBBF
:100E00006C0572EB670653EB6C076CEB6C0C18EB24
:100E10000C0059EB0C015AEB0C025BF1000354F18E
:100E2000000455F1000556EBDC7657EB0C077047D4
:100E30002DE9F14F87B0FFF7AFFDDDF81080DDF849
:100E40001490DDF818A0FFF797FFBDE8000FFFF73B
:100E500093FF03B05DF8048B88E8FF00BDE8F08FD6
:100E60002DE9F14F87B0FFF753FEDDF81080DDF874
:100E70001490DDF818A0FFF77FFFBDE8000FFFF723
:100E80007BFF03B05DF8048B88E8FF00BDE8F08FBE
:100E9000064B074ADB7802604FF442728280C371CE
:100EA0000822002382710372704700BF10080020DF
:100EB000D3260100064B074ADB7A02604FF4B0727A
:100EC0008280C3710822FF2382710372704700BFC2
:100ED00010080020B11F01002DE9F341C41D0028B6
:100EE00024F00704064614BF2046002000F028FC2A
:100EF000071E04DA6FF00B0002B0BDE8F081364D3A
:100F0000E988A8886B7A2A7A0331033089B280B2E3
:100F10000EF0A0F80028EDDBA978EB783C44033410
:100F2000002E194424F0030400FB01F114BF2046F5
:100F3000002000F08DFD20440EB90028DADBEA7AAB
:100F40000446B2B1EB7B697C13441944FF29D1D824
:100F50000330002E20F0030414BF20460020AA898D
:100F6000C9B200F0E7FD0028C4DB04440EB9002C30
:100F7000C0DB012000F0DAFBB0B1A97BA1B195F88C
:100F80002A3033B340234FF481720734002E24F00B
:100F9000070414BF2046002001F038FF0028A9DB19
:100FA00004440EB9002CA5DBAB7AF3B1EB7AABB1FC
:100FB0000734002E24F0070414BF20460020A97A2D
:100FC00004F074FA002895DB044476B9002C0CDA9E
:100FD00090E725232822D8E710080020012000F000
:100FE000A5FB10B1AB7B002BE2D1734B1B6893B117
:100FF000A97D81B10334002E24F0030414BF2046E0
:101000000020EA7D98470028FFF674AF044416B923
:10101000002CFFF66FAF694B1B688BB1297C79B14F
:101020000334002E24F0030414BF20460020984708
:101030000028FFF65FAF044416B9002CFFF65AAF44
:101040005F4B1F68AFB1697C99B12B7D009303346E
:10105000002E24F0030414BF20460020EB7CAA7C61
:10106000B8470028FFF646AF044416B9002CFFF637
:1010700041AF072000F05AFB98B1A97D89B1033434
:10108000002E24F0030414BF204600202A7E00F026
:101090003FFE0028FFF62EAF044416B9002CFFF6E1
:1010A00029AF95F82300B6FA86F77F09A0B16B7FC8
:1010B000A97E033424F00704194444F004043B4699
:1010C0002246C9B200F064FE0028FFF613AF0444C4
:1010D00016B9002CFFF60EAF95F8241000294CD05D
:1010E00004F10708002E28F0070814BF404600202E
:1010F000EA8C0DF0C3FF041EFFF6FCAE4444002E44
:101100003ED1002CFFF6F6AEA97F002945D095F818
:101110002230002B41D02A8C0734002E02F1240209
:1011200024F0070814BF4046002092B20DF0A6FF3D
:101130000028FFF6DFAE404416B90028FFF6DAAE0D
:101140002B7FA97E033020F0070040F004041944EF
:1011500095F822003B462246C9B200F00BFE00285B
:10116000FFF6C8AE044486B9002CFFF6C3AEEB6AA6
:10117000F3B1C6B1EC620020BEE6002EC4D08846B2
:10118000E98C40460AF008F9BEE72A8CA97F0832AC
:1011900092B240460AF006F9E9E7002EE7D00022B5
:1011A00011461046F6E728343FF5A4AE2046A3E6E4
:1011B000002EE0D1FAE700BF2C15002030150020EA
:1011C000341500201FB572B6194B1D6BEDB9BFF376
:1011D0004F8F1849184BCA6802F4E0621343CB6082
:1011E000BFF34F8F00BFFDE72346B2FBF6F25C1C56
:1011F000002AF9D104AEDCB256FA83F303F80C2CC2
:101200000A2234B901A8A847E1E7024600230A26CA
:10121000EDE7631E04AEDCB256FA83F3B0FBF2F6E0
:1012200002FB1600303003F80C0C3046E9E700BF33
:101230001008002000ED00E00400FA0513B5124C80
:101240002389ADF80030E388ADF804306846A38800
:10125000ADF8023002F0DCFA18B1FA219C20FFF759
:10126000B1FF207D02F004FB08B1FD21F6E7E07C30
:1012700002F0F8FA08B1FE21F0E794F8280008F02F
:10128000A5F802B010BD00BF1008002038B5054613
:1012900000283DD00CF014FF10B94FF0FF3038BDDE
:1012A0000AF020FDB0F5FA7FF7D81B4C25631B250B
:1012B00000212A4604F10F0084F83410217084F8CC
:1012C0002A10E1620DF0A2F90123A370E370E3722A
:1012D000A3742376F723032108202384FB2302220F
:1012E0002172A072A1731F204921E3840A23A580E3
:1012F000E5806272A081E174E27584F82830EFF332
:10130000108472B600F054FD04B962B60020C6E73E
:101310006FF01500C3E700BF1008002038B5144671
:10132000002840F0C480634D95F83430032B00F062
:10133000BB80B9B112B96FF0150038BD013917295A
:1013400000F2B580DFE801F00C1D20366069873CB3
:101350006C6F814248565B8D909FA2A596B3B3A84F
:101360001378AB700020FFF7B7FD0028B7BF01234B
:10137000022385F834306FF00B00A8BF85F83430B5
:10138000DBE71378EB70EDE71379002BD3D05379BB
:10139000002BD0D01288FB2ACDD863881B3B9BB290
:1013A000E02BC8D81A2AC6D923686B60424BA288A2
:1013B0009A80D7E71378EA7B9342BCD3EB72D1E7EC
:1013C0001378EA7A9342B6D8EB73CBE71378EA7ACC
:1013D0009342B0D86B74C5E71378002BABD0537829
:1013E000013BDBB2F82BA6D813886B82334B927883
:1013F0009A70B7E71078687507F0A6FFB2E7137820
:10140000002B98D02B76ADE7012000F08FF92378E0
:1014100008B1012B8FD9AB73A4E71388AB81A1E787
:101420001378AB759EE7072000F080F910B9237898
:10143000012B80D9072000F079F918B12378002B0F
:101440003FF479AF2378EB758CE71378082B3FF6E0
:1014500072AF2B7486E71388FF2B3FF66CAFAB722D
:1014600080E713786B767DE713780E2B3FF663AF3A
:10147000AB7677E72368124AC5F81E30636853607D
:10148000238913816EE71378EB766BE713786B771C
:1014900068E713782B7765E713785A1E092A3FF619
:1014A0004AAF85F828305DE74FF0FF3045E76FF031
:1014B0002C0042E710080020140800202208002019
:1014C0002E080020F8B50D46064630B329B311F0BA
:1014D000070422D1124F97F83430012B02D16FF05C
:1014E0000B00F8BD032B02D14FF0FF30F9E700F0FD
:1014F0009BFC0028F8D02846FFF7EEFC0028EEDB26
:1015000011F0CDF93046F96A02F01AFAFFF796FEAB
:10151000032387F834302046E3E76FF01500E0E757
:101520001008002010B5074C94F83430032B03D179
:1015300002F01EFA03F0EEF80DF0D5FE002084F85C
:10154000340010BD1008002008B502F0BDF9BDE858
:1015500008400249032000F0E1B800BFB50E0000CA
:1015600008B502F0CBF9BDE808400249022000F0BE
:10157000D5B800BF910E0000074B4FF0FF3141F688
:10158000FF72C3E9001205490022C1E900221F21B0
:10159000C3E90212704700BF000000204808002085
:1015A0003F280CD801380B4BC0F3421200F01F004B
:1015B00053F8223023FA00F000F001007047FF28B2
:1015C00006D04038C0F34212034B00F01F00EFE793
:1015D0000120704700000020480800200146074B0A
:1015E000006849681A4603C240F48C221A6041F030
:1015F000107242F4FF625A60002070470000002021
:101600000246034B0068516803C30020704700BFC7
:10161000480800200246034B0068516803C30020BD
:10162000704700BF080000200138064BC0F342128B
:1016300003EB820300F01F009B6823FA00F000F028
:101640000100704700000020F0B50C88C37C0288C0
:10165000A5B2C4F30E0404F118060233865B1A44E3
:10166000334497B213FA82F3013B4288B3FBF7F39A
:1016700013FB07439BB29A42044A93BF22EA050335
:101680002A4013439BB20B80F0BD00BF0080FFFFD8
:101690004A1E062A08B50346084604D84FF4D171FD
:1016A0001520FFF78FFD094A914202D940F2A3119C
:1016B000F6E711B903B1196008BD2BB11B68002210
:1016C000C3E901211A1D1A600430F5E7FAFFFF7F14
:1016D00010B5114B00EB41041A786389B3FBF2F3A8
:1016E00003FB0223013A1A44B2F5706F0279807845
:1016F00028BF00231A440B18B2FBF0F100FB1121A4
:101700005B1AB3FBF0F100FB113313446FEA434360
:101710006FEA5343638110BD50080020024B03EB76
:1017200080035960704700BF50080020034B03EB53
:1017300080035868003818BF012070475008002007
:101740002DE9F04F10F0070A85B0054604D040F2AD
:101750006F111720FFF736FD544F07F14C06B146C5
:101760000446B0464FF0010B57F8043B8DF80BA030
:101770003BB101A898479DF80A30082B01D9F52103
:10178000E7E79DF80B1041BB05B131604F4506F10D
:101790000406E9D1002D70D0DFF81491002289F8F9
:1017A00000209646122758F827A0013FBAF1000FF3
:1017B00056D09AF804609AF802C0FF2E61D03946DC
:1017C0000023481C39D19C44BCF1FF0F40D90AB119
:1017D00089F800E04FF49A71BBE79DF80AC06046B3
:1017E000022838BF02204B1D5A0004EB4303441E5D
:1017F0002344BDF808406444013CCCF1000C04EAE9
:101800000C044042B4F5803F03EA000302D340F2E7
:1018100005119EE775B19A1A32609170148082F8B2
:1018200003B09DF80C001071019810814FEA104C24
:10183000A2F806C004FB0134A8E758F8210028B13B
:1018400090F804B0B34504BF80781B180139B8E79D
:10185000DBB2E6458AF804303CBF5FFA8CFE012219
:101860007B1CA0D10AB189F800E0122640F6FF6A7D
:1018700058F82670B7B9013EFAD2601B05B0BDE832
:10188000F08F0023E5E707EB41033846A3F80AA0F1
:10189000FFF71EFF09F10109BB785FFA89F18B425E
:1018A000F1D8E8E74FF00009F6E700BF5408002040
:1018B0005008002038B54FF6FF730380184B03EB38
:1018C00081030246186DA8B184780379B3FBF4F163
:1018D00004FB1133DBB2194600EB4105B5F90A50A0
:1018E000002D0EDB0131B1FBF4F504FB1511C9B27B
:1018F0008B42F1D1002038BD6381BDE838400DF046
:1019000085BB00EB41046389C3F30E031380C278E7
:10191000002AF1D14FF4E5711720FFF753FC00BF07
:10192000500800201C4B03EB810370B51C6D05466D
:1019300044B3030404D54FF4EC711720FFF742FCC5
:10194000014620460DF044FBFF28014604D0204606
:10195000BDE870400DF05ABBA078B5FBF0F300FB7A
:101960001353DBB219460A1D04EB4206B6F90260B6
:10197000002E09DB0131B1FBF0F200FB1211C9B2FC
:101980008B42F0D1002070BD8B4201D00023E37068
:1019900004EB42025580DAE750080020094B03EBC4
:1019A000810310B51C6D014620460DF011FBFF2888
:1019B000014604D02046BDE810400DF027BB0020B2
:1019C00010BD00BF50080020F8B5104B03EB810399
:1019D00007461C6D014620460DF0FAFAFF28054621
:1019E00011D0E288238953EA024606D001462046F8
:1019F0000DF00CFB01463846B04720462946FFF75C
:101A000067FE0020F8BD0520FCE700BF500800205D
:101A100038B50E4B827903EB82030446186D08B982
:101A2000052038BD8278E1799142F9D24B1CE371EF
:101A300000EB41035D89B3F90A30002BF3DBA5808D
:101A40000DF0E4FA20600020EBE700BF5008002012
:101A500070B5044610F003000E4603D04E21182046
:101A6000FFF7B0FBFFF714FE054624B103483146EB
:101A70000460FFF70DFE284670BD00BFEC08002093
:101A80002DE9F14FDFF870B09DF828A09DF82C905B
:101A90001E46DBF8003007460D4690461BB9602114
:101AA0001820FFF78FFB5246092140460DF011F92F
:101AB0004A4684B2092130460DF00BF914FA80F140
:101AC000DBF800000DF058FA386018B9286001B052
:101AD000BDE8F08F04442C60386853464146092223
:101AE0000DF0BAF828684B460922314601B0BDE82E
:101AF000F04F0DF0B1B800BFEC08002070B50E46F5
:101B000004460DF0F9F8054630460DF0F5F8044BA3
:101B10002A1821461868BDE870400DF052BA00BF7F
:101B2000EC080020024B186808B10DF019BA704794
:101B3000EC0800201F2AF8B5044613460ED8920080
:101B4000033222F00303B3F5803F2DD2184DACB120
:101B5000A00710D068210920FFF734FBFF2B4FEAC4
:101B6000420204D9FF339A42A8BF1A46E8E77C2A0A
:101B7000B8BF7C22E4E729706C602B8122F003025D
:101B80002823120403FB01F001276B68120C0025C7
:101B9000EEB2B14200D8F8BD14B126181F705E60D5
:101BA000104401352833F3E74FF0FF30F3E700BF6F
:101BB000F008002070B5154A157853680021C8B2A6
:101BC000854203D8BA210920FFF7FCFA1C461846C3
:101BD00014F8286B01310EB92346F0E70021997003
:101BE000128999610124D96159685C70920803F1E6
:101BF0001E0403F1260524F8022FA54243F8041F12
:101C00001144F8D100234361037070BDF008002037
:101C10000A4B1B89B3F5FF7F4FEA930006D25A089F
:101C20009B1A9BB2984238BF18467047B3F5EE6FC7
:101C300001D8FF22F4E740F27263F3E7F0080020D6
:101C40004B782DE9F04106460C4602F0040702F0FD
:101C5000FB05E3B1A5BBFF23A3707B0804EB57078B
:101C60003A7D032A02D1022D18BF0133E218012167
:101C7000117503F10C0104EB8303002224F81120F9
:101C80005B68A2703360B2803046BDE8F081002D01
:101C9000E1D101234B701D4B8D611B89CD6101F199
:101CA0001E0249689B08204604F1260C22F8023FD8
:101CB000944540F8041F1944F8D100236361CAE732
:101CC000D1F80480142200216170A0180CF09EFC51
:101CD0000E4B1B89B3F5FF7F0FD25A089B1A9BB29C
:101CE00008EB0301C4F804802384A1606284C4F873
:101CF0000C80A3842161E284ADE7B3F5EE6F4FF071
:101D0000FF02EBD940F27263EAE700BFF00800205F
:101D10002DE9F84305460C46F720052191460CF0C5
:101D2000D8FF061E21DB1DB914FB06F0BDE8F883C1
:101D300015F0030703D098211920FFF743FADFF8C5
:101D40003080C8F81050A8F81460BBB29C42EBD9A0
:101D5000B8F81450D8F810004B4607FB05000522D0
:101D6000F7210CF079FF0137EFE74FF0FF30DDE7A7
:101D70000409002007B5CDE900230B4603490246BC
:101D8000081D0DF08AFA03B05DF804FB1C09002061
:101D900013B5064CCDE900230B46024604F10801B9
:101DA00004F10C000DF079FA02B010BD1C090020FE
:101DB000134B012200214FF0FF309A60C3F800124C
:101DC000C3F80803C3F80015C3F804259A60C3F8E4
:101DD0000803C3F80015C3F804250A490A4A03F5A5
:101DE00080334FF40040C3F80825C1F88000BFF3EA
:101DF0004F8FBFF36F8FC1F88001C3F8082570477C
:101E000000F0004000E100E00000F63F024B0268F5
:101E10001A600020704700BF2C090020014B1B688E
:101E2000184700BF2C090020024B1868003818BF63
:101E3000012070472C0900208C469B2300B50CF82C
:101E4000033B054B8E4607CBCEF80300CCF80410BD
:101E5000CCF808205DF804FB3C09002070B51B4E4F
:101E6000736A93F8A84005460CB101280DD00129EA
:101E700012D8F36A2846984770B196F8300058B9DE
:101E800064B9012D1FD0204670BD338D1A07EED5E1
:101E900096F82A30002BEAD0012070BD002DF3D136
:101EA000308D83070AD40028F6D196F83130002B04
:101EB000EAD196F8320080F0010070BD96F82A0051
:101EC00080F0010070BD308DEDE700BF30090020CB
:101ED00010B5154C08F02CFC08F080FFA36BA08E09
:101EE00000219847237E93B9A18E606A03F01AFB04
:101EF000636AB3F8AA0003F08FFA236C94F83010E9
:101F000094F83C009847002384F8443010BD94E8CE
:101F1000070004F10C0383E80700044904F11900E9
:101F20000EF0EEFFE0E700BF30090020391E000090
:101F3000034B93F8443003B97047FFF7C9BF00BFA4
:101F40003009002008B5094B93F84420022A07D134
:101F5000DA7A42F00102DA72BDE80840FFF7B8BF52
:101F600040F257312720FFF72DF900BF300900203C
:101F700010B41E4942788C6C2378D20002F008021B
:101F800003F0F30313438278920002F00402134338
:101F9000C278120102F0100203F0EC03134302783E
:101FA00002F0030213432370B1F85430637002232C
:101FB000A1F84C308C6C00792378420123F0200387
:101FC00002F020021343012823700CD14B6A93F8CE
:101FD000BA2093F8BB30032A08BF002203F01F0386
:101FE00043EA8213A37010BC704700BF3009002081
:101FF000F0B5194CA56D83B04DB3636E3BB3B4F827
:1020000068306B702B782F4601F0030123F0030337
:102010000B4307F8033B0646B4F86820616E384668
:102020000CF034FB0DF1020201A9E06EE565676674
:102030000CF08CFF01980CF077FF0346B4F86810A1
:10204000E06E336001220CF01AFF03B0F0BD40F6E1
:10205000C4012720FFF7B6F830090020F8B5254C59
:10206000656A276F2A7D95F82111E7654FF4817322
:10207000A4F8603094F87430064603EB820308B984
:10208000FF2B17D0184607F0BFFD2B7D5BB3A06F69
:1020900008F07EF9A16FE06D08F06CFEAEB1B5F806
:1020A000E00007F069FD002008F0F0FA022384F850
:1020B0004430F8BD95F820018842E3D1002AE6D1EA
:1020C000384608F065F908F089FE95F82131B5F831
:1020D000E420033B012B8CBF00202820104480B259
:1020E00008F0C6F9DBE7E06D08F052F908F076FE7B
:1020F000D4E700BF300900202DE9F04FC44C666AD8
:1021000087B096F8201138B9327D94F8743003EB1B
:102110008203FF2B00F0F180FF2007F075FD676A56
:10212000002304938DF814308DF80930ADF80A308F
:102130003B7A062B00F21B81DFE813F07B00E60000
:10214000610061001901070007000DF10A0103A8F1
:1021500001F02CFE002800F0F680039D002D00F019
:10216000F2800122062384F87D20BDF80A203B720C
:10217000002A5CD0E91CA4F854202165B7F8092096
:10218000A564022BADF811206AD0053B012B66D85F
:102190000B780322022B8DF8102000F0A180D4F8D8
:1021A00080000CF02BFE0546002840F0C780236D10
:1021B0001B781B2B00F0EB8000238DF81430F37C90
:1021C00084F8315004A823B1B4F85430002B40F007
:1021D0008A80FFF7CDFEA06C08F0DAF808F0FEFD6B
:1021E000B6F8E20007F0C8FC012008F04FFA01231E
:1021F00084F8873084F8443007B0BDE8F08FB7F832
:102200001031D4F88000ADF80A300DF109020DF15B
:102210000A010CF098FD0546002800F00781BDF882
:102220000A20012384F87D303B7A002AA2D111468E
:10223000A1E794F87C30A7F810310DF10A0103A84A
:10224000ADF80A3001F0B2FDE8B1039DDDB1012225
:10225000052384F87D203B72BDF80A2088E701231E
:102260008DF81030D4F880000CF0C8FD0546074604
:1022700000285ED101F0B4FD80F00105EDB28DF8CB
:1022800013503B4699E7636A93F85180B8F1000F09
:102290005ED1D4F880000DF10A010DF109020CF0B5
:1022A00052FD0546002853D09DF809A0BAF1000F51
:1022B00074D1BDF80A30002B5ED101233B7284F843
:1022C0007D300023A4F854302365B7F80930A564A5
:1022D000ADF8113001238DF81030B8F1000FC1D0E6
:1022E00000252B4669E7FFF743FEA06F08F050F882
:1022F000A16CA06F08F002FD72E796F821318B42C5
:102300007FF40AAF37460BE7424BA3640023A4F8DF
:1023100054302365B7F80920D4F88000ADF81120B7
:1023200001238DF810300CF069FD054607460028A2
:10233000A0D001238DF8133000233EE701238DF850
:102340001330236D34E740F2D2512720FEF73AFFD5
:102350004FF00008002301223A722E4AA4F85430AC
:102360002365ADF80A30A264B7F80930B0E740F24F
:10237000DC512720FEF726FF00232B80AB700122C3
:10238000032384F87D203B72BDF80A20F0E607F1B4
:10239000BA00012107F07EFC01230EE72946D4F89C
:1023A00080000CF0BDFD0CF0BFFD0368D0F804B058
:1023B00053EA0B0281462FD1BDF80A20002389F889
:1023C000003089F8013089F8023089F8033089F843
:1023D000043089F8053089F8063089F80730002A7A
:1023E0003FF46BAF9DF809100029C5D0297801F0A2
:1023F0000301012906D0BB75012102233B7284F839
:102400007D10B7E6032384F87D103B72B2E600BF6F
:1024100030090020B4090020019309F031FE019B2E
:1024200083427BEB0101C7D2D04693E740F2C35110
:102430002720FEF7C7FE00BF2DE9F04FA94C656AC3
:1024400094F844208BB005F1A8030693022A4FF0BC
:102450000003CDE9083340F06D82E36D032293F869
:10246000009088465978A4F868101344636609EA16
:1024700002030646A4F8602007934FEA291AC9F31D
:10248000001B002800F0B180002940F0C5816B7A64
:10249000A28EA1650133DBB283EA990142F4007296
:1024A00011F00107A28640F0D5802A7AA2B1032A52
:1024B0006B7200F2FF81012A0ED0D4F8800008A9C7
:1024C0000CF066FC002800F03F822B6F01332B6775
:1024D0006B6F43F100036B67636A0021297293F805
:1024E000A8304BB16B793BB1238D697143F0100378
:1024F00023851020A36B9847A38E43F40063A38623
:102500002B7D0027C9F3C009002B40F0AA80AB7ACD
:1025100003F00102914500F0E980A36D002B00F06B
:102520009C810AF0010A84F832A0B8F1000F40F053
:10253000C4804FF0000994F88A100120FFF78EFC48
:1025400082468046002800F04E8108F0F1F8D1461E
:10255000A38E5A0607D4A36B002140209847A38E70
:1025600043F04003A38687B1EB884BB9636A93F8C5
:10257000A8302BB1B4F80530B4F80720134304D0C9
:10258000B4F809300133A4F80930002E5CD0B4F857
:10259000053000220133A4F8053084F88A2052481F
:1025A00002F028FF089830B10CF0BEFC0022027245
:1025B000069902F0C9F9099B33B100221A720C2264
:1025C0000998069902F08EF9B9F1000F70D1A38E27
:1025D0001B0607D4A36B494680209847A38E43F07F
:1025E0008003A3860BB0BDE8F08F2B7D002B40F05D
:1025F000108194F88A30013384F88A30A38E43F432
:102600008063A38695F82131033B012B04D902F0A6
:10261000D3F9074600285AD007F0C4FA0328A76D5B
:1026200000F0FF80002F00F086800AF0010A84F895
:1026300032A0B8F1000F51D008F07AF8A78E17F049
:1026400040074FF0010986D0B4F807300133A4F8F1
:102650000730A4E72B7D3746C9F3C009002B3FF4B0
:1026600056AFB4F868308BB9AB7A03F001029145EC
:102670007FF453AF0133AB72079B032B00F02A8129
:10268000A26D002A7FF44DAF914657E008F0C2FBDF
:102690000328FBD002280BD000287FF438AFAB7A98
:1026A00003F0010399457FF438AF012384F83C30EF
:1026B000FFF70EFC0BB0BDE8F08F08F039F8A38EE1
:1026C0005A0636D5002F00F01A81B1464CE7A36DAB
:1026D000002BAAD1B4F8682081462FE04FF0000902
:1026E0004F4628E73009002054090020B4F868203C
:1026F000002ABFD00798411E012938D90133032889
:10270000AB7200F0E780AB6F0133AB67EB6F43F167
:102710000003EB67A36D002B7FF403AF99460DE038
:1027200008F006F8079909A8FFF762FCA38E5B067C
:10273000C8D4B1460FE7B4F86820B946002A14BFE0
:102740004FF0000B0BF0010B84F832B0B8F1000F22
:1027500040F0098194F88A100120FFF77FFB804642
:10276000002840D007F0E4FF4FF00109F0E6A38E07
:1027700095F8149043F48053A38607F013FA0328C6
:1027800094F8883007D1B9F1000F0CBF1F221B222B
:10279000934228BF1346B4F86820A16D9A4200F214
:1027A000B080002900F0B88094F88930002B4CD11B
:1027B000AB6F0133AB67AB7A03F10103AB72EB6F25
:1027C0000AF0010A43F1000384F832A0EB67B8F184
:1027D000000FA5D194F88A100120FFF73FFB814636
:1027E00000289DD1B046EB7C002B3AD1002095F813
:1027F0002021B5F8E01007F01BFC0020FFF77CFC5F
:10280000B8F1000F3FF4A4AE079909A8FFF7F0FB59
:102810009EE608F03FFBECE6E06E0CF010FB014694
:1028200035E6B4F868201B2A94BF4FF000094FF03A
:102830000109002F82D00AF0010A84F832A0B8F111
:10284000000F7FF4F9AE474675E6A36B0021202008
:102850009847A36D002B7FF464AEB4F868209946C6
:102860006CE7636A95F82A0193F8A82095F820315F
:10287000013BDBB2B2FA82F28000032BD5E91CAB3C
:102880004FEA5212C0B205F1800105F1900C60D8F8
:10289000CDE9002C4FF0010E4FF0000CCDE904CE35
:1028A0004FF0FB0C039352465B46CDF808C008F08E
:1028B00075F99BE7053A012A41D801F085FA00280D
:1028C0004CD0238D43F0080323853946A36B0820A1
:1028D0009847FAE5A38E264943F48053A386238DB7
:1028E000012043F0010323852871A36B9847AB6F48
:1028F0000133AB67EB6F43F10003EB670DE6B146C5
:1029000045E694F8303043F0100384F83030002965
:102910007FF407AE894611E7002A14BF4FF0000B81
:102920000BF0010B84F832B0C146B8F1000F7FF410
:1029300019AF0FE740F6AD112720FEF743FC40F238
:10294000B3712720FEF73EFC40F2D4712720FEF73A
:1029500039FC40F225410620FEF734FC40F2DE71DE
:102960002720FEF72FFC07F0E3FEC146F0E500BF8D
:10297000940900202DE9F0413E4C94F84430012B9D
:1029800086B06CD1666A5FFA83F8337905460F46E4
:1029900073B1238D002143F0040323853171A36BB0
:1029A00004209847636A93F8A8300BB186F8058035
:1029B000337A052B06D005B9DFB906B0BDE8F04182
:1029C000FFF786BA238D2C4943F0020323850220AA
:1029D000A36B9847636A93F8A830002BEBD0236D64
:1029E0001B78A3F10203B3FA83F35B0984F82A305E
:1029F000E1E729462846FFF731FA0028DDD1337D8B
:102A0000676A63B997F82121B7F8E210012007F04F
:102A10000FFB002006B0BDE8F041FFF71FBB97F8A1
:102A2000213197F8A82094F874C0013B003ADBB23A
:102A300018BF0122032BD6E91E0106F1800406F11E
:102A4000900611D8009202460120CDE90335CDE968
:102A5000016C0B460590214608F0A0F8D2E740F63D
:102A60000C112720FEF7AEFB40F225410620FEF7B1
:102A7000A9FB00BF300900208009002010B50C4CD4
:102A80000C4A94F844300C49116023B14FF4B171F1
:102A90002720FEF797FB03F0FF02227602F03AFDB3
:102AA00000F07EFF206700F07FFFA06710BD00BF31
:102AB0003009002038150020D82D000010B5074A35
:102AC00092F8443013B10C24204610BD03F0FF04EB
:102AD000147602F01FFD204610BD00BF3009002013
:102AE0002DE9F043A54C87B094F844609DF838C0B8
:102AF000002E40F03981002900F03681002A00F0D4
:102B00003381002B00F03081054606F0FF0023647E
:102B1000A163E26284F889C084F8300084F88A00F6
:102B200084F83C0084F887002085A08684F8310072
:102B300084F8320084F87D0084F82A00A0642065BF
:102B4000A4F85400E0656066A4F86800656207F0C8
:102B500005F908F043F995F9280107F051F9D5F87E
:102B6000D460D5F8CC0007F051F9304607F0F4FBFB
:102B700095F8250007F054F9B5F8E030672B40F2DE
:102B80008980B5F8E230672B40F28480636A93F85D
:102B9000A860002E00F0868093F80733002B40F0E9
:102BA000A0800EF0B3FE95F8212100F189010120EB
:102BB00007F02AFA724B186807F0D4FBAB7BD5E913
:102BC0003012243B072BC4F88010E26640F28C8060
:102BD000EB7B243B072B40F28780B5F8F230B5F849
:102BE000F80095F82011984228BF1846042908BF1C
:102BF00003210DF064FD024695F8F40095F8F030DD
:102C0000904228BF104680B2984268D295F82111B0
:102C100084F87C3005F1E8000EF0F0F995F8211108
:102C20002F7DB5F8FC60032908BF04210DF047FD96
:102C3000002F51D0864228BF0646F6B284F888603D
:102C400001F0BAFE002851D1636A84F8746093F8E9
:102C5000A830002B3AD02B7D002B4ED10120FFF75E
:102C6000FDF9636AD3F8E80107F0CAFB0023C4E961
:102C70000033A360D5F82431E888B5F8AA1095F898
:102C800025206080218022710BB101221A6007B0DB
:102C9000BDE8F08306F076FF636A93F8A860002E23
:102CA0007FF47AAF0EF032FE95F82021354B33F8E1
:102CB000123001463046344E03F5FA73A6FB036327
:102CC00001EB9311663107F09FF973E7EA7C72BB61
:102CD0000120FFF711FAC9E7043080B2AAE7C3B2B6
:102CE00094E707F01DF85CE71B238FE701F06AFE0D
:102CF000B04238BF3046C6B2A6E795F82131013B55
:102D0000DBB2032BD5E91E0105F1800705F1900226
:102D10002FD8CDE9026301920026024601200B461E
:102D2000059039460090049607F038FF96E795F82D
:102D3000206195F82A01013EF6B28000032ED5E904
:102D40001C89C0B205F1800105F1900211D8CDE9CE
:102D50000363012605960096FB2601924B464246E8
:102D6000029607F01BFFB3E74FF420712720FEF710
:102D700029FA40F225410620FEF724FA3009002006
:102D80003815002004B60200D34D6210FFF7A0B83A
:102D9000014B93F88700704730090020064A938E54
:102DA00013F4C06F03F4805103D092F87D0000B19A
:102DB0007047080B704700BF30090020024B93F8A2
:102DC0003500C0F3C000704730090020014B93F874
:102DD0008A00704730090020451F00003924000098
:102DE00075290000311F000008B501210020FEF701
:102DF000D5FD28B190F89400003818BF012008BD17
:102E000040F64A313220FEF7DDF900BF343270B5AA
:102E100092B204461E460D460CF030F924B1034B25
:102E20001C601D745E741D7170BD00BFD40900204C
:102E300090F86C00003818BF01207047F0B5070CFF
:102E4000A7F5AA42144B543A012A03EA90231FD94A
:102E500027F4004042F6AA22801A18BF012000225F
:102E6000162116461F2487EA060562EA0505013584
:102E700010D0DD03ADB245EA5606E503ADB2013927
:102E800045EA52024FEA53034FEA5404EBD1F0BD36
:102E90000020E4E70020FAE7E0FF3F00304BF0B508
:102EA000B0F86C70B0F86A601D890C461146DA887B
:102EB000974228BF1746964228BF16461B2E85B05C
:102EC0002ED0B5F5A47F2DD040F648039D4201AA2F
:102ED00028BF1D460CF00FFABDF80A30BB4228BFD0
:102EE0003B46E380BDF80C30AB4228BF2B46238124
:102EF000BDF80630B34228BF33466380BDF80830C2
:102F0000AB4228BF2B46A380FF232370E3881B3BE3
:102F10009BB2E02B08D940F209513920FEF752F953
:102F20001B2FCED105B0F0BD63881B3B9BB2E02BBD
:102F300002D940F20B51F0E72389A3F5A4739BB2A9
:102F400040F64812934202D940F20D51E5E7A388BA
:102F5000A3F5A4739BB29342E4D940F20F51DCE78E
:102F60007C0A0020F7B50023CDE9003304460E4665
:102F700017466846FEF74CFD08B100201AE0009D98
:102F8000A542F6D030460CF0B0F905F1AD0395F846
:102F9000AC2039460DF0F5FA0028EAD095F8B320B8
:102FA00094F8B30005F1B40304F1B4010DF0E9FAAB
:102FB0000028DED003B0F0BD054A516A11F8030BBA
:102FC00002F11D03C0F38010127F0DF0DABA00BFCA
:102FD000BC0F00200138C0B2032808B504D94FF453
:102FE0003F710620FEF7EEF8014B185C08BD00BFEC
:102FF000CCB302000138C0B2032808B504D94FF49D
:103000003F710620FEF7DEF8014B185C08BD00BFDB
:1030100024B402000138C0B2032808B504D94FF423
:103020003F710620FEF7CEF8014B185C08BD00BFCB
:1030300000B5020010B503210020FEF7AFFC0446E6
:1030400070B90321FEF76EFC044620B940F2253129
:103050003920FEF7B7F8034B93F96C100EF06CFFB4
:10306000204610BD7C0A0020014B5888704700BFE5
:103070007C0A0020044BD87BC0F3400080F00100A4
:1030800000F00100704700BF7C0A002010B50DF071
:1030900077FA01F047F800F0E7FC0DF009FF02F0C5
:1030A00017FA01F05FFA06F089F9012000F080FCC0
:1030B000184B194C194A002119604FF01B13C4E931
:1030C00000234FF4A473A3604FF479432361144B9E
:1030D000A4F86410586860631B89A181102204F170
:1030E0003C0084F83210E17323870BF08FFA012340
:1030F00004F15A0042F21072C4E9102284F83C3004
:1031000063750FF097FB04F14C00BDE810400FF021
:10311000B7BB00BF3C1500207C0A002003021B0047
:10312000CCB30200044B41F64C521B21C3E90622EA
:1031300099731A62FFF7AABF7C0A0020F7B53B4DCE
:10314000AB69C0F8E8302B7C003B18BF012380F846
:10315000293100F1A807364BC0F8C830044638467C
:103160000EF0E0FC064600F067FC830654BF1B230C
:103170006B88A4F8123158BF1A462E4BA97B1B68E6
:1031800048BFAA88A4F8142184F8F010A4F8F260CB
:1031900023B194F92811B4F8AA009847264B1B686C
:1031A0001BB12649B4F8AA009847254938460DF0C6
:1031B00057F80123A4F8DE30224B1B681BB1B4F88A
:1031C000AA0000219847204B1B681BB1B4F8AA0045
:1031D000002198471D4B1B6813B1B4F8AA0098470B
:1031E0001B4B1B6813B1B4F8AA009847AB886A88D8
:1031F0006978019129780091033303329BB292B22E
:1032000004F1C40104F1C000FEF73AFCD4F8C03068
:1032100023B940F2E2413920FDF7D4FFD4F8C4309D
:1032200013B940F2E341F6E703B0F0BD7C0A002099
:1032300000093D004C15002044150020A00A002084
:10324000860A00205C15002050150020541500202F
:10325000581500202DE9F34104460E460EF0ADFE50
:10326000002800F0968020460FF01CF840B1B6F818
:103270000130013B7F2B03D9122002B0BDE8F08161
:1032800020460FF013F808B90C20F6E720460EF0A0
:1032900000FD0028F8D120460EF038FE80460028B8
:1032A000F2D1204604F0ACFC0028E5D0B6F801705D
:1032B000F17842F2107320465F430EF0DEFF0421E6
:1032C0003078FEF76BFB062105463078FEF766FB8B
:1032D0002DB140B141F676213920FDF773FF18B3C7
:1032E00090F8E58005462C4E3368EBB14035284612
:1032F0000EF0F5FAC0B128460EF0E2FAA0B9B8F126
:10330000000F07D0254B28461B68984760B141F64F
:103310008A21E1E722493368096A424628469847EC
:1033200010B141F68F21D7E720460EF0B3FF0146DA
:1033300038B93A46204602F00BFE40B341F69821D8
:10334000CAE702210DF10600FEF7B4FA054608B9F6
:103350000D2092E7BDF806100DF049FA29462046E7
:103360000EF0CBFF2846FFF7E9FE3A4629462046F5
:1033700002F0EEFD024610B141F6B421ACE7084B75
:103380009B6E23B105F5977105F1A80098470020C1
:1033900073E7422071E700BF401500204815002068
:1033A0007C0A0020024B1B6803B118470C207047B1
:1033B0003C150020034B5A8802801B788370002044
:1033C000704700BF7C0A002073B583781A2B06462D
:1033D00008D8042B04D9334A22FA03F3DB0705D4B7
:1033E00012251AE0292B01D03B2BF9D13088B0F5FA
:1033F000706FF5D269460DF0C9F988B9009B93F852
:103400002C2102F0FF05C2B9B27883F82D21FF22EA
:1034100083F82C2168460CF06BF9284602B070BD89
:1034200030880921FEF7BAFA0446002837D0B0F8F0
:10343000AC0101A90DF0AAF908B10C25EDE7B4F82B
:10344000AE010821FEF7AAFA20B94FF40461392031
:10345000FDF7B8FE03781BB994F8C831032BECD103
:10346000019B93F84221002AE7D194F8F02102F061
:10347000FF05002AE1D1B4F8B021A3F8442194F863
:10348000B82183F84621027D83F84721B27883F87A
:10349000482184F8F021FF2283F84221BDE702256C
:1034A000BBE700BF200038040188A1F11B039BB2D9
:1034B000E02B0CD84288A2F5A4739BB244F24810CA
:1034C000834204D8034B0020D9801A817047122010
:1034D000704700BF7C0A002038B50278447802F0BB
:1034E000010354EA030102F0020201D1112038BDA8
:1034F000BAB98578002DF9D0002B18BF002400E060
:103500001D4620460BF097FF0028EFD028460BF011
:1035100092FF0028EAD0054B00209C72DD72988152
:10352000E5E7002BECD000242546EAE77C0A0020E2
:1035300013B5008801A90DF04BF9044620B9019894
:1035400090F83E311BB13A24204602B010BD90F8ED
:103550005C3003F0FF04002BF5D190F853309B074B
:1035600006D1FF2380F83E3101A80CF0C1F8EBE74B
:10357000024954300DF0C4FCE6E700BF23180100F7
:10358000F7B50678EF2E04460F4603D912263046CB
:1035900003B0F0BD90F901204378002AF6DB827871
:1035A0009207F3D113F010001DD19D0603F0030222
:1035B00016D5002AEAD11907E8D42179E278E5790D
:1035C00042EA0122617942EA0142A17941EA0521F8
:1035D000257A41EA05418A42D8D81F2A12D8D5E770
:1035E000032AE8D1D2E713F0600FCFD103F007022E
:1035F000052A05D003F00F010D22CA40D207C5D518
:103600001D07DAD5627A013A062ABFD8A27A032AC0
:10361000BCD813F0040302D1023A012A03D8E27A9B
:10362000012AB3D813B9A37C032BAFD8237DF8B1FB
:10363000012BABD1237E012BA8D818B36378D9070F
:1036400002D500F077F920B36378227D03F01803E8
:10365000082B2ED1022A1CD103213046FEF79EF9F9
:10366000054660B30EF015FB002834D00C268EE71B
:10367000022B8BD0A37D013B022B87D8E37D0F2B40
:10368000D8D983E700F0E2F9820707D4237D022B23
:1036900001D111267BE7A37D022BFAD000F0D6F9E9
:1036A0004307CBD4237D032BF3D0A37D032BC5D1BC
:1036B000EFE7022AD0D0237F002BCDD0E9E703210A
:1036C0003046FEF72FF90546002843D0224B93F9E8
:1036D0006C100EF031FC002130460FF077F828BB5B
:1036E00028460EF0D4FD21463870E07428460EF0CE
:1036F000B6FCE37E0646002B3FF449AF00287FF47A
:1037000046AFE96C02466846FEF79AFAE86C324624
:1037100001210BF009FDE96C68460422FEF790FADE
:10372000E86C324631460BF0FFFC30E740300EF0DB
:10373000D6F80028D4D0637813F0330F7FF426AF87
:10374000296AA67D28460EF0C4FDFFF743FC864299
:10375000C6D08BE707261AE77C0A002030B502792D
:10376000042A8BB003464FD84088B0F5804F4BD821
:103770002649114400248A7C4D7BADF8004042F07C
:10378000100242EA4502CD7D097F8DF8084042EAE9
:10379000850242EAC10202F01F028DF80020BDF846
:1037A0000020ADF809201A888DF80B208DF80E0046
:1037B000120A000A8DF80C208DF80D408DF80F00CC
:1037C0008DF810405A7B8DF811205A798DF812200F
:1037D0009A79D3F807008DF81320B3F80B209B7B60
:1037E0008DF81A307F2305908DF81B3069464FF015
:1037F000011302A8CDE90734ADF818208DF8244054
:10380000FFF7BEFE0BB030BD1220FBE7CCB30200C9
:103810000278034672B1427862B142881A2A09D905
:1038200082881A2A06D9044A006810609B8893800F
:1038300000207047122070477C0A0020024B02686B
:103840009A610020704700BF7C0A00200378A3F132
:103850000A02112A9DBF024A00209373122070476A
:103860007C0A0020014B5874002070477C0A00201D
:10387000014B9874002070477C0A0020024B1B68A3
:1038800003B11847112070476015002008B50520C6
:1038900000F09AF805F046FD014B024A9A6608BD11
:1038A0007C0A00209D2E000008B5064B01221A71EB
:1038B00004F090F904F058FF0CF0B8FCBDE80840A3
:1038C00000F038BFEC0A002010B50C20084C00F0C6
:1038D0007BF8282000F078F804F1080005490CF086
:1038E0005CFC04F10C000449BDE810400CF055BC30
:1038F000EC0A0020640000206C00002010B5094C88
:10390000094904F108000CF048FC04F10C000749D7
:103910000CF043FC04F110000549BDE810400CF028
:103920003CBC00BFEC0A0020740000207C0000209A
:1039300084000020014B1879704700BFEC0A00207A
:1039400038B5074C0D4600F0D1FEA06825600CF09C
:103950001CFCFFF7E7FB01F06BF80123237538BD72
:10396000EC0A0020014B187D704700BFEC0A0020D4
:1039700010B50A4CE0680CF008FC20690CF005FC5E
:10398000FFF784FB202000F033F8262000F030F809
:10399000292000F02DF80023237510BDEC0A00202B
:1039A00000487047010B002000487047030C0020BE
:1039B000014B83F819027047EC0A0020014B93F881
:1039C00019027047EC0A0020C208074900F00700FE
:1039D00001238340885C03438B5404490B78934252
:1039E00038BF13460B70704718000020060D0020EA
:1039F00010B50F4BC40803EBD002012100F0070003
:103A000001FA00F0195D21EA0001195509490B7806
:103A1000A34205D1002012F8014914B100B10B7086
:103A200010BD002BFAD0013BDBB20120F3E700BF51
:103A300018000020060D0020014BD3E9000170475B
:103A4000180000200048704720000020054B18682F
:103A5000C0F3C022C0F30020400040EA820040F0E2
:103A6000010070471800002008B508F03BF9084A2B
:103A7000002332F82310814205D302EB83029378AE
:103A8000044A137008BD01330C2BF2D10023F7E771
:103A9000F4B30200070D0020024B1878072828BF56
:103AA00007207047070D00202DE9F04F0468984665
:103AB00094F8633094F80FA043EAD3030F46D90774
:103AC00085B0164604F1A80902D4BAF1260F5FD1D9
:103AD00094F8A850002F55D1FFF7B8FF8DF80B00D0
:103AE000002E51D1FFF7B2FF2B4B8DF80C00D3F80D
:103AF00000B0BBF1000F0CD0AAF126025342534193
:103B00000093284603AB0DF10B024946D847054602
:103B100030B99DF80B3013B19DF80C0028B9092578
:103B2000BAF1260F2AD10020034694F8292132B198
:103B30009B0700F002002DD560B302200346FF2250
:103B400084F8392194F8382102F0FF05F2B99DF884
:103B5000382084F83B0184F8382184F83A31A4F8FD
:103B60003C8103A948468DF80C708DF80D60ADF8C6
:103B70000E800CF075FB002384F83931284605B01F
:103B8000BDE8F08F3846A9E73046ADE73A25F2E7C1
:103B90001A25F3E70925F1E76415002010B504683C
:103BA000B4F8AA3084F87E11A4F87F3194F820018B
:103BB000FFF720FA84F8810194F82101FFF71AFA3F
:103BC00084F88201034904F27510BDE810400DF03D
:103BD00097B900BF4B0201002DE9FF47046894F834
:103BE0000EA0AAF125030E4659425941052A054661
:103BF00039D1E37B272B3BD104F10F0796F80190D5
:103C000096F8028009F0070908F0070809F1FF3368
:103C100008F1FF3203EA090302EA0802134321D143
:103C200040460CF0B5FB70B394F8203198422AD08E
:103C300094F83A2118EA020F14D0BAF1250F22D0D5
:103C400094F8192118EA020F1DD1464A0138013BA8
:103C500052FA80F0DBB2032B00790FD81A441379A3
:103C6000834210D9284604B0BDE8F0470CF058BB99
:103C7000BAF1250F74D104F10E07BFE74FF4DD71DF
:103C80000620FDF79FFA48460CF082FB40B194F8FD
:103C90002131834204D094F83B3119EA030FE1D07B
:103CA000B6F8036003AB00932046334642464946CC
:103CB0000CF07BFB2C6878BB94F83831012B28D1B1
:103CC000E38894F82011B4F83C0104F534720CF048
:103CD000CDFB0646D0B901462846FFF75FFF2B68AB
:103CE00083F838613E702B6803F10F02974201D1CF
:103CF0000022DA732B6803F10F0297422CD1284679
:103D00000DF0D3FA002004B0BDE8F0872C23A37394
:103D1000E9E784F83801E6E7E388A4F8D062013ED9
:103D2000F61AB6B247F6FD739E4206D9282384F8E8
:103D30003130284601F01CF9DCE7E37B0D2B02D083
:103D40000A3B012B01D82A23F1E7BDF80C30A4F877
:103D5000D23229233B70CDE7002283F84A20D1E7F5
:103D60000220D0E724B40200024B002283F8322064
:103D70009A8670470A0D0020044B93F83220012ADE
:103D80001ABF036001200020704700BF0A0D002009
:103D9000054B93F83210012902461DBF012083F81C
:103DA00032009A86002070470A0D0020054B02461B
:103DB00093F8320020B1136009B19B8E0B80012073
:103DC000704700BF0A0D0020044B93F83200002218
:103DD0009A8610B183F83220012070470A0D002026
:103DE000034B93F83200B0FA80F04009704700BFEF
:103DF0000A0D002050B90A4A1346012003F8010BAE
:103E00000868C2F801008A889A807047012805D1A5
:103E1000034B0A689A608A88D8719A81704700BFFC
:103E2000400D002050B90B4B187888B1D3F8012011
:103E3000B3F805300A608B8001207047012806D155
:103E4000044BD87920B19A680A609B89F3E7002077
:103E5000704700BF400D002010B9044B1878704720
:103E6000012806BF014BD87900207047400D002083
:103E7000F7B500238A888DF80600ADF8042008689D
:103E80000B4A8DF80730019D1478014602F5A8729F
:103E9000D8B2844201D8082008E052F8087F56685A
:103EA000AE4208BF8F4203F10103F1D103B0F0BD70
:103EB000500D002030B5094B01465C78002203F21A
:103EC0000113D0B2844201D8082005E013F8015F45
:103ED0008D4202F10102F4D130BD00BF500D00202F
:103EE000F8B52D4C6378013BDBB22218834292F87F
:103EF0000251637030D01A010101961C8F1C2644B8
:103F0000274406F1100C56F804EB47F804EB66451D
:103F1000F9D1823282312244214402F1100652F852
:103F2000047B41F8047BB242F9D1E118221891F8E0
:103F3000026182F8026106267343704303F58573BC
:103F400000F58570E618E35823502718B388BB8026
:103F500091F83A3182F83A312846FFF7ABFF08284A
:103F600018D12378013BDBB29D42237012D02B3352
:103F700004EBC30393E8030005F12B0204EBC20238
:103F800082E803002078FFF795FF08281CBF24185B
:103F900084F80251F8BD00BF500D0020F0B5254D4A
:103FA00095F8984189B0224605F2991168460AF0C1
:103FB0006DFB214668460CF002FB0446B8B300EBEB
:103FC0004001C9B202A8FDF729FF631E95F8A1615F
:103FD000DBB2012495F8981105E0721CB2FBF1F0F8
:103FE00001FB1022D6B206F120020DEB020010F800
:103FF000202C002AF1D103EB43012031694406EB68
:1040000046022A4411F8187C82F8A27111F8177C34
:1040100011F8161C82F8A37182F8A41100F8204C44
:10402000013BAA19DBB2FF2B82F89941D2D109B02A
:10403000F0BD00BF500D002070B5064688B00C469C
:10404000002A4ED0294A92F8A131D01890F899113F
:1040500019B9FF212820FDF7B5F803EB43011144FE
:10406000013391F8A251E57091F8A35191F8A41190
:1040700061710021257180F8991192F89811B3FBB4
:10408000F1F001FB103382F8A13192F8C23123B96B
:10409000174902F5DD700CF030FF657905F03F053A
:1040A00045F0400565710D22002168460AF0AEFA20
:1040B000E3788DF80F3023798DF80E3004AA0423AD
:1040C000694630468DF80D500AF0BEF89DF81F3055
:1040D00023709DF81E3063709DF81D30A37008B0EA
:1040E00070BD03216018FDF799FED6E7500D002042
:1040F0009D3F0000044B5A78824286BF1B1893F8FC
:104100004A010020704700BF500D0020044B5A7830
:10411000824286BF1B1893F842010020704700BFFF
:10412000500D0020064B00224FF461711A8083F875
:10413000C32183F8C421A3F8C61183F8C2217047B4
:10414000500D00202DE9F0478246894617469846D3
:10415000FFF78EFE08280546064603D0FFF7AAFEA5
:10416000082860D1324C6378072B5ED8082D15D112
:104170002678731C072E237003D96C212820FDF7A5
:1041800021F806F12B02D9F8000044F8320004EBC4
:10419000C203B9F804209A8083F806A065786B1CE6
:1041A000290163704B1C07F11002234412F8010D22
:1041B00003F8010FBA42F9D1813108F1100321440B
:1041C00013F8012D01F8012F9845F9D1102140462F
:1041D0000CF03BFA2544102185F8420138460CF0DA
:1041E00034FA85F80261667885F84A01002311489F
:1041F00085F83A3131460CF0E2F90128054607D836
:104200000D4831460CF0DBF9002818BF0135EDB23E
:1042100084F898510025284684F8A151FFF7BEFE86
:104220002846BDE8F0871220FBE70720F9E700BF2A
:10423000500D0020920E00209A0E002010B5064B63
:104240005878013840B2002800DA10BDC4B22046C8
:10425000FFF746FE601EF5E7500D0020014B83F886
:10426000C3017047500D0020014B93F8C301704704
:10427000500D0020431E9BB24AF2B71293429DBFDD
:10428000024BA3F8C601012000207047500D00200A
:10429000014BB3F8C6017047500D002030B50A4BF2
:1042A0005C7884420ED9184490F802012B3003EB5D
:1042B000C004A5790D7053F830001060A388938076
:1042C000012030BD0020FCE7500D002002460748C9
:1042D00010B590F8C34124B1417821B1023005F006
:1042E00085F8204610BD0C46FBE700BF500D0020AE
:1042F0002DE9F74F2F4C9A466378834280468946D2
:1043000056D9231893F8425185F00105F9B193F875
:104310004A31E3B945F002070135BAF1000F18D16F
:10432000FA070AD5062101FB084104EB08105246A2
:1043300001F585718230FFF77FFEBB0734D504EBB2
:104340000810524649460230FFF776FE2CE02F4611
:10435000E3E794F8A1614FF0010B002DE0D0A31921
:10436000019393F8991199B90092DAB100F030FBFA
:1043700006EB46012144019B81F8A2014FEA102C73
:10438000009A81F8A3C1000C81F8A40183F899B1C7
:1043900094F898310136B6FBF3F103FB1166F6B2DF
:1043A000013DDAE747F00407384603B0BDE8F08F77
:1043B0000027F9E7500D0020074B5A78824209D9AF
:1043C0001A1892F842212AB9062202FB003000F5A1
:1043D0008570704700207047500D0020064B5A78BA
:1043E000824281BF1B1893F83A01B0FA80F040096D
:1043F00098BF0020704700BF500D0020F8B50E4652
:1044000007460621304615460CF01FF9044670B1E8
:104410000C4B0022587803F23913D1B2884202D8EB
:1044200001242046F8BD03F8015F0132F5E731466B
:1044300038460CF0E0F80828F3D0024B034483F828
:104440003A51EDE7500D0020034B80F880101B68B7
:104450000BB1408818477047681500200B2808B535
:1044600004D940F229112920FCF7ACFE014B33F8A6
:10447000100008BD2CB40200036830B50024D3F846
:10448000C800A3F84040B3F8444042F210754443DA
:10449000B4FBF1F4A3F844404C1E05FB0242B2FB0E
:1044A000F1F2A3F84220094AB2FBF1F20132A3F87B
:1044B00048209A8F05FB02445A6BB4FBF1F4504339
:1044C0009C63B0FBF1F0586330BD00BF005A62023C
:1044D00013B540F6B8338387B0F8D220D0F8C810AF
:1044E0000190044601A8FFF7C7FF0C4B1B68062B81
:1044F00001D001330FD10A4B1B68063B08330AD9A0
:10450000D4F8CC00FEF79AFC80F00100C0B284F829
:10451000070302B010BD0020F9E700BFB01400206F
:10452000B4140020054B1B7833B9054B1A681B796E
:10453000026003710120704700207047180F0020AF
:1045400028000020054BFF221A70054A01681160FF
:104550000179117100221A70704700BF180F0020F6
:104560002800002007B5064A1068009012798DF8DF
:1045700004206846FFF7E6FF03B05DF804FB00BFC8
:1045800076CC02000346084671B13F2B0BD8074A90
:10459000D35C03F07F02914205D08CBF0120002044
:1045A00000EAD31070470120704700BF44B40200F6
:1045B000FF230B7002234B7083238B70014B1B78FE
:1045C000CB7070471C0F00202DE9F84FD0F8048005
:1045D000D8F81C6030460C460AF090FC054620B91D
:1045E0004FF4AA711020FCF7EDFD014630460AF0A9
:1045F00093FCB5F800B01FFA8BF7824617B94FF459
:10460000AC71EFE7224B1B6800F10309D3B998F8AE
:10461000023098F8032023706378A4F802B002F007
:104620000F0223F00F03134323F0C00363709AF8C3
:10463000003003F00303012B0FD0022B0DD04FF4F9
:10464000BB71CFE7B8F802003A464946984705469D
:104650000028DCD12846BDE8F88F627863F30512A4
:10466000627030460AF062FC054610B94FF4C07122
:10467000B8E7FB2F02D940F28F11B3E73A4649461B
:10468000201D0AF003F830460AF0A7FBE2E700BF5E
:104690006C15002038B5134C10220021201D09F0A4
:1046A000B5FF01252574102204F10803002104F14F
:1046B0001400C4E9013309F0A9FF84F8205004F183
:1046C0001803C4E90533084A00236362A36284F82F
:1046D0002C30C4F82D30C4F8313084F835301360F4
:1046E000A36338BD1C0F00206C15002010B5084CCA
:1046F0002378FF2B04D040F299111020FCF762FDC3
:1047000009F0E8FD2070BDE81040FFF7C3BF00BF0F
:104710002D00002010B5034C207809F0F5FDFF2393
:10472000237010BD2D000020014B187809F0FCBD4E
:104730002D000020014B024A1A60704774150020BA
:10474000C94500002DE9F341DFF88881054608F1ED
:104750001407D8F80830D8F81840227A012A22D154
:10476000D8F8382052B1137A1BB9BF211020FCF7BA
:1047700029FDD8F83840C4B9002093E01A7A012AFC
:10478000FAD0554A1C46EFF3108172B650680068A3
:10479000506001B962B6A34208BFC8F83840237A16
:1047A0001BB9EE21E2E73A46EDE7267AF6B2052399
:1047B0002372731E0B2B7ED8DFE803F07A062336B4
:1047C000773F4E3F3F3F3F6B636813B94FF4037130
:1047D000CCE72046294698470420EFF3108272B6B2
:1047E000237A052BD9B24FF0000369D12372D8F890
:1047F0003810A14201D1C8F83830002A45D162B63C
:1048000043E0636813B940F21521AFE7294620461B
:1048100098470346C3F30723012BADF80400C0B249
:104820003ED0022BD9D129E0636813B940F21D2193
:104830009CE7204698470020CFE7284B1B68002BB9
:10484000F9D06068324629469847A6F10A025342D9
:1048500053415B000420E4E763680BB9FE2185E760
:1048600086222A7001225988AA706A7100229869EA
:10487000A5F80310AA710AF0B0FA0420D8F838306D
:10488000A34202D10023C8F8383000283FF461AFBA
:1048900008E0134B29461B6820469847034668B931
:1048A000267298B102B0BDE8F0814FF415715DE752
:1048B00040F257215AE740F25A2157E70220DDE73C
:1048C00011B940F27B2151E7184696E7002B7FF49F
:1048D00040AF51E71C0F0020200F00207015002072
:1048E0007415002010B51346027A22B140F202314D
:1048F0001020FCF767FC0A46BDE81040014601485D
:104900000CF0D8BA200F0020044890F82C301BB9C6
:10491000034924300CF0EBBA704700BF1C0F002095
:10492000A50E01000346064890F83C203AB190F8E5
:10493000352022B900F82D3B02490CF0D8BA704757
:104940001C0F0020B145000010B50A46037A23B1C0
:1049500040F20A311020FCF735FC0146BDE810405A
:10496000014807230CF0A6BA300F00201346027A44
:104970000AB1037270470A46014601480CF09ABA20
:10498000200F002001490CF0BBBA00BF070F010047
:104990000B8BA2F80B304B8BA2F80D308B8BA2F84F
:1049A0000F30CB8BA2F809000249A2F81130104653
:1049B0000CF0A0BA650F0100014B1878704700BFDA
:1049C000590F0020014B1878704700BF2E000020BF
:1049D000094AD2E90003434083EAB01181EA432146
:1049E0004FEAF3435360054B116058434FEAF060C0
:1049F00000EB8000704700BF5C0F0020BB79379E42
:104A0000094AD2E90003434083EAB01181EA432115
:104A10004FEAF3435360054B116058434FEAF0608F
:104A200000EB8000704700BF30000020BB79379E4C
:104A300010B50A4C09480821FDF7F0F9D4E9003215
:104A40001343F7D0064CFFF7DBFF2060FFF7D8FFDA
:104A5000236860601843F6D010BD00BF300000200E
:104A60005C0F0020174B184A9A60184A5A60184A7F
:104A70001A60184A9A62184ADA62184ADA60184AC2
:104A80009A61184A1A63184A1A62184ADA64184A6C
:104A90009A64184A5A62184B184A9A60184A5A621D
:104AA000184ADA62184A1A61184A5A61184A9A6111
:104AB000184A1A63184A9A64184ADA64184A9A63B8
:104AC000704700BF78150020571301007D130100C7
:104AD000A91401003D16010099160100995000002B
:104AE000AB16010051530000A95100007D170100D1
:104AF0009F17010005520000781600206D13010079
:104B000043170100C916010079160100E9160100DA
:104B10003951000045180100E3170100CF170100CB
:104B20002D170100044B054A5A65054B054A1A65C5
:104B3000054A5A65704700BF781500209519010095
:104B4000781600207F190100BF190100054B064AA5
:104B50009A65064A1A66064B064A9A65064ADA6557
:104B6000704700BF781500201F050100D93B0000E9
:104B7000781600207903010061050100F7B50546AC
:104B800001A80F46FFF7F8F820B94FF4AA615120A9
:104B9000FCF718FB01983222002109F037FD019C37
:104BA00026463F2F06F8037F43D83F2F44D8DFE83F
:104BB00017F046004C006C0075008D005C015C0134
:104BC0009A00B3009E005C015C01A300AF00B3003B
:104BD00043004300B7005C015C01CC00CC00E30063
:104BE000E300EA00430043005C01EF00FC00000129
:104BF00004010B010D010F0111011B0125013C01F5
:104C00003E01430043002D0146014401430043009F
:104C1000430043004300430043004300430043007C
:104C2000430043004300430048014A014300400160
:104C30004201FF2F00F00D8140F24451A7E72946C1
:104C400030460CF096FCC0B9BBE02E68D6F8303286
:104C5000636096F834322372286890F89F3033B935
:104C60000CF064FB2B68DB881844A6F83602B6F813
:104C7000363263721B0AA3720820FFF789F80028F6
:104C800040F0F58040F2575181E72B6893F8A82057
:104C900052BB93F82D3123710220EEE72B68D3F835
:104CA00078226260D3F87C22A260B3F88022A281CD
:104CB000D3F85822C4F80E20D3F85C22C4F812208E
:104CC000D3F89030C4F816301720D6E72A68D2F807
:104CD000F6316360D2F8FA31A3602B68D3F89430D0
:104CE000E3600D20C9E72B6893F8A030D3E7314685
:104CF000284600F0F3FAA6E71123237159236371C4
:104D00000023A3713923E371102323720620B4E733
:104D10002B6893F89A30BEE7304600F0CDFA92E760
:104D20002B6893F8A82052B993F8A0203AB193F8D1
:104D30009D20227193F89C30637103209DE793F8C6
:104D40009B20227193F89A30F6E72B68B3F80C2178
:104D50002271120A6271B3F8A220A271120AE271E2
:104D6000B3F808212272120A6272B3F8A030A3725B
:104D70001B0AE372092080E72B6893F83A2122711D
:104D800093F83B31D8E7294630460BF08BFB5AE7C6
:104D90002B680F21B3F8AA00FCF700FE00F15B01BD
:104DA00030460BF0D2FF232067E730460DF030FD90
:104DB00049E730460DF035FD45E72E4B1B68002BCB
:104DC00043D140F24951E2E62B4BF7E72B4BF5E795
:104DD0002B4BF3E72B4B1B68002BF2D023202A46EA
:104DE00031469847042048E7264B1B68002BE8D043
:104DF0002A4631462420984705203EE7214B1B6870
:104E0000002BDED02A4631462520F4E72B680F21FF
:104E1000B3F8AA00FCF7C2FD00F17D0200F15B01CE
:104E200030460BF09EFF2B2027E7174BC6E7174BAA
:104E3000C4E7174BC2E7174BC0E7174BBEE7174B4A
:104E4000BCE7174BBAE7174BB8E7294630469847F7
:104E5000F9E62B68304693F8C722D3F8C8120BF056
:104E600041FF2B6893F8C702EDE6012005E703B088
:104E7000F0BD00BF78170020801700207C170020AD
:104E8000841700208817002094170020981700200E
:104E90009C170020A01700208C17002090170020DE
:104EA000A4170020A81700203F289ABF024B53F8F0
:104EB00020000020704700BF781500203F289ABFCF
:104EC000024B53F820000020704700BF78160020E6
:104ED00030F8023CF7B5B0F8826004460D4673B175
:104EE000012268468DF80020ADF80160ADF803306E
:104EF000FEF758FA18B195216320FCF763F9194BB6
:104F00001B6813B1A4F128009847174B1B680BB11D
:104F100030469847832300272B70AF70A5F80360B5
:104F2000637AD4F89C006B7109F061FF08B9BA216B
:104F3000E2E739463046FCF747FD02213046FCF7F0
:104F400043FD18B9094B1B6803B198474FF401732F
:104F500003F00402002062F307001B0A63F30F2032
:104F600003B0F0BDAC170020B0170020B41700202C
:104F7000F7B50568D5F8C06004464FF6FF770DF128
:104F800002010DF101023046ADF8027009F0DBFEBE
:104F900001A9304609F0FCFE48B1019809F0C4FFB0
:104FA0002168A83100220272FFF7CEFCE7E704492E
:104FB00005F1280003B0BDE8F0400BF09BBF00BF37
:104FC000D14E0000F0B5044685B00D46FF2600F82E
:104FD000E96C10F8EA3CF3B1174F3B781BB1622142
:104FE0001F20FCF7EFF80C21381DFCF717FF3E706F
:104FF000002304F8E93C2A468A2302F8033BD4F84C
:105000000930C5F80330D4F80D305360D4F81130AE
:10501000936005B0F0BD01A80C21FCF7FFFEA4F5DC
:105020001573039A1A6001AB03CB44F8F20C44F8F1
:10503000EE1C04F8EA6CDBE7640F002010B5054CA9
:1050400023782BB90C21201DFCF7E8FEFF232370E9
:1050500010BD00BF640F0020024690F8FE31BBB9BE
:1050600090F8FF3103F0FF010BB100207047094BAE
:1050700018780028F9D01970D968C2F89410043350
:1050800003CBC2F8F601C2F8FA11FF2382F8FE3111
:1050900001207047640F002038B50268D37B0446B6
:1050A0000D463BB1132B05D0113B0F2B8CBF0120BC
:1050B000082038BDD2F8A430ABBB92F8523013B9F7
:1050C00020460CF0E0F82268D5F80B30C2F8EE313B
:1050D000D5F80F30C2F8F2312368D5F81320C3F8A1
:1050E0009020B3F8AA20A3F8F122D5F80120C3F844
:1050F000F322D5F80520C3F8F7222368B5F8092074
:10510000A3F8FB222368002583F8B85183F8FE51E9
:105110002068084900F53A700BF0E9FE2368162272
:10512000DA732846C5E720460C22BDE83840032143
:105130000CF0CFB8C54F000010B50368DA7B202A09
:10514000044604D040F29D211F20FCF73BF893F861
:105150005220B3F8AA00002183F8511082B1C3F89D
:10516000C31183F85210A3F8C7110D49A3F8C40165
:1051700003F5DD700BF0BBFE23680022DA7310BD6F
:105180000121A3F8B30183F8B51183F8B2210549D1
:1051900083F8B921A3F8B62103F2A910EAE700BF0A
:1051A000251601000D16010038B5046894F8A850C2
:1051B0001DB9E37B23B101201AE02368DB07FAD491
:1051C000D1F801200D4BD1F8051013400C4AC4F85A
:1051D0006230C3F307630A4043F00803C4F8662053
:1051E00084F865300CF04FF81DB90423E3730020F8
:1051F00038BD236843F001032360F8E72FC904F7A3
:105200006FDB008038B503689A7B042A34D1D1F86B
:105210000120D1F80550C3F86220C2F3076242F0C2
:10522000080283F8652000229A7383F84A200268F6
:10523000C3F8665092F8A8204C1C0AB983F83F21A5
:1052400093F84021B2B993F88B2102F0FF008AB99C
:10525000B3F8AA2083F88C01A3F88D21D1F801209E
:10526000C3F88F2162680549C3F8932103F28310C4
:105270000BF03DFE002038BD0120FCE703170100C4
:10528000036893F8402112B1094B1B68184793F843
:105290008B215AB9B3F8AA20A3F88D211A22054907
:1052A00083F88C2103F283100BF021BE704700BFFE
:1052B000B81700200317010010B50446FEF7BCFB29
:1052C000044A054B02400B40C4F80120C4F80530E5
:1052D000092010BD2FC904F76FDB008037B50C46DD
:1052E0000568FEF7A9FB0A4A0A4B0A4095F86210C6
:1052F0000192034000930B408DF800306B4603CBC6
:10530000C4F801000920C4F8051003B030BD00BF87
:105310006FDB00802FC904F738B5DB04154604D5D0
:10532000037D13B10023436338BD446B01344463F0
:105330000CF067FA836B9C42F6D300234363034966
:105340002846BDE838400BF0DBBD00BF71170100F7
:1053500070B50468A37B94F8A860012B054607D0BC
:105360001EB9E37B23B1012038E023689807FAD403
:1053700094F853309A0713D44A7884F85D204A8809
:10538000A4F85E208A88A4F86020D80743F00202BF
:1053900084F853200FD5164904F154000BF0B0FDEA
:1053A00094F85330D90710D4CEB9E37B43B15321DD
:1053B0004020FBF707FF94F83E31002BEBD1EFE7DD
:1053C0000123E37328460BF05EFFA37B012B4FF014
:1053D000000304BFA37384F84A30002070BD236823
:1053E0009A0701D55821E3E743F002032360E9E778
:1053F0002318010070B50568044603F0BDFF054B96
:10540000E8721B6801461BB12046BDE87040184792
:1054100070BD00BFC0170020024B1B6803B11847C6
:10542000704700BFBC170020F0B51F4D2B7800243B
:1054300014709BB1013B6D68DBB21E1B012E0FDCAB
:1054400005EBC40655F8347076688E4208BF874273
:1054500027D0B84271EB060612D214700020F0BDBE
:105460001E19771005EBC70E55F837C0DEF804702B
:105470008445C6F347068F412CBF33463446DCE7EC
:1054800005EBC30455F8335064688C4208BF85426D
:1054900006D0A84271EB040428BF01331370DDE786
:1054A0001C4614700120DAE7840F002010F0070278
:1054B00008B503D063214820FBF784FE18B1034BE5
:1054C000197258601A70C80008BD00BF840F002010
:1054D000014B00221A707047840F0020024B18798C
:1054E000003818BF01207047940F0020FF230B7075
:1054F000074A0D234B7082238B701368C1F8033069
:105500005368C1F807309368C1F80B30704700BF8B
:105510009A0F002002481622002109F077B800BF38
:105520009A0F0020F8B51C4D6B7D04469BB390F894
:10553000A83023BBD0E976760CF0E8F994F8202166
:10554000164B33F8123066304FF47A7203F23F6331
:10555000B3FBF2F3DB1946F100061B18B4F8AA20DE
:105560002A8046F100066B60AE60E3886B8005F12F
:105570000C000B49BDE8F8400222FFF7F7B94B06D3
:1055800009D5B0F8AA302B80D0F878326B60D0F80B
:105590007C32AB60E9E7F8BD9A0F002004B6020048
:1055A000ED540000094B53F8203070B503F5234348
:1055B0000C461646A1334FF47A72B3FBF2F505F0B0
:1055C0002DFA34442C44204470BD00BFF0B50200D5
:1055D0002DE9F04F8FB09A4600230A9390F82131BD
:1055E00007930446884606920AF02DFE814694F8F9
:1055F0002B01FEF733FF81440CF088F9E37B472B46
:105600001FFA89F900F160063FD00D2B3DD0A37B36
:10561000A3F147014B424B410393069B002B7CD1E6
:10562000637B032B79D1039B002B62D0B4F8D0327B
:1056300043455ED1D4F81832C4F80832D4F8C830E3
:10564000B4F8EC21C4F80C32B4F88A321344C4F82C
:105650001032204603F0F2FD94F829513DB1D4F800
:10566000D85241F64B539D428CBF0025012594F83A
:10567000E43263B9D4F8C820D4F8D8329A421ED0A4
:10568000B4F8AA000DF0E3F819E00123C4E7B4F878
:10569000AA000DF0D9F820B940F242713020FBF792
:1056A00091FDB4F8E032A4F8DE30B4F8E232838140
:1056B000B4F8D03243810025013B0382C58194F8C0
:1056C0002A31002B57D1002D56D1D4F8D432C4F84A
:1056D000D830B4F8D232A4F8DC30D4F8D832C4F8D8
:1056E000C830D4F8DC32C4F8D030022384F82A5110
:1056F0006373A17B29294ED0A1F12C025142514163
:10570000E27B292A00D041B1B4F8D032A8EB0303E0
:105710001B0402D4204602F0CDFFB4F888B2E7881B
:1057200094F821310893A8EB0B0B0FFA8BFB04F5CF
:105730001673A8EB0707BBF1000F04933FB22CDAF6
:10574000D4E99C23C4E9A023002384F82B3201234D
:10575000BB460493D14B1B7813B106F0B7FAF8B9E6
:105760000025637B032B00F22982DFE813F084001D
:105770009F01DD00C3013DB14FF04D13C4F8E0308F
:105780000023A4F8E430A0E74FF09613C4F8E0300B
:10579000A4F8E45099E70121B2E7CDF810A0D9E7C9
:1057A000B4F80032012BDBD9637B022BD8D094F8FC
:1057B0002A32002BD4D194F82A31002BD0D194F87E
:1057C0002B01FEF74BFE637B00F5C869012B1FFA26
:1057D00089F941D1A37CD4F8D850032B34D1D4F823
:1057E0000C322B444946D4F80C02099306F032FAE5
:1057F000D4F80852099BD4F81022C4F80802451BBB
:1058000049461846554306F025FAD4F81432C4F830
:105810001402C31A4946D4F8C8001D4406F01AFA07
:10582000B4F8EC31D4F810223B44A3EB0B039B1AE1
:10583000D4F81822013B821A02FB03550123C4F855
:10584000180284F82A328CE794F8211194F8E501C3
:105850000AF057FF4319C5E7D4F8C800494606F0D7
:10586000F9F9B4F8EC51D4F818323D44A5EB0B0526
:10587000C31A5D43E2E794F8211194F8E5010AF0B8
:1058800040FF0746D4F8D8004946384406F0E2F90C
:105890004946C4F81402D4F8C80006F0DBF90BA995
:1058A000C4F818020CA804F053FF0B9B0093D4E932
:1058B000A001DDE90C2306F09FFA814604F1A8005F
:1058C0000CF0ADF8D4F88C3294F82101D4F8D8B0AB
:1058D0000A9305F0ABF80A9BD4F81412203B5B4402
:1058E0005B1A9B1B3B44A3EB090300F523404FF4D9
:1058F0007A72A130B0FBF2F01B1A0A93B4F8DC30D4
:1059000094F821013031324603EB4101FFF74AFEA2
:10591000D4F88C220A9B9B1A2230DA2BC4F81C0282
:105920005CD840F2C741B9E6D4F8D830D4F80C02BC
:105930004946184406F08EF94946C4F81402D4F8D2
:10594000C80006F087F9C4F8180204F1A8000CF0AA
:1059500066F8D4F8D830D4F80C721F44B4F8EC319F
:10596000002B40F09F80BAF1000F00F09B8094F86C
:10597000210105F05BF8D4F81412D4F8783294F8C9
:1059800021217F1A203F1F44D4E99CBC444B53F88B
:105990002220A7EB0B074FF47A7302F2E732B2FB37
:1059A000F3F21744BF1B00F52340A130B0FBF3F026
:1059B0003F1AD4F80832D4F8102294F821010A973B
:1059C00002FB0311B4F8DC30303103EB4101324605
:1059D000FFF7E8FD0123C4F81C0263730A9BD4F8A7
:1059E00018225B1BD4F8C8500A937E3DAD1AD4F838
:1059F0001C22AD1B954228BF1546002284F8582270
:105A0000D4E9A021D21841F10001C4E99A21C4F8D7
:105A1000E85104F1E8000BF0EFFA042384F8613256
:105A2000D4E99A232844C4E9A023C4F85C02A4F86A
:105A3000888202F055FF20B1D4F85C321E33C4F8DE
:105A40005C32B4F8D831A3EB08031BB2002BD4BFEF
:105A500000220122520084F86022039A002A40F0BA
:105A6000B080BAF1000F40F0AF80637B002B00F0F4
:105A7000C880D4F8C810D4F8183204F51670C91AC2
:105A80000AF0EFFD80B2002800F0BB80189B03B144
:105A9000188001200FB0BDE8F08F00BFB00F0020CC
:105AA000F0B50200D4F814127F1A82E7D4F8180275
:105AB000D4F8C830B4F8EC21D4F810121B1A0BFB40
:105AC00003F30A93D4F814323A44D4F80872521A01
:105AD0003033013A07FB0133B4F8DC1000FB02332A
