:10000000A04F00207D330000F54C01006933000053
:100010006933000069330000693300006933000070
:100020000000000000000000000000005534000047
:10003000693300000000000025360000693300002D
:10004000A5360000A5360000A5360000A536000044
:10005000A5360000A5360000A5360000A536000034
:10006000A5360000A5360000A5360000A536000024
:10007000A5360000A5360000A5360000A536000014
:10008000A5360000A5360000A5360000A536000004
:10009000A5360000A5360000A5360000A5360000F4
:1000A000A5360000A5360000A5360000A5360000E4
:1000B00081B50000A5360000A5360000A536000079
:1000C000A5360000A5360000A5360000A5360000C4
:1000D000A5360000A5360000A5360000A5360000B4
:1000E000A5360000A5360000A5360000A5360000A4
:1000F000A5360000098D0100A5360000A5360000D8
:10010000A5360000A5360000A5360000A536000083
:10011000A5360000A5360000A5360000A536000073
:10012000A5360000A5360000A5360000A536000063
:10013000A5360000A5360000A5360000A536000053
:10014000A5360000A5360000A5360000A536000043
:04015000A5360000D0
:1001580080EA101404F0F01480EA0410604081EA88
:10016800111404F0F01481EA0411614082EA1214B7
:1001780004F0F01482EA0412624083EA131404F0D3
:10018800F01483EA0413634080EA102404F47F44E3
:1001980080EA0420604081EA112404F47F4481EA63
:1001A8000421614082EA122404F47F4482EA042292
:1001B800624083EA132404F47F4483EA04236340FF
:1001C80081EA500404F0553480EA4400614083EA2F
:1001D800520404F0553482EA4402634082EA9004EF
:1001E80004F0333480EA8400624083EA910404F026
:1001F800333481EA84016340704700BF82EA900487
:1002080004F0333480EA8400624083EA910404F005
:10021800333481EA8401634081EA500404F05534A0
:1002280080EA4400614083EA520404F0553482EACB
:100238004402634080EA102404F47F4480EA0420E6
:10024800604081EA112404F47F4481EA042161407A
:1002580082EA122404F47F4482EA0422624083EA98
:10026800132404F47F4483EA0423634080EA1014CF
:1002780004F0F01480EA0410604081EA111404F0DC
:10028800F01481EA0411614082EA121404F0F014B7
:1002980082EA0412624083EA131404F0F01483EA39
:1002A80004136340704700BF2DE9F14F94464FEAAD
:1002B800930B8A68CB6808684968FFF749FF0BF118
:1002C800060E33E083EA134480EA134582EA1347B3
:1002D80046BA96EA3444604000F00F1684EA0634C1
:1002E80020F00F1684EA161054BA94EA01067240F8
:1002F80002F00F1486EA043622F00F1486EA14126C
:100308004CBA6540694001F00F1485EA043521F0C4
:100318000F1485EA14115CBA67407B4003F00F1490
:1003280087EA043723F00F1487EA1413BCE8F000B7
:100338006040694072407B4000F0E03400F01035C6
:1003480000F00F3040EA540040EAC50080EA90040B
:1003580004F0332480EA8400604001F0E03401F0C6
:10036800103501F00F3141EA540141EAC50181EA33
:10037800910404F0332481EA8401614002F0E034FE
:1003880002F0103502F00F3242EA540242EAC50286
:1003980082EA920404F0332482EA8402624003F081
:1003A800E03403F0103503F00F3343EA540343EA13
:1003B800C50383EA930404F0332483EA8403634087
:1003C80081EA324787EA134581EA354690EA06040E
:1003D80084EA034B82EA1B4280EA044484EA054427
:1003E80083EA144A85EA14448BEA044B84EA3744C6
:1003F80081EA0B4181EA164104EA0A00454082EA93
:1004080004082BEA080041408AEA0B0602EA0600C3
:1004180084EA34438AEA3A4603EA060778404540C4
:10042800414088EA38478BEA3B4007EA000985EAF9
:10043800090583EA0709464006EA0906714085EA84
:10044800010005EA3546464006EA314181EA304175
:1004580081EA364606EA304686EA3546344008EAF6
:10046800010886EA01052A4086EA364003405A40D8
:1004780081EA31431F407C4080EA030709EA070903
:1004880088EA0908544088EA020806EA0A0601EAE6
:100498000B018AEA0B0215408AEA3A4210404540AD
:1004A8008BEA3B4003405E404240174079404D4054
:1004B8004E40E443F64386EA18435D4085EA05402A
:1004C80083EA134386EA034183EA384284EA114304
:1004D80083EA04435FEA3343BEF1010E3FF6F2AE0E
:1004E8001ED4BCE8F0006040694072407B4020BCEC
:1004F800FFF784FE28606960AA60EB60BDE8F08FB2
:100508002DE9E0414FF2F00280EA1031114080EA13
:100518000130484041088208C3084FF0000E4FE7F9
:1005280000F0113001F0113102F0113203F01133F3
:1005380040EA410040EA820040EAC3004FF2F0027C
:1005480080EA1031114080EA01304840BDE8E0817E
:100558002DE9F04F02F11C050646074600EB850819
:1005680051F8040B043A46F8040BF9D14FF0010C8A
:10057800FFF7C6FF5FEA302080EA0C001ECF41403B
:100588004A4053405C401EC62000464517D04FEAFB
:100598004C0C1CF4807F18BFACF1E50C2C2DE7D077
:1005A8003C2D06D1FFF7ACFF06CF41404A4006C6B6
:1005B800100006CF41404A4006C61000D8E736E989
:1005C8000F00FFF7C5FD043D86E80F00F7D1BDE831
:1005D800F08F00BF2DE9F14F03F11C0402EB840CEE
:1005E8004FEA930B8A68CB6808684968FFF7B0FD43
:1005F8003CE9F0006040694072407B400BF1060E18
:100608004EE083EA134480EA134582EA134746BA68
:1006180096EA3444604000F00F1684EA063420F06D
:100628000F1684EA161054BA94EA0106724002F0D2
:100638000F1486EA043622F00F1486EA14124CBA14
:100648006540694001F00F1485EA043521F00F1464
:1006580085EA14115CBA67407B4003F00F1487EAFF
:10066800043723F00F1487EA141344BA44404DBAF0
:100678004D4056BA56405FBA5F4087EA174886EA47
:10068800174B84EA17464FEA38488BEA1B4485EA39
:100698001B4788EA1B4580EA3440694072407B402A
:1006A80000F0703400F0803500F00F3040EA44006C
:1006B80040EAD50080EA900404F0332480EA8400FC
:1006C800604001F0703401F0803501F00F3141EAEB
:1006D800440141EAD50181EA910404F0332481EA16
:1006E8008401614002F0703402F0803502F00F326C
:1006F80042EA440242EAD50282EA920404F0332430
:1007080082EA8402624003F0703403F0803503F01B
:100718000F3343EA440343EAD50383EA930404F01E
:10072800332483EA84036340C943DB4381EA00043A
:1007380083EA044686EA020183EA014382EA3345F2
:1007480083EA14435C4084EA00077FEA040A8AEAE1
:10075800024A8AEA010B87EA11488AEA374A80EA9C
:10076800060181EA1A418AEA030A04EA0A004540B6
:1007780088EA040707EA0B0041408AEA0B0608EA00
:10078800060084EA34428AEA3A4602EA06035840F6
:100798004540414087EA37438BEA3B4003EA00097A
:1007A80085EA090582EA0309464006EA0906714016
:1007B80085EA010005EA3546464006EA314181EA04
:1007C800304181EA364606EA304686EA3546344004
:1007D8000F4086EA010508EA050886EA3640024025
:1007E80088EA020881EA314213405C4080EA020349
:1007F80009EA030987EA0907674088EA040806EA5C
:100808000A0601EA0B018AEA0B0425408AEA3A44FF
:10081800204045408BEA3B4B02EA0B02564084EAF3
:100828000B04234059406E40694087EA364080EA0D
:10083800384080EA060380EA104481EA134585EAD5
:10084800344585EA17427D4082EA354180EA054011
:100858003CE9F0006040694072407B40BEF1010E07
:100868003FF6CFAE20BCFFF7C9FC28606960AA60DC
:10087800EB60BDE8F08F00BFFFF76ABE2DE9F00717
:1008880091E8F807B2E802105B1854EB0C04B2E8E0
:1008980002104D4156EB0C06B2E802104F4158EBDE
:1008A8000C08B2E8021059EB01095AEB0C0A80E86F
:1008B800F80780410130BDE8F00770472DE9F007DF
:1008C80091E8F807B2E802105B1A74EB0C04B2E87E
:1008D80002108D4176EB0C06B2E802108F4178EBDE
:1008E8000C08B2E8021079EB01097AEB0C0A80E8EF
:1008F800F80780414042BDE8F00770472DE9F0074E
:10090800524290E87800B1E880071740DB1918EAEE
:10091800020854EB080419EA020955EB09051AEA1A
:10092800020A56EB0A0678C090E87800B1E880071A
:1009380017407B4118EA020854EB080419EA020937
:1009480055EB09051AEA020A56EB0A0678C08041F7
:100958000130BDE8F00770472DE9F007524290E8F2
:100968007800B1E880071740DB1B18EA020874EB2F
:10097800080419EA020975EB09051AEA020A76EB76
:100988000A0678C090E87800B1E880071740BB41B4
:1009980018EA020874EB080419EA020975EB09055C
:1009A8001AEA020A76EB0A0678C080414042BDE89E
:1009B800F00770472DE9F00152424FF0040890E823
:1009C800300091E8C000A31B1340E41AF618EB1B93
:1009D8001340ED1AFF1830C0C0C1B8F10108EED1BC
:1009E800BDE8F001704700BF00B592E8DC072DE9CB
:1009F800DC07B1E8805702B4A7FB02510A95A8FBAF
:100A0800020BE7FB6310E9FB62B00B91A8FB0351F3
:100A1800EAFB6201E7FB64B5E7FB6605E8FB6615E0
:100A2800CDF830B0A9FB03B6EAFB6316ECFB6356BE
:100A3800E8FB640BE9FB641BEAFB645BECFB646B9F
:100A48000D90ACFB0230059CEEFB6250E9FB646044
:100A5800EAFB64B0E7FB6431E8FB6451069CE8FB01
:100A68006461E9FB64B1EAFB64010E93A7FB0432FD
:100A7800079CE7FB6462E8FB64B2E9FB6402EAFBFB
:100A88006412049CE9FB6453EAFB6463089CE7FB7B
:100A980064B3E8FB6403E9FB6413EAFB64230F9582
:100AA8005DF8049B99E80006DDF80080A9FB08546E
:100AB800EAFB68B4DDF81080ECFB6804EEFB681410
:100AC800E9FB6824EAFB6834DDF80480EEFB68651E
:100AD800E9FB68B5EAFB6805DDF81480ECFB6815EE
:100AE800EEFB6825E9FB6835EAFB68450F96DDF8FB
:100AF8000880AEFB0876E9FB6806EAFB6816DDF8B5
:100B08001880ECFB6826EEFB6836E9FB6846EAFBD2
:100B18006856DDF80C80ECFB68B7EEFB6807E9FB6C
:100B28006817EAFB6827DDF81C80ECFB6837EEFBEA
:100B38006847E9FB6857EAFB686708B000BD00BF73
:100B48002DE9F14F87B0FFF74FFFDDF81C8008F162
:100B5800200888E8FF00FFBC87E87F08BDE8F08F21
:100B680000B591E89857A3FB03520195A3FB040134
:100B7800E3FB6420E3FB67100292A3FB0752E3FB4D
:100B88006802E4FB6415E3FB6805E3FB6925039150
:100B9800A4FB07B6E3FB6926E3FB6A56E4FB670B95
:100BA800E4FB682BE3FB6A5BE3FB6C6B0490A4FB40
:100BB8000810E4FB6950E3FB6C60E3FB6EB0E7FBF5
:100BC8006721E4FB6951E4FB6A61E3FB6EB1E4FB76
:100BD8006E010592A7FB0832E4FB6A62E4FB6CB283
:100BE800E4FB6E02E7FB6E12E7FB6853E7FB696301
:100BF800E4FB6CB3E7FB6C03E7FB6E13E8FB6E23C7
:100C08000695A7FB0954E7FB6AB4E7FB6C04E8FB0D
:100C18006C14E8FB6E24E9FB6E34E8FB6865E7FBBF
:100C28006AB5E8FB6A05E8FB6C15E9FB6C25E9FB8E
:100C38006E35EAFB6E450796A8FB0976E8FB6A065F
:100C4800E9FB6A16E9FB6C26EAFB6C36EAFB6E46A2
:100C5800ECFB6E56E8FB69B7E9FB6907E9FB6A1725
:100C6800EAFB6A27EAFB6C37ECFB6C47ECFB6E5738
:100C7800EEFB6E6700BD00BF2DE9F14F87B0FFF7AF
:100C88006FFFDDF81C8008F1200888E8FF00FFBC32
:100C980087E87F08BDE8F08F30B44FF0000310F804
:100CA800014B11F8015B013A84EA050443EA0403A5
:100CB800F5D1A3F101034FEAD37030BC704700BFF0
:100CC8004FF0000310F8012B013943EA0203F9D170
:100CD800A3F101034FEAD370704700BF30B411F895
:100CE800014B12F8015B6C4000F8014B013BF6D157
:100CF80030BC70472DE9F00791E8F807B2E8021018
:100D08005B1854EB0C04B2E802104D4156EB0C068C
:100D1800B2E802104F4158EB0C08B2E8021059EB48
:100D280001095AEB0C0A8941B3F1FF3374F1FF341E
:100D380075F1FF3576F1000677F1000778F10008C4
:100D480079F101097AF1FF3A51F100015B184C4140
:100D58004D4156F1000657F1000758F1000859EBCC
:100D6800D1795AEB010A80E8F807BDE8F007704727
:100D78002DE9F00791E8F807B2E802105B1A74EB66
:100D88000C04B2E802108D4176EB0C06B2E80210B2
:100D98008F4178EB0C08B2E8021079EB01097AEB85
:100DA8000C0A89415B184C414D4156F1000657F138
:100DB800000758F1000859EBD1795AEB010A80E88D
:100DC800F807BDE8F007704718EB040859EB050968
:100DD8005AEB060A5BEB070B5FF0000C4CF1000CBA
:100DE80018EB050859EB06095AEB070A5BEB070BEA
:100DF80050EB0C005FF0000C51EB0C0152EB0C02B5
:100E080063414CF1000CB8EB070879F100097AF15D
:100E1800000A7BEB040BA841B141A241B3416CF13C
:100E2800000CBBEB050BB041B941AA41BB416CF1C9
:100E3800000C4CF001068CF0020718EB060859EB81
:100E48006C095AEB6C0A7BEB6C0B70EB6C0471EB66
:100E58006C0572EB670653EB6C076CEB6C0C18EBCC
:100E68000C0059EB0C015AEB0C025BF1000354F136
:100E7800000455F1000556EBDC7657EB0C0770477C
:100E88002DE9F14F87B0FFF7AFFDDDF81080DDF8F1
:100E98001490DDF818A0FFF797FFBDE8000FFFF7E3
:100EA80093FF03B05DF8048B88E8FF00BDE8F08F7E
:100EB8002DE9F14F87B0FFF753FEDDF81080DDF81C
:100EC8001490DDF818A0FFF77FFFBDE8000FFFF7CB
:100ED8007BFF03B05DF8048B88E8FF00BDE8F08F66
:100EE80010F8012B11F8013B012A28BF9A42F7D0CC
:100EF800D01A7047034611F8012B03F8012B002A7A
:100F0800F9D17047034613F8012B002AFBD1181AB0
:100F18000138704700000000F7B5002240F6034092
:100F2800114603F0BDFC0446002840F0928003F00F
:100F3800ABFB214641F2030001AA03F0B1FC0446D1
:100F4800002840F08680019A434DD16805F12C03B2
:100F5800D1F80100D1F8051003C3104602F0B2FE23
:100F6800214641F2010001AA03F09AFC0446002838
:100F78006FD10198C3685A7885F824205A88EA8482
:100F88001A7985F82520B3F807202A85B3F80530A3
:100F98006B8502F097FE214641F2020001AA03F098
:100FA8007FFC0446002854D1019F05F13406FA68F5
:100FB800531C4132344618685968083303C49342B5
:100FC8002646F7D1384602F07DFE14F007FF0446A6
:100FD80000283ED195F83E309E0634D54FF0FF30BC
:100FE8004FF0FF3103F070FB0646002800F0DB816C
:100FF80007210C3013F056FF452303700A23C0F86D
:1010080002408471447004712246C370314640F630
:10101800334003F045FC0446D8B94FF0FF304FF099
:10102800FF3103F051FB0646002800F0BC81012186
:101038000C3013F046FF2246314640F6314003F0AB
:101048002FFC044628B995F83030580606D46FF0BE
:101058001204204603B0F0BD90000020002142F2A7
:10106800030001AA03F01CFC04460028F1D1019BEF
:10107800BF4EDA68D2F80100D2F8051003C6184648
:1010880002F020FE214642F2020001AA03F008FC09
:1010980004460028DDD1019CE368B3F8012091B231
:1010A80049B1D97839B1A5F8B420DA78114606F1F2
:1010B800200019F0BDF9204602F004FE002142F29A
:1010C8003A0001AA03F0ECFB0446002840F03C81FA
:1010D8000198C368B3F80130A5F8C83002F0F2FDF2
:1010E80095F8306016F0200619D14FF0FF304FF018
:1010F800FF3103F0E9FA0446002800F05481022188
:101108000C3013F0CFFE012321460370467032469F
:1011180040F66D4003F0C4FB0446002899D195F8C9
:1011280050301A0712D5002142F21C0001AA03F020
:10113800B7FB044600288CD10198C368D3F8012076
:10114800D3F80530C5E9262302F0BCFD95F89030A8
:101158009B0626D568460DF1020114F067FA04468D
:1011680000287FF476AF4FF0FF304FF0FF3103F0E7
:10117800ABFA0646002800F0168104210C3013F063
:1011880091FEBDF8003022460380BDF8023031469A
:10119800438042F2240003F083FB044600287FF4D6
:1011A80058AF95F890305F0610D5002142F22A001A
:1011B80001AA03F075FB044600287FF44AAF0198A2
:1011C800C3685B7885F8CA3002F07CFD4FF0FF30C9
:1011D8004FF0FF3103F078FA0446002800F0E3806E
:1011E80008210C3013F05EFE95F890100246614815
:1011F80011F0020F604B08BF034695F891008E0668
:1012080048BF43F0400310F0090F18BF43F40063D0
:1012180001F0010143EA0110002114F0E6F821462B
:10122800002242F2010003F03BFB044600287FF451
:1012380010AF95F83030B5F8B410980600F18B80EF
:10124800C9B941F2050001AA03F02AFB04460028A7
:101258007FF4FFAEB5F8B430019C4BB9E368B3F83E
:101268000120A5F8B4209A884448114619F0E0F8FE
:10127800204602F027FD4FF0FF304FF0FF3103F01A
:1012880023FA0446002800F08E8008210C3013F061
:1012980009FE95F890300246D90761D44FF0005105
:1012A800374814F0A2F82146002240F6014003F026
:1012B800F7FA044600287FF4CCAE014601AA4FF69F
:1012C800014003F0EDFA044620BB019802F0FAFC55
:1012D80021464FF6024001AA03F0E2FA0446C8B9D3
:1012E8000198C368B3F80130A5F8753002F0EAFC3C
:1012F80095F875305A070DD521464FF6034001AAD7
:1013080003F0CEFA30B90198C3685B7885F8743079
:1013180002F0D8FCEB79002B36D114F020FC0446FF
:1013280000287FF496AE05F065FD044600287FF49A
:1013380090AEEB79002B3FF48CAE0821114813F0E6
:101348009AFF03F005FA84E6411D7FF482AE1F235D
:10135800A5F8C830C4E600298DD16FF0040478E6FA
:1013680001A1D1E900019CE79088000200800020DB
:10137800200100200E1207002E120700480100204D
:1013880010880002180100202E78002EC5D195F88B
:1013980075309B061ED54FF0FF304FF0FF3103F03C
:1013A80093F9044610B96FF0680452E606210C3030
:1013B80013F078FDD5F8013021460360074B32461B
:1013C8009B8883804FF6064003F06AFA044600289B
:1013D800A3D03EE66FF085043BE600BF91000020F5
:1013E8004A780248097812F02EB800BF94C8010064
:1013F800014812F028B800BFB0C8010008B5054878
:1014080012F021F84FF05023D3F80024C3F8002439
:1014180012F026F812C9010010B50020054903F0A2
:10142800C1FF044618B10146034812F00CF82046E3
:1014380010BD00BF6C28002020C9010010B5094B61
:101448001B686BB9084811F0FEFF084811F0FBFF54
:10145800BDE810404FF40042002305480CF014BDCD
:1014680010BD00BFE816002047C9010060C901008F
:101478006000002008B510B1012810D008BD4FF455
:10148800A02200230A480CF0FFFC00220023094890
:101498000CF0FAFC0848BDE8084011F0D4BF054834
:1014A80019F0A7F8024819F0A4F80448F3E700BFB8
:1014B800000000203000002077C901008DC901001C
:1014C80010B50A4C236883B1094819F092F8094805
:1014D80011F0B9FF1321206814F04BFD014620B12B
:1014E800BDE81040044811F0AEBF10BDE81600205A
:1014F80030000020A4C90100D2C901000840C20779
:1015080008B510D50F4819F074F800F09DFA014697
:1015180020B10D48BDE8084011F095BF0B48BDE863
:10152800084011F090BF83070AD5064819F061F802
:1015380000F0B8FA014608B10548EBE70548EEE7C0
:1015480008BD00BF6000002000CA010032CA0100C7
:1015580053CA010089CA0100044BD3E8EF1F0131C7
:10156800C3E8E21F002AF8D1704700BFE00200205C
:1015780070B504460F4DD5E8AF3F53B90E4811F08A
:1015880062FF2046BDE870404FF4804200230CF013
:10159800AFBC002000F0F4F9014618B1074811F07B
:1015A80052FFEEE7D5E8EF3F013BC5E8E23F002AEE
:1015B800E7D0F7E7E0020020AECA0100E0CA010068
:1015C8000D4A10B50D4811F03EFF03220C4BD3E82D
:1015D800EF1FC3E8E02F0028F9D10A4819F009F8ED
:1015E8000022094B09481A60BDE810404FF4004238
:1015F80000230CF049BC00BFF3D3010012CB01005B
:10160800E002002030000020E816002060000020E2
:1016180070B503788AB004460E4607AD032B20D870
:10162800DFE803F002191B1D11492846FFF762FC89
:10163800059563781E210493A37830460393E378D5
:101648000C4A02932379019363790093A37911F0EB
:10165800C3F90AB070BD0849E7E70849E5E7084952
:10166800E3E70A212846074A11F0B6F9E0E700BF88
:1016780032CB01005BCB010039CB010040CB01002C
:101688004ACB010054CB010030B515468BB00C464F
:1016980014F012FD02A9FFF7BBFF35B9224607482F
:1016A80002A911F0D0FE0BB030BD054B22460093C5
:1016B80004482B4602A911F0C6FEF4E77ECB0100D0
:1016C800F3D301009DCB010000B589B031B10A4ABE
:1016D8000A4809B05DF804EB11F0B5BE084A10607D
:1016E80014F0EAFC6946FFF793FF6946054811F0D4
:1016F800AAFE09B05DF804FBF3D30100C5CB0100D5
:10170800E8160020E7CB010000B589B014F0D4FC3E
:101718006946FFF77DFF6946024811F094FE09B05B
:101728005DF804FBF5CB010010B50C4688B014F049
:10173800C3FC6946FFF76CFF22466946044B05481F
:1017480011F081FE04480CF0F9FA08B010BD00BF92
:10175800F3D301000CCC0100E402002010B50C46C4
:1017680088B014F0A9FC6946FFF752FF2246694683
:10177800034811F068FE03480CF0E0FA08B010BD09
:1017880033CC0100E402002030B50B780446012B6D
:101798000D4693B027D1194811F055FE6B782BB13F
:1017A800174813B0BDE8304011F04DBE08A92046D7
:1017B80005F0D8F9014618B1124811F044FE12E0BC
:1017C8000B9D07222846104919F0D0FF024660B148
:1017D80069462846FFF71CFF0C48694611F033FE9E
:1017E800204614F09FFC13B030BD0949204603F091
:1017F800FFFD01460028F6D00648DEE756CC01007A
:101808006FCC010088CC01006C280020AACC010014
:1018180073280020CDCC0100002307B53048CDE95E
:10182800003311F010FE2F4809F028FE014630B1B0
:101838002D4811F008FE002003B05DF804FB68464F
:1018480001A909F00BFE4FF05023D3F800148806C5
:1018580003D5264811F0F7FD0BE00A0701D5244807
:10186800F8E7CB0701D52348F4E751B1224811F036
:10187800EAFD0021214800F0ABF8014618B12048E4
:10188800D7E72048E6E703F0ADF8014608B11E485F
:10189800CFE713F0E3F8014608B11C48C9E71C4834
:1018A80005F088FA014608B11A48C2E71A4805F057
:1018B80065FA014608B11948BBE7194800F0A2F8D3
:1018C800014608B11748B4E7FFF7A6FD014608B17D
:1018D8001548AEE7DDE90001FFF710FEFFF78EFDC2
:1018E800F7CC01000515000022CD010049CD01000B
:1018F80073CD010094CD0100AACD01003CBF0100C9
:10190800E5CD0100D5CD010017CE010037CE01008D
:10191800D002002059CE010044BF010093CE01003F
:1019280038BF0100C8CE0100F3CE0100054B0846C0
:101938001B685B682BB1044A013818BF0120116885
:1019480018477047F0160020EC160020034B1B6860
:101958001B6813B1024A116818477047F016002037
:10196800EC1600201FB514240294044C0194BDF811
:101978001840009415F094FC04B010BD9328002082
:1019880010B586B0002104461822684619F0DFFE1B
:101998000C4B0D4902931423ADF80C300B4B0191FD
:1019A80004932CB96946204607F07EF906B010BDAD
:1019B8000122204615F075FD0028F3D16FF01500BF
:1019C800F4E700BF9328002084BF010055190000E8
:1019D800054A0346106818B91360044B196070472C
:1019E8006FF07700704700BFF0160020EC1600205B
:1019F800034B1B6813B11B6803B11847704700BF3E
:101A0800F416002010B578B103686BB1094C23783F
:101A18006BB9094B094A186009490A4804F040F8AB
:101A280008B90123237010BD6FF01500FBE76FF0B4
:101A38007700F8E7A7280020F4160020F816002001
:101A4800ACBF0100CCBF01001FB5124B1B78EBB136
:101A580040F6B833ADF80C3000230F4C8DF80E303B
:101A6800206814F03CF90D49206814F016F958B9AB
:101A78000090034602220A49206814F05BF918B95D
:101A8800206803A904F03EF804B010BD6FF01500FB
:101A9800FAE700BFA7280020F8160020CCBF0100F5
:101AA800F0BF01001FB5124B1B78EBB141F2707308
:101AB800ADF80C3000230F4C8DF80E30206814F070
:101AC8000EF90D49206814F0E8F858B9009003465B
:101AD80002220A49206814F02DF918B9206803A9D0
:101AE80004F010F804B010BD6FF01500FAE700BF5D
:101AF800A7280020F8160020B8BF0100E0BF0100A9
:101B0800014B1B68184700BF1403002030B504467A
:101B180085B00D4610220021684619F018FE0223F0
:101B28008DF80230044B2A4621466846019310F08E
:101B3800E3FF05B030BD00BF091B000080B50546B6
:101B48000E46174698460CF035FD034601F0B8FDE1
:101B58000446DFF81890424649F8003039463046C6
:101B6800A84754F8090001F043FD00BF0800000031
:101B78002DE9F047058B0446280717460CD501299F
:101B88000CBF45F0100545F02005258387F3118823
:101B9800BFF36F8FBDE8F087022905F0070540F015
:101BA8009480204611F0DAFC052864D801A353F884
:101BB80020F000BF951B0000D31C00007F1C000014
:101BC800411C00005B1C00006D1C000001F00703B5
:101BD8005A1F012A1FD8002221F00701062BD4F82A
:101BE800008089B2C4E9002209D1434603E0628B30
:101BF800013262831B68002BF9D141F002012046B3
:101C0800218311F0ABFC4FF0000900286DD041F0A2
:101C18002001218369E0042B0AD121F0070189B250
:101C28002046218311F09AFC10B141F02001218354
:101C38004FF00008C14658E02369D3F80090238B81
:101C480023F0070343F006034FF0000823834646BA
:101C58004BE02369D3F80490238B23F0070343F068
:101C68000403F1E72369D3F80890238B23F00703D3
:101C780043F00503E8E74FF00008C146E7E7012213
:101C880043F00803238387F31188BFF36F8F002A7B
:101C98003BD1B8F1000F4AD1B9F1000F02D020466C
:101CA8002C49C847EFF31187402383F31288BFF309
:101CB8006F8F238B23F008039BB22383D9063FD56C
:101CC80023F01002228303F007056669218B002E9A
:101CD800BFF67CAF00239946D4F8008021F00701B5
:101CE800C4E9003341F001012183238B03F0070A83
:101CF800AA4502D0A268002AC1D1B8F1000F02D1CA
:101D0800B9F1000FDAD00022BAE7A1680029C0D0E3
:101D18000D680029BDD03346524620464F68B84763
:101D28001DB12B6829461D46F3E72B46FAE74146C5
:101D3800334652462046D8F8008011F03BFCA8E70D
:101D48009A067FF523AF23F02002228303F00705CC
:101D580027E700BFE9350100034A13680BB9526849
:101D680013600020704700BF1803002030B50C46F0
:101D78000E4985B00291D0F8CC110546CDE9003165
:101D880000F1F0014FF0FF3320460BF003F950B992
:101D9800012384F86C30D5F8C83123B1204605B04A
:101DA800BDE83040184705B030BD00BFCF3901004D
:101DB8002DE9F04F012381460569466891B005F584
:101DC8006977D7E8EF2F002A03D1C7E8E13F002958
:101DD800F7D10CBF1A46002240F0BE80B368B16A42
:101DE80005F5F4781C1F104611F03DFE84427CD89E
:101DF800013A00F0AB80B2FA82F24FF00044D440CE
:101E080072682046073222F00302C5F83422B16A0C
:101E180011F029FEC5F83802B36A4046634303331C
:101E280023F0030302EB4302230103EB44030933CA
:101E380023F0030303EBC403C5F82C221A44083229
:101E4800C5F828227368C5F83042C5F82432444BD7
:101E5800C5E9AB63316800F039FA0446002842D17D
:101E6800D9F810B0D9F804A0D9F800300BF53274BD
:101E7800CDE9060005932046DAE90739012B08BFAA
:101E8800A9F1100918F0A3FBDAF82400354905ABCD
:101E9800009301EB80214B4620464FF480620BF003
:101EA80053FF2021DAF824302F4A0DEB010010F0FF
:101EB80093FD204608A90CF089F82C490BF52E70E3
:101EC80018F03EFBDAE9050183685C684CB15B46B3
:101ED800274AA047044630B9DAE9050183681B6937
:101EE8002BB96FF05704002129E001327BE701226A
:101EF800984704460028F6D11E4B2846C5F8C83135
:101F08001D4BC5F8CC311D4B0393D5F838320293DD
:101F1800D5F83432CDE9008305F50F73B26AD5F8E8
:101F2800A01300F09BF904460028DCD105F1F0006D
:101F38000BF0D6F80028C5F8A8030ADB02213846BA
:101F480011F079FD204611B0BDE8F08F6FF00B0459
:101F5800C9E76FF01504C6E76FF07704F2E700BF32
:101F6800293A0100582B002034CF01000F3A010014
:101F7800033A010005200000453B0100891F0000CD
:101F88002DE9F04190460C4699B30B788BB3D0F805
:101F9800BC50A5F5DE7614354FF0FF324FF0FF3315
:101FA80028460BF00BFC2146304611F00EFD074683
:101FB800A0B93046104911F008FD064620B9284658
:101FC800BDE8F04111F035BD1F222146483019F017
:101FD800EFFB86F86770C6F86880F0E7284611F0CE
:101FE80028FD4346224639463046BDE8F041FFF712
:101FF800BDBEBDE8F08100BFF3D3010013B50446B0
:1020080040B100230122CDE90032074BD0E9091283
:102018000AF094FF236F1B6823B1606F02B0BDE81C
:102028001040184702B010BDF3D3010013B50446A1
:102038000846216901F56971D1E8AF1F022910D15D
:1020480093B1A0B10121CDE900311346D0E90912BD
:102058000AF074FF074B984208BF6FF00B0002B0FC
:1020680010BD6FF00F00FAE76FF04C00F7E76FF064
:102078000100F4E72EF8FFFF2DE9F84389461546DD
:10208800066906F56973D3E8AF3F022B66D113687A
:10209800EBB11B78DBB1D6F8A073002F3FD106F562
:1020A800E8784FF0FF324FF0FF3340460BF086FBE5
:1020B8003046296811F089FC044660B93046294940
:1020C80011F083FC044638B9404611F0B2FC6FF0B9
:1020D8001500BDE8F883012705F108032367AB69FC
:1020E80064646367002384F86C3067B1404611F07C
:1020F800A0FC21463046A36E2A68FFF737FE002071
:10210800C9F80040E5E71F22296804F1480019F0E2
:102118004FFB404684F8677011F08BFCEFE73046C0
:10212800104911F052FC04460028D0D0002705F1D0
:1021380008030367AB6980F86C70436740641F222B
:102148002968483019F034FB22460121304684F8CA
:10215800677000F065F80028D1D0B8E76FF00F007D
:10216800B7E700BFF3D3010010B50C46006900F5CE
:102178006973D3E8AF3F022B0FD189B10A4900F543
:102188002E7018F009FA204617F028FD7822002151
:10219800204619F0DCFA002010BD6FF00F00FBE7B5
:1021A8006FF00100F8E700BFFC1600202DE9F04FA2
:1021B80005460E4690460027D0F8BCA085B0AAF583
:1021C800BA7421463046FEF78BFEE0B9134BA4F1F2
:1021D800480B0293DAF810303246CDE900832946DD
:1021E8004FF0FF335846AAF5DE790AF0D3FE88B9D6
:1021F8007823012203FB079383F86C20DAF80C306C
:102208000BB1584698477B1C022B4FF0010704F18D
:102218007804D6D105B0BDE8F08F00BF733B01004C
:102228001FB5144690B18AB1012912D10A4B00F1A9
:10223800F0010293D0F8CC31483201934FF0FF33CC
:10224800204600930AF0A6FE04B010BD6FF01500FA
:10225800FAE70020F8E700BF733B01002DE9F043DF
:1022680087B00E46DDE90E811446DDE910251F46CC
:1022780030B329B3DFF850C000F1F009002D08BFD2
:1022880065469EB9CDE9034400F5DE7420460596FF
:1022980017F016FF03ABCDE900432A463B464146FB
:1022A80048460AF09BFF07B0BDE8F083002241468C
:1022B8000E9248462A4607B0BDE8F0430BF0E2B854
:1022C8006FF01500EFE700BFB5210000F0B5044638
:1022D80087B02B4A04AB0E4692E8030083E803005C
:1022E800002C49D018460AF02DFD0546B0B94FF02C
:1022F800FF33E16C04F15407A163CDE901000093B9
:102308003846236D04F1380217F029F9A06C11F052
:102318005BFCC4F8BC0020B96FF00B05284607B079
:10232800F0BDA06C11F050FCC4F8C0000028F3D038
:10233800236CD4F8BC10C4F890300423C4F894304B
:10234800C4F8AC300223E3620E4BB4F84820C4F85A
:102358008C10616C236204F18C03C4F8A070A4F89B
:102368009820C4F8B870C4F8A810A4F8B020C4F82D
:10237800A400A6612363D1E76FF01505CEE700BF7F
:10238800C0BE010030C0010037B504460821C06A4C
:1023980011F05FFD00234FF6FF72104DADF80430C9
:1023A8006368ADF800208DF80620E26819182B4004
:1023B8001344181A60606846ADF8021011F0A1FCC9
:1023C8006946204611F064FD2046211D11F073FC7A
:1023D80063682B40A36003B030BD00BF0000FFFF5F
:1023E8002DE9F7430F4681460821C06A11F031FDF7
:1023F80080463C68124D241A3C6004EA0506B44243
:102408001CD3A0B210B903B0BDE8F08308236A4614
:102418002146484611F016FC0028F4D16946A0B2BE
:1024280011F003FD38B1BDF80230BDF804202E408C
:1024380013441E443C60A4EB0804E0E70020E2E7F4
:102448000000FFFF2DE9F047044688B000F11407AB
:10245800384617F044FFA06A8368DB689847E06253
:1024680028B96FF01505284608B0BDE8F087A06ABE
:102478008368DB6898470368013B1F2BF1D8E36842
:10248800B3F5803FEDD8A06A216805AA16F056F882
:102498000028E6D1E568002DE3D0069BB5FBF3F2F2
:1024A80003FB1255002DDCD1238A012BD9D9E36A0D
:1024B800009593F805804FF0FF334FF0FF32384610
:1024C8000BF07CF90821E06A11F0C3FCA946064626
:1024D800238A1FFA85FA534544D8238A4B4500F0CE
:1024E800FF809A450BD10099082342462046891B54
:1024F80011F0B6FB18B96946204611F0DCFB6946B5
:102508002046FFF76DFF0546002840F0EB80009954
:102518004FEA11494FEA09496160C4F80890A36875
:102528008B420DD80823204601AA11F08BFBB8B9BD
:1025380001AB13F8012B904532D101300828F8D1AE
:10254800636869466FF30F032046009311F0B3FBED
:1025580042462046E368009911F082FB00283CDAE5
:102568000546BFE0E1682B04891B13FA81F1424656
:1025780008232046009111F073FB78B16946204684
:1025880011F099FB09F101090823424620460099F8
:102598001FFA89F911F064FB00289ED0013597E7EE
:1025A800A08801A911F041FC626810B9911B616013
:1025B800B5E7BDF808A0BDF80610E06AC4F80890B1
:1025C800514411F046FC48448242A060EED1BAF171
:1025D800000FEBD06FF01C0584E05DD04FF6FF795B
:1025E800636806EB0308E3681FFA88F29B1B9A42AC
:1025F800CDF800801CD34FF000086168B8F1000FD7
:1026080030D06FF30F0120460091694611F053FB5B
:102618002046009911F05CFB0028A1D1E368A2884C
:10262800A3EB46039A425DD1204611F04EFC97E792
:1026380008234146204603AA11F004FB00288FD145
:1026480003A91FFA88F011F0F0FB30B1BDF80C3087
:102658004B4502D1BDF810300BB1B044C3E74FF081
:102668000108CAE7204611F033FB00287FF478AF51
:102678006368214AE16813400B44A3EB4603636097
:10268800134041462046A36011F0A3FCC4E7E26A68
:10269800A36812681344A360D4E901318B4208D9B6
:1026A800424620465B1A11F0DBFA0028FFF658AFC5
:1026B800EDD16168E36801EB46029A42AED10E4B58
:1026C800A06801EA03029042A8D0204611F000FB5E
:1026D80000287FF445AF6268074B1A40A2609DE767
:1026E8006FF02C0538460BF0DBF8002D7FF4BBAEFD
:1026F8000123A374B7E600BF0000FFFF014B03608E
:10270800002070475CC00100024B187880F001007F
:10271800704700BF532B0020F8B5C5690646002D49
:102728005ED00521284611F041FF00285BD13046D4
:1027380011F0CAFE0446002857D10821F06911F0AB
:1027480035FFE0B1F569EFF31187402383F3128871
:10275800BFF36F8F297931B93046AB689847041EAB
:1027680007DB01232B712B6843F020032B60002328
:10277800EB6087F31188BFF36F8F2046F8BDFFF732
:10278800C3FF38B94FF0FF324FF0FF3305F118009F
:1027980011F012FF6B692BB915496E6105F138000C
:1027A80017F01BFF2979C9B9AB6868699847041EF7
:1027B8000BDB01232B710023EB60D5E8EF3F43F0DF
:1027C8002003C5E8E23F002AF7D1FFF79DFF002864
:1027D800D3D105F1180011F0F1FECEE70024EAE7A5
:1027E8006FF08504C9E70024C7E76FF00F04C4E75A
:1027F800C748010070B5104B0D461C68B4B10F4BAB
:10280800196800238B4202DB6FF0010070BD22467D
:1028180012F8106B864202D014460133F2E7E068E2
:1028280017F0A9FC28B100202C60EFE76FF00C002E
:10283800ECE76FF01200E9E7440300205CC00100F8
:1028480010B5436888B0029383680C46CDE903321B
:1028580000230A68C068CDE90623054901AA059343
:1028680015F070FE079808B9059B236008B010BDE5
:102878008749010010B54FF42814DFF820C086B04E
:10288800CDE904C40824029404AC0194BDF82040A6
:10289800009414F005FD06B010BD00BF1800280014
:1028A8002DE9F0410C4B05461C680E4617467CB1D5
:1028B80000F018F963682046D3F8108032463B468A
:1028C8002946C047044600F017F92046BDE8F081C4
:1028D8006FF00104F9E700BF1C1700200023036014
:1028E800044B5A6812B9C3E9000070471060586079
:1028F800704700BF20170020014B1860704700BFC9
:102908001C170020002330B585B0CDE902330546F9
:10291800019000F0E7F8094B1C6844B9284600F01C
:1029280083F8044600F0E8F8204605B030BD636837
:1029380020461B6801A998472468EEE72017002065
:102948001FB5CDE90101039200F0CCF8074B1C68D4
:1029580024B900F0D1F8204604B010BD63682046C1
:102968001B6801A998472468F2E700BF20170020D8
:102978000022024BC3E90022704700BF2017002045
:102988000022024BC3E90022FFF7F2BF28170020FC
:102998002DE9F74307460C4609B100230B600026D2
:1029A8001E4DDFF87C904D450FD31E4B1D6885B337
:1029B80055F8188C3846414601AA183D12F055F8CA
:1029C80010B3D6B914BB2E461EE0D5F800803846A1
:1029D800414601AA12F049F850B116B954B92E4629
:1029E80006E000224046316812F03FF80028F5D191
:1029F8001835D8E7019B2360F1E70022404631688B
:102A080012F033F80028DDD1AD69D0E7019B2360CF
:102A1800D9E7304603B0BDE8F08300BF30BE0100FF
:102A2800C0BE0100281700202DE9F04780464FF06E
:102A380000470026DFF8A090DFF8A0A03D46284C0C
:102A48004C450DD3DAF80040002C40D0183CB8F1C2
:102A5800000F24D1226952BBA469F5E72F46EDE7A0
:102A6800B8F1000F03D122694AB91834E8E7002207
:102A78004146206811F0F9FF0028F4D1F5E76368B2
:102A8800BB4206DDAF4202D0AB42A8BF2B461D4673
:102A9800EBE7EAD19047002E08BF0646E5E700229B
:102AA8004146206811F0E1FF0028D3D1D4E76368DC
:102AB800BB4206DDAF4202D0AB42A8BF2B461D4643
:102AC800CAE7C9D19047002E08BF0646C4E7AF42FF
:102AD800C4D13046BDE8F087C0BE010028170020E9
:102AE80030BE01004FF0FF324FF0FF3301480AF0CB
:102AF80065BE00BFF407002001480AF0D1BE00BF40
:102B0800F407002038B5094DFFF7ECFF2B785BB9C7
:102B1800FFF736FF00F068F8044608B901232B7068
:102B2800FFF7EAFF204638BD0024F9E7A82800206F
:102B38002DE9F04306460F46048F99B00134A4B23C
:102B480000F10808651EADB2B5F5004F47D04A231D
:102B5800294605AA404611F0B0FC04F57F543F34DD
:102B6800A4B281462146012340460DF10B0211F023
:102B7800A4FCB9F1000F014610DC002810DC338FEB
:102B8800AB4209D132466B1E22F8383F4FF4004160
:102B98000223404611F05CFB2C46D3E7002808DCF2
:102BA8002946404611F030FC2146404611F02CFCE5
:102BB800E5E709F160030DEB03090023094A09F869
:102BC8004C3C05A8009703ABCDF80C80ADF810403D
:102BD80011F081FF0028DFD019B0BDE8F083002094
:102BE800FAE700BF4D4B01007FB50123694603207A
:102BF8000193FFF7FFFD044660BB032002AA01A969
:102C080011F0DFFE044610B110F10C0F22D1039928
:102C1800B1F5803F23D200231846009A94680844EF
:102C280084421AD30133082BF9D10E4D69612B83E5
:102C380053682846AB60D368EB6312F019F8044672
:102C480040B9094E28466E60FFF748FE28466E6078
:102C5800FFF752FE204604B070BD9BB2E5E76FF067
:102C68002004F7E7301700202CC1010008B50448FC
:102C780010F0E9FB034810F0E6FB002008BD00BF98
:102C880040CF010075CF010001480DF03FBF00BFE4
:102C980048C1010038B5044618B90F4B0F485B68A6
:102CA80098476168B1F5683F10D0B1F5680F0DD04D
:102CB8000B4DA9420AD011F46861206807D001467B
:102CC800084817F0C1FA00232360656038BD142254
:102CD80018F03DFDF9E700BF40060020A2CF010033
:102CE8002C5F5CA9701C002008B560B34368B3F57D
:102CF800683F0ED0B3F5680F18D0144A934220D01D
:102D080000684FF0FF324FF0FF330AF057FD58B11B
:102D180015E001220368D3E8EF1F002903D1C3E8B7
:102D2800E02F0028F7D10AD1002008BD0368084A1F
:102D38001B7803F5807352F82330002BF4D0054834
:102D4800F3E70548F1E76FF4E040EEE72C5F5CA994
:102D580000000350E98FFFFFEA8FFFFF08B520B39B
:102D68004368B3F5683F09D0B3F5680F13D0114A2B
:102D780093421DD000680AF093FD14E00022036816
:102D8800D3E8EF1F012903D1C3E8E02F0028F7D1CA
:102D980009D0094808BD00210368084A1B7803F5D3
:102DA800807342F823100020F4E76FF4E040F1E765
:102DB8000348EFE72C5F5CA9E98FFFFF0000035091
:102DC800EA8FFFFF10B5044618B91D4B1D485B6814
:102DD80098476368B3F5683F2FD0B3F5680F2CD0D8
:102DE800194A934219D1236803BB4FF0FF324FF0C1
:102DF800FF33214615480AF0B3FC08B923681BB90C
:102E08000F4B13485B68984714220021206818F07C
:102E18009EFC4FF46863636008E0B3F5680F0DD853
:102E28003A2B03D040F6BA629342DED1206817F0FD
:102E380056FA636843F03A03636010BD054AF3E746
:102E480040060020A2CF01002C5F5CA9701C002066
:102E5800C8CF01003A00003A08B5064940231422B9
:102E6800054817F0E4F9BDE80840044904480EF0A5
:102E7800DDB800BF70170020701C002050C1010091
:102E880064C1010008B50348034A0021121A11F071
:102E980025FF08BD60090020582B0020074808B509
:102EA800074A0849121A11F01BFFBDE808400648F6
:102EB800064A0749121A11F013BF00BF000000208C
:102EC8005C09002004D80100000000200000002058
:102ED80004D8010038B505460C4699B1D1E901235B
:102EE8000F48096810F0AFFAD4E90423E1680D48E7
:102EF80010F0A9FAE1690C4810F0A5FAA1690B488D
:102F080010F0A1FA012D05D1EFF305810848103919
:102F180010F099FA21462846BDE838400AF0C8BAA8
:102F2800F5CF010025D0010055D0010065D0010082
:102F380094D0010030BFFFF7FDBF00BF2DE9F0417D
:102F480005460B4EDFF82C80324606EB0807CC1BF3
:102F58002046094918F0D5FBA01942460021083C33
:102F680018F0F5FBC5F8AC4007F10800BDE8F081A2
:102F78000000000008000000C0BE010010B5204C91
:102F8800204810F060FAA36A990137D51E4810F05E
:102F98005AFA1E20A36ADA0103D51C4810F053FA26
:102FA8001F20174CA36ADB0203D5194810F04BFA0F
:102FB8000220A36A1C0303D5164810F044FA212006
:102FC8000F4CA36A590303D5134810F03CFA22208A
:102FD800A36A9A0303D5114810F035FA2320084C48
:102FE800A36ADB0303D50E4810F02DFA2420A36A48
:102FF8006FEA03436FEA1343A36210BD1D20C9E7BC
:1030080000ED00E0A8D00100C1D00100D5D001003A
:10301800F0D001001BD101003AD1010060D10100BC
:103028007BD1010070B5244C064624480D4610F0AB
:103038000AFAA36AD90435D5214810F004FA1720F2
:10304800A36A1A0503D51F4810F0FDF918201A4C79
:10305800A36A9B050FD51C4810F0F5F9A16BA36A6C
:10306800180407D5194810F0EEF91EB1A36A23F425
:103078000043A3621920104CA36A590503D51448CC
:1030880010F0E1F91A20A36ADA050DD5114810F0FD
:10309800DAF91B20084A936A43F47F4393620023BA
:1030A8002B7070BD1620CBE7A36A9B04F2D50A48A3
:1030B80010F0C9F91C20EDE700ED00E0A7D10100F0
:1030C800BED10100D0D10100E4D10100FED1010040
:1030D80014D2010030D2010049D2010070B5264C4B
:1030E800064626480D4610F0AEF9A36AD80640D524
:1030F800234810F0A8F91120A36A190703D521481D
:1031080010F0A1F912201C4CA36A9A070FD51E488B
:1031180010F099F9616BA36A1B0607D51B4810F0DC
:1031280092F91EB1A36A23F08003A3621320124C04
:10313800A36ADE0703D5164810F085F91420A36AA0
:103148009C0603D5134810F07EF915200A4B9A6A9D
:10315800D10658BF9A6A9A6A920642BF5A6A22F4FE
:1031680000525A629A6A42F0FF029A6200232B7058
:1031780070BD1020C0E700BF00ED00E079D201006B
:1031880090D20100D0D10100C4D20100DDD20100EB
:10319800F4D2010049D201002DE9F0415D4B04460B
:1031A8005F6800258AB0C7F3080685F31188BFF366
:1031B8006F8F02F07F43B3F17F4F06D102F00C030B
:1031C800082B13D1544810F03EF900252C464FF037
:1031D8000008F31E8DF80780092B00F28B80DFE8CA
:1031E80003F00A7F837B89898989898710074CBF07
:1031F8000C460125EBE74948464E10F024F98DF8B6
:103208000780F36A9A0704D5454810F01CF9002393
:103218002AE0F36A002B01DA4248F6E7F36A5B001A
:10322800F5D5414810F00FF97369A26943F480732A
:103238007361BFF34F8FBFF36F8F32F8023C72692F
:1032480022F480727261BFF34F8FBFF36F8F03F464
:103258007F42B2F55F4F27D1DBB2022B24D1216820
:10326800324810F0F0F823689DF80720CAB902AE7A
:1032780004F12007324620686168083403C2BC4262
:103288001646F7D1099A002D40D0C2F3080121B99A
:103298006FEA52226FEA42220992184602A9FFF702
:1032A80019FE0AB0BDE8F0811A4B9A6AD2B22AB167
:1032B80001200DF10701FFF711FF0FE09A6A12F4E0
:1032C8007F4F05D001200DF10701FFF7ABFE05E0A8
:1032D8009B6AB3F5803F9AD3FFF750FE0346C3E7D6
:1032E80000200DF10701E6E700200DF10701ECE7EA
:1032F8000F488AE70F4B17F4F87F0F490F4808BFAC
:103308001946A6F1100210F09EF880E76FF3080244
:10331800C2E700BF00ED00E042D301006ED3010018
:1033280086D30100A8D30100B7D30100D7D3010089
:10333800F4D3010014D3010029D3010019D40100EA
:10334800064B5A6942F010025A615A6942F4806287
:103358005A615A6922F008025A61704700ED00E08C
:10336800EFF30880EFF3098101B57246FFF714FF08
:1033780001BD00BF002080F31488BFF36F8F0020C9
:1033880080F30A8880F30B88104880F308880020AF
:103398000F49087008F0A8F900200E490860BFF32B
:1033A8004F8F00F02DF8402080F311880A484FF421
:1033B8000061401880F30988EFF314800221084364
:1033C80080F31488BFF36F8F00F0AAF8A04F002095
:1033D800532B002094ED00E0603E002000231846A7
:1033E8000649D1F89020C2F30722934200DB7047C8
:1033F800C1F89830C1F8A0000133F6E700ED00E00D
:1034080010B572B6002484F31388FFF7E7FF23464C
:103418004FF0FF300C4A03F120010133102B42F822
:103428002100F8D100234FF0FF30074A03F1600173
:103438000133102B42F82100F8D162B6BFF34F8F49
:10344800BFF36F8F10BD00BF00E100E01EF0040F56
:103458000CBFEFF30880EFF30980816911F8021CB3
:103468000229FFD001B5724611F03CFC01BD00BF36
:1034780040B2002807DB01234109034A00F01F007E
:10348800834042F82130704700E100E040B2002854
:103498000CDB01220649430900F01F00824020335B
:1034A80041F82320BFF34F8FBFF36F8F704700BFE2
:1034B80000E100E0054B420953F82220012300F007
:1034C8001F0003FA00F01040704700BF00E100E061
:1034D800D30748BF002140B258BF02310028ACBF13
:1034E80000F16040064A4FEA4113DBB2ABBF00F57A
:1034F800614000F00F0080F800331354704700BF9C
:1035080014ED00E0044B054A23F07F039360BFF3FA
:103518004F8FBFF36F8F70470000000000ED00E091
:1035280008B5FFF7EFFF074AD2F8883023F4700395
:10353800C2F88830FFF7A6FCFFF7B0FC00F0A2F84D
:103548000AF080F800ED00E042F8203C009B0B49AF
:1035580042F81C3C019B21F0010142F8183C029BF7
:1035680042F8081C42F8143C4FF0807342F8043CBF
:103578000023203A0265C0F8B0307047451B0000B0
:1035880000B50E4B15469860D0F8AC200C4B0E4693
:103598001A60D0F89C3083F30B882C4686F3098890
:1035A8000020044B98472046002100220023024CAB
:1035B800204700001B4D0100451B0000C8210020CA
:1035C8008C1C00201022014B1A61704700ED00E0AE
:1035D800054B5A699B689A421FBF044A536843F0D7
:1035E80080535360704700BFC821002000ED00E001
:1035F800084B9B6883420BD1EFF3058343B1064B1D
:103608005A6842F080525A605A6A22F400425A625A
:103618000AF0D6BFC821002000ED00E016498A68EC
:103628004FF030001044EFF3098C80E8F01F402081
:1036380080F31288BFF36F8F104F4FF000664A690E
:103648008A603E60D2F8AC000D4C2060D2F8B00021
:103658000023C2F8B03080F3118802F1300090E8FE
:10366800F01F8CF3098802F1000004B511F049FB42
:10367800BDE8044070470000C821002004ED00E0C8
:103688008C1C0020002340210348C2180133452B1D
:1036980082F80013F9D1704700E100E008B5EFF3B4
:1036A8000583064A103B02EBC30152F83300496810
:1036B8008847BDE80840FFF78BBF00BFB4BA0100D8
:1036C80001480068704700008C1C00201FB50121CC
:1036D800094B0A4A0A4800F0F7F80023064A039300
:1036E800084B0121019301A8D31A029300F0F6F8C0
:1036F80005B05DF804FB00BF0000072000000020B3
:1037080074C10100600900200A7A0B6810B562F3E1
:1037180004031C46CB68520923F01F0343EA420303
:10372800044A43F00103C2F89800C2F89C40C2F86A
:10373800A03010BD00ED00E010B5074BD3F8903075
:10374800C3F30723013B984202D8FFF7DDFF10BD02
:103758006FF01500FBE700BF00ED00E02DE9F04F2A
:103768000F46144606464FF000084B4D85B0B84545
:1037780080F28E80D6F80490B9F1000F35D0B9F1F7
:103788001F0F40F2838019F01F0F7FD1D6F800A0D9
:103798001AF01F0F7AD1504611F0F7FA834609EB59
:1037A8000A00013811F0F1FA83456FD11BF1160FA9
:1037B8006CD05C456ADDC5F898B0D5F89C10C5F8A2
:1037C80098B0D5F8A03021F01F0143F01F0AD6E9C0
:1037D80000321A44994202F1FF391BD1CA4508D177
:1037E80031465FFA8BF011F0D9FA08F101080C366E
:1037F800BDE73146C5F898B0D5F89C30E0B263F320
:103808000402C5F89C2011F0C9FA10F1160F3DD03A
:10381800441CEAE7C5F898B0D5F8A020013B23F08E
:103828001F0302F01F021343CA453146E0B2C5F830
:10383800A030E8D011F0B2FA10F1160F26D0C5F872
:1038480098B0D5F89C209DF808300AF1FF3A62F349
:1038580004038DF80830D5F8A0309DF808205B08DF
:1038680063F347128DF80820D6E900321344009319
:1038780023F01F035344A3EB0903013023F01F0374
:103888006946C0B20393FFF757FFBEE76FF0150410
:10389800204605B0BDE8F08F00ED00E00522044B9E
:1038A800C3F89420BFF34F8FBFF36F8F704700BFEB
:1038B80000ED00E0BFF35F8F0022024BC3F89420B5
:1038C800704700BF00ED00E010B5034C2278FFF709
:1038D80045FF207010BD00BFA92800202DE9F74F33
:1038E800294D8A4606464FF00008AB46274FD0457B
:1038F8001BDAD6F80490B9F1000F3FD031680846BA
:10390800019111F042FA0199044609EB01000138CE
:1039180011F03BFA84424FF014021D4B08D002FB11
:1039280008F36FF015024BF8032003B0BDE8F08FE1
:1039380014F1160F2C60F8D01978A142F5DD02FBBE
:1039480008B0C7F89840C7F89840D7F89C4000F1ED
:103958000801007B64F304000871D7F8A0000C7913
:10396800400860F347140C71D7F89C1021F01F0130
:103978006960D7F8A01021F01F01296108F101083A
:1039880014350C36B3E700BF901C002000ED00E0B2
:10399800A9280020F0B55349534DD1F890302C6830
:1039A800C3F307239C4287B000F299800020FFF7F9
:1039B80081FF4E4BC1F8C030844216D14C4D01A84E
:1039C8002C70FEF79BFE002607464A4CB74213D1DF
:1039D80000202B784349D1F89020C2F30722934264
:1039E80077DBFFF75BFF002046E0696801EB001119
:1039F800FFF78AFE0130DFE70199300101EB06137A
:103A0800DA682240B2F1807F52D00AD8B2F5001F9E
:103A180034D0B2F5800F3ED0B2F5801F12D00136F7
:103A2800D4E7B2F1006F43D0B2F1805FF7D15A68A2
:103A38009B680958013B22F01F00034423F01F0331
:103A4800012032E05A689B680958013B22F01F00A8
:103A580003440120844623F01F0340EA4C10CDE9BB
:103A680002218DF8100002A928780593FFF764FE5B
:103A780000282ADA6FF0150007B0F0BD5A689B6875
:103A88000958013B22F01F0003444FF0020C0120AB
:103A980023F01F03E1E75A689B680958013B22F0AD
:103AA8001F000344022023F01F034FF0000CD4E74B
:103AB8005A689B680958013B22F01F0003444FF0E5
:103AC800030C012023F01F03C7E72B7801332B7069
:103AD800A5E7C1F89830C1F8A00001337BE74FF0A3
:103AE800FF30C9E700ED00E080C10100AAFF4400F3
:103AF800A92800200000F0FF08B502480EF04CFF8E
:103B0800FEE700BF3CD4010008B5024B1B6898478C
:103B1800002008BDA41C002008B50649064821F06D
:103B28000701C1F1005202F5E0220FF038FC002035
:103B380008BD00BFF7870020A81C002070B54169A8
:103B48000446867A0A4D59B1437ADB0706D4242302
:103B580003FB0653DB691B689B6898470023636176
:103B68002420214600FB0650BDE8704016F052BCE8
:103B78003C0800202422024B02FB0030704700BFA3
:103B88003C0800202421827A054B01FB02331A6A83
:103B98001B7D801A1B3323F00303B0FBF3F070473F
:103BA8003C08002038B52424827A064B04FB0233F3
:103BB800DB69D3E901240C601568FFF7E3FF04FB18
:103BC800005038BD3C0800202DE9F04385B005467B
:103BD800684690461C46039116F0D0FEDDE9006762
:103BE800EFF31189402383F31288BFF36F8F6B8A39
:103BF800002B41D02A8A9A4225D900220023284640
:103C080009F09EFE0446F0B189F31188BFF36F8F67
:103C1800039B002B41D032463B46684616F0D3FE44
:103C28002421A27A254B204601FB0233DB6903A934
:103C38001B681D68DDE90023A847606170BB20464A
:103C4800FFF77CFF24E0698A4B1E6B8289F3118899
:103C5800BFF36F8F2B7D2A8A2C6A1B3323F0030353
:103C6800521A02FB0344154B154AEB1A9B10534397
:103C7800A3722B7DE372CBE789F31188BFF36F8FB3
:103C880023464246284609F05BFE04460028BFD179
:103C98000024204605B0BDE8F083636101230025B8
:103CA8002381039B29466382E27A656004F1180048
:103CB80017F04DFD63692582E360EAE73C080020C0
:103CC800398EE33870B524250C4C00B970BD037AE1
:103CD8004668002BFAD0013BDBB20372002BF5D10A
:103CE800C3604360837A05FB03439B6913B198471C
:103CF8003046EAE7FFF722FFFAE700BF3C0800205A
:103D0800052370B5144D154E2C780134B4FBF3F32C
:103D180003EB8303E41A14F0C6FF114A137823B1A6
:103D280056F82430C01A072814D94FF05023D3F876
:103D3800141141B10021C3F81411D3F814312C70B7
:103D48000CB9012313702C7814F0ADFF46F8240049
:103D5800012070BD0020FCE7AB280020B41C002027
:103D6800AA280020054B03EB8000D0F8003223F08E
:103D7800E04343F04053C0F80032704700258450B8
:103D8800012208B50B4B0C49C3F80025022300207B
:103D9800C1F8D036FFF7E6FF1046FFF7E3FFC1F89A
:103DA8000427C1F80429C1F8002BBDE8084000F039
:103DB80065B800BF001000500040005007B5002251
:103DC8000D4B0E49C3F8A821C3F8AC204FF480620C
:103DD800C3F8B8254FF400620948C3F83C250DF133
:103DE800070214F0FBFF002803DB9DF8070007F02B
:103DF8007FFD03B05DF804FB00A002502CA0025028
:103E080028A1025048B1054B054A1B68B3FBF2F3E1
:103E18005843044B43F0010318477047E00500205E
:103E280040420F0030BF010070B50025104E114907
:103E3800114C000716F8013B03F01F025B090FD075
:103E4800012B0FD1234603EB8203D3F8002201355F
:103E580022F0E0420243042DC3F80022EAD170BDEB
:103E68000B46F0E70023803253F82230FFDE00BF14
:103E7800BBD601000025845000288450014902481F
:103E88000FF0BBBBB8C10100C81C00201FB578B13A
:103E980000230193039301236946084802930FF016
:103EA800BFFB029B9B0700D1039B05B05DF804FB99
:103EB800024805B05DF804EB0FF0FDBBC81C0020FC
:103EC80008B500224FF4FE214FF0005007F0F6FC31
:103ED8000122034BC3F80025BFF34F8F20BFFDE736
:103EE8000040005008B54FF0FF33044A13603F23E9
:103EF8001046536007F0E8FC002008BDE41C0020D1
:103F08002DE9F341044617469846184DD5E8AF3FCA
:103F1800DA0729D520B96FF0010002B0BDE8F081B9
:103F280001A910F0C6FD02280246F4D12046104926
:103F380017F01CFC0028EED1D5E8AF3FC3F3C0064C
:103F48001B0711D4A5F18804072221464046B8472B
:103F5800062887BF0723B0FBF3F045F8886CE671A5
:103F680094BFC4F80360E0710020D6E71801002070
:103F780047CB01002DE9F04389B0DDF840909D79E9
:103F88005E791F7993F803C093F802E093F80180F3
:103F98000C461B78B9F1000F15D0CDE90639CDE9EB
:103FA80004E81346CDE9027CCDE900560D4A0EF02F
:103FB80013FD002813DBA0422CBF6FF01500002072
:103FC80009B0BDE8F083CDE90583CDE903CE1346FA
:103FD800CDE90167044A00950EF0FEFCE9E76FF0B1
:103FE8001500EDE741D4010065D4010070B5044621
:103FF8001E4615468CB0AAB129B10A4602A804216A
:104008000FF03BFA02A900912B462246242103A86F
:10401800FFF7B0FF70B93146109A03A8FEF740FCCD
:104028000CB070BD03462421044A03A80EF0D4FC4A
:104038002328F0D96FF01500F2E700BF86D40100FD
:1040480007B5064B0648DA79C2EBC2020092002295
:104058001146FFF7CBFF03B05DF804FB900000208A
:1040680047CB010030B5044615468DB09AB129B149
:104078000A4602A804210FF000FA02A900912B4673
:104088002246242103A8FFF775FF60B903A810F0A2
:10409800E8FC0DB030BD03462421044A03A80EF005
:1040A8009BFC2328F2D96FF01500F2E786D40100B3
:1040B80007B5009313460A4601460348FFF796FFE3
:1040C80003B05DF804FB00BFC9D401000A460146ED
:1040D8000148FFF7C7BF00BFC9D4010007B5009367
:1040E80013460A4601460348FFF780FF03B05DF810
:1040F80004FB00BFC3D4010007B5009313460A466A
:1041080001460348FFF772FF03B05DF804FB00BFE8
:10411800B4D4010007B500220346009103481146B4
:10412800FFF764FF03B05DF804FB00BFBBD40100D8
:1041380008B5024809F002FE002008BD400400202E
:1041480070B5154CD4E8AF3F13F0010F254616D0D3
:1041580014F8813CA4F188069BB1D4E8AF3F5A0714
:1041680001D400F0F5FAD5E8EF3F23F40062C5E882
:10417800E12F0029F7D11B0501D5FFF7D9FF002052
:1041880009E001F04FF830B9F379002BE5D101F0DF
:1041980059F80028E1D070BD1801002007B5009338
:1041A80013460A4601460348FFF720FF03B05DF8AF
:1041B80004FB00BFCFD401000A4601460148FFF7BF
:1041C80051BF00BFCFD4010010B50024094B86B001
:1041D80009480393CDE9044416F0F9F903AB0093B9
:1041E8004FF4E1620A230549034809F0ADFD204672
:1041F80006B010BD8FD40100100D0020582F0020EC
:104208000146014809F016BE100D0020014601487C
:1042180016F0B2B9100D002030B50378012B11D07B
:10422800022B21D06BB90A46144B03F1100453F842
:10423800045BA34242F8045BF9D143881A0A8A70E6
:10424800CB7030BD0A460D4B03F1100453F8045BE4
:10425800A34242F8045BF9D143681A0C180E4A705D
:104268000870C3F30722EAE700F11003013913F8D5
:104278000129984201F8012FF9D1E2E7D9D60100C6
:1042880038B5054616F000FA044608B90AF0CEF823
:10429800054BD3E8AF3F0BB1284698471CB9BDE89A
:1042A80038400AF0D7B838BDEC1C0020022838B5D1
:1042B80004460CBF0848094810F094FD054648B16B
:1042C800013CE4B21F2C96BF054B0021195D0C3050
:1042D80010F0F7FD284638BDCC0800203C08002027
:1042E800E9D601000F2810B50CD80D280CD90A48BA
:1042F80010F078FD044618B104210C3010F0E1FDEF
:10430800204610BD1328F2D009B10448F0E7022076
:10431800BDE81040FFF7CABF38090020A8080020F0
:1043280038B5C5682B7893B9B5F801400F212046F8
:1043380002F0F0F8EB78054650B90A4A118831B90D
:104348006FEA04506FEA10501080074A137038BDA6
:104358000373012102F046F82846BDE8384001F011
:10436800F5BF00BF4C280020AC28002010B5002461
:10437800084B86B0039303AB00934FF42C724FF0B5
:10438800FF3305490548CDE9044409F0DDFC204622
:1043980006B010BD98D4010060360020E80D00205A
:1043A80010B5012104460C3010F0B6FD2146BDE8D9
:1043B80010400023014A007810F0AABFD4C20100BF
:1043C80010B5012104460C3010F0A6FD2146BDE8C9
:1043D80010400A23014A007810F09ABF84C20100F5
:1043E80070B5254810F017FD0446002843D000F1A9
:1043F8000C05284610F098FD022805D004282FD077
:104408002046FFF75FFC21E0238A032BF8D904211B
:10441800284610F081FDFF22438806882276228AEA
:10442800C6F30B009A426083EAD10F2102F072F8BA
:1044380005460028E4D002F089F821462076320BA0
:10444800284611F032FD284601F080FF0B4BD3F8C7
:10445800EC3083B1BDE8704009490A4816F08CB8C1
:104468000221284610F058FD06232146064A007806
:1044780010F04EFFC4E770BD7C01002090000020C2
:1044880060040020C00E002054C2010010B50121B4
:1044980004460C3010F040FD2146BDE810400223D0
:1044A800014A007810F034BF44C201002DE9F047FA
:1044B8000C4609F0BBFFE5682B78022B52D0042B81
:1044C80005D02046FFF7FEFB6FF0150408E0B4F8AE
:1044D8001080B8F1020F08D82046FFF7F3FB00243C
:1044E80009F0B8FF2046BDE8F08768783E2809D172
:1044F800B8F1030FF0D0EB78012B01D00A2B31D1A2
:10450800032604E010F0A5FEC10706462AD504F1EB
:104518000C0701213846D4F8149010F0F5FC02215C
:10452800384610F0F9FC90F800A0BAF13E0F22D1FD
:10453800E3681B78012B23D00A2B14BF022703271B
:10454800124A06232146504610F0E2FEBA0719D552
:104558006369A5EB090513FA85F5E560A4F81080F1
:10456800B307BCD521460A4810F040FC09490A485F
:1045780016F002F8B3E7504610F06BFE0746DFE787
:104588000327DDE72046FFF79DFBE9E714C201009A
:104598007C01002060040020C00E00202DE9F047B7
:1045A800884616468246002868D00023DFF8D09057
:1045B800D9E8EF4FC9E8E23F002AF9D1002C5DD0D5
:1045C8002046FFF7DFFA0C232E4D274603FB005049
:1045D800438853450DD0D9E8EF3FC9E8E27F002A68
:1045E800F9D1002B4AD01F463846BDE8F047FFF7FF
:1045F80069BBA64208D0204610F0EFFB328AF1686A
:1046080004F10C0010F054FC2046FFF7BBFA0C260E
:1046180006FB00504368ABB1B8F1000F12D1204639
:10462800FFF7B0FA012106FB00504268536803F017
:104638001F00814010685B0900EB8300137ACBB13F
:1046480010F019FE2046FFF79DFA0C2606FB0050D5
:104658008368002BC8D02046FFF794FA704305F80A
:1046680000802046FFF78EFA06FB0055A86809F07F
:1046780099F9B9E7C94310F062FEE3E7BDE8F087AE
:1046880078010020F01C0020054BD3E8AF2F02F082
:104698000B02D3E8EF1FC3E8E02F0028F9D17047D9
:1046A8001801002010B5C1E900239DF808300C4618
:1046B8000B72FFF767FA0C22024B02FB00335C60B7
:1046C80010BD00BFF01C0020F8B502460B4610488C
:1046D80010F088FB0446C0B104210C3010F0D7FB61
:1046E8002046FFF74FFA0C2700260A4D07FB00501B
:1046F80046802046FFF746FA07FB005086602046B2
:10470800FFF740FA07FB00556E602046F8BD00BF72
:1047180014090020F01C00200138C0B202289ABFFA
:10472800014B185C0020704733D7010029289ABF35
:10473800014B185C0920704709D70100034B01465B
:10474800D3F8040182689268104700BF90000020E7
:104758000421014810F08FBD18010020004870475F
:104768001DCF01000149024815F006BF5004002082
:10477800E80D002070B505460C4639B1CB684A698A
:104788009B1A032B0ED86FF0150509E04FF0FF3088
:104798004FF0FF31FFF798FF044618B96FF068052E
:1047A800284670BD2046FFF7EDF90C22134BA618DA
:1047B80002FB0033032130465D8010F094FB058036
:1047C800238A0121033B8370304610F094FB40F6A6
:1047D80035439D4209D12046FFF7B0FF0546002822
:1047E800DED02046FFF76EFADAE72146044815F0D6
:1047F80006FE0025FFF7B6FFD2E700BFF01C002039
:1048080084010020F8B50446458B077E807AFFF7BF
:10481800B1F96169064649B1637ADA0704D4C36914
:1048280020461B689B6898470023636121463046F1
:1048380015F0F0FD194B93F83E309B062CD5384601
:1048480002F0D0FA40B3437B073B012B03D9BDE804
:10485800F84001F07BBD01F079FD4FF0FF304FF0DB
:10486800FF31FFF731FF0446B0B100F10C07012119
:10487800384610F017FB012604210670384610F060
:1048880011FB002305808670C3702146BDE8F840FF
:1048980040F63540FFF76EBFF8BD00BF900000201E
:1048A8002DE9F043054617460C4685B069B94FF027
:1048B800FF304FF0FF31FFF707FF044658B96FF09C
:1048C8006805284605B0BDE8F083887AFFF752F9F5
:1048D800264B834244D101220021684615F0A8FDE9
:1048E8002046FFF74FF94FF00C09DFF8848009FBE9
:1048F8000080C0F808D0204610F0A3FA01462846E8
:10490800FFF738FF054618B12046FFF7DBF9D8E76F
:104918004FF4A0220023684609F078F82046FFF7F4
:1049280031F909FB00F018F80060AEB12046093EE5
:10493800FFF7C8F9092E0CD8DFE806F0050B0B08BD
:10494800150B0B0B0B126FF06E05BAE76FF00C0529
:10495800B7E76FF00405B4E7002FD5D03C60B0E7A7
:104968006FF01505ADE76FF00B05AAE714090020F5
:10497800F01C0020F7B5144B054693F94F300C4650
:10498800002B1DDA14B9204603B0F0BD082C4FF0F7
:10499800000142F2180001AA264628BF0826FFF7A0
:1049A8007FFF0028F0D1019F3246F968284601317F
:1049B80016F0A7FE3846FFF785F93544A41BE1E752
:1049C8006FF08500E0E700BF9000002010B5FCF70D
:1049D800A3FA034B1B6813B1BDE81040184710BD7C
:1049E8008C1D002073B5274D0646D5F8040115F037
:1049F800C2FB00283FD06FF0020105F1880010F0DB
:104A08009EFC012110F037FCC30737D410F02EFBB1
:104A1800044668BB1C4B1E60012205F1D8001146F4
:104A280015F006FD05F1F40015F0E1FC174815F046
:104A3800CEFD6FF007034FF49662154913480094B2
:104A480009F082F91349114809F0C0FAD5F80401B0
:104A5800114983681B689847044648B926B902B0CB
:104A6800BDE87040FCF758BA05F1780009F066F91E
:104A7800204602B070BD6FF01204F9E76FF07704BA
:104A8800F6E700BF900000208C1D0020C00E00201B
:104A980010390020A8D40100B54400002DE9F047E2
:104AA80000260546654BB0F80180198848F4704225
:104AB800914286B004BF1E80614B05F1040408BF13
:104AC8001E7800F0DBF9EB782046012B0ABF5D4B1E
:104AD8004FF0000993F8239010F032FB04AF214601
:104AE800B0B14FF00109384610F01FFBD5F811306E
:104AF800CDF80930B5F81530ADF80D30EB78012B4D
:104B08001BD01321404610F0A9FD06B0BDE8F08780
:104B1800484610F095FF0346006895F80490049005
:104B28009A889B796868BA80BB71A288A379029039
:104B3800ADF80C208DF80E30E0E7DFF808A106226A
:104B480039469AF8230001F0EBFF044640B90522E4
:104B58003D499AF8230001F0E3FF04460028D0D02D
:104B68002346B5F8012023F8702BBA790498B98840
:104B780020679A7140F2E2429980B5F817305343A2
:104B88000022C4F88830B5F81930A4F89030B5F888
:104B98001B30A4F89230EB78227340F20112012BFB
:104BA800E370A4F8A82014D18DF808909DF80E3071
:104BB8000298BDF80C20C4F87700A4F87B2084F88C
:104BC8007D30D5F80B30C4F87F30B5F80F30A4F835
:104BD80083304FF0FF304FF0FF31FFF775FD05468A
:104BE800D8B102210C3010F05DF9238829460380E2
:104BF80001AA42F23000FFF753FE70B9019AD1685A
:104C0800C878FFF789FD84F8A8000879FFF784FDC4
:104C180084F8A9001046FFF755F80721204601F04F
:104C2800E1FB26B101212046267301F0DBFB20467B
:104C380001F0BEFC204601F089FB66E74C28002005
:104C4800AC28002090000020BFD6010000B5C36842
:104C580089B01A786ABB8DF80020B3F80120ADF846
:104C68000120DA788DF80320B3F80B20ADF817206F
:104C7800B3F80D20ADF81920B3F80F20ADF81B20BC
:104C88005A7C8DF81D20586801901A899B7AADF8D6
:104C980008208DF80A30084B68461A689B88CDF8BA
:104CA8000B20ADF80F30CDF81120ADF81530FFF717
:104CB800F5FE09B05DF804FBD3D6010038B5032131
:104CC80004460C3010F028F940F635420346B0F897
:104CD800010090420DD01D78E36822461978FFF74D
:104CE8005DFC35B1034808F05DFEBDE83840FFF7CC
:104CF80039BD38BD6801002070B509F097FB204D1B
:104D0800D5F8F430C3B30022002305F1D80008F029
:104D18007DFE064680BB0022002305F1F40008F062
:104D28000FFE0446D5F8E80018B1FEF7CBFFC5F82A
:104D3800E860204610F085F8C5F8E8002046FFF73F
:104D4800FDFC98B10F4808F02DFE2046FEF71AFF2B
:104D58000C220D4B1F2102FB003022464088FFF732
:104D68001DFC2046FEF7AEFFFFF7FCFCFFF7FAFC40
:104D7800BDE8704009F06EBB01F02AFCF8E700BFFF
:104D88009000002068010020F01C002038B50421A4
:104D980004460C3010F0C0F8457801782246408867
:104DA800FFF7FCFB35B1044808F0FCFDBDE83840CE
:104DB800FFF7D8BC38BD00BF68010020F8B506462B
:104DC8000024094DEF79E3B29F4202D86FF0010049
:104DD80007E02946304610F062FD0735631C08B12C
:104DE8002046F8BD1C46EEE79000002037B5044683
:104DF8000D46B9B12846164910F051FD90B929461B
:104E08001448C4EBC404204410F042FD124810F0CA
:104E18003CFD430703D5FFF78BF910F029F9002073
:104E280003B030BD684610F072F90028F8D1684622
:104E3800FFF7C4FF0028F5DA064BC4EBC400694647
:104E4800184410F025FD002DE0D001462846DBE788
:104E5800C6D601009000002018010020064BD3E8B8
:104E6800EFCF4CF4806CC3E8E2CF002AF7D1037A85
:104E780019430172704700BF18010020084BD3E89E
:104E8800EF2F22F48061C3E8E01F0028F7D1530513
:104E980004D500220220034904F0B8BF704700BFC0
:104EA80018010020475B01001FB500230190CDE9E0
:104EB800023302208DF80C1001AA034904F0A6FF62
:104EC800029805B05DF804FBCF590100F7B5044618
:104ED80070B1474D95F8CA2095F8CB300AB19A427F
:104EE80008D2013385F8CB30237A43F004032372C8
:104EF80003B0F0BD00210222084601F011FE06466B
:104F080048B120460121FFF7A9FF304603B0BDE8AC
:104F1800F04001F01BBA8DF800006946354800F0F2
:104F28009BFD9DF8006026B101212046FFF796FF02
:104F3800DEE73146304800F08FFD95F8CB30B3B945
:104F480095F8CB2095F8CA309A421CD1002242F23B
:104F580029001146FFF7A4FC70B995F8CB3001334E
:104F680085F8CB30237A43F00403237204E03046FB
:104F780010F0DAFC0028E3D00021204803B0BDE897
:104F8800F04000F069BD2246671C394612F82E0B26
:104F980010F08DFC064630BB95F8CB30013385F810
:104FA800CB30237A43F00403237295F85B305B0718
:104FB80019D53946684610F06BFC01234FF0FF30D5
:104FC8004FF0FF318DF80730FFF77EFB044650B1F4
:104FD800082269460C300FF06BFF3246214642F238
:104FE8004E00FFF75DFC012010F09EFCC4E700BFF7
:104FF80090000020295A0100F95901006359010065
:105008002DE9F341044608B33F4D95F8CA2095F8B9
:10501800CB309AB10132934211DC002102220846BA
:1050280001F07EFD0646A0B120460221FFF716FFDB
:10503800304602B0BDE8F04101F088B913B1013B38
:1050480085F8CB30237A23F00403237202B0BDE83D
:10505800F0818DF807000DF107012C4800F0FCFCE9
:105068009DF8076026B102212046FFF7F7FEEDE71D
:105078003146274800F0F0FC304610F055FC074652
:1050880088B995F8CB3095F8CA209A4218D2013BD6
:1050980085F8CB30237A024623F0040302201D4909
:1050A800237204F0B3FE95F8CB3013B1012010F051
:1050B8003BFC0021184802B0BDE8F04100F0CCBC30
:1050C8004FF0FF304FF0FF31FFF7FEFA04F101080F
:1050D80006460028E7D007210C300FF0E3FE4146D2
:1050E80010F0D6FB3A46314642F22800FFF7D8FBCB
:1050F8000028D8D195F8CB30013B85F8CB30237AFE
:1051080023F004032372CEE790000020295A0100FF
:10511800F95901001B5901006359010070B5044693
:1051280011B16FF0150070BDD8B1214910F0B7FB6F
:10513800B8B92046FFF742FE002832DA23784BB987
:105148001C48C2796ABB214610F0A2FB0123C37137
:105158001046E8E7012BE4D1A37903F0C003C02B84
:10516800DFD1144DEB79012B1ED005F1880010F02A
:105178008CFBC30707D4002CD3D020460C4910F071
:105188008EFB0028CDD1EE792146731C3046EB7199
:10519800FFF72CFE08B93046C5E7EB79013BEB7108
:1051A800C1E76FF07700BEE76FF00B00BBE700BF09
:1051B800C6D60100900000202DE9F3410446D8B17D
:1051C800002141F2090001AAFFF76AFB054698B9D8
:1051D800019E0622D6F80C80104908F101073846CE
:1051E80016F0C4FA28B1062238460D4916F0BEFA60
:1051F80030B93046FEF766FD002002B0BDE8F08108
:10520800D8F801303046C4F80130BB882570A4F8BE
:105218000530FEF757FD0120EFE700BFD3D60100A8
:10522800CDD6010007B56846FFF7C6FF044BD87115
:1052380018B169460020FFF7D9FD03B05DF804FBFB
:1052480090000020F0B5294D89B0EE79002E46D1A6
:1052580095F87630DB0722D56A4631464FF6094085
:10526800FFF71EFBD8B9DDF800C0DCF80C40637806
:10527800012B1E4628BF012673B1A31C02AA1234B3
:10528800174618685968083303C7A3423A46F7D146
:10529800186838609B88BB806046FEF713FDEE7186
:1052A800002416260127EB79E0B2984202D3B3B165
:1052B800002012E008AB06FB003353F8182C33F833
:1052C800143C6946CDF80120ADF805308DF8007022
:1052D800FFF78CFD01340028E5D009B0F0BD0021AE
:1052E800084609B0BDE8F040FFF718BF900000205D
:1052F8002DE9F0411D460E4617460346002849D0C1
:10530800002D47D00A0307D54C0743D410F0F6FB0D
:1053180010BB01232B701FE0B10704781ED0204971
:105328002FB1B20603D591F89020500635D5C4EBBD
:10533800C40411F80480B8F1010F08D101341846EB
:10534800214410F089FB38B985F8008002E0B8F1F3
:10535800000FF9D0A7B90020BDE8F081720716D573
:105368000F49C4EBC4040F5D012F07D10134214458
:1053780010F072FB0028EFD12F7001E0002FFBD056
:10538800B306E8D52B7843F002032B70E3E710F05F
:10539800B5FBBEE76FF01500DEE76FF08500DBE7D1
:1053A8009000002010B503460C4611B96FF01500A7
:1053B80010BD0D4810F069FA420711D5002BF5D140
:1053C80000F068FB2046094910F062FAE01D04F07D
:1053D800DFF90028ECD010F1860F08BF0020E7E7BE
:1053E8006FF00A00E4E700BF1801002090000020D9
:1053F80070B50D4601210446164610F063FE58B1FB
:10540800084810F042FA430709D532462946204693
:10541800BDE8704012F099BC6FF0150070BD6FF0D8
:105428000A00FBE71801002000232DE9F04F14467D
:105438001D468FB00491516801908B4209D1FB2D14
:105448000FD8974BB3F8C8309D4215D96FF020009C
:1054580023E12268023502EBC30252780133154476
:10546800EBE7019B082103F1180010F07DFB0028F1
:10547800E7D06FF00A0010E1FB2D69D8019B0B21E2
:1054880003F1180010F070FB10B91F2D28BF1F255D
:105498004FF0FF304FF0FF31FFF716F905F1040820
:1054A8000746002800F0F78041460C300FF0FAFC60
:1054B8004FF0000906464246002116F048F94946D1
:1054C800D4F8008006F1040B636899450FD3019B5B
:1054D800F1705B780022337003233946737001231F
:1054E8000498B3700FB0BDE8F04FFFF7D9B998F83A
:1054F8000120881C13189D4298F800C008D2BCF1FE
:10550800090FA5EB00021DD1002A1BDD4FF0080C86
:105518005FFA82FA0AF101030BF801300131C9B2CE
:105528000BF801C0C3B2D8F804105844029316F01F
:10553800E8F8029B09F101099A445FFA8AF108F137
:105548000808C1E73846FEF7BDFB6FF01500A4E078
:10555800002110220AA816F0FAF80027012340F2C9
:10556800726009933B46616808948B4207D1002515
:105578000123A846AB4603935FB938468DE02268FD
:10558800023702EBC302527817448742DDD8013351
:10559800EBE7FB2F4FF0FF304FF0FF31BA4628BF43
:1055A8004FF0FB0AFFF790F80AF104060290002872
:1055B80071D031460C300FF075FC019B81465B7849
:1055C800002603704FF000035FFA8AF28370059299
:1055D800031D54F83B2004EBCB0102EBC8025278C0
:1055E8000232954209D14A6808F10108904509BF7D
:1055F80000250025A8460BF1010BBBF1010F12D0C5
:1056080054F83B204FEAC80112EBC80C0BD098198C
:10561800E5B901259CF8012001329A550136F6B208
:10562800059AB242D5D8039BBF1B7BB3002F0CBF92
:105638000323012300220299049889F8036089F85A
:105648000130FFF72DF940BB039095E7012D05D1F7
:10565800525C013602250270F6B2E1E79CF801209F
:10566800AAEB0601521B02328A4228BF0A46DCF81E
:1056780004C0A91E61440793069216F042F8069AE0
:10568800079B15443244ADB2D6B2C9E7B7FA87F3DF
:105698005B095B00CEE76FF068000FB0BDE8F08FE4
:1056A8009000002070B500F10F0604460D46072251
:1056B80030460C4916F05AF80346207873B905228B
:1056C800094901F02DFA044658B10573002100F08C
:1056D80089FE2046BDE8704000F038BE06223146FB
:1056E800EFE770BDC6D60100BFD60100F8B5046962
:1056F8000646456844B140F203432B4039D005F4CF
:105708008263B3F5806F34D015F4806302D115F449
:10571800F84F2ED1184F3078FB79834229D9C0EB46
:10572800C00007221549384416F020F8A8B115F032
:10573800030306D197F82420082A02D8B2689F2AC2
:1057480017D915F0300F09D09CB1EB0608D405F431
:105758006035B5F5603018BF0120F8BD002CF6D1D2
:10576800D6E902239A4204D81F2A02D9B3F5804FFA
:10577800EDD90020F1E700BF90000020C6D6010057
:1057880038B50E4D284610F0ECF910F0010412D18E
:10579800A5F1180318465822214615F0D8FF0346EC
:1057A800D5E8EF2F42F00102C5E8E12F0029F7D133
:1057B80018465C7038BD0020FCE700BFB00F002021
:1057C800F8B5044614F80F7B154B06460D4607221C
:1057D8002046144983F8237015F0C8FF70B938467D
:1057E800114901F057F9044610B96FF00B00F8BDE4
:1057F800052100F0F7FD00202C60F8E72146384627
:1058080010F052FC40B92146307801F043F90446C3
:105818000028EAD00621ECE76FF01500E7E700BFA3
:1058280090000020C6D60100BFD601002DE9F3473D
:105838000F690D46496890463A1E18BF0122016556
:105848000DF103030646FFF753FD0446002840F018
:10585800DB8006F10F03002F00F0DA802A69116857
:105868004FF0FF30C6F80F109188998092794FF069
:10587800FF319A71FEF728FF8146002800F0D78093
:1058880019210C300FF00EFB04460021192215F0E7
:105898005EFF73782370AB68E370C3F307221B0CB9
:1058A80022716371EB68A371C3F307221B0C237287
:1058B800E2716A6812F4004F14BF06230723D1036C
:1058C80048BF03F00503920348BF03F0FB0363726C
:1058D8009DF80330A3727F23E374012323756B685B
:1058E80003F44063B3F5806F14BF01230223A3754B
:1058F8006B68DB0442BF03232375A3756A68C2F390
:10590800802383F001031B0150049BB248BF43F07E
:105918004003910448BF43F02003D20544BF01224D
:1059280022766A68900775D043F0010A1FB95105BD
:1059380001D443F0030A900502D4B8F1000F03D054
:105948004AF0020A1FFA8AFA002F65D0D1062A699E
:1059580048BF4AF00403116858BF4AF00C03C4F862
:105968000B1091889BB2A4F80F10927962746A7830
:105978004946E275AA7842F236006275A4F8013009
:1059880001AAFEF78DFF044600283DD1019806F1D3
:105998001807C36893F90130B370FEF793F9D7E895
:1059A800EF3F43F00203C7E8E23F002AF7D16FF068
:1059B8001001384610F0DFF8C2062FD46A680921B2
:1059C80012F0030218BF0122384610F0DFF80A214E
:1059D8003846CAF3400210F0D9F82A790C21384623
:1059E800C2F3800210F0D2F86A790B213846C2F36C
:1059F800800210F0CBF89DF803200321531E5A4271
:105A080038465A4110F0C2F8204602B0BDE8F08787
:105A1800084A24E79A468EE75346A8E7304606F137
:105A2800090110F019F80028C8D00446ECE76FF017
:105A38006804E9E7C6D6010008B520B9044810F0A3
:105A480090F8C30701D4002008BD0248FCE700BF56
:105A5800B00F0020980F0020034610B5044810F03E
:105A680080F8C20703D5BDE810400248184710BDAA
:105A7800B00F0020980F002010B5054CA06930B178
:105A88006FF00101183010F076F80023A36110BD03
:105A980090000020014B9869704700BF90000020DB
:105AA800F8B50446164810F05CF843070F4616464A
:105AB8001DD5FAB12046FFF719FED8B1FFF760FEF1
:105AC8000546D0B123782146037063780022C3705D
:105AD8004760FFF7ABFE044638B16FF0010105F1EE
