:020000040100F9
:10000000B0850021B9B40101F13F0201A5B401019D
:10001000A5B40101A5B40101A5B4010100000000CF
:1000200000000000000000000000000089B5010190
:10003000A5B401010000000065B70101A5B40101EC
:10004000DDB70101DDB70101DDB70101DDB7010158
:10005000DDB70101DDB70101DDB70101DDB7010148
:10006000C1440201DDB70101DDB70101DDB70101C6
:10007000D7440201DDB70101DDB70101DDB70101A0
:10008000DDB70101ED440201DDB70101DDB701017A
:10009000DDB70101DDB70101DDB70101DDB7010108
:1000A000DDB70101DDB70101DDB70101DDB70101F8
:0800B000DDB70101DDB701011C
:1000B800054B00221B78826001330260034A4260CC
:1000C800C371FF2303727047C80300218001080031
:1000D800064A074B02604FF424729B7882800822FC
:1000E800C371002382710372704700BFCD9801016C
:1000F800C8030021064A074B02604FF44272DB78BE
:1001080082800822C371002382710372704700BF86
:100118000F960101C8030021064A074B02604FF4FD
:10012800B072DB7A82800822C371FF238271037266
:10013800704700BFE98E0101C80300212DE9F34192
:10014800C41D0028064624F007040CBF00202046E2
:1001580000F03EFC071E04DA6FF00B0002B0BDE8A9
:10016800F081374DE988A88803316B7A03302A7A01
:1001780089B280B215F011FA0028EDDB3C44A97869
:10018800EB78002E04F10304194424F0030400FB67
:1001980001F10CBF0020204600F0AAFD20440EB952
:1001A8000028D9DBEA7A0446B2B1EB7B697C1344B8
:1001B8001944FF29D0D80330002EAA89C9B220F0EB
:1001C80003040CBF0020204600F004FE0028C3DB17
:1001D80004440EB9002CBFDB012000F0EFFBB0B1E6
:1001E800A97BA1B195F82A3033B340234FF481722B
:1001F8000734002E24F007040CBF0020204605F029
:1002080001F90028A8DB04440EB9002CA4DBAB7A62
:10021800FBB1EB7AB3B10734002EA97A24F00704B6
:100228000CBF002020460AF087FC002894DB044419
:100238007EB9002C0DDA8FE725232822D8E700BFE6
:10024800C8030021012000F0B9FB10B1AB7B002BE3
:10025800E1D1734B1B6893B1A97D81B10334002EA2
:10026800EA7D24F003040CBF0020204698470028AC
:10027800FFF672AF044416B9002CFFF66DAF694B58
:100288001B688BB1297C79B10334002E24F0030458
:100298000CBF0020204698470028FFF65DAF0444B5
:1002A80016B9002CFFF658AF5F4B1F68B7B1697CD1
:1002B800A1B10334002E2B7D24F0030408BF0020D5
:1002C800009318BF2046EB7CAA7CB8470028FFF6AD
:1002D80043AF044416B9002CFFF63EAF072000F0E8
:1002E8006DFB98B1A97D89B10334002E2A7E24F0D4
:1002F80003040CBF0020204600F05AFE0028FFF639
:100308002BAF044416B9002CFFF626AFB6FA86F7D1
:1003180095F823007F09A0B103346B7FA97E24F0F0
:10032800070419443B4644F00404C9B2224600F0CD
:100338007FFE0028FFF610AF044416B9002CFFF624
:100348000BAF95F8241000294CD004F10708002EB3
:10035800EA8C28F007080CBF0020404615F031F958
:10036800041EFFF6F9AE4444002E3ED1002CFFF6E1
:10037800F3AEA97F002945D095F82230002B41D053
:100388002A8C0734002E02F1240224F007080CBF3F
:100398000020404692B215F014F90028FFF6DCAEB2
:1003A800404416B90028FFF6D7AE03302B7FA97E4C
:1003B80020F0070019443B4640F0040495F8220059
:1003C800C9B2224600F026FE0028FFF6C5AE044456
:1003D80086B9002CFFF6C0AEEB6AF3B1C6B1EC6289
:1003E8000020BBE6002EC4D08846E98C404611F0B8
:1003F800B9FCBEE72A8C4046A97F083292B211F0B8
:10040800B7FCE9E7002EE7D0002211461046F6E7D0
:1004180028343FF5A1AE2046A0E6002EE0D1FAE749
:10042800AC100021B0100021B41000211FB572B625
:10043800194B1C6BECB9BFF34F8F1849184BCA689E
:1004480002F4E0621343CB60BFF34F8F00BFFDE7B8
:10045800B2FBF6F22B465D1C002AF9D1DBB203F1A0
:1004680010056D4405F80C2C0A2233B901A8A047E1
:10047800E1E7024600230A26EDE7013BDBB203F180
:1004880010050DEB0506B0FBF2F502FB1500303048
:1004980006F80C0C2846E8E7C803002100ED00E048
:1004A8000400FA0513B5124C68462389ADF80030EC
:1004B800E388ADF80430A388ADF8023008F00CFBEF
:1004C80018B1FA219C20FFF7B1FF207D08F068FBE6
:1004D80008B1FD21F6E7E07C08F05CFB08B1FE21DD
:1004E800F0E794F828000FF005FE02B010BD00BF39
:1004F800C803002138B5054600283DD014F06AF835
:1005080010B94FF0FF3038BD11F0F2FFB0F5FA7FA7
:10051800F7D81B4C002125631B2504F10F0084F834
:1005280034102A46217084F82A10E16214F0C8FABF
:100538000123032108200222A370E370E372A3744D
:100548002376F72321722384FB23A0721F20A17333
:100558004921E3840A23A580E5806272A081E174C1
:10056800E27584F82830EFF3108472B600F070FD5D
:1005780004B962B60020C6E76FF01500C3E700BFF4
:10058800C803002138B51446002840F0C480634DE4
:1005980095F83430032B00F0BB80B9B112B96FF075
:1005A800150038BD0139172900F2B580DFE801F0E0
:1005B8000C1D20366069873C6C6F814248565B8D04
:1005C800909FA2A596B3B3A81378AB700020FFF74D
:1005D800B5FD0028B7BF012302236FF00B0085F893
:1005E8003430A8BF85F83430DBE71378EB70EDE7DB
:1005F8001379002BD3D05379002BD0D01288FB2A43
:10060800CDD863881B3B9BB2E02BC8D81A2AC6D921
:100618002368A2886B60424B9A80D7E71378EA7BFD
:100628009342BCD3EB72D1E71378EA7A9342B6D8F7
:10063800EB73CBE71378EA7A9342B0D86B74C5E7CB
:100648001378002BABD05378013BDBB2F82BA6D83C
:10065800138892786B82334B9A70B7E71078687575
:100668000FF0F4FCB2E71378002B98D02B76ADE7A7
:10067800012000F0A3F9237808B1012B8FD9AB73BF
:10068800A4E71388AB81A1E71378AB759EE7072031
:1006980000F094F910B92378012B80D9072000F0D5
:1006A8008DF918B12378002B3FF479AF2378EB75D7
:1006B8008CE71378082B3FF672AF2B7486E7138804
:1006C800FF2B3FF66CAFAB7280E713786B767DE754
:1006D80013780E2B3FF663AFAB7677E72368124AA1
:1006E800C5F81E3063685360238913816EE7137859
:1006F800EB766BE713786B7768E713782B7765E70A
:1007080013785A1E092A3FF64AAF85F828305DE764
:100718004FF0FF3045E76FF02C0042E7C803002197
:10072800CC030021DA030021E6030021F8B50D46C9
:10073800064630B329B311F0070422D1124F97F8B7
:100748003430012B02D16FF00B00F8BD032B02D11E
:100758004FF0FF30F9E700F0B7FC0028F8D0284642
:10076800FFF7ECFC0028EEDB0FF0CAFC3046F96A14
:1007780008F092FAFFF796FE0323204687F83430F4
:10078800E3E76FF01500E0E7C803002110B5074C58
:1007980094F83430032B03D108F096FA09F034FAB0
:1007A80015F05BF8002084F8340010BDC803002160
:1007B80008B508F013FA03490320BDE8084000F023
:1007C800F5B800BF2101000108B508F021FA034976
:1007D8000220BDE8084000F0E9B800BFFD000001B4
:1007E80008B508F037FA0649012000F0DFF8054996
:1007F800002000F0DBF8044B012283F82A2008BD12
:10080800B9000001D9000001C8030021074B4FF0CF
:10081800FF3141F6FF72C3E9001205490022C1E920
:1008280000221F21C3E90212704700BF0000002107
:10083800000400213F280CD801380B4BC0F34212AA
:1008480000F01F0053F8223023FA00F000F00100F6
:100858007047FF2806D04038044BC0F3421200F01E
:100868001F00EFE70120704700000021000400216D
:10087800074B0146006849681A4603C240F48C22B7
:1008880000201A6041F0107242F4FF625A6070470B
:10089800000000210246034B0068516803C3002092
:1008A800704700BF000400210246034B00685168EE
:1008B80003C30020704700BF080000210138064B21
:1008C800C0F3421200F01F0003EB82039B6823FA77
:1008D80000F000F001007047000000210A8870B5A0
:1008E80095B2C67CC2F30E020488023602F11803E0
:1008F8003444C35AA4B233442344013BB3FBF4F356
:1009080003FB0422438892B29342044B8BBF2B40D3
:10091800AB4313439BB20B8070BD00BF0080FFFF49
:100928004A1E062A08B50346084604D84FF4D17172
:100938001520FFF77BFD094A914202D940F2A31125
:10094800F6E711B903B1196008BD2BB11B68002285
:10095800C3E901211A1D1A600430F5E7FAFFFF7F89
:1009680010B5114B00EB41041A786389B3FBF2F31D
:1009780003FB0223013A1A44B2F5706F02798078BA
:1009880028BF00231A440B18B2FBF0F100FB112119
:100998005B1AB3FBF0F100FB113313446FEA4343D6
:1009A8006FEA5343638110BD08040021024B03EB37
:1009B80080035960704700BF08040021034B03EB14
:1009C80080035868003818BF0120704708040021C8
:1009D8002DE9F04F10F0070A85B0054604D040F223
:1009E8006F111720FFF722FD534F04464FF0010BFC
:1009F80007F14C06B146B04657F8043B8DF80BA0FA
:100A08003BB101A898479DF80A30082B01D9F52178
:100A1800E7E79DF80B1041BB05B131604F4506F182
:100A28000406E9D1002D6FD00022DFF810911227BB
:100A3800964689F8002058F827A0013FBAF1000F20
:100A480055D09AF804609AF802C0FF2E60D0394653
:100A58000023481C38D19C44BCF1FF0F3FD90AB190
:100A680089F800E04FF49A71BBE79DF80AC04B1D66
:100A780060465A0004EB4303022838BF0220441E94
:100A880040422344BDF808406444CCF1000C0340C4
:100A9800013C04EA0C04B4F5803F02D340F205118E
:100AA8009FE775B19A1A32609170148082F803B08A
:100AB8009DF80C00107101984FEA104C1081A2F8B3
:100AC80006C004FB0134A9E758F8210028B190F8C2
:100AD80004B0B34504BF80781B180139B9E7DBB20D
:100AE800E6458AF804303CBF5FFA8CFE01227B1C85
:100AF800A1D10AB189F800E0122640F6FF6A58F839
:100B08002670B7B9013EFAD2601B05B0BDE8F08F78
:100B18000023E5E707EB410309F101093846A3F88B
:100B28000AA0FFF71DFF5FFA89F1BB788B42F1D865
:100B3800E8E74FF00009F6E70C040021080400215B
:100B4800034B03EB8003186D00B18078704700BF3A
:100B58000804002138B54FF6FF7302460380184B8E
:100B680003EB8103186DA8B184780379B3FBF4F122
:100B780004FB1133DBB2194600EB4105B5F90A5005
:100B8800002D0EDB0131B1FBF4F504FB1511C9B2E0
:100B98008B42F1D1002038BD6381BDE8384014F0A4
:100BA800D8BC00EB41046389C3F30E031380C278F9
:100BB800002AF1D14FF4E5711720FFF737FC00BF89
:100BC800080400211C4B03EB810370B51C6D05461E
:100BD80044B3030404D54FF4EC711720FFF726FC47
:100BE8000146204614F098FCFF28014604D0204610
:100BF800BDE8704014F0ADBCA078B5FBF0F300FB85
:100C08001353DBB219460A1D04EB4206B6F902601B
:100C1800002E09DB0131B1FBF0F200FB1211C9B261
:100C28008B42F0D1002070BD8B4201D00023E370CD
:100C380004EB42025580DAE708040021094B03EB74
:100C48008103014610B51C6D204614F065FCFF2891
:100C5800014604D02046BDE8104014F07ABC0020BC
:100C680010BD00BF08040021F8B5104B074603EB80
:100C7800810301461C6D204614F04EFCFF280546F2
:100C880011D0E288238953EA024606D0014620465D
:100C980014F05FFC01463846B04720462946FFF766
:100CA8005FFE0020F8BD0520FCE700BF0804002116
:100CB80038B50E4B0446827903EB8203186D08B9E8
:100CC800052038BD8278E1799142F9D24B1CE37155
:100CD80000EB41035D89B3F90A30002BF3DBA580F3
:100CE80014F037FC20600020EBE700BF0804002167
:100CF80070B5044610F003000E4603D04E211820AC
:100D0800FFF794FBFFF70CFE054624B10348314674
:100D18000460FFF705FE284670BD00BFA40400214B
:100D28002DE9F14FDFF870B01E4607460D46DBF897
:100D3800003090469DF828A09DF82C901BB96021A2
:100D48001820FFF773FB52460921404614F068FA51
:100D58004A4684B20921304614F062FA81B2DBF8BF
:100D68000000214414F0ACFB386018B9286001B0C9
:100D7800BDE8F08F04445346414609222C60386888
:100D880014F011FA4B4609223146286801B0BDE833
:100D9800F04F14F008BA00BFA404002170B50E4645
:100DA800044614F050FA0546304614F04CFA044B49
:100DB8002A1821461868BDE8704014F0A6BB00BF89
:100DC800A4040021024B186808B114F06DBB7047E9
:100DD800A40400211F2AF8B5044613460ED8920031
:100DE800033222F00303B3F5803F2DD2184DACB186
:100DF800A00710D068210920FFF718FBFF2B4FEA46
:100E0800420204D9FF339A42A8BF1A46E8E77C2A6F
:100E1800B8BF7C22E4E729706C602B8122F00302C2
:100E280028230127120403FB01F06B680025120C2C
:100E3800EEB2B14200D8F8BD14B126181F705E603A
:100E4800104401352833F3E74FF0FF30F3E700BFD4
:100E5800A8040021154A002170B553681578C8B256
:100E6800854203D8BA210920FFF7E0FA1C46184644
:100E7800013114F8286B0EB92346F0E70021997068
:100E880001241289996103F126055C709208D961E1
:100E980003F11E04596824F8022FA54243F8041FE1
:100EA8001144F8D100234361037070BDA8040021E8
:100EB8000A4B1B89B3F5FF7F4FEA930006D25A0805
:100EC8009B1A9BB2984238BF18467047B3F5EE6F2D
:100ED80001D8FF22F4E740F27263F3E7A804002187
:100EE8004B782DE9F04106460C4602F0040702F063
:100EF800FB05E3B1A5BBFF23A3707B0804EB5707F1
:100F08003A7D032A02D1022D18BF0133E2180121CC
:100F1800117503F10C01002204EB830324F811205E
:100F28005B68A27030463360B280BDE8F081002D66
:100F3800E1D1012301F11E028D6120464B7004F1BD
:100F4800260C1A4BCD611B8949689B0822F8023F81
:100F5800944540F8041F1944F8D100236361CAE797
:100F6800D1F8048014220021A018617013F0A8FDA4
:100F78000E4B1B89B3F5FF7F0FD25A089B1A9BB201
:100F880008EB0301C4F804802384A1606284C4F8D8
:100F98000C80A3842161E284ADE7B3F5EE6F4FF0D6
:100FA800FF02EBD940F27263EAE700BFA804002110
:100FB8002DE9F84305460C46F7200521914614F023
:100FC8002FF9061E21DB1DB906FB04F0BDE8F883E6
:100FD80015F0030703D098211920FFF727FADFF847
:100FE8003080C8F81050A8F81460BBB29C42EBD906
:100FF800B8F814504B46D8F810000522F72107FB23
:101008000500013714F0CFF8EFE74FF0FF30DDE7C8
:10101800BC04002107B5CDE900230B46034902466D
:10102800081D14F0F4FB03B05DF804FBD4040021A0
:1010380013B5064CCDE900230B46024604F108011E
:1010480004F10C0014F0E3FB02B010BDD40400213D
:10105800144B012200214FF0FF309A60C3F80012B0
:10106800C3F80803C3F80015C3F804259A60C3F849
:1010780008034FF48040C3F80015C3F8042503F5AE
:10108800805341F6F8720849C3F80825C1F8800072
:10109800BFF34F8FBFF36F8FC1F88001C3F80825E6
:1010A800704700BF00E0004100E100E00268002056
:1010B800014B1A60704700BFE4040021014B1B6814
:1010C800184700BFE4040021024B1868003818BF15
:1010D80001207047E40400218C469B22064B00B592
:1010E8000CF8032B8E4607CBCEF80300CCF804107F
:1010F800CCF808205DF804FBF40400212DE9F04148
:101108001C4E044600F00107736A93F8A850B5F125
:10111800000818BF4FF001081DB117B1338D1A0729
:1011280014D4012916D8F36A2046984790B196F846
:1011380030307BB98DB987B1308D58B996F83130D8
:101148004BB996F8320080F0010004E096F82A3096
:10115800002BE6D00120BDE8F08184F0010010EA00
:101168000800F8D0308D8307E7D596F82A0080F07C
:101178000100F0E7E804002110B5154C10F07CF9E7
:1011880010F090FC0021A36BA08E9847237E93B9A2
:10119800A18E606A09F078FE636AB3F8AA0009F0C4
:1011A80081FC236C94F8301094F83C009847002395
:1011B80084F8443010BD94E8070004F10C0383E878
:1011C8000700044904F1190016F0A5FDE0E700BF87
:1011D800E8040021E1100001034B93F8443003B9FF
:1011E8007047FFF7C9BF00BFE804002108B5094BE5
:1011F80093F84420022A07D1DA7A42F00102DA721F
:10120800BDE80840FFF7B8BF40F257312720FFF785
:101218000DF900BFE80400211E4910B48C6C427817
:101228002378D20003F0F30302F008021343827814
:10123800920002F004021343C278120103F0EC0397
:1012480002F010021343027802F003021343022251
:101258002370B1F854306370A1F84C208C6C00797D
:1012680023784201012823F0200302F0200243EAF8
:10127800020323700CD14B6A93F8BA2093F8BB3061
:10128800032A03F01F0308BF002243EA8213A37056
:1012980010BC7047E8040021F0B5194C83B0A56D67
:1012A8004DB3636E3BB3B4F8683001F003012F46C9
:1012B80006466B702B7823F003030B4307F8033BB8
:1012C8003846B4F86820616E13F0A6FC0DF10202EE
:1012D80001A9E06EE565676614F0DCF8019814F082
:1012E800C7F80346B4F868100122E06E336014F0C2
:1012F8006AF803B0F0BD40F6C4012720FFF796F85E
:10130800E8040021F8B5244C4FF481730646656A59
:10131800A4F860302A7D94F87430276F03EB8200BC
:1013280095F82111E765FF2804D11EB995F82031F9
:101338008B4216D00FF048FB2B7D3BB3A06F0FF00C
:10134800F3FEA16FE06D10F073FB8EB1B5F8E0000D
:101358000FF0A2FA002010F051F8022384F844306C
:10136800F8BD002AEAD138460FF0DEFE10F09AFBED
:1013780095F82131B5F8E420033B012B8CBF002000
:101388002820104480B20FF069FFDFE7E06D0FF00E
:10139800CBFE10F087FBD8E7E80400212DE9F04FD9
:1013A800C24C87B0666A94F87430327D96F8201182
:1013B80003EB8203FF2B05D120B996F821318B422C
:1013C80000F0F080FF200FF0FFFA676A00233A7AF6
:1013D80004938DF80930ADF80A308DF81430062AD8
:1013E80000F21481DFE812F07B00E0006100610088
:1013F8001201070007000DF10A0103A807F0B6FE65
:10140800002800F0EF80039D002D00F0EB80012202
:10141800062384F87D20BDF80A203B72002A5CD0A0
:10142800E91CA4F85420022B2165B7F80920A5640B
:10143800ADF811206AD0053B012B66D80B78032242
:10144800022B8DF8102000F0A080D4F8800013F053
:1014580079FF0546002840F0C080236D1B781B2BC0
:1014680000F0E48000238DF8143004A8F37C84F89D
:10147800315023B1B4F85430002B40F08980FFF785
:10148800CBFEA06C0FF050FE10F00CFBB6F8E2009B
:101498000FF002FA01200FF0B1FF012384F8873022
:1014A80084F8443007B0BDE8F08FB7F810310DF17B
:1014B80009020DF10A01D4F88000ADF80A3013F0E2
:1014C800E9FE0546002800F0FF800123BDF80A2048
:1014D80084F87D303B7A002AA2D11146A1E794F81E
:1014E8007C3003A80DF10A01A7F81031ADF80A30D5
:1014F80007F03CFEE0B1039DD5B10122052384F835
:101508007D203B72BDF80A2088E701238DF8103052
:10151800D4F8800013F016FF0546002858D107F0CC
:101528003FFE2B4680F00105EDB28DF813509AE787
:10153800636A93F85180B8F1000F58D10DF10A0190
:101548000DF10902D4F8800013F0A4FE0546002826
:101558004DD09DF809A0BAF1000F6ED1BDF80A3040
:10156800002B58D10123A5643B7284F87D300023F9
:10157800A4F854302365B7F80930ADF811300123C9
:101588008DF81030B8F1000FC2D000252B466AE75D
:10159800FFF742FEA06F0FF0C7FDA16CA06F10F01F
:1015A8000BFA73E7374611E7414B0122D4F8800064
:1015B800A36400238DF81020A4F854302365B7F8ED
:1015C8000930ADF8113013F0BDFE05460028A6D04D
:1015D80001238DF81330002345E701238DF81330DC
:1015E800236D3BE740F2D2512720FEF71FFF4FF053
:1015F8000008012200233A722D4AADF80A30A4F8F7
:1016080054302365A264B7F80930B6E740F2DC51DC
:101618002720FEF70BFF002301222B80AB7003234A
:1016280084F87D203B72BDF80A20F7E607F1BA007E
:1016380001210FF00BFA012315E70146D4F88000C9
:1016480013F012FF13F014FF0368D0F804B08146BA
:1016580053EA0B022ED10023BDF80A2089F8003086
:1016680089F8013089F8023089F8033089F80430A4
:1016780089F8053089F8063089F80730002A3FF4E0
:1016880071AF9DF809100029C5D0297801F0030130
:10169800012906D00121BB75022384F87D103B7215
:1016A800BEE6032384F87D103B72B9E6E804002106
:1016B8006C050021019311F0E9F8019B83427BEB53
:1016C8000101C8D2D04694E740F2C3512720FEF763
:1016D800ADFE00BF2DE9F04F0023AD4C8BB0656A1D
:1016E800CDE9083394F84430022B40F04782E36D8B
:1016F80003220E46074693F8009005F1A80A597888
:10170800134409EA020B4FEA2918A4F8602063661B
:10171800A4F86810002800F0C180002940F0728108
:101728006B7AA28E0133A16542F40072DBB2A28605
:1017380083EA990111F0010140F0EA802A7AA2B106
:10174800032A6B7200F2A781012A0ED008A9D4F8E7
:10175800800013F0C1FD002800F01A822B6F0133BE
:101768002B676B6F43F100036B670021636A297273
:1017780093F8A8304BB16B793BB1238D1020697178
:1017880043F010032385A36B9847A38EC9F3C009C0
:1017980043F40063A386002307932B7D002B40F0BE
:1017A800BE80AB7A03F00102914500F01681A36D6B
:1017B800002B00F0C78008F0010884F83280002E62
:1017C80040F0F580079E4FF0000994F88A10012038
:1017D800FFF794FC8046002840F0CC81EB7C002B7E
:1017E80040F02B81002095F82021B5F8E0100FF08B
:1017F800DFFA0020FFF7D2FDB8F1000F03D05946F9
:1018080009A8FFF749FDA38E5A0607D4A36B002148
:1018180040209847A38E43F04003A38666B1EB8827
:101828002BB9636A93F8A830002B40F0CE80B4F847
:1018380009300133A4F80930002F00F0C080B4F853
:1018480005300022013384F88A20A4F80530514875
:1018580009F016F9089830B113F00AFE0022027256
:10186800514608F0F9FA099B33B100221A720C228A
:101878005146099808F0BEFAB9F1000F40F083808C
:10188800A38E1B0607D4A36B494680209847A38ED6
:1018980043F08003A3860BB0BDE8F08F2B7D002BAF
:1018A80040F0B58094F88A30013384F88A30A38EEA
:1018B80043F48063A38695F82131033B012B16D9A5
:1018C80008F0EEFA98B9A36D002B00F0F58008F047
:1018D800010884F83280002E3FF475AF0FF0CCFD7C
:1018E800A38E5B0669D400264FF001098EE70EF03F
:1018F800E9FF0328A36D00F08D80002B00F0DC8049
:1019080008F0010884F83280002EE7D1B1465CE780
:101918002B7DC9F3C0090797002B3FF442AFB4F8F9
:101928006830F3B9AB7A03F0010291457FF43FAF19
:101938000133BBF1030FAB7200F0C380A26D002A24
:101948007FF439AF4FF00009B4F86830002B14BFAA
:101958004FF0000808F0010884F832803EBB079E6B
:1019680033E710F0C7F80328FBD002280BD0002873
:101978007FF417AFAB7A03F0010399457FF417AFF3
:10198800012384F83C30FFF7F7FB0BB0BDE8F08F7C
:10199800E80400210C050021002A14BF4FF00008BC
:1019A80008F0010884F83280002E3FF40BAF0FF0E6
:1019B80063FD079E4FF0010925E74FF00109B4F8D0
:1019C80007300133A4F8073041E7B4F80530B4F81C
:1019D800072013433FF430AF29E7B4F86820002A02
:1019E800A6D00BF1FF32012A7BD90133BBF1030FDB
:1019F800AB7266D0AB6F0133AB67EB6F43F100039B
:101A0800EB67D4E6E06E13F0BEFC014688E610F002
:101A1800B1F847E7B4F86890B9F11B0F94BF4FF0DD
:101A280000094FF00109002B59D008F0010884F88B
:101A38003280002E3FF4C9AE50E7636A05F1800199
:101A480095F82A0105F1900C93F8A82095F8203113
:101A58008000B2FA82F20791013B5FFA80FE5209D8
:101A6800DBB2032BD5E91C0100F2A78003930B46D8
:101A780005F18001CDE9002C02464FF0000C7046BC
:101A88004FF0010ECDE904CE4FF0FB0CCDF808C0A5
:101A98000FF002FFA6E6053A012A74D8079107F06D
:101AA80073FB0799002878D0238D082043F008039A
:101AB8002385A36B984751E64FF00009CDF81C9099
:101AC80042E7A38E01203F4943F480532871A3863F
:101AD800238D43F001032385A36B98478AE7079377
:101AE80032E7A38E95F8149043F48053A3860EF042
:101AF800E9FE032894F8883007D1B9F1000F0CBF2C
:101B08001F221B22934228BF1346B4F86820A16DF8
:101B18009A421CD800293FF43FAF94F8893003BBA0
:101B2800AB6F08F00108013384F83280AB67AB7AF9
:101B380003F10103AB72EB6F43F10003EB678EB364
:101B48000FF09AFC594609A8FFF7A6FB31E794F86D
:101B5800303043F0100384F8303000297FF42BAE86
:101B6800F0E6A36B002120209847A36D002B7FF49B
:101B780022AEE7E60FF080FC07961AE740F6AD11B3
:101B88002720FEF753FC40F2B3712720FEF74EFCE6
:101B980040F2D4712720FEF749FC40F2DE7127207D
:101BA800FEF744FC94F88A100120FFF7A7FA814653
:101BB8000028C5D1079EB84610E640F22541062008
:101BC800FEF734FC4C0500212DE9F041404C86B06D
:101BD80094F84430012B70D1666A5FFA83F80546A1
:101BE8000F46337903BB337A052B30D0012F16D13A
:101BF800ADB929462846FFF781FA80B9337D676A6F
:101C0800002B3BD197F821210120B7F8E2100FF003
:101C1800CFF8002006B0BDE8F041FFF773BB06B06F
:101C2800BDE8F041FFF7A8BA238D0021042043F056
:101C3800040331712385A36B9847636A93F8A8302E
:101C4800002BD0D0337A86F80580052BCED1238D92
:101C58000220204943F002032385A36B9847636A57
:101C680093F8A830002BC1D0236D1B78A3F1020391
:101C7800B3FA83F35B0984F82A30B7E797F8213180
:101C880006F1800C94F874209036013B97F8A84030
:101C9800DBB2003C18BF0124032B56E9060111D81A
:101CA8000094CDE9016202460120CDE90335059093
:101CB8000B4661460FF0F0FDA4E740F60C11272013
:101CC800FEF7B4FB40F225410620FEF7AFFB00BF4C
:101CD800E80400213805002110B50C4C0C4A0D49C8
:101CE80094F84430116023B14FF4B1712720FEF706
:101CF8009DFB03F0FF02227609F0BEF806F0FCFF18
:101D0800206706F0FDFFA06710BD00BFE8040021B2
:101D1800B81000210C200001074A10B592F8443091
:101D280013B10C24204610BD03F0FF04147609F00B
:101D3800A3F8204610BD00BFE80400212DE9F043B8
:101D48009A4C87B0054694F844009DF838600028FE
:101D580040F02181002A18BF002900F01C81B3FA45
:101D680083F04009002B00F016812364A163E2622E
:101D780084F8300084F88A0084F83C0084F88700EE
:101D88002085A08684F8310084F8320084F87D002C
:101D980084F82A00A0642065A4F85400E065606611
:101DA800A4F8680084F8896065620EF081FE0FF07F
:101DB80079FE95F928010EF0DFFED5F8D460D5F844
:101DC800CC000EF0DFFE30460FF092F995F82500B2
:101DD8000EF0E2FEB5F8E030702B03D9B5F8E2302A
:101DE800702B01D80EF05EFD636A93F8A860002E90
:101DF80072D016F087FD014695F821210120AF31F8
:101E08000EF0C0FF6A4B18680FF078F9AB7B243BE3
:101E1800D5E93012072BC4F88010E2667BD9EB7B3A
:101E2800243B072B77D9B5F8F230B5F8F80095F8C8
:101E38002011984228BF1846042908BF032115F02D
:101E480077FA024695F8F40095F8F030904228BFEA
:101E5800104680B2984200D3C3B295F8211105F11B
:101E6800E80084F87C3015F08DFF95F821112F7D5E
:101E78000329B5F8FC6008BF042115F059FA0FB919
:101E8800043080B2864228BF0646F6B284F88860DD
:101E980008F006F8002840D1636A84F8746093F863
:101EA800A8306BBBEA7C002A3ED10120FFF776FA06
:101EB8000023B5F8AA0095F82520A360C4E90033EB
:101EC800D5F82431E9882080618022710BB1012284
:101ED8001A6007B0BDE8F08316F014FD95F82021CC
:101EE800344B01463046344E33F8123003F5FA735A
:101EF800A6FB036301EB931191310EF043FF81E7D9
:101F08002B7D73BB0120FFF7FDF9636AD3F8E80165
:101F18000FF072F9CCE71B239FE707F0C7FFB04229
:101F280038BF3046C6B2B7E795F8206105F18001A1
:101F380095F82A0105F19002013E8000F6B2C0B280
:101F4800032ED5E91C892BD801924246CDE90363BB
:101F580001264B4605960096FB2602960FF09CFC40
:101F6800A3E795F8213105F1800705F19002013BBF
:101F7800DBB2032BD5E91E0112D8019202460120DB
:101F8800CDE9026300260B46059039460090049679
:101F98000FF082FCB6E74FF420712720FEF746FACF
:101FA80040F225410620FEF741FA00BFE80400216F
:101FB800B8100021785B0201D34D6210FFF7DCB83E
:101FC800014B93F887007047E8040021054B9A8E6F
:101FD80012F4C06F03D093F87D0000B17047C2F3CC
:101FE80000307047E8040021024B93F83500C0F335
:101FF800C0007047E8040021014B93F88A0070473D
:10200800E8040021F5110001DD160001D11B0001D3
:10201800E111000181220B4603F8032BB0F809C037
:10202800C27AA1F803C09A70704700BF40F2BD2180
:10203800322008B5FEF7FAF990F8DE2012B902F05E
:10204800FF00704710B5363882B00C4604F002FB2A
:102058008F230420237002B010BD00BF70B5002884
:102068005DD0437A04460D46002B3CD000214089C0
:10207800FEF7E4FD002857D00021B0F8AA00FEF7CB
:10208800F3FD002855D194F8546094F8A6302BB18C
:1020980094F8A7301E43002384F8A630204604F0A5
:1020A800D9FAB30731D188212B4604F10902293422
:1020B80003F8031BD2F800C0103252F80C6C10332E
:1020C80052F8080C52F8041CA24243F810CC43F80A
:1020D8000C6C43F8080C43F8041CEBD1117800226F
:1020E8001970AA7170BD036DD0F80E20C3F8AD2029
:1020F800428AA3F8B120437B026D03F0FD03003B45
:1021080018BF012382F8AC30BDE726F00406002290
:102118002046114684F8546004F00CFDC3E740F2F1
:1021280006313220FEF782F940F212313220FEF7F2
:102138007DF940F215313220FEF778F9044B002280
:102148001B68A3F8792183F87B2183F870207047F6
:102158007405002108B50DF091FF034B18700EF0BF
:1021680069FE032008BD00BF1000002108B50DF06E
:1021780085FF024B024601201A7008BD100000219D
:1021880038B5114C20686C3003F0AEF9656803F07F
:102198005BF963682860186858B103F083F968B17F
:1021A8000EF0C2FF00200FF059F8042263681A717C
:1021B80038BD40F2F5413220FEF738F940F2F741D8
:1021C8003220FEF733F900BF7405002108B50DF081
:1021D80055FF04490246044B48681A7003F0FCF99D
:1021E800012008BD7405002110000021F0B54C4CF9
:1021F800002383B0064625680F466B722B6DB3F833
:10220800AA2093F82911D3F8C8006A8115F0E2F8DA
:10221800236828841A6DD2F8D020C3F822204FF4FE
:102228007F42DA844FF6FF721A85002E4AD00121C8
:10223800384615F06BFB3A78D209236893F84810B2
:1022480009B1002A48D1002159611983207B082847
:1022580052D003F10E0203F10D0107F027FA00280E
:1022680058D023685A7B03F11A0542F002025A73C8
:10227800002E3BD103F1780002682A608288AA8088
:10228800186D93F95810A83007F082FB206825498B
:1022980015F038FD236824491A6DB2F8AA00A3F88E
:1022A800330003F12A00D27D83F8352015F033FD81
:1022B8000221206804F0C8FE20686C3003F014F98D
:1022C80003B0F0BDA068694615F018FAA36868461F
:1022D8001A78C2F38012B0E7427902F0C002402AAD
:1022E800B1D102685A6182881A83AFE70021384663
:1022F80015F00CFB2368BFE793F87E109A6FB3F8CC
:102308007C0059730021C3F80E205882C3F81A10B4
:10231800D983B5E741F213413220FEF787F800BFB1
:1023280074050021652000011D20000140F29B3149
:10233800322008B5FEF77AF810B504788CB004F0AE
:102348000F0402A9224603F009FC0DF097FE234A68
:10235800042C107002D003200CB010BD204C03993F
:10236800236891F800E093F878C0E645F3D191F836
:1023780001E093F879C0E645EDD191F802E093F8D1
:102388007AC0E645E7D191F803E093F87BC0E645CB
:10239800E1D191F804E093F87CC0E645DBD191F8EF
:1023A80005C093F87D108C45D5D193F87E309DF803
:1023B80019109942CFD17F280DD04FF07F0C009093
:1023C80002A9606882F800C0237C227B03F030FBFE
:1023D80003200CB010BDFFF7A9FF00BF10000021BB
:1023E800740500210E4A536810B5197902290CD9D1
:1023F800197908290ED8197952690A4B92680B4441
:10240800BDE8104052F82330184741F2BC41322051
:10241800FEF70CF841F2BD413220FEF707F800BF85
:1024280074050021FDFFFF3F38B5194D6B681B7916
:10243800022B28D82B680446027C83F8A4201A446F
:10244800C168996692F87C2183F878214268C3F8BC
:102458008820037A022B0ED00EF02AFB0EF050FFD4
:102468000DF098FE0B480EF049FE0B480EF040FEAA
:102478000A480EF087FB637C23B12B685B6E0BB1B7
:1024880001221A6038BD40F6FC013220FDF7CEFF6C
:1024980074050021284E000155555500D6BE898E79
:1024A80070B53A4C064663681A79032A41D01A79FE
:1024B800042A3ED0226892F8542092073ED1A5689B
:1024C800002D4AD0236893F85430002B3BD03EB1FE
:1024D800284615F0DDFAD8B9284615F0F4FAB8B947
:1024E80063681A79022A3DD91A79082A3FD81979D6
:1024F8006269274B52690B4452F8233098470C28DD
:1025080026D86369DB68BDE8704053F82030184767
:1025180063681A79022A2FD91A79082A31D81979C1
:10252800284662691A4B12690B4452F823309847BF
:10253800E5E7186802F0B6FF0546C1E7186802F03B
:10254800B3FF0546BCE741F2CA313220FDF76EFF02
:1025580041F2DD313220FDF769FF41F2C43132200A
:10256800FDF764FF41F2AA313220FDF75FFF41F227
:10257800AB313220FDF75AFF41F24A313220FDF7E4
:1025880055FF41F24B313220FDF750FF7405002111
:10259800FDFFFF3F70B5154D2C6894F84830EBB13E
:1025A8006FF00043D4E920129A4208BFB1F1FF3F0F
:1025B80014D010F01DF8D4E92023904299410DD38E
:1025C8002E6896F8483053B907F06AF8044610F0B8
:1025D8000FF8074BE4FB0301C6E9200170BD012099
:1025E80007F020F90028F9D02E68EDE774050021DE
:1025F80040420F001B4B2DE9F04793F9008084B04F
:10260800B8F17F0F2CD0184C7F2281460F466668A0
:102618001A703379032B1AD03379062B14BF4FF075
:10262800010A4FF0030A236803F142050EF04AF944
:1026380000903A462B4649463046CDE9028A257B2A
:10264800019503F015F828B904B0BDE8F0874FF0FC
:10265800000AE8E7606804B0BDE8F04702F07CBF14
:10266800FFF764FE100000217405002138B5054607
:102678000C4606F097FB420704D4A37803F0E00366
:10268800402B0DD006F08EFB830704D4A37803F00B
:10269800E003202B04D0237803F03F03242B01D937
:1026A800002038BD0EF014F994F900206378002A50
:1026B800A27802F01F0CB4BF4FF496711E2143EAB2
:1026C8000C2301FB03F3191AB1F5877FE8D398426D
:1026D800E6D80648294623880068A0F8793180F8AA
:1026E8007B21BDE8384004F041B800BF74050021E3
:1026F8002DE9F047334F84B0D7F8048098F80630B6
:10270800002B4DD03D6804460E4695F8953033B9F8
:102718000378002B14BF0223012385F8953098F81D
:102728000430062BDAB23FD0072A0CBF4FF0020A5A
:102738004FF0010A244B93F90090B9F17F0F3ED076
:102748007F221A700EF0BEF8009005F1420332465F
:102758004046CDE9029A397B0191214602F088FF73
:10276800F0B16378DB0618D5A1690220FFF77EFF78
:10277800E8B100233A6882F896306369DBB159788A
:10278800C1F3031182F8971059781B7801F00F01F3
:1027980043EA0123A2F8983003E0786802F0DCFEEF
:1027A800002004B0BDE8F0874FF0030AC2E778685C
:1027B80002F012FFF4E7FF2382F89730F1E7FFF702
:1027C800B5FD00BF740500211000002110B50446B6
:1027D8008AB00DF053FC194A2378107003F00F03E8
:1027E800072B02D001200AB010BD2046694603F02D
:1027F8005BFA684603F03EFB9DF80030002BF1D1F0
:102808009DF80130DB07EDD50D4C019922689DF844
:10281800110002F1780392F87E2014F0BEFC002823
:10282800E0D020680121A03014F023FAFF21684687
:10283800FFF75EFF0130C0B2D5E700BF10000021EE
:10284800740500212DE9F04304468BB00DF016FC09
:10285800434A2378107003F00F03082B04D0012596
:1028680028460BB0BDE8F0836946204603F0AEF970
:102878009DF80050002DF2D19DF8013003F00303BC
:10288800032BECD1374F3E6896F84B308BB396F854
:102898004C807B7B8BBB4FF0000906F1780396F8E0
:1028A8007E2001999DF8110014F077FC10B9B9F158
:1028B800000FD4D096F848203E6896F841904236EA
:1028C800002A3CD19DF81200334602994A46012855
:1028D8001FD014F062FC0028C1D038680121A03054
:1028E80014F0C7F97B7B9BBB21460120FFF77EFCD8
:1028F800B6E77B6893F80580CBE714F092FC0828CC
:10290800C9D0A0EB08093873B9FA89F94FEA5919FF
:10291800C3E74E7914F041FC80F0010306F0C006CD
:10292800DBB2A6F14006B6FA86F67609002BD2D0BD
:10293800002ED0D00299404606F0A8FFCBE74046CB
:1029480006F0DEFF0028BDD006464FF00109B9E7C2
:102958000EF0D6FC0DF01EFC00237B73C4E700BF0D
:1029680010000021740500212DE9F04FDFF8DCA0EC
:1029780093469846827CDAF8003083B0012A0446F0
:1029880093F84850894685F001053DD00026374622
:102998009AF80D203AB393F8542052072DD463685F
:1029A800B3B1DAF804305B79082B18D018460193D4
:1029B80006F08AFD2843C5B2B7B19AF80F20019BEB
:1029C8006AB314F038FC002307468AF80F300BE08E
:1029D800DAF80430186803F0A3F80028E1D11FB131
:1029E8009AF80E1009B300278BF8007089F8006078
:1029F80088F8005003B0BDE8F08F93F84B20002A08
:102A0800CDD093F84C30CFE78268567906F0C006EF
:102A1800A6F14006B6FA86F676093746B8E7A16801
:102A2800184606F033FF0746DEE7A06806F056FEB4
:102A380007468AF80D000028D5D014F0F2FB0828C4
:102A4800D1D0DAF804305871CEE700BF7405002100
:102A58002DE9F04F044687B006290AD8DFE801F0CF
:102A6800522E0F0909090400B34D68688379002BB9
:102A780072D10EF0DFF9032007B0BDE8F08F0EF039
:102A8800D9F9AD4A136893F854108F07F3D05068FA
:102A980081790029EFD0A94D95F900107F2900F020
:102AA8001C8202912146127B7F2442330192FF222D
:102AB800009202222C7002F013FFDCE79E4DA27CEC
:102AC80029686868012A91F8483090F806A090F8BB
:102AD800079083F001035BD00027BB4691F854C0F0
:102AE8001CF0040600F0D78091F84B60002E5AD0F5
:102AF80091F84C80B8F1080F5BD191F8418000261D
:102B080040466FE08C4DD5E9003093F854205707C4
:102B18001AD5C279002A00F0C680626893F85B1063
:102B280016788E4200F0328193F85620012A00F080
:102B3800518193F84C30082B03D042799A4200F027
:102B480049810EF077F968688379002B40F0AF80EF
:102B5800C379002B8FD18CE72B6893F85420960704
:102B680040F1CF80754A92F900107F2900F0B581B5
:102B7800029121462C7B42330194FF2400947F2448
:102B88001470062202F0ACFE002309202B7473E7B0
:102B9800A268577907F0C007A7F14007B7FA87F787
:102BA8007F09BB469AE790F80580B8F1080F00F056
:102BB800DD804046049306F087FC049B0590BBF13A
:102BC800000F40F0388129685E4691F854C091F8AA
:102BD80041800CF00402404692B3059A43EA020B86
:102BE8005FFA8BF3626891F85BC092F800E0E64503
:102BF80000F0F3804FF0000B6A685279082A00F061
:102C0800308191F84CC0ACEB0202B2FA82F2520960
:102C18000492002E00F0B680B9F1000F0BD091F8A5
:102C28005630012B00F0D6804E4623B9049B53EA58
:102C38000B0B40F0CF800EF0FDF82B6893F854C0D2
:102C48001CF0030F3FF417AF0EF0F4F8BAF1000FC1
:102C58003FF411AF2868A36800F14201A27C90F804
:102C6800410014F09AFA16B9002800F01481334E86
:102C780096F900307F2B00F03081029321462B7BA0
:102C88007F240122CDE90083D5E900303470423336
:102C980002F026FEEFE690F80580B8F1080F88D11B
:102CA80091F84180CCE78379002B3FF4E2AE2B68A2
:102CB80093F85420960743D4D0077FF5DCAE51072C
:102CC80000F1E6801D4B93F900207F2A00F0058172
:102CD8007F2002922A7B21461870FF202B680192E0
:102CE800002200904233686802F0FAFD03206B6806
:102CF800DA79002A7FF4C0AE9B79002B7FF4BCAE52
:102D0800B7E6D1077FF5B5AE530700F1BE800B4B90
:102D180093F900207F2A00F0E0807F20029221466C
:102D28002A7B1870FF24D5E900300192062242332D
:102D3800009402F0D5FD9EE67405002110000021E4
:102D4800674A92F900107F2900F0C7800291214656
:102D58002C7B42330194FF2400947F2414700022BA
:102D680002F0BEFD012309202B74C0E7626891F8C8
:102D78005B0092F800C091F8418084452CD0B3469E
:102D880040460496002B6FD1002654E7567893F8F6
:102D98005C108E427FF4C8AE967893F85D108E4230
:102DA8007FF4C2AED67893F85E108E427FF4BCAE44
:102DB800167993F85F108E427FF4B6AE517993F886
:102DC800602091427FF4B0AE617C93F85A20914222
:102DD8007FF4AAAE0A204FE6404692F801E091F847
:102DE8005CC0E6457FF406AF92F802E091F85DC05A
:102DF800E6457FF4FFAE92F803E091F85EC0E64541
:102E08007FF4F8AE92F804E091F85FC0E6457FF4ED
:102E1800F1AE92F805C091F8602094457FF4EAAECF
:102E280094F811B091F85A20ABEB0202D2F1000BE2
:102E38004BEB020BE0E6A1684046049306F026FD42
:102E480029680646049B91F854C091F841000CF09B
:102E58000402002E3CD040F00208002A7FF4BDAEE8
:102E6800EEE600220492D4E64231A368A27C14F074
:102E780094F9002888D0B9F1000F85D02B6893F811
:102E88005630012BA6D00026CFE60DF0D3FF3EE743
:102E98000DF0D0FF16E72B6893F85520023A012A67
:102EA8003FF6E9AD002F3FF4E6AD0D4E96F9002050
:102EB8007F2A12D0029221462A7B7F2468684233F7
:102EC8000192FE2200920122347002F009FDD2E53F
:102ED8008046002A7FF481AEB2E6FFF727FA00BFEA
:102EE8001000002108B5054B586802F035FB0DF0BD
:102EF800C5F8034B024601201A7008BD740500216D
:102F0800100000212DE9F843664C00220746894647
:102F1800A368D4F8008018461A800EF03BF9002800
:102F280000F0A380A568032F06462B7800F0A9803F
:102F380023F02F03222243EA49136A7043F0050362
:102F48002B7023681A6DD2F8CC20C5F80F201A6DA3
:102F5800D2F8D430EB74190A1B0C29756B7592F8EA
:102F68002A01B2F8DC10D2F8D830002840F091805D
:102F78004D48A0FB01C1A0FB0303890A9B0AEB751E
:102F8800C3F30723A9752B7692F82911D2F8C80044
:102F980014F020FA6876000AA8762068A568036D00
:102FA80095F82420D3F8D01022F01F02C5F81B1082
:102FB8009969C5F81F101B7F85F82330036D93F8B6
:102FC800233003F01F03134385F8243005F010FF66
:102FD80095F8243003F01F0343EA401385F82430A2
:102FE800A568D8F878302846C5F80930B8F87C3094
:102FF800A5F80D3098F87E1014F090FB236893F82C
:10300800482003F1420993F84180AAB393F8542069
:10301800520733D593F84B2082B393F84C0006F04F
:103028006FFC054640B34FF001082B684146A06885
:10303800C0F80330AB88A0F8073014F066FB1B4BD0
:10304800D3F804317BB9052F13D12368304629689A
:103058001A6DC2F8B410A988A2F8B8101B6D83F8CD
:10306800B380BDE8F8830DF0E5FE0026032006F0E6
:10307800E1FE3046BDE8F8834D46D6E763685879E7
:10308800CDE723F00F0343F003032B700C236B7081
:10309800A7E70748A0FB01C1A0FB0330C1F3471114
:1030A80043096CE7740500215917B7D10080004126
:1030B8001F85EB5138B5154C236893F854309B079E
:1030C80018D1A568E5B12368FF2093F878110DF0B1
:1030D8007BFC28460EF028F8236893F87831033BE8
:1030E800012B94BF282000200EF0B8F8072263684F
:1030F8001A7138BD6368186802F0D6F90546E1E729
:1031080040F21C513220FDF791F900BF74050021EF
:1031180038B51E4C0E20236893F878110DF054FC36
:10312800236893F854309B0724D1A56845B32846F3
:103138000DF0FAFF236893F87831033B012B94BF15
:10314800282000200EF08AF82368681D93F878512B
:1031580006F0F2FA607348B1033D012D8CBF50258B
:1031680055250CF0FBFF28460EF0BEF863680822D0
:103178001A7138BD6368186802F096F90546D5E7F4
:1031880040F209513220FDF751F900BF74050021C2
:1031980070B50D4D0222D5E900031A7103F0E2FC67
:1031A80000B170BD2E68044606F16C0002F014FAF6
:1031B8002868A6F8794186F87B4186F87040BDE812
:1031C800704003F01FBE00BF7405002110B50A4C03
:1031D8000CF054FF094A637B10701BB90DF02AFEEE
:1031E800032010BD0EF08CF80CF0D4FF002363739D
:1031F8000DF020FE032010BD7405002110000021F1
:1032080070B52D4C0646236893F87B215F2A2BD88E
:103218005509013593F8790100F03F000DF0BCFC29
:10322800236893F958000DF0A7FCFEB123682A46DD
:103238000120996E0DF0A6FD2368294693F8963073
:10324800022B14BFFF2040200DF0BEFB236893F82B
:103258005420920710D193F89530A668B3B1304640
:10326800BDE870400DF060BF0025D3E72A468221F3
:1032780001200DF087FDDFE76368186802F014F994
:103288002368064693F89530002BE8D1701D06F0A8
:1032980053FA60730028E2D0033D012D8CBF5024FF
:1032A80055240CF05BFF20460EF01EF83046BDE8B2
:1032B80070400DF039BF00BF74050021F0B52E4CE9
:1032C80083B00646236893F87B215F2A2FD85709D5
:1032D8009A6E01377ABBD3F888000DF08DFF256808
:1032E80095F854309A0703D595F89620022A33D0DA
:1032F8005B072DD46368186816BB02F011FC63687D
:103308000646186802F012FC024605F19A00256884
:10331800314695F8963095F87851009502F054FDAD
:103328002268002382F87871A37303B0F0BD9A6E07
:103338000027002ACFD00120FFF762FF2368CAE7E1
:1033480002F000FC014605F19A0002F031FDE7E7C2
:1033580095F89630012BCDD1FB1E012B05D93946A6
:1033680000200DF0F7FF2568C4E795F85930012BC8
:103378000CBF04210321F3E77405002110B50B4CA1
:10338800637B63B9A1680020FEF730FF2368002241
:10339800A3F8792183F87B2183F8702010BD0DF004
:1033A800AFFF0CF0F7FE00236373EBE77405002111
:1033B80010B50E4C637B8BB920680121626800232D
:1033C80011710246A0F879316C3082F87B3102F035
:1033D8008BF82068BDE8104003F014BD0DF090FF95
:1033E8000CF0D8FE00236373E6E700BF74050021E4
:1033F80007292DE9F04F044687B00D461646406868
:1034080052D1002808BF002A0CBF4FF0010A4FF024
:10341800000A72D0002800F0D580627C012A00F0F2
:10342800B180AB4F7B685879082848D00DF10F015F
:1034380004AA06F03BF9002800F05E8104A99DF873
:103448000F0015F014FA8246D7E9000890F85430B6
:1034580013F0030240F088805B0788F8062043D405
:10346800002388F807309B4B1B6833B13146204650
:10347800984788F80800D7F80480636843B1617CEE
:103488003A6882F87E10196891679B88A2F87C30A8
:1034980098F80830002B00F03481A06808B1072D97
:1034A8004FD007B0BDE8F08F002800F08880627C1C
:1034B800874F012A79684FD048790828B6D16168C2
:1034C800607C15F0D4F97A68824661680532607CC0
:1034D80006F022F8D7F8048003460028B4D1A8F8EB
:1034E800060088F80800D8E7062D90F84B9000F2FF
:1034F800B28049EA0A00C3B2B3E7754FD7E90010B2
:1035080091F8543013F0030218BF012213F004039A
:10351800827105D02378A3F10103B3FA83F35B0921
:10352800C37191F89430002BBBD03B68D3F890005E
:10353800503015F0A6F90028B3D17B6801221A7221
:10354800AFE798F805100829ABD0002BA9D006F0F2
:10355800E3F80123FB73A4E7437903F0C003402B8E
:10356800AAD17B7BFBB9A7E7062D90F84A904FD8E4
:1035780049EA0A095A0788F806907FF571AF90F86A
:103588004B90B6E7427902F0C002402A7FF449AF77
:103598004F4F7A7B002A3FF445AF26B93A6892F834
:1035A8007811012960D0D7F8048013F03AFE7B68BF
:1035B80088F80500587901233873BB7334E78246CD
:1035C800434F41E7424FD7E9000890F854309A0733
:1035D80045D1D14613F0040388F806903FF441AF73
:1035E80090F84B90311E98F807B018BF0121BBF135
:1035F800010F02D000297FF433AF6368002B7FF4FA
:1036080078AF002E3DD16378D9063AD5012328E753
:10361800082D03D9002388F8063021E798F806B06A
:10362800311E18BF0121BBF1010F0DD061B14FF060
:10363800000913F0040388F806903FF412AF90F8DD
:103648004B9098F807B0D2E762689AB149EA0A093C
:103658005FFA89F9BEE7082D3FF602AFC2E790F896
:103668004A9098F806B0DBE706F038F87873002837
:1036780099D1D7E6A6B96278D20611D54FF00109DB
:10368800D7E7D8F8000002F04BFA10B1BBF1000FF1
:1036980002D1B9F1000F14D0D7F804800123E0E675
:1036A800D8F80000019102F03BFA1BEA00000199EA
:1036B8001CD1B9F1000F0FD0D7E9000890F85430A9
:1036C800B7E705F023FFD7F804800346C9E600BF33
:1036D80074050021C0100021019105F017FF8146F3
:1036E8000199D7E9000890F85430A2E78146D7E954
:1036F800000890F854309CE740F6A5313220FCF7DA
:1037080095FEB8F80630003B18BF0123C5E600BF98
:1037180010B5104C0CF0B2FC0F4A637B10708BB9DB
:10372800206801216268002311710246A0F87931EE
:103738006C3082F87B3101F0D7FE2068BDE810407C
:1037480003F060BB0DF0DCFD0CF024FD0023637377
:10375800E6E700BF740500211000002110B50F4CEA
:10376800606801F039FF637B8BB9206801216268CA
:10377800002311710246A0F879316C3082F87B3150
:1037880001F0B2FE2068BDE8104003F03BBB0DF02D
:10379800B7FD0CF0FFFC00236373E6E77405002116
:1037A80010B5114C606801F017FF0CF067FC0F4A68
:1037B800637B10708BB92068012162680023117146
:1037C8000246A0F879316C3082F87B3101F08CFE2A
:1037D8002068BDE8104003F015BB0DF091FD0CF01A
:1037E800D9FC00236373E6E774050021100000216B
:1037F80010B5134C0CF042FC124A002123681070DB
:1038080003F1A00013F035FA637B8BB9206801211E
:103818006268002311710246A0F879316C3082F891
:103828007B3101F061FE2068BDE8104003F0EABA80
:103838000DF066FD0CF0AEFC00236373E6E700BFF5
:10384800740500211000002110B5144C606801F0C7
:1038580083FE0CF013FC024620680021104BA030B8
:103868001A7013F006FA637B8BB92068012162682D
:10387800002311710246A0F879316C3082F87B314F
:1038880001F032FE2068BDE8104003F0BBBA0DF02D
:1038980037FD0CF07FFC00236373E6E77405002115
:1038A8001000002110B500210320164CFFF72AFB59
:1038B80020B10321206802F059FF98B9637BCBB986
:1038C800206801216268002311710246A0F879314D
:1038D8006C3082F87B3101F007FE2068BDE81040AB
:1038E80003F090BA012108460DF034FD09226368FF
:1038F8001A7110BD0DF004FD0CF04CFC002363732D
:10390800DEE700BF7405002110B51C4C0C22012114
:10391800D4E900031A7103F097FB00210520FFF793
:10392800F1FA20B10621206802F020FF98B9637BE4
:10393800E3B9206801216268002311710246A0F8EA
:1039480079316C3082F87B3101F0CEFD2068BDE81A
:10395800104003F057BA2368012093F878110DF04E
:10396800F9FC236801221B6DDA7510BD0DF0C8FC47
:103978000CF010FC00236373DBE700BF7405002123
:1039880070B5244C236893F87B215F2A28D8560900
:103998009A6E013642BBD3F888000DF02DFC2568DD
:1039A80095F854309A0703D595F89620022A20D026
:1039B8005B0703D595F89630012B1AD06368186811
:1039C80002F0C0F8014605F19A0002F0F1F9002270
:1039D800D4E90013A273062281F878611A7170BDC8
:1039E8009A6E0026002AD6D00120FFF709FC23682A
:1039F800D1E7F31E012B05D9314600200DF0AAFCB2
:103A08002568DBE795F85930012B0CBF0421032109
:103A1800F3E700BF7405002138B5224C63681868C5
:103A280001F040FD002837D063680A2205460021CE
:103A38001A71206803F008FB22682B780520126DA4
:103A4800C3F34013D57D1D402946FFF75BFA40B10B
:103A58000421206802F08AFE18B123681B6DDD7509
:103A680038BD637B8BB9206801216268002311711E
:103A78000246A0F879316C3082F87B3101F034FDD0
:103A88002068BDE8384003F0BDB90DF039FC0CF0F2
:103A980081FB00236373E6E740F261513220FCF7B3
:103AA800C5FC00BF7405002138B5174C05212068F6
:103AB80002F05CFE48B12368012093F878110DF0FC
:103AC80049FC0B2263681A7138BD0546606801F02D
:103AD80083FD637B8BB92068012162680023117123
:103AE8000246A0F879316C3082F87B3101F0FCFC99
:103AF8002068BDE8384003F085B90DF001FC0CF0F2
:103B080049FB6573E7E700BF74050021F0B52B4C4E
:103B180083B0236893F87B215F2A36D857099A6EB9
:103B28000137002A35D1D3F888000DF065FB2568E8
:103B380095F854309A0703D595F89620022A2DD087
:103B48005B0703D595F89630012B27D06368186872
:103B580001F0E6FF63680646186801F0E7FF0246D1
:103B680005F19A002568314695F8963095F8785110
:103B7800009502F029F90022D4E90013A273052266
:103B880081F878711A7103B0F0BD9A6E0027002A87
:103B9800C9D00120FFF734FB2368C4E7FB1E012BC3
:103BA80005D9394600200DF0D5FB2568CEE795F8F4
:103BB8005930012B0CBF04210321F3E774050021C0
:103BC80010B501291D4C636810D178B91A79082AF3
:103BD8002AD91A790C2A2CD819796269184B526893
:103BE8000B44BDE8104052F823301847184601F03E
:103BF800F3FC637B8BB92068012162680023117193
:103C08000246A0F879316C3082F87B3101F06CFC07
:103C18002068BDE8104003F0F5B80DF071FB0CF01A
:103C2800B9FA00236373E6E741F28C413220FCF7CE
:103C3800FDFB41F28D413220FCF7F8FB74050021B1
:103C4800F7FFFF3FF0B55A4C83B020686C3001F0A5
:103C58004BFC656801F0F8FB636828601868002869
:103C680000F09B8001F01EFC0546002800F09A80B9
:103C7800236893F8A630002B47D1D4E9000290F8C6
:103C8800A430034493F87C7180F87871137913B1E8
:103C98001379012B4AD1474A90F8A530D05C0CF033
:103CA8007BFF236893F8A420134493F87C61022EC9
:103CB8003AD04DD8012E4ED101F0C0FB31460CF060
:103CC80083FE28460DF030FA314601200CF07AFFC9
:103CD800012F31D1E81C05F02FFD607328B1402574
:103CE8000CF03CFA28460DF0FFFA62680821002320
:103CF8002068517121730321D3801372E38180F806
:103D080095302374117103B0F0BD236893F85420E3
:103D180093F8A700196D0243C3F8101183F85420D3
:103D2800002283F8A620A8E70D20C7E7002102F0AB
:103D38001DFDA8B12068AEE7681D05F0FDFC6073A5
:103D48000028D2D0033F012F8CBF50255525C7E747
:103D5800F31E012BB0D940F2F7713220FCF766FB55
:103D6800637B93B9206801216268002311710246C0
:103D7800A0F879316C3082F87B3101F0B5FB20680E
:103D880003B0BDE8F04003F03DB801900DF0B8FA7B
:103D98000CF000FA01986073E4E740F252413220D7
:103DA800FCF744FB40F254413220FCF73FFB00BFD4
:103DB800740500212059020108B50CF05FF9044B85
:103DC80018700DF037F8BDE80840FFF73BBF00BF9B
:103DD8001000002110B50C4C0CF050F90B4A637B15
:103DE80010702BB90DF026F8BDE81040FFF72ABF78
:103DF8000DF086FA0CF0CEF9002363730DF01AF873
:103E0800BDE81040FFF71EBF740500211000002117
:103E180010B50446FEF708FB237A032B4AD0012B82
:103E280051D039D82F4C304A216891F8A53091F8F3
:103E380049000133A2FB03CE0EF4FF7C0CEB5E0CB1
:103E4800A3EB0C0340FA03FC1CF0010F13D1013360
:103E5800A2FB03CE2EF0010C0CEB5E0CA3EB0C03C3
:103E68001841C00707D40133A2FB030222F0010066
:103E780000EB52029B1ADBB281F8A53091F9580089
:103E88000CF07AFE2368002283F89520FFF7DAFE0B
:103E9800BDE81040FEF77EBB023B012B09D8114C50
:103EA800236893F8950088B9FFF708FA0522636834
:103EB8001A7110BD0B4B1B68986E70B9FFF7A0F90B
:103EC800237A012BADD1074C2168D7E70120FFF7F2
:103ED800F5F9062263681A7110BD40F646113220C2
:103EE800FCF7A4FA74050021ABAAAAAA2DE9F047A9
:103EF800AF4F86B0D7F8008098F857309BB17E68EE
:103F08000446B3799BB12578012D19D0022D4BD0E9
:103F18004DB998F85420910705D0002B40F08280C5
:103F2800337A002B7ED1032006B0BDE8F087F27902
:103F3800002AE8D1327A002AF5D02578012DE5D17A
:103F4800637803F01803182BEDD198F854305A070A
:103F580000F1DE80974B93F900507F2D00F03681F9
:103F68007F221A700CF0AEFC00210090029508F137
:103F780042030391FF22397B30460191214601F02B
:103F880077FB0028CFD0A1690120FEF76FFB00283E
:103F9800C9D001233A6882F896306369002B33D17F
:103FA800FF2382F89730B1E098F854309B07BAD0D5
:103FB800637803F01803182BB5D17E4B93F9009062
:103FC800B9F17F0F00F002817F221A700CF07AFCA1
:103FD80000220090CDF8089008F142030392304681
:103FE8003A7B21460192FF2201F042FB00289AD039
:103FF800A1690120FEF73AFB002894D03A6882F8BC
:1040080096506369002BCBD05978C1F3031182F81D
:10401800971059781B7801F00F0143EA0123A2F8A1
:10402800983073E0637813F0100FC3F300160CBFD9
:10403800012208229A437FF476AF0023A2688DF804
:1040480015308DF81630002A69D00DF117030DF1DF
:1040580016010DF115022046FEF786FC39689DF819
:10406800153091F84190002B40F0A6804231A368AA
:10407800A27C484613F091F868B93B6893F855302C
:10408800023B012B3FF64FAF9DF81630002B3FF453
:104098004AAF4FF0FE09474B93F90080002E62D0DB
:1040A800B8F17F0F00F092807F221A70D7E90036AE
:1040B80003F142050CF006FCCDF808804A462B4671
:1040C8000025009030460395397B0191214601F087
:1040D800CFFA00283FF427AFA1690120FEF7C6FAFE
:1040E80000283FF420AF3B6883F896506269002AA5
:1040F80068D05178C1F3031183F89710517812787A
:1041080001F00F0142EA0122A3F8982002200BE7F0
:1041180063684BB9A368002B7FF405AF1AE74FF02B
:10412800FF098DF81720B6E708F15B0398F85A20C5
:1041380008F1780198F87E0013F02FF87E68D7F818
:104148000080737998F85620082B03D098F84C1003
:10415800994234D0012ADDD0002A7FF4E4AE002849
:104168003FF4E1AED6E7B8F17F0F2FD07E687F220B
:104178001A703379032B04D03379062B14BF012529
:1041880003253B6803F1420A0CF09CFB2146009092
:1041980053464A463046CDE902853C7B019401F0FE
:1041A80067FA00283FF4BFAE786801F0D5F9BAE69F
:1041B800740500211000002149F002096BE7012A6B
:1041C800A8D9B0E6FF2283F897209FE7FEF7AEF85C
:1041D80030B505468BB00BF051FF334B2C780246B7
:1041E8006946284604F00F041A70304D01F05CFD52
:1041F800072C2B6834D093F8542012F0060F06D001
:1042080093F8A420134493F87C21012A3FD000227C
:1042180021466846FFF7ECF82B6893F87831012BB4
:1042280014D1062C02D02FD8022C2DD8214668464E
:10423800FEF70EFC6B7B04467BB10DF061F80BF0CA
:10424800A9FF002320466B730BB030BD033B012B45
:1042580025D803246B7B002BEFD120460BB030BD53
:1042680093F87811684601F055FD0022214668460A
:10427800FFF7BEF82B6893F87831012B0CD168460C
:10428800FFF734FE0446E5E70CF0D4FDE1E796219C
:1042980000200CF08DFDBAE7033B012BEFD941F26A
:1042A80045213220FCF7C2F81000002174050021D6
:1042B8002DE9F04F93B0AD4C0D4608A901F0F4FC80
:1042C800206808A99A3001F0A7FD23689DF82010FE
:1042D80093F89620914205D1032D17D09DF82120FF
:1042E800120766D4606801F077F90125637B1BB972
:1042F800284613B0BDE8F08F0DF002F80BF04AFF26
:1043080000232846637313B0BDE8F08F93F8972015
:10431800FF2AE3D108A82A460721FFF769F8606851
:10432800C38813B9037A002BDDD000230A9F8DF8C8
:104338001D308DF81E308DF81F30002F4AD00DF13A
:104348001F030DF11D020DF11E0108A8FEF70CFB5D
:1043580023689DF81D8093F841509DF8206045EA38
:1043680048059DF81E90012E9DF81F70EDB238D0BB
:10437800022E00F0AA80002EB4D1206890F85430A4
:104388009E07B2D09DF82130990700F1D180FF2512
:1043980063681B7A33B1764B1B681BB10F9808B161
:1043A80011999847294608A8FEF7A2F9451CEDB2CD
:1043B8009CE70D9993F897004A78B0EB121F91D1BA
:1043C800097802F00F02B3F8983041EA02229A42C3
:1043D80088D19FE79DF82060B946B846FF25012E91
:1043E800C6D19DF82130206803F0090290F89A1090
:1043F800092A05D000293FF478AF1B077FF575AF70
:1044080090F85430D4F804A05A0713D59AF8073016
:1044180083B1002900F00D810A9B1BB1B8F1000F90
:1044280000F05B81A03012F046FC002840F0B68115
:10443800D4F804A09AF80630002B3FF456AF27684A
:1044480097F854309B073FF450AF9DF8213013F094
:10445800020300F0CA80B8F1000F0AD10A9B07F1E5
:1044680042019DF8322097F8410012F096FE00288C
:104478004ED0404B93F90090B9F17F0F00F0948132
:10448800D4F804807F221A7098F80430032B00F0C7
:10449800F28098F80430062B08BF0326236803F13E
:1044A80042070CF00FFA2A4600903B4608A94046FE
:1044B800CDE90296257B019501F0DAF800283FF452
:1044C80014AF606801F048F80FE7266896F8543092
:1044D8009A073FF40AAFD4F804A09AF80620002AF5
:1044E8003FF403AF9DF8212002F0090109297FF468
:1044F800FCAE13F0020B02F002013DD0002900F0DF
:10450800BC80B8F1000F40F02181002F40F01281EB
:10451800236893F85530023B012B3FF6E6AEB9F11C
:10452800000F3FF4E2AEFE2108A8FEF763F8DCE6D0
:10453800B8F1000F7FF42CAF00F142010A9B9DF8FF
:10454800322090F8410012F028FE00287FF420AFB6
:10455800236893F85530023B012B3FF6C6AEB9F1FC
:10456800000F3FF4C2AEFE2512E700BF740500211C
:10457800BC10002110000021002900F0BE80B8F115
:10458800000F0AD10A9B06F142019DF8322096F8E5
:10459800410012F002FE0028BAD0844B93F9008043
:1045A800B8F17F0F00F0008167687F221A703B79AD
:1045B800032B06D03B79062B14BF4FF0010B4FF0AD
:1045C800030B236803F142060CF07CF92A4600909D
:1045D800334608A93846CDE9028B257B019501F0C1
:1045E80047F800283FF481AE6BE7704A92F9005013
:1045F8007F2D00F0D9807F2111709AF80420032ABA
:1046080000F096809AF80430062B08BF03260CF0B9
:1046180059F907F142030090CDE90256257BFF22A4
:1046280008A95046019501F023F800283FF45DAE33
:1046380047E700F15B0390F85A2000F1780190F801
:104648007E0012F0AAFD0346D4E9000A9AF8051084
:1046580090F85620082904D090F84CC08C4500F0FA
:104668009F80012A3FF4D8AE002A7FF4E3AE002BE6
:104678003FF4E0AED0E6002610E74C4B93F90080FB
:10468800B8F17F0F00F090807F2203201A70FEF7A8
:1046980039FC23680646D4F8049003F142070CF06D
:1046A80011F92A46012500903B46CDF8088008A953
:1046B80003954846257B019500F0DAFF002E3FF46C
:1046C80011AE00283FF40EAE2068A03012F0F3FAC5
:1046D80000283FF4F6AE0B2508E6002F3FF4AAAEFB
:1046E80000F142019DF8322090F8410012F055FD8A
:1046F80000283FF49DAE206894E62C4B93F90050B7
:104708007F2D51D07F221A709AF80430032B05D0E0
:104718009AF80430062B14BF0121032105910CF0EF
:10472800D1F8059906F142030090CDE9025175E7E9
:104738001E466CE70A9B06F142019DF8322096F866
:10474800410012F02AFD00283FF4E2AE174B93F91E
:104758000080B8F17F0F27D07F22002103201A7034
:10476800FEF7D0FB23680646D4F8049003F142070D
:104778000CF0A8F82A46012500903B46CDF80880A1
:1047880008A903954846257B019500F071FF002E86
:104798003FF44BAF00283FF4A8AD95E70C25A5E5FD
:1047A800012A7FF639AE45E6FDF7C0FD100000216D
:1047B80010B504460BF062FC094A2378107003F028
:1047C8000F03072B05D120460121BDE81040FFF754
:1047D8006FBD044B586800F0FFFE012010BD00BFFC
:1047E800100000217405002110B504460BF046FCAA
:1047F800094A2378107003F00F03072B05D12046D0
:104808000321BDE81040FFF753BD044B586800F082
:10481800E3FE012010BD00BF100000217405002137
:1048280090F83E00003818BF01207047007A003821
:1048380018BF0120704700BF036D10B58BB102226D
:10484800FF2104464272B3F8AA204FF6FF7380F89E
:10485800271003850549428113F054FA0023236584
:1048680010BD40F261313220FBF7E0FD6520000108
:1048780038B5012105460020FCF7E0F920B30446CD
:1048880001F0DEFE02E094F870301BB194F870304D
:10489800012BF8D13F220021204610F011F9002306
:1048A80040F20111072284F8543084F8A530A4F8A6
:1048B8004A1084F8585084F84920636684F8943084
:1048C800C4F8903084F8A63001210846FCF7B6F900
:1048D800044618B301F0B4FE02E094F870301BB13E
:1048E80094F87030012BF8D13F220021204610F0B7
:1048F800E7F8002340F20111072284F8543084F8C5
:10490800A530A4F84A1084F8585084F84920636602
:1049180084F89430C4F8903084F8A630BDE8384064
:1049280000F082BDF8B506461D4F04F0E5F90346D0
:1049380001210020BB60FCF745F930B34FF4C07289
:104948000021044610F0BCF801210846FCF73AF9AA
:104958007F69054680B14FF4C072002110F0B0F8AD
:10496800C7B13046FFF784FF204601F05FFE2846B6
:10497800BDE8F84001F05ABE67B13046FFF778FF4E
:104988002046BDE8F84001F051BE40F685013220CE
:10499800FBF74CFD40F68F013220FBF747FD00BFC7
:1049A80074050021014B024A5A61704774050021C1
:1049B800C44E0001036810B54BB1074A03F16C04FB
:1049C8005169C2E900340B68BDE81040184740F649
:1049D80077113220FBF72AFD7405002110B50F4C22
:1049E800606800F0F9FD637B8BB92068012162687B
:1049F800002311710246A0F879316C3082F87B31BE
:104A080000F072FD2068BDE8104002F0FBB90CF020
:104A180077FC0BF0BFFB00236373E6E77405002106
:104A280080F84910704700BF11F001031FD04FF004
:104A3800010C0222634680F87CC111F0020F0ED0EF
:104A480000EB030C490700B54FF0020E8CF87CE12F
:104A580003D51044032380F87C315DF804FB4A0732
:104A680004D51844032380F87C317047704701222D
:104A7800E3E700BF80F85710704700BF38B590F8DB
:104A880040C0ACF1020EBEF1010F98BF00290CBF67
:104A98000124002408D00CF0FD000038BDE838409F
:104AA80018BF012004F0B8BB02F0FD020546194604
:104AB800101E18BF012012F0AAFB082801D02046BA
:104AC80038BD95F840C0E6E790F8400000F0FD00DA
:104AD800003818BF012004F09FBB00BF90F8A63033
:104AE80013BB10B5044603F0FF0094F85430022BB2
:104AF80007D0012B08BF04290CBF0120002002D0D9
:104B080010BD0429FCD1D4F810317BB9216D91B1C5
:104B180004F1E80001F086FE042384F8A730FF239F
:104B280084F8A630012010BD0020704740F6F81127
:104B38003220FBF77BFC40F6F9113220FBF776FCBC
:104B480080F84010704700BF38B5044690F8400020
:104B580000F0FD0004F14201003818BF012084F87C
:104B6800410004F03FFB94F84030023BDBB2012BDC
:104B780094BF0123002384F8483000D938BD04F0DD
:104B88008FFD05460DF034FD094BE5FB030194F854
:104B98004830C4E92001002BF0D0002004F042FE88
:104BA8000028EBD140F621213220FBF73FFC00BF63
:104BB80040420F00B1F1000C4FF0080110B5044657
:104BC8000CBF0120002084F856C084F84B0084F8FC
:104BD8004C1009D102F0FD021946101E18BF012021
:104BE80012F015FB84F84C0010BD00BF08B5B2B137
:104BF80080F85A10D2F800C0036DC0F85BC090F876
:104C080041109288A0F85F2083F8B310D0F84220B2
:104C1800C3F8B420B0F84620A3F8B82008BD40F681
:104C28003F213220FBF702FCF0B5D0F8C8409DF8D0
:104C380014E0944203D190F840208A4201D0002029
:104C4800F0BD1EF0020190F8455123D00024A4467F
:104C58002146224611E0314300EB820253F82C60D2
:104C68000CF101070134D2F8CC205FFA87FC2A3214
:104C7800B242E4D1E2B2AA4226D8861896F87C61FC
:104C8800F71E012FE7D80CF1010C41F004015FFA7F
:104C98008CFCE1E70E460A468418013694F87C41FC
:104CA800E71E012F53F8227088BF214300EB8204CE
:104CB80098BF41F00401F2B2D4F8CC4004F12A0CB8
:104CC8006745BCD1AA42E7D90EF00500401AB0FAF0
:104CD80080F04009F0BD00BF90F854305A070ED458
:104CE80013F0030301D11846704790F8550000F0FF
:104CF800FD00A0F10100B0FA80F04009704790F87B
:104D08005600A0F10100B0FA80F04009704700BFDA
:104D1800012938B5044610D094F8543004F16C05D4
:104D28009B071AD1284600F0DFFB0023A4F879314D
:104D380084F87B3184F8703038BD0A4D6B7B002BCA
:104D4800EAD00CF0DDFA0BF025FA00236B7304F1BE
:104D58006C0594F854309B07E4D0284600F03CFCDE
:104D6800E0E700BF74050021A03011F0ADBF00BF1F
:104D78000149363012F0C9BF4120000110B50121A8
:104D880004460020FBF75AFF28B36278034680F8F0
:104D98005420227812F0010103D00120014683F843
:104DA8007C01520703D51944032281F87C21A2789B
:104DB80083F84020E17801F0FD0283F85510B2FA3B
:104DC80082F2520983F84A20227983F849206279CD
:104DD80083F8572010BD40F6CB213220FBF726FB85
:104DE80010B504466C3000F0F7FB0023A4F87931C5
:104DF80084F87B3184F8703010BD00BF08B50121FC
:104E08000020FBF71BFF28B190F89400003818BF6A
:104E1800012008BD40F64A313220FBF707FB00BFEE
:104E2800ED230001A9240001C93B000165370001F9
:104E38008921000185330001BD30000119310001CD
:104E4800DD3D0001C13D000119370001A93700010E
:104E580051380001F937000145210001B93300013B
:104E6800993100014D3C000135200001153B00013E
:104E7800893900013520000135200001AD380001D5
:104E8800213A0001B13A000111390001D94100016C
:104E980041230001B9470001F1470001D52700016E
:104EA8004D280001D53100015D210001D521000107
:104EB800D5210001ED2E000175210001193E0001E8
:104EC800384E0001484E0001604E0001944E00012A
:104ED800AC4E00012DE9F04705468CB00E46002087
:104EE8000121FBF7ABFE002800F074820446A830CD
:104EF80001F0BAFB002846D094F85430042B42D075
:104F0800AF6A002F00F05381BB4B9F4263D0043B34
:104F18009F4260D003F0FEFE07F13B08814602A9DC
:104F2800404600F0C1FEEB7AB9F1000F00F0BE80F8
:104F3800D80606F10D0100F1F381002F00F04F8231
:104F48009DF80830022B00F04A8295F83230E522AD
:104F5800404612F034FD95F832300446404623446A
:104F680085F8323012F023FD95F83280A8EB00085E
:104F7800B8FA88F84FEA5818B9F1000F31D104F19E
:104F88001803DBB2A1E02046FFF74AFC0028B7D19E
:104F98009A4C04F1080604F10C070023AA6A002AB7
:104FA80000F03081A96A0A68B142AA620B704B709E
:104FB8008B70CB70F2D0B942F0D0206810F039FB7A
:104FC800231DD3E84F3F0133211DDBB2C1E8423F27
:104FD800002AF5D1E1E703F09DFE8046002870D055
:104FE8000024EA7AD30640F1FA815007AB7A697B4C
:104FF80003D5EA7EFE2A00F0718104F10A02F370FB
:10500800717102FB03F3023373703E233370022382
:10501800B370D5F80E30C6F806306B8A3473344452
:1050280073812B7E6373EB7A13F0080100F0FE8026
:10503800724C042304F1080933714F4578D1337950
:10504800022262F34613AA6A33716AB1EFF310823F
:1050580072B6AB6A1968A962002A00F0C280002201
:105068001A705A709A70DA70A5F10801206810F069
:10507800E0FA231DD3E84F3F0133211DDBB2C1E81D
:10508800423F002AF5D102274FF004088DF804802A
:105098008DF805709DF8042000209DF8053062F316
:1050A800070063F30F200CB0BDE8F087DA0606F1BD
:1050B8001C0100F13E8127B19DF80830022B7FF4D6
:1050C80044AF182300244FF001088E223270AA7AC8
:1050D80002FB03F3F27002337370D5F80B20D5F896
:1050E8000F30D5F81300D5F817107260B360F06070
:1050F8003161D5F81B20D5F81F307261B36195F87E
:1051080014A095F8159003F043FE0AF1FF338A05C1
:10511800DBB252D5032B00F2668186F80DA0B9F1F7
:10512800000F60D1F476354C04F108094F4586D05C
:1051380004F10C0A574500F08280002F00F0A78088
:10514800B8F1000F2AD0AB6A63B1EFF3108272B6E0
:10515800AB6A1968A96202B962B600221A705A705D
:105168009A70DA703946206810F063FA231DD3E884
:105178004F3F0133211DDBB2C1E8423F002AF5D180
:10518800AB6A85F832204B4500F0DD80534500F0CE
:10519800FE809DF80830022B00F0BB803379012295
:1051A80062F34613337101274FF004086EE703F0EA
:1051B800B1FD05F133088146B1E6032B00F21C81ED
:1051C8000F4AD35C7373B9F1000FABD009F1FF3903
:1051D8005FFA89F9B9F1030F00F20E8112F809900C
:1051E80006E062B63BE709F1FF33032B00F2FB80D0
:1051F80086F80E9096E700BF980500218C050021DF
:1052080024590201A5F10801206810F012FA231DA3
:10521800D3E84F3F0133211DDBB2C1E8423F002AEA
:10522800F5D14FF40073ADF8043033E703F003020F
:10523800032A49D0590749D50123337173E7AB6A6B
:1052480063B1EFF3108272B6AB6A1968A96202B94A
:1052580062B600221A705A709A70DA706B7D83BB3E
:1052680032794FF0040863F346123271A5F1080150
:10527800206810F0DEF9231DD3E84F3F0133211DCC
:10528800DBB2C1E8423F002AF5D10227FEE695F8D5
:105298000B8018F010083FF4F9AE3379A5F1080136
:1052A800206867F34613337110F0C3F9231DD3E860
:1052B8004F3F0133211DDBB2C1E8423F002AF5D13F
:1052C800E1E64FF00008D1E731712CE7022A25D03A
:1052D800002A40F08D800323337124E7F3701B010B
:1052E8007171023373703E2333700B23B370012343
:1052F8003371D5F80E30C6F806306B8A3273738175
:10530800EB69C6F80D302B8CA6F811302B7EF374A0
:1053180009E7337923F06803337144E7327102E710
:105328009DF8184008460599C84622460FF074FCB7
:1053380057E69DF81840084605994FF0010822469F
:105348000FF06AFC1BE63379022262F34613AA6A5D
:10535800337162B1EFF3108272B6AB6A1968A96251
:1053680002B962B600221A705A709A70DA70A5F102
:105378000801206810F05DF9231DD3E84F3F013381
:10538800211DDBB2C1E8423F002AF5D17BE6337923
:1053980062F34613AA6A337162B1EFF3108272B6F0
:1053A800AB6A1968A96202B962B600221A705A700B
:1053B8009A70DA70A5F10801206810F03AF9231DF7
:1053C800D3E84F3F0133211DDBB2C1E8423F002A39
:1053D800F5D158E64FF4F1713320FBF727F85B213C
:1053E8003320FBF723F84FF4EA713320FBF71EF85C
:1053F800A4213320FBF71AF84FF43F710620FBF77E
:1054080015F800BF343270B5044692B21E460D46F8
:1054180010F0D7F824B1034B1C601D745E741D7125
:1054280070BD00BF8C05002110B5034C206810F03A
:10543800EAF8237C237110BD8C050021014B587CB0
:10544800704700BF8C05002138B5154C206810F056
:10545800E0F800B30546231DD3E84F3F013B221D6A
:10546800DBB2C2E8413F0029F5D105F10803342237
:10547800012418460FF024FBEA7C0346FF2147F677
:10548800FF7064F346126975E883184685F823109F
:10549800EA74ED6238BD40F257113320FAF7C6FFBF
:1054A8008C0500213330704738B50446406A08B18E
:1054B8003B3038BD0B4D286810F0ABF8606260B126
:1054C8002B1DD3E84F3F013B291DDBB2C1E8423F0A
:1054D800002AF5D1606A3B3038BD4FF4B8713320EB
:1054E800FAF7A4FF8C05002138B503684BB39A6A14
:1054F80052BB596A054629B301F10800154C83428D
:10550800206808BF2A6010F094F8231DD3E84F3FA5
:105518000133211DDBB2C1E8423F002AF5D12B68D7
:105528007BB1A3F10801206810F083F8231DD3E8AC
:105538004F3F0133211DDBB2C1E8423F002AF5D1BC
:105548002A6038BD034CECE740F28D113320FAF79E
:105558006DFF00BF8C05002170B505680646F5B1E2
:105568001B49284612F0DAFB1A4C0023E360EFF3DC
:10557800108272B6AB6A23B3E96A04F10C030B60BC
:10558800EB6202B962B63368596A29B101F10805BC
:10559800AB421AD100236B620023336070BD696A85
:1055A8000029F9D00B4C206810F043F8231DD3E8EC
:1055B8004F3F0133211DDBB2C1E8423F002AF5D13C
:1055C800E8E704F10C03AB62DAE71D46EBE700BF3E
:1055D800DD4E00018C05002170B50668002E3CD018
:1055E800716A0546002939D001F108031E4C9E4214
:1055F8000DD0206810F01DF8231DD3E84F3F01336C
:10560800211DDBB2C1E8423F002AF5D12B680022F8
:1056180072625A7D8AB10022A260EFF3108172B6DD
:105628009A6AF2B1D86A114A0260DA6201B962B6BE
:105638002846BDE87040FFF78FBFA3F10801206836
:105648000FF0F7FF231DD3E84F3F0133211DDBB2D5
:10565800C1E8423F002AF5D12A6070BD3346024CAA
:10566800D7E7024A9A62E0E78C05002194050021F9
:105678002DE9F04704680D4698469DF820109DF8DE
:1056880024309DF928C09DF82C90002C00F00A8148
:10569800DFF840A2174606469AF80420002A7FD071
:1056A800626A002A00F0088182F81190EA684AB11B
:1056B80095F810E0228E724440F2726E724500F343
:1056C800BA802286012284F818C0A272B9F1000FAC
:1056D80072D061756A691AB15278C2F30312A27561
:1056E800EA6912B15288A4F819202A78E17AA2F15D
:1056F8000100B0FA80F0400960F30001C8B2E1721D
:1057080011F0020140F08E80022A00F0BE80E07A9B
:1057180061F34100C0F34001E072002A14BF002188
:1057280001F00101E27A61F3C302E272AA68002A79
:1057380000F08B80E17A41F00401E172296A0029C6
:105748003CD091F90010E1756968002939D0082B1F
:1057580004F10E0200F08F80184604F10D0103F0E9
:10576800A5FF002800F0B180637B43F00203637358
:10577800AA6832BBAA69B9F1000F30D13AB193785F
:10578800527803F01F0352EA032200F08780636A0D
:10579800002B00F09580002301206362BDE8F087AC
:1057A800B9F1020F5BD03FD8FFF79EFE3368002B9C
:1057B8007DD10020BDE8F08721758BE76968002955
:1057C800C5D1BB1E04F11C01012B4CD91368E36140
:1057D80093888B80E776AA69B9F1000FCED00021B3
:1057E800636A197059709970D970A16A002950D0EC
:1057F800E16A0B60E36282B19178507801F01F0290
:1058080050EA022009D1A26ACAF80800002A42D048
:10581800314A1A600023E26233603049204612F0B0
:105828007DFAB4E7012172E7B9F1030F3FD1FFF721
:10583800D3FE3368BBE7FFF7CFFE3368002BB8D041
:1058480040F275313320FAF7F1FD2A6A12B192F964
:105858000020E2756A68002A7FF479AF8AE7FFF7CB
:105868007BFE3368A3E7D8F80030E361B8F804306A
:105878008B80E776AFE76B7C63736B681968C4F855
:105888000E109B889380AA6873E740F00200E072CC
:1058980048E7A362AEE7104AA262BBE73046FFF7CB
:1058A80023FE86E740F23B313320FAF7BFFD4FF481
:1058B80056713320FAF7BAFD40213320FAF7B6FDC6
:1058C8004FF4D8713320FAF7B1FDC3213320FAF72A
:1058D800ADFD00BF8C05002194050021DD4E0001BF
:1058E8002DE9F843504D0F4600260468297998465B
:1058F80006609DF820909DF824009DF9283081B914
:10590800A4F1080128680FF094FE2B1DD3E84F3F3F
:105918000133291DDBB2C1E8423F002AF5D1BDE8B9
:10592800F8830121C4F80960C4F80D60C4F8116057
:10593800C4F81560C4F81960C4F81D60A4F82160A3
:10594800A172062A66D8DFE802F02B3239653E6577
:105958000400E27A22F0120242F01202E272237686
:105968000123082804F10E02237547F6FF73E3822A
:1059780030D004F10D0103F099FE00284FD0637B6D
:1059880043F002036373E37A5B072ED4FF23E376C5
:105998000023237225492046BDE8F84312F0B5B923
:1059A800E27A22F0130242F01302E272D7E7E27AB7
:1059B80022F0150242F01502E272D0E7E27A42F0D4
:1059C8001002E272CBE7E27A22F01A0242F01A02DF
:1059D800E272C4E77B7C63737B681968C4F80E10B5
:1059E8009B889380E37A5B07D0D5A9F1020304F181
:1059F8001C02012B07D9BB681968E1619B88938059
:105A080084F81B90C4E7D8F80030E361B8F8043094
:105A18009380F5E740F246413320FAF707FDC321AA
:105A28003320FAF703FD00BF8C050021DD4E00018D
:105A3800F8B5394D8446002610462A790F46DCF819
:105A480000409DF91810CCF800607AB9A4F108015B
:105A580028680FF0EEFD2B1DD3E84F3F0133291DB9
:105A6800DBB2C1E8423F002AF5D1F8BDC4F80960AD
:105A780041F60125C4F815600122217645EA03257F
:105A8800618941F6FF33C4F81160082821F4DF5119
:105A980003EA0503227547F6FF7221F01F01C4F8D7
:105AA8000D60E28204F10E0243EA0103C4F81960B2
:105AB800C4F81D60A4F82160638115D004F10D01BC
:105AC80003F0F4FD18B3637B43F002036373E37AD6
