:10000000D86A002049300100393102003530010042
:100010003530010035300100353001003530010048
:10002000000000000000000000000000213101007D
:100030003530010000000000D532010035300100EC
:10004000593301005933010059330100593301007C
:10005000593301005933010059330100593301006C
:10006000593301005933010059330100593301005C
:10007000593301005933010059330100593301004C
:10008000593301005933010059330100593301003C
:10009000593301005933010059330100593301002C
:1000A000593301005933010059330100593301001C
:1000B0005933010025B301005933010059330100C0
:1000C00059330100593301005933010059330100FC
:1000D00059330100593301005933010059330100EC
:1000E00059330100593301005933010059330100DC
:1000F00059330100593301005933010059330100CC
:1001000059330100593301005933010059330100BB
:1001100059330100593301005933010059330100AB
:10012000593301005933010059330100593301009B
:10013000593301005933010059330100593301008B
:10014000593301005933010059330100593301007B
:10015000593301005933010059330100593301006B
:10016000593301005933010059330100593301005B
:10017000593301005933010059330100593301004B
:10018000593301005933010059330100593301003B
:10019000593301005933010059330100593301002B
:1001A000593301005933010059330100593301001B
:1001B000593301005933010059330100593301000B
:1001C00059330100593301005933010059330100FB
:1001D00059330100593301005933010059330100EB
:1001E00059330100593301005933010059330100DB
:1001F00059330100593301005933010059330100CB
:1002000059330100593301005933010059330100BA
:1002100059330100593301005933010059330100AA
:10022000593301005933010059330100593301009A
:10023000593301005933010059330100593301008A
:10024000593301005933010059330100593301007A
:10025000593301005B690200593301005933010031
:100260005933010059330100456902005933010037
:10027000593301005933010059330100593301004A
:10028000593301005933010059330100593301003A
:10029000593301005933010059330100593301002A
:1002A000593301005933010059330100593301001A
:1002B000593301005933010059330100593301000A
:1002C00059330100593301005933010059330100FA
:1002D00059330100593301005933010059330100EA
:1002E00059330100593301005933010059330100DA
:1002F00059330100593301005933010059330100CA
:1003000059330100593301005933010059330100B9
:1003100059330100593301005933010059330100A9
:100320005933010059330100593301005933010099
:100330005933010059330100593301005933010089
:100340005933010059330100593301005933010079
:100350005933010059330100593301005933010069
:100360005933010059330100593301005933010059
:100370005933010059330100593301005933010049
:100380005933010059330100593301005933010039
:1003900059330100593301009169020059330100BA
:1003A0005933010059330100593301005933010019
:1003B0005933010059330100593301005933010009
:1003C00059330100593301005933010059330100F9
:1003D000593301007169020059330100593301009A
:1003E00059330100593301005933010059330100D9
:1003F00059330100593301005933010059330100C9
:1004000059330100593301005933010059330100B8
:1004100059330100593301005933010059330100A8
:100420005933010059330100593301005933010098
:100430005933010059330100593301005933010088
:100440005933010059330100593301005933010078
:100450005933010059330100593301005933010068
:100460005933010059330100593301005933010058
:100470005933010059330100593301005933010048
:100480005933010059330100593301005933010038
:100490005933010059330100593301005933010028
:1004A0005933010059330100593301005933010018
:1004B0005933010059330100593301005933010008
:0804C00059330100593301001A
:1004C800064A074B02604FF44472DB7882800822A8
:1004D800C371002382710372704700BFEF060100E9
:1004E800400B0020064A074B02604FF4B072DB7ADB
:1004F80082800822C371FF2382710372704700BF94
:1005080029000100400B00202DE9F341C41D0028FB
:10051800064624F007040CBF0020204600F06AFCC1
:10052800071E04DA6FF00B0002B0BDE8F081374D0A
:10053800E988A88803316B7A03302A7A89B280B2B5
:100548000CF064FD0028EDDB3C44A978EB78002E24
:1005580004F10304194424F0030400FB01F10CBF67
:100568000020204600F0CCFD20440EB90028D9DB3D
:10057800EA7A0446B2B1EB7B697C13441944FF293B
:10058800D0D80330002EAA89C9B220F003040CBFCA
:100598000020204600F026FE0028C3DB04440EB9E4
:1005A800002CBFDB012000F01BFCB0B1A97BA1B17E
:1005B80095F82A3033B340234FF481720734002E64
:1005C80024F007040CBF0020204601F069FE002833
:1005D800A8DB04440EB9002CA4DBAB7AFBB1EB7AA0
:1005E800B3B10734002EA97A24F007040CBF002009
:1005F800204604F0E7F9002894DB04447EB9002C77
:100608000DDA8FE725232822D8E700BF400B00200A
:10061800012000F0E5FB10B1AB7B002BE1D1734B5F
:100628001B6893B1A97D81B10334002EEA7D24F0C3
:1006380003040CBF0020204698470028FFF672AF3D
:10064800044416B9002CFFF66DAF694B1B688BB1DB
:10065800297C79B10334002E24F003040CBF002058
:10066800204698470028FFF65DAF044416B9002CD1
:10067800FFF658AF5F4B1F68B7B1697CA1B103346F
:10068800002E2B7D24F0030408BF0020009318BF20
:100698002046EB7CAA7CB8470028FFF643AF044409
:1006A80016B9002CFFF63EAF072000F099FB98B171
:1006B800A97D89B10334002E2A7E24F003040CBFDF
:1006C8000020204600F07CFE0028FFF62BAF0444F3
:1006D80016B9002CFFF626AFB6FA86F795F8230070
:1006E8007F09A0B103346B7FA97E24F00704194465
:1006F8003B4644F00404C9B2224600F0A1FE00289B
:10070800FFF610AF044416B9002CFFF60BAF95F8AE
:10071800241000294CD004F10708002EEA8C28F098
:1007280007080CBF002040460CF084FC041EFFF6AE
:10073800F9AE4444002E3ED1002CFFF6F3AEA97F5B
:10074800002945D095F82230002B41D02A8C073457
:10075800002E02F1240224F007080CBF00204046B6
:1007680092B20CF067FC0028FFF6DCAE404416B9E4
:100778000028FFF6D7AE03302B7FA97E20F00700B4
:1007880019443B4640F0040495F82200C9B22246B9
:1007980000F048FE0028FFF6C5AE044486B9002CD8
:1007A800FFF6C0AEEB6AF3B1C6B1EC620020BBE65F
:1007B800002EC4D08846E98C404609F06FFCBEE79D
:1007C8002A8C4046A97F083292B209F06DFCE9E70D
:1007D800002EE7D0002211461046F6E728343FF5F0
:1007E800A1AE2046A0E6002EE0D1FAE7941800203A
:1007F800981800209C1800201FB572B6194B1C6B66
:10080800ECB9BFF34F8F1849184BCA6802F4E0627D
:100818001343CB60BFF34F8F00BFFDE7B2FBF6F287
:100828002B465D1C002AF9D1DBB203F110056D449B
:1008380005F80C2C0A2233B901A8A047E1E70246C3
:1008480000230A26EDE7013BDBB203F110050DEBAF
:100858000506B0FBF2F502FB1500303006F80C0C6B
:100868002846E8E7400B002000ED00E00400FA0508
:1008780013B5124C68462389ADF80030E388ADF80B
:100888000430A388ADF8023002F030FA18B1FA212A
:100898009C20FFF7B1FF207D02F058FA08B1FD2136
:1008A800F6E7E07C02F04CFA08B1FE21F0E794F894
:1008B800290008F09FF802B010BD00BF400B0020CF
:1008C80070B50546002855D00BF040FD18B94FF01B
:1008D800FF34204670BD0AF01FF9B0F5FA7FF6D84C
:1008E800264C012625630025284684F834502570B7
:1008F80084F82A50E56209F073FB1A22294604F1AC
:100908000F0010F0DCFC1B2308210322A3802846DB
:10091800E3800223A1721F216372E375F723227219
:100928002384FB23A2734922E3840A23A181294655
:10093800E27484F82930A670E670E672A67426760A
:1009480001F034FD2A463146304601F001FD0446E7
:1009580020B140F2B5319C20FFF74EFF014601F06F
:1009680013FDEFF3108572B600F090FD002DB0D1A5
:1009780062B6AEE76FF01504ABE700BF400B00208E
:1009880038B51446002840F0EE80784D95F834309C
:10099800032B00F0E58019B312B96FF0150038BDCC
:1009A8000139172900F2DF80DFE811F0180029006B
:1009B8002C0042006C0075009400480078007B0011
:1009C8008E004E005400620067009A009D00AC0043
:1009D800AF00B200A300B500B900D2001378AB7025
:1009E8000020FFF791FD0028B7BF012302236FF015
:1009F8000B0085F83430A8BF85F83430CFE713787A
:100A0800EB70EDE71379002BC7D05379002BC4D0D6
:100A18001288FB2AC1D863881B3B9BB2E02BBCD849
:100A28001A2ABAD92368A2886B60514B9A80D7E7F3
:100A38001378EA7B9342B0D3EB72D1E71378EA7A62
:100A48009342AAD8EB73CBE71378EA7A9342A4D8F7
:100A58006B74C5E71378002B9FD05378013BDBB24A
:100A6800F82B9AD8138892786B82424B9A70B7E722
:100A78001078687507F07CFFB2E71378002B8CD0EC
:100A88002B76ADE7012000F0ABF9237808B1012BF4
:100A980083D9AB73A4E71388AB81A1E71378AB754F
:100AA8009EE7072000F09CF918B92378012B7FF600
:100AB80074AF072000F094F918B12378002B3FF4A5
:100AC8006CAF2378EB758BE71378082B3FF665AF8F
:100AD8002B7485E71388FF2B3FF65FAFAB727FE778
:100AE80013786B767CE713780E2B3FF656AFAB7610
:100AF80076E72368204AC5F81E3063685360238967
:100B080013816DE71378EB766AE713786B7767E7FD
:100B180013782B7764E7137885F8283060E701F0BD
:100B280011FC98B1007900F001026178207801F099
:100B38000FFC00287FF433AF6378012B7FF650AFAA
:100B480009F054FA00287FF44BAF26E70246ECE799
:100B580013785A1E092A3FF620AF85F829303FE757
:100B68004FF0FF301BE76FF02C0018E7400B002018
:100B7800440B0020520B00205E0B0020F8B50D46F8
:100B8800064630B329B311F0070422D1124F97F863
:100B98003430012B02D16FF00B00F8BD032B02D1CA
:100BA8004FF0FF30F9E700F0A9FC0028F8D02846FC
:100BB800FFF7AAFC0028EEDB0FF07BFE3046F96A4F
:100BC80002F02CF9FFF754FE0323204687F834304F
:100BD800E3E76FF01500E0E7400B002010B5074C85
:100BE80094F83430032B03D102F030F902F0DEFF21
:100BF8000CF04DFB002084F8340010BD400B0020A1
:100C080008B502F0CFF803490320BDE8084000F01A
:100C1800DFB800BFED04000008B502F0DDF80349B5
:100C28000220BDE8084000F0D3B800BFC9040000A6
:100C3800074B4FF0FF3141F6FF72C3E90012054937
:100C48000022C1E900221F21C3E90212704700BF38
:100C580060000020780B00203F280CD801380B4B8F
:100C6800C0F3421200F01F0053F8223023FA00F0BC
:100C780000F001007047FF2806D04038044BC0F34D
:100C8800421200F01F00EFE70120704760000020CB
:100C9800780B0020074B0146006849681A4603C2D2
:100CA80040F48C2200201A6041F0107242F4FF6276
:100CB8005A607047600000200246034B0068516884
:100CC80003C30020704700BF780B00200246034B87
:100CD8000068516803C30020704700BF6800002007
:100CE8000138064BC0F3421200F01F0003EB8203E9
:100CF8009B6823FA00F000F00100704760000020B4
:100D08000A8870B595B2C67CC2F30E020488023612
:100D180002F118033444C35AA4B233442344013BB8
:100D2800B3FBF4F303FB0422438892B29342044BCF
:100D38008BBF2B40AB4313439BB20B8070BD00BFEE
:100D48000080FFFF4A1E062A08B50346084604D855
:100D58004FF4D1711520FFF74FFD094A914202D98E
:100D680040F2A311F6E711B903B1196008BD2BB120
:100D78001B680022C3E901211A1D1A600430F5E737
:100D8800FAFFFF7F10B5114B00EB41041A78638915
:100D9800B3FBF2F303FB0223013A1A44B2F5706F76
:100DA8000279807828BF00231A440B18B2FBF0F1AF
:100DB80000FB11215B1AB3FBF0F100FB1133134464
:100DC8006FEA43436FEA5343638110BD800B0020F1
:100DD800024B03EB80035960704700BF800B002073
:100DE800034B03EB80035868003818BF0120704795
:100DF800800B00202DE9F04F10F0070A85B005465A
:100E080004D040F26F111720FFF7F6FC534F044649
:100E18004FF0010B07F15406B146B04657F8043BB2
:100E28008DF80BA03BB101A898479DF80A30082B14
:100E380001D9F521E7E79DF80B1041BB05B13160F9
:100E48004F4506F10406E9D1002D6FD00022DFF8E6
:100E580010911427964689F8002058F827A0013FDA
:100E6800BAF1000F55D09AF804609AF802C0FF2E24
:100E780060D039460023481C38D19C44BCF1FF0F90
:100E88003FD90AB189F800E04FF49A71BBE79DF8A1
:100E98000AC04B1D60465A0004EB4303022838BFC2
:100EA8000220441E40422344BDF808406444CCF16B
:100EB800000C0340013C04EA0C04B4F5803F02D363
:100EC80040F205119FE775B19A1A3260917014804B
:100ED80082F803B09DF80C00107101984FEA104C8D
:100EE8001081A2F806C004FB0134A9E758F82100D4
:100EF80028B190F804B0B34504BF80781B180139B5
:100F0800B9E7DBB2E6458AF804303CBF5FFA8CFEED
:100F180001227B1CA1D10AB189F800E0142640F611
:100F2800FF6A58F82670B7B9013EFAD2601B05B0BF
:100F3800BDE8F08F0023E5E707EB410309F101095C
:100F48003846A3F80AA0FFF71DFF5FFA89F1BB78BE
:100F58008B42F1D8E8E74FF00009F6E7840B002050
:100F6800800B002038B54FF6FF7302460380184BFC
:100F780003EB8103986DA8B184780379B3FBF4F18E
:100F880004FB1133DBB2194600EB4105B5F90A50F1
:100F9800002D0EDB0131B1FBF4F504FB1511C9B2CC
:100FA8008B42F1D1002038BD6381BDE838400CF098
:100FB80009B800EB41046389C3F30E031380C278B8
:100FC800002AF1D14FF4E5711720FFF715FC00BF97
:100FD800800B00201C4B03EB810370B59C6D05460C
:100FE80044B3030404D54FF4EC711720FFF704FC55
:100FF800014620460BF0C9FFFF28014604D02046D1
:10100800BDE870400BF0DEBFA078B5FBF0F300FB45
:101018001353DBB219460A1D04EB4206B6F9026007
:10102800002E09DB0131B1FBF0F200FB1211C9B24D
:101038008B42F0D1002070BD8B4201D00023E370B9
:1010480004EB42025580DAE7800B0020094B03EBE2
:101058008103014610B59C6D20460BF096FFFF28D2
:10106800014604D02046BDE810400BF0ABBF00207D
:1010780010BD00BF800B0020F8B5104B074603EBEE
:10108800810301469C6D20460BF07FFFFF28054633
:1010980011D0E288238953EA024606D00146204649
:1010A8000BF090FF01463846B04720462946FFF727
:1010B80069FE0020F8BD0520FCE700BF800B00207A
:1010C80038B50E4B0446827903EB8203986D08B954
:1010D800052038BD8278E1799142F9D24B1CE37141
:1010E80000EB41035D89B3F90A30002BF3DBA580DF
:1010F8000BF068FF20600020EBE700BF800B0020AA
:1011080070B5044610F003000E4603D04E21182097
:10111800FFF772FBFFF716FE054624B10348314678
:101128000460FFF70FFE284670BD00BF2C0C00209E
:101138002DE9F14FDFF870B01E4607460D46DBF883
:10114800003090469DF828A09DF82C901BB960218E
:101158001820FFF751FB5246092140460BF099FD34
:101168004A4684B2092130460BF093FD81B2DBF880
:10117800000021440BF0DDFE386018B9286001B08A
:10118800BDE8F08F04445346414609222C60386874
:101198000BF042FD4B4609223146286801B0BDE8F4
:1011A800F04F0BF039BD00BF2C0C002070B50E4677
:1011B80004460BF081FD054630460BF07DFD044BDF
:1011C8002A1821461868BDE870400BF0D7BE00BF4A
:1011D8002C0C0020024B186808B10BF09EBE70471B
:1011E8002C0C00201F2AF8B5044613460ED892008E
:1011F800033222F00303B3F5803F2DD2184DACB172
:10120800A00710D068210920FFF7F6FAFF2B4FEA54
:10121800420204D9FF339A42A8BF1A46E8E77C2A5B
:10122800B8BF7C22E4E729706C602B8122F00302AE
:1012380028230127120403FB01F06B680025120C18
:10124800EEB2B14200D8F8BD14B126181F705E6026
:10125800104401352833F3E74FF0FF30F3E700BFC0
:10126800300C0020154A002170B553681578C8B2B3
:10127800854203D8BA210920FFF7BEFA1C46184652
:10128800013114F8286B0EB92346F0E70021997054
:1012980001241289996103F126055C709208D961CD
:1012A80003F11E04596824F8022FA54243F8041FCD
:1012B8001144F8D100234361037070BD300C002045
:1012C8000A4B1B89B3F5FF7F4FEA930006D25A08F1
:1012D8009B1A9BB2984238BF18467047B3F5EE6F19
:1012E80001D8FF22F4E740F27263F3E7300C0020E4
:1012F8004B782DE9F04106460C4602F0040702F04F
:10130800FB05E3B1A5BBFF23A3707B0804EB5707DC
:101318003A7D032A02D1022D18BF0133E2180121B8
:10132800117503F10C01002204EB830324F811204A
:101338005B68A27030463360B280BDE8F081002D52
:10134800E1D1012301F11E028D6120464B7004F1A9
:10135800260C1A4BCD611B8949689B0822F8023F6D
:10136800944540F8041F1944F8D100236361CAE783
:10137800D1F8048014220021A01861700FF09FFF9B
:101388000E4B1B89B3F5FF7F0FD25A089B1A9BB2ED
:1013980008EB0301C4F804802384A1606284C4F8C4
:1013A8000C80A3842161E284ADE7B3F5EE6F4FF0C2
:1013B800FF02EBD940F27263EAE700BF300C00206D
:1013C8002DE9F84305460C46F720052191460BF018
:1013D80060FC061E21DB1DB906FB04F0BDE8F8839E
:1013E80015F0030703D098211920FFF705FADFF855
:1013F8003080C8F81050A8F81460BBB29C42EBD9F2
:10140800B8F814504B46D8F810000522F72107FB0E
:10141800050001370BF000FCEFE74FF0FF30DDE788
:10142800440C002007B5CDE900230B4603490246CA
:10143800081D0BF006FF03B05DF804FB5C0C0020F0
:1014480013B5064CCDE900230B46024604F108010A
:1014580004F10C000BF0F5FE02B010BD5C0C00208E
:1014680008B54B1E032B03D923219020FFF7C4F99D
:101478000028054A0CBF05230C2303EB8103053321
:1014880023F00103137008BD6C0C0020124B0122DD
:101498004FF0FF3000215A60C3F80803C3F8001565
:1014A800C3F804255A6040F6FE72C3F808034FF4E7
:1014B8008060C3F8001503F560330849C3F80825B0
:1014C800C1F88800BFF34F8FBFF36F8FC1F8880151
:1014D800C3F80825704700BF00A0045000E100E0F1
:1014E80002680020014B1A60704700BF700C002092
:1014F800014B1B68184700BF700C0020024B18688E
:10150800003818BF01207047700C00200A460648B2
:101518009C2302F8033BC368C1F803300369536096
:1015280043699360704700BF740C0020024B5A8CCB
:1015380002435A845B6A1847740C0020014B00214F
:101548005B6A1847740C002010B5154C08F0DEF9DA
:1015580008F008FD208DFFF7F1FF237E63B12246D6
:10156800104904F1190052F80C3BE36063685360BA
:10157800A36893600DF0EDFC218DE06A03F05EFA3C
:10158800E36AB3F8AA0003F0D3F9636B94F8301058
:1015980094F831009847002384F8383010BD00BF14
:1015A800740C002015150000034B93F838300BB16C
:1015B800FFF7CABF704700BF740C00202DE9F04147
:1015C800DFF8808005460E4608F12C000BF09DFEE2
:1015D800044618B101242046BDE8F081D8F82C3023
:1015E80093F8A8704FB1012D07D1B8F822301A0727
:1015F80003D598F83930002BECD1012EEAD8D8F869
:101608003C30284698470028E4D098F83030002B22
:10161800E0D167B9012DDED1B8F82230002BD9D13D
:1016280098F84030002BD6D198F8414007E0002DBB
:10163800D1D1B8F822309B07EED598F8394084F01C
:101648000104C8E7740C002070B5204C0646636D91
:10165800E56A63644FF4817394F85800A4F848303D
:101668002B7D95F8211100EB83002EB9FF2803D1BB
:1016780095F820318B4201D007F004FE2B7DFBB199
:10168800E06D08F081F8E16D606C08F0F1FB66B977
:1016980095F82131033B012BB5F8E4308CBF0020CD
:1016A8002820184480B208F0BDF8B5F8E00007F02B
:1016B800A9FD002008F0F4F8022384F8383070BD42
:1016C800606C08F061F808F04DFCE0E7740C00204D
:1016D80008B5094B93F83820022A04D040F2573154
:1016E8002720FFF789F8DA7A42F00102DA72BDE8BA
:1016F8000840FFF729BF00BF740C002010B590F810
:101708006A1086B0D1B9C2880B4605910021CDE98F
:1017180003110C4991F85840029400F19004019487
:10172800C96A91F8A810003918BF0121009100F189
:101738008001022008F0ACFA06B010BDD0E91E23E3
:10174800E3E700BF740C00202DE9F041274C064662
:101758000F4694F83830012B5FFA83F804D040F62E
:101768000C112720FFF748F8E56A2B7953B10021BF
:1017780004202971FFF7DAFEE36A93F8A8300BB169
:1017880085F8058094F860308BB92B7A052B0ED13B
:1017980017490220FFF7CAFEE36A93F8A83033B16D
:1017A800E36E1B789A1E5342534184F839301EB1B8
:1017B800BDE8F041FFF7C8BE002FF9D031463046EA
:1017C800FFF7FCFE0028F3D12B7DE46A13B128460D
:1017D800FFF794FF94F821210120B4F8E2100FF0EC
:1017E80097F80020BDE8F041FFF72EBF740C0020E9
:1017F800E00C00207FB590F86A10D1B9C2880B467A
:1018080005910021CDE90311FB21029100F190011E
:1018180001910949C96A91F8A810B1FA81F14909F9
:10182800009100F18001042008F032FA07B05DF859
:1018380004FBD0E91C23E3E7740C00201E4A10B512
:10184800546E41782378C90003F0F30301F00801CE
:101858000B438178890001F004010B43C178090129
:1018680003F0EC0301F010010B43017801F00301D0
:101878000B432370B2F8703063700223516EA2F8E4
:10188800683004790B786001012C23F0200300F004
:10189800200043EA00030B700CD1D36A93F8BA20F6
:1018A80093F8BB30032A03F01F0308BF002243EA62
:1018B80082138B7010BD00BF740C0020F7B5184C54
:1018C8000646656F0DB1E36C23B940F6C4012720C5
:1018D800FEF792FFB4F8503001F003012F466B7009
:1018E8002B7823F003030B4307F8033B3846B4F87F
:1018F8005020E16C0AF094FE0DF1020201A9A06FDC
:101908006564E7640BF0FFFA01980BF0EAFA01222C
:10191800B4F850103060A06F0BF08EFA03B0F0BD31
:10192800740C00202DE9F04FAC4C87B0D4F82C8013
:1019380098F8201158B998F8142094F8583003EB07
:101948008203FF2B03D198F821318B4202D0FF206C
:1019580007F098FC002304AA02A9A14804938DF873
:10196800143084F8603001AB0BF0C4FC0746002843
:1019780045D0029ABDF8043022B940F2134127201D
:10198800FEF73AFF6266A4F8703003B1D31CE36631
:10199800012384F860309DF8133004A8003B18BF79
:1019A800012384F8403098F81330002B00F01C8194
:1019B800B4F87030002B00F01781FFF73FFFE06D9F
:1019C80007F0E2FE9DF81420E16D003A606E18BF42
:1019D800012208F063F818B9616EE06D08F0D2F9D9
:1019E800B8F8E20007F00EFC012007F059FF0123C8
:1019F80084F8883084F8383007B0BDE8F08FE66A9C
:101A08008DF80300337AADF80600062B00F2CA8081
:101A1800DFE803F004CBA1A1C8B8B80094F87F3080
:101A28000DF1060103A8A6F81031ADF8063001F053
:101A380033FC38B1039D2DB1012384F88030052390
:101A480033729CE0E36A93F85130002B6BD10DF1AF
:101A580003020DF10601D4F884000BF054F9054691
:101A6800002860D09DF80370FFB10146D4F88400C7
:101A78000BF033FA0BF035FAD0F800B0D0F804A028
:101A880081465BEA0A0348D1002389F8003089F8C7
:101A9800013089F8023089F8033089F8043089F870
:101AA800053089F8063089F80730BDF80630002B74
:101AB80040D1012333720123002784F88030BDF818
:101AC80006306566A4F8703003B1EB1CE366727AE1
:101AD800357A8DF81120022DB27A8DF8122004D0B3
:101AE800053D012D8CBF012503258DF81050002FD1
:101AF8005ED000209DF810308DF81300032B6BD1B9
:101B0800E36E1B781B2B67D1012106F1BA0007F0A1
:101B180001FC01238DF814303DE70FF03FF88345B1
:101B28007AEB0101B0D2002301222E4DADF8063028
:101B38003272C6E79DF803301BB92B80AB700323C4
:101B4800B8E72B7803F00303012BF8D00223337294
:101B58000023B375AFE7B6F810310DF103020DF1AC
:101B68000601D4F88400ADF806300BF0CCF8054631
:101B780010B940F2C35102E7012384F88030BDF860
:101B880006309EE70DF1060103A801F085FB08B1B8
:101B9800039D15B940F2D251F1E6012384F8803053
:101BA80006234DE740F2DC51E9E60E4D002388E7B5
:101BB800032D02D11B78022B9BD0D4F884000BF0A4
:101BC800FAF838B9032D94D001F082FB80F00100B7
:101BD800C0B28FE701208DE700239BE7740C00203B
:101BE800A00C0020F00C0020FFF728FE606E07F024
:101BF800CBFD08F0B7F99DF81410606E003918BFD6
:101C080001210EF092FEEBE62DE9F04FB04C87B0C3
:101C18000027804694F83830E56A022B019105F1D7
:101C2800A80ACDE9027704D040F6AD112720FEF7C7
:101C3800E3FD616C03200B784A780144A4F848005E
:101C4800E16403EA0001A4F850208DF81010C3F3F2
:101C5800C0018DF81110C3F380018DF81210C3F381
:101C68000011C3F340138DF813108DF81430B8F138
:101C7800000F00F00C8104A904F12C000BF03CFBD0
:101C8800064630B9B4F8501009B3A06F0BF0B4F899
:101C98000746238D9DF8121043F400736767238568
:101CA8006B7A0133DAB203F0010399424AD12B7AF5
:101CB80033B3032B6A720CD8012B21D002A9D4F8B4
:101CC80084000BF042F8A0B940F2D471AEE70746A1
:101CD800DFE7053B012B02D940F2B371A6E701F01B
:101CE800E9FA10B940F2DE71A0E700210820FFF7F9
:101CF8001DFCD5E91C32013342F10002C5E91C3252
:101D08000021E36A297293F8A8302BB16B791BB1D3
:101D180010206971FFF70AFC238D4FF0000B43F484
:101D2800006323852B7DDBB1B4F85030C3B108F0D4
:101D380037F90328FBD0022806D1FFF705FC07B0C6
:101D4800BDE8F08FC346EDE750B9AB7A9DF8112096
:101D580003F001039A4203D1012384F83130ECE700
:101D6800B4F85070E6B19DF81330591E4B424B4100
:101D780084F84130002F40F0B7800027B946019B16
:101D8800002B00F0B88007F0C1FDB9F1000F00F09A
:101D98001E819DF8101003A8FFF790FD0127C9E0E8
:101DA800AB7A9DF8112003F001039A4223D19DF8E4
:101DB80010307FB35A1E012A2CD8238D95F8149021
:101DC80043F48053238507F033FA032894F88930C5
:101DD80007D1B9F1000F0CBF1F221B22934228BF65
:101DE8001346B4F850209A4208D994F8303043F09A
:101DF800100384F830304FF000091EE0636F002BA9
:101E0800F9D094F88A301BB12020FFF797FBF2E74E
:101E18009DF81030AA7A032B02F10102AA722CD085
:101E28005A1E012A1DD8002FE5D0C146D5E91E3219
:101E3800013342F10002C5E91E32626F9DF81310AA
:101E4800002A56D1B4F85020B2FA82F25209012978
:101E580014BF002202F001023746002684F8412010
:101E68008DE7002FC7D0002BC5D1D5E91E3201332D
:101E780042F10002C5E91E32BDE7238D0120154954
:101E880043F4805328712385FFF750FBEDE72B7D42
:101E98000BB108F09FF894F88B30013384F88B303D
:101EA800238D43F48063238595F82131033B012B6F
:101EB80012D807F0BDF9032812D1B4F850604FF0DA
:101EC80000091B2ECB4694BF00260126B5E700BFAC
:101ED800740C0020C00C002001F0BAFF0028E8D1E3
:101EE8000026B146B346A8E7238D43F480532385E3
:101EF80043E70122ABE794F88B100120FFF75EFB64
:101F080000287FF440AFEA7C12B12846FFF772FC44
:101F1800002095F82021B5F8E0100EF0F9FC00201B
:101F2800FFF700FDB9F1000F5AD09DF8101003A873
:101F3800FFF7C4FC238D5A0606D44020FFF7FEFAAB
:101F4800238D43F040032385BBF1000F10D0EB88AD
:101F58004BB9E36A93F8A8302BB1B4F80530B4F85C
:101F68000720134304D0B4F809300133A4F809302A
:101F7800B8F1000F3CD0B4F805300133A4F80530AF
:101F8800002384F88B301D4802F0C0FC029830B161
:101F98000AF0A7FF00220272514601F021FF039BBD
:101FA80033B100221A720C225146039801F0E6FE62
:101FB800002F7FF4C2AE238D1B063FF5C0AE8020F4
:101FC800FFF7BCFA238D43F080032385B7E6002E84
:101FD8003FF4E4AE0A49A1F120000BF08FF9DDE6E9
:101FE800002EA7D00649A1F120000BF087F9A1E740
:101FF800B4F807300133A4F80730C4E7A00C002078
:10200800C00C0020064B10B593F8382002F0FF04EE
:1020180022B91C7602F00AFD204610BD0C24FBE70D
:10202800740C0020094B0A4A10B51A60FFF7EAFF42
:1020380020B14FF4B1712720FEF7DEFB054C00F00C
:1020480021FF606500F022FFE06510BDA0180020A8
:1020580098220000740C0020F8B5794C054694F8D5
:10206800386006F0FF0016B909B102B123B94FF480
:1020780020712720FEF7C0FB63639DF8183061626A
:1020880084F88A30E26384F8300084F88B0084F89E
:10209800310084F888006084208584F8400084F842
:1020A800410084F8800084F839006066E066A4F88E
:1020B80070006064E064A4F85000E56207F04CF931
:1020C80007F050FF95F9280107F0AAF9D5F8D46070
:1020D800D5F8CC0007F0AAF9304607F039FB95F897
:1020E800250007F0ADF9B5F8E030622B03D9B5F853
:1020F800E230622B01D807F08BF8E36A93F8A86006
:10210800002E40F085800DF030FC95F820214D4BD5
:102118004FF47A7153F8223003F5FA73B3FBF1F3F5
:1021280052331918304607F001FA474B186807F080
:1021380015FBD5F8C030C4F88430D5F8C430A3678F
:10214800AB7B243B072B6BD9EB7B243B072B67D955
:10215800B5F8F230B5F8F80095F82011984228BF84
:102168001846042908BF03210CF0C1FA034695F864
:10217800F400984228BF184695F8F03080B298428B
:1021880000D3C3B295F8211105F1E80084F87F3037
:102198000CF05DFF95F821112F7D0329B5F8FC603F
:1021A80008BF04210CF0A3FA0FB9043080B28642AC
:1021B80028BF0646F6B284F8896001F049FE28B1C6
:1021C80001F04CFE864238BF0646F6B284F85860E5
:1021D8000BF097F8E36A93F8A8301BBBEB7C13B1BC
:1021E8002846FFF707FB0120FFF79CFB002323602D
:1021F8006360A360EB886380B5F8AA30238095F804
:1022080025302371D5F824310BB101221A60F8BDAD
:102218000DF0ABFB95F8212100F17101012082E757
:102228001B23AFE72B7D13B12846FFF767FA012080
:10223800FFF70AFAE36AD3F8F00107F0C1FAD5E725
:10224800740C00201CA20200A0180020014B93F877
:1022580088007047740C0020054A138D92F880009E
:1022680003F4805110B113F4C06F00D1080B70470C
:10227800740C0020024B93F82900C0F3C00070478B
:10228800740C0020014B93F88B007047740C0020ED
:10229800D9160000111C000051170000B1150000EC
:1022A800343270B5054692B20C461E460AF0C2FE9C
:1022B80025B1034A556014745674147070BD00BF7C
:1022C800180D00200138C0B2032808B504D94FF40E
:1022D8003F710620FEF790FA014B185C08BD00BF5D
:1022E800509F02000138C0B2032808B504D94FF442
:1022F8003F710620FEF780FA014B185C08BD00BF4D
:102308006D9F02000138C0B2032808B504D94FF404
:102318003F710620FEF770FA014B185C08BD00BF3C
:10232800D09F02000138C0B2032808B504D94FF481
:102338003F710620FEF760FA014B185C08BD00BF2C
:10234800C9A00200014B1868704700BFE40D0020C7
:1023580008B5034610465A1E032A10D84A1E032AF7
:102368000DD8084A012951700CBF00210A211071AB
:10237800937091721946FFF773F8002008BD6FF04B
:102388001500FBE706010020074A537A40B143F0E5
:102398000403002953720CBF0023072353717047AD
:1023A80003F0FB03F5E700BF0601002040EA410007
:1023B800014BD870704700BF06010020304BF0B5C4
:1023C800B0F86C700C461146DA88B0F86A6085B0CF
:1023D80097421D8928BF1746964228BF16461B2ECE
:1023E8002ED0B5F5A47F2DD040F6480301AA9D4212
:1023F80028BF1D460AF093FFBDF80A30BB4228BF2C
:102408003B46E380BDF80C30AB4228BF2B46238106
:10241800BDF80630B34228BF33466380BDF80830A4
:10242800AB4228BF2B46A380FF232370E3881B3BC6
:102438009BB2E02B08D940F209513920FEF7DCF9AC
:102448001B2FCED105B0F0BD63881B3B9BB2E02BA0
:1024580002D940F20B51F0E7238940F64812A3F560
:10246800A4739BB2934202D940F20D51E5E7A388C9
:10247800A3F5A4739BB29342E4D940F20F51DCE771
:10248800F00D0020F7B5002304460E461746CDE9A7
:1024980000336846FEF714FE08B100201AE0009DDC
:1024A800A542F6D0304605F1AD030AF032FF3946B1
:1024B80095F8AC200CF07DF80028EAD005F1B403BB
:1024C80095F8B32004F1B40194F8B3000CF071F856
:1024D8000028DED003B0F0BD054A516A02F11D03A1
:1024E800127F11F8030BC0F380100CF062B800BF24
:1024F8006013002010B503210020FEF7A7FD044655
:1025080070B90321FEF766FD044620B940F2253173
:102518003920FEF771F9034B93F970100DF044FD63
:10252800204610BDF00D0020014B5888704700BFB1
:10253800F00D0020044BD87BC0F3400080F0010070
:1025480000F00100704700BFF00D002038B50CF016
:102558002FF8002501F05CF8214C00F0F7FC0CF096
:10256800D0FC02F041FA01F049FA06F03BFA0120EA
:1025780000F090FC1B4B1C4A29461D604FF01B13B2
:10258800A4F86850A58184F83650E573C4E900239F
:102598004FF4A4731022A3604FF479432361134BC3
:1025A80058681B89A06304F14000A3870EF087FEDA
:1025B800012342F2107204F15E0084F84030637522
:1025C800C4E911220EF040F904F150000EF062F94E
:1025D8000022002384F88050C4E91E2338BD00BFC0
:1025E800F00D0020A418002003021B006D9F0200BC
:1025F800064B41F64C521B211A629973C3E9062215
:1026080041F288325A62FFF7A1BF00BFF00D0020E7
:10261800F0B53D4D85B000F1A8070446AB69C0F898
:10262800E8302B7C003B18BF012380F82931374B59
:10263800C0F8C83038460DF0A4FA064600F06EFC23
:102648008306A97B53BF1B236B88AA881A46A4F864
:1026580012312F4BA4F814211B6884F8F010A4F849
:10266800F26023B194F92811B4F8AA00984703A896
:1026780003940AF04CFE274B1B681BB12649B4F89B
:10268800AA009847254938460BF002FE0123A4F812
:10269800DE30234B1B681BB10021B4F8AA00984711
:1026A800204B1B681BB10021B4F8AA0098471E4BA9
:1026B8001B6813B1B4F8AA0098471C4B1B6813B1E8
:1026C800B4F8AA009847AB8804F1C0006A88697812
:1026D8000333033201919BB2297892B2009104F13D
:1026E800C401FEF725FDD4F8C03023B940F2E24119
:1026F8003920FEF781F8D4F8C43013B940F2E34129
:10270800F6E705B0F0BD00BFF00D002000093D0060
:10271800B4180020AC180020180E0020FA0D002074
:10272800C4180020B8180020BC180020C0180020C9
:102738002DE9F34104460E460DF077FC002800F021
:10274800968020460DF0E6FD40B1B6F80130013B19
:102758007F2B03D9122002B0BDE8F08120460DF08E
:10276800DDFD08B90C20F6E720460DF0C1FA002877
:10277800F8D120460DF002FC80460028F2D1204610
:1027880004F018FC0028E5D042F21073B6F8017086
:10279800F17820465F430DF0A8FD04213078FEF75C
:1027A80055FC054606213078FEF750FC2DB140B1A6
:1027B80041F676213920FEF71FF818B3054690F840
:1027C800E5802C4E3368EBB1403528460DF0B6F85D
:1027D800C0B128460DF0A3F8A0B9B8F1000F07D092
:1027E800254B28461B68984760B141F68A21E1E7E6
:1027F8002249424633682846096A984710B141F68B
:102808008F21D7E720460DF07DFD014638B93A46BD
:10281800204602F0CBFD40B341F69821CAE70221D9
:102828000DF10600FEF79EFB054608B90D2092E75C
:10283800BDF806100BF0F2FF294620460DF095FD75
:102848002846FFF7E5FE3A462946204602F0AEFD47
:10285800024610B141F6B421ACE7084BDB6E23B158
:1028680005F5977105F1A8009847002073E7422005
:1028780071E700BFA8180020B0180020F00D002054
:10288800024B1B6803B118470C207047A41800209E
:10289800034B5A8802801B7883700020704700BF62
:1028A800F00D002073B5837806461A2B08D8042B40
:1028B80004D9334A22FA03F3DB0705D412251AE0B8
:1028C800292B01D03B2BF9D13088B0F5706FF5D2A8
:1028D80069460BF072FF88B9009B93F82C2102F02F
:1028E800FF05C2B9B27883F82D21FF2283F82C2185
:1028F80068460AF011FF284602B070BD09213088E9
:10290800FEF7A4FB0446002837D001A9B0F8AC01B3
:102918000BF053FF08B10C25EDE70821B4F8AE0120
:10292800FEF794FB20B94FF404613920FDF764FFEA
:1029380003781BB994F8C831032BECD1019B93F8A9
:102948004221002AE7D194F8F02102F0FF05002A7D
:10295800E1D1B4F8B021A3F8442194F8B82183F860
:102968004621027D83F84721B27883F8482184F80C
:10297800F021FF2283F84221BDE70225BBE700BF13
:10298800200038040188A1F11B039BB2E02B0CD86E
:10299800428844F24810A2F5A4739BB2834204D83B
:1029A800034B0020D9801A8170471220704700BF5E
:1029B800F00D002038B50278447802F0010302F0E7
:1029C800020254EA030101D1112038BDBAB9857851
:1029D800002DF9D0002B18BF002400E01D4620462A
:1029E8000AF03DFD0028EFD028460AF038FD0028FF
:1029F800EAD0054B00209C72DD729881E5E7002B38
:102A0800ECD000242546EAE7F00D002013B5008835
:102A180001A90BF0F4FE044620B9019890F83E3164
:102A28001BB13A24204602B010BD90F85C3003F088
:102A3800FF04002BF5D190F853309B0706D1FF23F4
:102A480080F83E3101A80AF067FEEBE702495430EE
:102A58000CF07FFAE6E700BF89F80000F7B50678C2
:102A680004460F46EF2E03D91226304603B0F0BDB8
:102A780090F901204378002AF6DB82789207F3D197
:102A880013F010001DD19D0603F0030216D5002A8D
:102A9800EAD11907E8D42179E278E57942EA0122F6
:102AA800617942EA0142A17941EA0521257A41EAA0
:102AB80005418A42D8D81F2A12D8D5E7032AE8D177
:102AC800D2E713F0600FCFD103F00702052A05D033
:102AD80003F00F010D22CA40D207C5D51D07DAD56C
:102AE800627A013A062ABFD8A27A032ABCD813F020
:102AF800040302D1023A012A03D8E27A012AB3D8A0
:102B080013B9A37C032BAFD8237DF8B1012BABD12C
:102B1800237E012BA8D818B36378D90702D500F013
:102B280077F920B36378227D03F01803082B2ED1A0
:102B3800022A1CD103213046FEF788FA054660B305
:102B48000DF0D6F8002834D00C268EE7022B8BD057
:102B5800A37D013B022B87D8E37D0F2BD8D983E7D0
:102B680000F0E6F9820707D4237D022B01D1112654
:102B78007BE7A37D022BFAD000F0DAF94307CBD428
:102B8800237D032BF3D0A37D032BC5D1EFE7022AC6
:102B9800D0D0237F002BCDD0E9E703213046FEF7C4
:102BA80019FA0546002843D0224B93F970100DF00E
:102BB800FBF9002130460DF013FE28BB28460DF026
:102BC8009EFB21463870E07428460DF080FAE37EBB
:102BD8000646002B3FF449AF00287FF446AF024673
:102BE800E96C6846FEF784FB3246E86C01210AF07E
:102BF80076FAE96C68460422FEF77AFB32463146DB
:102C0800E86C0AF06CFA30E740300CF097FE0028C8
:102C1800D4D0637813F0330F7FF426AFA67D28460F
:102C2800296A0DF08EFBFFF75DFB8642C6D08BE765
:102C380007261AE7F00D002030B502798BB003465D
:102C4800042A4FD84088B0F5804F4BD82649002435
:102C58001144ADF800408DF808408A7C4D7B42F065
:102C680010028DF8244042EA4502CD7D097F42EAF0
:102C7800850242EAC102694602F01F028DF800206F
:102C8800BDF80020ADF809201A888DF80E00000A5A
:102C98008DF80B20120A8DF80D408DF80C208DF858
:102CA8000F008DF810405A7BD3F807008DF81120DB
:102CB8005A79059002A88DF812209A798DF8132078
:102CC800B3F80B209B7BADF818208DF81A307F23C2
:102CD8008DF81B304FF00113CDE90734FFF7BEFE26
:102CE8000BB030BD1220FBE76D9F0200027803464F
:102CF80072B1427862B142881A2A09D982881A2A9E
:102D080006D90068034A106000209B8893807047AA
:102D180012207047F00D002002680020014B9A61D4
:102D2800704700BFF00D00200378A3F10A02112AB2
:102D38009BBF024A0020122093737047F00D0020B9
:102D4800014B587400207047F00D0020014B987417
:102D580000207047F00D0020024B1B6803B1184794
:102D680011207047C818002008B5052000F09EF80B
:102D780005F0ECFD014B024ADA6608BDF00D0020B3
:102D8800C523000008B50122054B1A7104F0FCF8B0
:102D980004F07CFF0BF062FABDE8084000F016BFB3
:102DA800740E002010B50C20084C00F07FF8282085
:102DB80000F07CF804F1080005490BF006FA04F16C
:102DC8000C000449BDE810400BF0FFB9740E002058
:102DD800D0000020D800002010B5094C094904F1A2
:102DE80008000BF0F2F904F10C0007490BF0EDF9BB
:102DF80004F110000549BDE810400BF0E6B900BF2A
:102E0800740E0020E0000020E8000020F000002000
:102E1800014B1879704700BF740E002038B5074C75
:102E28000D4600F0AFFEA06825600BF0C6F9FFF76D
:102E3800DFFB01F049F80123237538BD740E00202B
:102E4800014B187D704700BF740E002010B50C4C64
:102E5800E0680BF0B2F920690BF0AFF9FFF776FBE9
:102E6800202000F037F82F2000F034F8262000F05A
:102E780031F8292000F02EF80023237510BD00BF7B
:102E8800740E002000487047890E002000487047E3
:102E98008B0F0020014B83F819027047740E002035
:102EA800014B93F819027047740E0020C2080749B5
:102EB80000F0070001238340885C03438B540449D6
:102EC8000B78934238BF13460B7070477800002088
:102ED8008E1000200F4B012110B503EBD002C4085F
:102EE80000F0070001FA00F0195D21EA0001195508
:102EF80009490B78A34205D1002012F8014914B101
:102F080000B10B7010BD002BFAD0013B0120DBB2E1
:102F1800F3E700BF780000208E100020014BD3E9B2
:102F280000017047780000200048704780000020AA
:102F3800054B1868C0F3C022C0F30020400040EAE7
:102F4800820040F0010070477800002008B507F0C3
:102F5800E3FD0023074A32F82310814205D302EB30
:102F680083029378044A137008BD01330C2BF2D105
:102F78000023F7E7A09F02008F100020024B18786B
:102F8800072828BF072070478F1000202DE9F04F31
:102F9800046898460F4685B094F86330164604F1E5
:102FA800A80994F80FA043EAD303D90702D4BAF1C9
:102FB800260F5FD194F8A850002F55D1FFF7B8FF1E
:102FC8008DF80B00002E51D1FFF7B2FF2B4B8DF877
:102FD8000C00D3F800B0BBF1000F0CD0AAF1260208
:102FE80028464946534253410DF10B02009303AB67
:102FF800D847054630B99DF80B3013B19DF80C0041
:1030080028B90925BAF1260F2AD10020034694F8D9
:10301800292132B19B0700F002002DD560B30220B0
:103028000346FF2284F8392194F8382102F0FF057D
:10303800F2B99DF8382003A984F83B01484684F882
:10304800382184F83A31A4F83C818DF80C708DF859
:103058000D60ADF80E800BF01BF9002384F83931B0
:10306800284605B0BDE8F08F3846A9E73046ADE7F9
:103078003A25F2E71A25F3E70925F1E7CC180020ED
:1030880010B50468B4F8AA3084F88411A4F885311E
:1030980094F82001FFF736F984F8870194F82101A4
:1030A800FFF730F9044984F8880104F27B10BDE881
:1030B80010400BF04EBF00BF83E200002DE9FF4730
:1030C80004688946054694F80EA0AAF125035942DA
:1030D8005941052A35D1E37B272B37D104F10F0756
:1030E80099F8018099F8026008F0070806F00706C9
:1030F80008F1FF33721E03EA0803324013431FD15D
:1031080030460BF05DF960B394F82031984228D02E
:1031180094F83A21164213D0BAF1250F21D094F829
:10312800192116421DD10138013B474AC0B2DBB212
:103138001044032B00790FD81A441379834210D90D
:10314800284604B0BDE8F0470BF002B9BAF1250FE4
:1031580077D104F10E07C3E74FF4DD710620FDF7C0
:103168004BFB40460BF02CF940B194F821318342D7
:1031780004D094F83B3118EA030FE1D0B9F8039072
:1031880003AB20463246009341464B460BF025F9E7
:103198002C6878BB94F83831012B28D1E38804F5E2
:1031A800367294F82011B4F83C010BF077F9064612
:1031B800D0B901462846FFF763FF2B6883F83861CA
:1031C8003E702B6803F10F02974201D10022DA7397
:1031D8002B6803F10F0297422FD128460CF08FF885
:1031E800002004B0BDE8F0872C23A373E9E784F836
:1031F8003801E6E7E388A4F8D89209F1FF39A9EB8A
:10320800030947F6FD731FFA89F9994506D928235A
:10321800284684F8313001F02FF9D9E7E37B0D2BEC
:1032280002D00A3B012B01D82A23F1E7BDF80C3064
:10323800A4F8DA3229233B70CAE7002283F84A202F
:10324800CEE70220CDE700BFD09F0200034B00224B
:1032580083F85020A3F85220704700BF9210002036
:10326800044B93F85020012A1ABF03600120002064
:10327800704700BF92100020064B024693F850108A
:1032880001291BBF0120A3F85220002083F8500019
:10329800704700BF92100020054B024693F850007B
:1032A80028B1136011B1B3F852300B800120704778
:1032B80092100020054B002293F85000A3F85220EA
:1032C80010B1012083F85020704700BF92100020F1
:1032D800034B93F85000B0FA80F04009704700BFE4
:1032E8009210002050B90A4A0120134603F8010B36
:1032F8000868C2F801008A889A807047012805D1B9
:10330800034B0A68D8719A608A889A81704700BF0F
:10331800E610002050B90B4B187888B1D3F801207B
:10332800B3F805300A6001208B807047012806D168
:10333800044BD87920B19A689B890A60F3E700208A
:10334800704700BFE610002010B9044B187870478A
:10335800012806BF014BD87900207047E6100020ED
:10336800F7B58A8800238DF80600ADF804200868B0
:103378000B4A8DF807300146147802F5A872019DB2
:10338800D8B2844201D8082007E052F8087F0133F8
:103398005668AE4208BF8F42F2D103B0F0BD00BFFD
:1033A800F8100020084B0146002230B55C7803F283
:1033B8000113D0B2844201D8082004E013F8015F59
:1033C80001328D42F5D130BDF8100020F8B52D4CF2
:1033D80063782218013B92F80251DBB28342637092
:1033E80030D01A010101961C8F1C2644274406F18F
:1033F800100C56F804EB664547F804EBF9D1823215
:1034080082312244214402F1100652F8047BB24270
:1034180041F8047BF9D1E118221891F8026182F889
:10342800026106267343704303F5857300F58570C2
:10343800E618E35827182350B388BB8091F83A312F
:1034480082F83A312846FFF7ADFF082818D12378CB
:10345800013BDBB29D42237012D02B3305F12B02C6
:1034680004EBC30304EBC20293E8030082E8030001
:103478002078FFF797FF08281CBF241884F802510A
:10348800F8BD00BFF8100020F0B5254D89B095F8BB
:10349800984105F299116846224609F0C1F821467B
:1034A80068460BF0A4F80446B8B300EB400102A844
:1034B800C9B2FEF71DF8631E95F8A1610124DBB2BD
:1034C80095F8981105E0721CB2FBF1F001FB10228F
:1034D800D6B206F120020DEB020010F8202C002ACB
:1034E800F1D103EB430100F8204C06EB46022031F2
:1034F8002A44694411F8187C82F8A27111F8177CE3
:1035080011F8161C82F8A37182F8A411013BAA19BC
:10351800DBB282F89941FF2BD2D109B0F0BD00BFD0
:10352800F810002070B5064688B00C46002A4ED028
:10353800294A92F8A131D01890F8991119B9FF21A8
:103548002820FDF759F903EB43010133114491F8A1
:10355800A251E57091F8A35191F8A41125716171F8
:10356800002180F8991192F89811B3FBF1F001FB52
:10357800103382F8A13192F8C23123B9174902F504
:10358800DD700BF0E3FC65790D220021684605F03B
:103598003F0545F0400565710DF091FEE37804AAFA
:1035A80069468DF80F30304623798DF80D508DF827
:1035B8000E3004230DF0D6FD9DF81F3023709DF8C2
:1035C8001E3063709DF81D30A37008B070BD0321D4
:1035D8006018FDF78DFFD6E7F81000209134000041
:1035E800044B5A78824286BF1B1893F84A01002080
:1035F800704700BFF8100020044B5A78824286BFFB
:103608001B1893F842010020704700BFF8100020F3
:10361800064B00224FF461711A8083F8C32183F8A6
:10362800C421A3F8C61183F8C2217047F8100020FE
:103638002DE9F0478246894617469846FFF790FEDF
:1036480008280546064603D0FFF7ACFE082860D1D7
:10365800324C6378072B5ED8082D15D12678731C59
:10366800072E237003D96C212820FDF7C5F806F131
:103678002B02D9F8000004EBC20344F83200B9F871
:10368800042083F806A09A80657807F110026B1C65
:10369800290163704B1C234412F8010DBA4203F848
:1036A800010FF9D1813108F11003214413F8012DDC
:1036B800984501F8012FF9D12544102140460AF018
:1036C800DCFF102185F8420138460AF0D6FF85F85C
:1036D80002616678002385F84A013146104885F86A
:1036E8003A310AF084FF0128054607D831460D48CB
:1036F8000AF07DFF002818BF0135EDB284F8985113
:103708000025284684F8A151FFF7BEFE2846BDE8EB
:10371800F0871220FBE70720F9E700BFF810002028
:103728003A12002042120020064B10B55878013892
:1037380040B2002800DA10BDC4B22046FFF746FEAA
:10374800601EF5E7F8100020014B83F8C3017047AD
:10375800F8100020014B93F8C3017047F8100020BF
:10376800431E4AF2B7129BB293429DBF024BA3F885
:10377800C601012000207047F8100020014BB3F863
:10378800C6017047F81000200A4B30B55C788442B7
:103798000ED9184490F802012B3003EBC004A57928
:1037A8000D7053F8300010600120A388938030BD5D
:1037B8000020FCE7F81000200246074810B590F8F2
:1037C800C34124B1417821B1023005F033F92046D4
:1037D80010BD0C46FBE700BFF81000202DE9F74F9D
:1037E8002F4C9A46804689466378834256D92318D7
:1037F80093F8425185F00105F9B193F84A31E3B9DC
:1038080045F002070135BAF1000F18D1FA070AD5B9
:10381800062104EB0810524601FB0841823001F5ED
:103828008571FFF77FFEBB0734D504EB08105246BD
:1038380049460230FFF776FE2CE02F46E3E794F87E
:10384800A1614FF0010B002DE0D0A31993F8991155
:10385800019399B90092DAB100F006FB019B06EBDF
:103868004601009A4FEA102C83F899B1214481F857
:10387800A201000C81F8A3C181F8A401013694F8D3
:103888009831013DB6FBF3F103FB1166F6B2DAE7B6
:1038980047F00407384603B0BDE8F08F0027F9E782
:1038A800F8100020074B5A78824209D91A1892F862
:1038B80042212AB9062202FB003000F585707047C4
:1038C80000207047F8100020064B5A78824281BFCA
:1038D8001B1893F83A01B0FA80F0400998BF00200D
:1038E800704700BFF8100020F8B50E4607460621BD
:1038F800154630460AF0C1FE044670B10C4B002252
:10390800587803F23913D1B2884202D801242046EC
:10391800F8BD013203F8015FF5E7314638460AF091
:1039280082FE0828F3D0024B034483F83A51EDE7AE
:10393800F8100020034B80F880101B680BB14088FA
:1039480018477047D01800200B2808B504D940F252
:1039580029112920FCF750FF014B33F8100008BD4E
:10396800D89F0200036830B50024D3F8C80042F29B
:103978001075A3F84040B3F844404443B4FBF1F455
:10398800A3F844404C1E05FB0242B2FBF1F2A3F837
:103998004220094AB2FBF1F20132A3F848209A8F7B
:1039A80005FB02445A6B5043B4FBF1F4B0FBF1F051
:1039B8009C63586330BD00BF005A6202054B1B78F8
:1039C80033B9054B1A681B790260037101207047EF
:1039D80000207047C012002088000020054BFF22FD
:1039E8001A70054A016811600179117100221A7074
:1039F800704700BFC01200208800002007B5064AA3
:103A080010681279009068468DF80420FFF7E6FFE9
:103A180003B05DF804FB00BFC0B9020003460846C6
:103A280071B13F2B0BD8074AD35C03F07F02914258
:103A380005D08CBF0120002000EAD3107047012078
:103A4800704700BFF09F0200FF230B7002234B70EA
:103A580083238B70014B1B78CB707047C4120020F6
:103A68002DE9F84FD0F804800C46D8F81C60304691
:103A780009F021FA054620B94FF4AA711020FCF785
:103A8800BBFE0146304609F024FAB5F800B082467C
:103A98001FFA8BF717B94FF4AC71EFE7224B00F11F
:103AA80003091B68D3B998F8023098F803202370EB
:103AB800637802F00F02A4F802B023F00F03134357
:103AC80023F0C00363709AF8003003F00303012B5E
:103AD8000FD0022B0DD04FF4BB71CFE73A464946C1
:103AE800B8F80200984705460028DCD12846BDE80A
:103AF800F88F6278304663F30512627009F0F3F9C3
:103B0800054610B94FF4C071B8E7FB2F02D940F24F
:103B18008F11B3E73A464946201D08F081FD30462B
:103B280009F038F9E2E700BFD418002038B5134C83
:103B380010220021201D0DF0C2FB0125257404F17F
:103B480008031022002104F11400C4E901330DF028
:103B5800B6FB84F8205004F11803094AC4E9053378
:103B680000236362A36284F82C30C4F82D30C4F8B3
:103B7800313084F835301360A36338BDC412002097
:103B8800D418002010B5084C2378FF2B04D040F23D
:103B980099111020FCF730FE08F0AEFC2070BDE84B
:103BA8001040FFF7C3BF00BF8D00002010B5034CC5
:103BB800207808F0BBFCFF23237010BD8D00002087
:103BC800014B187808F0C2BC8D000020014B024A56
:103BD8001A607047DC180020693A00002DE9F341AB
:103BE800DFF88881054608F11407D8F80830D8F8B6
:103BF8001840227A012A22D1D8F8382052B1137AF3
:103C08001BB9BF211020FCF7F7FDD8F83840C4B91C
:103C1800002093E01A7A012AFAD01C46544AEFF39E
:103C2800108172B650680068506001B962B6A3424C
:103C380008BFC8F83840237A1BB9EE21E2E73A46B4
:103C4800EDE7267AF6B205232372731E0B2B7ED876
:103C5800DFE803F07A062336773F4E3F3F3F3F6B5E
:103C6800636813B94FF40371CCE720462946984797
:103C78000420EFF3108272B6237A052BD9B24FF0E5
:103C8800000369D12372D8F83810A14201D1C8F8CD
:103C98003830002A45D162B643E0636813B940F270
:103CA8001521AFE72946204698470346ADF804009A
:103CB800C0B2C3F30723012B3ED0022BD9D129E090
:103CC800636813B940F21D219CE7204698470020FD
:103CD800CFE7284B1B68002BF9D03246606829468D
:103CE8009847A6F10A020420534253415B00E4E7D7
:103CF80063680BB9FE2185E786222A70012259885C
:103D0800AA706A7100229869A5F80310AA7109F0CF
:103D180041F80420D8F83830A34202D10023C8F86B
:103D2800383000283FF461AF08E0134B294620469D
:103D38001B689847034668B9267298B102B0BDE877
:103D4800F0814FF415715DE740F257215AE740F2D0
:103D58005A2157E70220DDE711B940F27B2151E7EC
:103D6800184696E7002B7FF440AF51E7C4120020B5
:103D7800C8120020D8180020DC180020134610B5FF
:103D8800027A22B140F202311020FCF735FD0A46D2
:103D980001460248BDE810400BF0B5B8C812002033
:103DA800044890F82C301BB9034924300BF0C8B8EC
:103DB800704700BFC4120020FFEE0000034606480B
:103DC80090F83C203AB190F8352022B9034900F820
:103DD8002D3B0BF0B5B87047C4120020513A0000D3
:103DE8000A4610B5037A23B140F20A311020FCF7D5
:103DF80003FD014607230248BDE810400BF083B8D5
:103E0800D81200201346027A0AB1037270470A4694
:103E1800014601480BF077B8C812002001490BF0A1
:103E280098B800BF61EF00000B8BA2F8090010469C
:103E3800A2F80B304B8BA2F80D308B8BA2F80F3009
:103E4800CB8B0249A2F811300BF07DB8BFEF000010
:103E5800014B1878704700BF01130020014B1878F8
:103E6800704700BF8E000020094AD2E90003434092
:103E780083EAB01181EA43214FEAF34311605360AA
:103E8800044B58434FEAF06000EB8000704700BFD6
:103E980004130020BB79379E094AD2E90003434046
:103EA80083EAB01181EA43214FEAF343116053607A
:103EB800044B58434FEAF06000EB8000704700BFA6
:103EC80090000020BB79379E10B50A4C082109489C
:103ED800FDF70EFBD4E900321343F7D0064CFFF789
:103EE800DBFF2060FFF7D8FF236860601843F6D037
:103EF80010BD00BF9000002004130020174B184A83
:103F08009A60184A5A60184A1A60184A9A62184AF7
:103F1800DA62184ADA60184A9A61184A1A63184A23
:103F28001A62184ADA64184A9A64184A5A62184B8C
:103F3800184A9A60184A5A62184ADA62184A1A6184
:103F4800184A5A61184A9A61184A1A63184A9A64B0
:103F5800184ADA64184A9A63704700BFE0180020CC
:103F6800AFF30000D5F3000001F500009FF6000054
:103F7800FBF60000A94500000DF70000714800009D
:103F8800C9460000DFF7000005F8000025470000DB
:103F9800E0190020C5F30000A5F700002BF700008A
:103FA800DBF600004BF7000059460000ABF80000B4
:103FB80049F8000035F800008FF70000044B054A67
:103FC8005A65054B054A1A65054A5A65704700BF88
:103FD800E0180020FBF90000E0190020E5F90000D6
:103FE80025FA0000054B064A9A65064A1A66064BEA
:103FF800064A9A65064ADA65704700BFE01800204D
:1040080057E50000C5300000E0190020B1E30000CA
:1040180099E50000F7B5044601A80F46FFF720F917
:1040280020B94FF4AA615120FCF7E6FB5022002189
:1040380001980DF044F9019D3F2F2E4606F8037FA5
:1040480043D83F2F44D8DFE817F046004C006C00F7
:1040580075008D00740174019A00B3009E0074010C
:104068007401A300AF00B30043004300B70074011C
:104078007401CC00CC00E300E300EA0043004300F5
:104088007401EF00FC00000104010B010D010F0198
:1040980011011B01250154015601430043002D0164
:1040A8005E015C0146013C013E01400142014801BC
:1040B8004C014A015001740143004E014401520170
:1040C80060016201430058015A01FF2F00F0258169
:1040D80040F24451A7E7214630460BF07AFAC0B9BE
:1040E800BBE02668D6F838326B6096F83C322B7203
:1040F800206890F89F3033B90BF042F92368DB88C9
:104108001844A6F83E02B6F83E3208206B721B0A25
:10411800AB72FFF7B1F8002840F00D8140F257511B
:1041280081E7236893F8A82052BB93F82D31022029
:104138002B71EEE723681720D3F880226A60D3F842
:104148008422AA60B3F88822AA81D3F86022C5F82D
:104158000E20D3F86422C5F81220D3F89030C5F8A1
:104168001630D6E722680D20D2F8FE316B60D2F8FF
:104178000232AB602368D3F89430EB60C9E7236858
:1041880093F8A030D3E73146204600F033FBA6E78A
:10419800112306202B7159236B710023AB7139232E
:1041A800EB7130232B72B4E7236893F89A30BEE79B
:1041B800304600F00DFB92E7236893F8A82052B927
:1041C80093F8A0203AB193F89D202A7193F89C3077
:1041D80003206B719DE793F89B202A7193F89A301E
:1041E800F6E723680920B3F80C212A71120A6A71CC
:1041F800B3F8A220AA71120AEA71B3F808212A7248
:10420800120A6A72B3F8A030AB721B0AEB7280E72D
:10421800236893F83A212A7193F83B31D8E721466D
:1042280030460AF057F95AE723681121B3F8AA0073
:10423800FCF70CFF00F15B0130460AF0AFFD2320CC
:1042480067E730460CF0EEFA49E730460CF0F3FA2F
:1042580045E73A4B1B68002B5BD140F24951E2E637
:10426800374BF7E7374BF5E7374BF3E7374B1B6827
:10427800002BF2D02320224631469847042048E7F5
:10428800324B1B68002BE8D0224631462420984741
:1042980005203EE72D4B1B68002BDED02246314619
:1042A8002520F4E723681121B3F8AA00FCF7CEFE15
:1042B80000F17D0200F15B0130460AF07BFD2B2006
:1042C80027E7234BC6E7234BC4E7234BC2E7234B1F
:1042D800C0E7234BBEE7234BBCE7234BBAE7234B8E
:1042E800B8E7234BB6E7234BB4E7234BB2E7234B9E
:1042F800B0E7234BAEE7234BACE7234BAAE7234BAE
:10430800A8E7234BA6E7234BA4E7234BA2E7234BBD
:10431800A0E7214630469847E1E62368304693F8FF
:10432800CF22D3F8D0120AF006FD236893F8CF0203
:10433800D5E60120EDE603B0F0BD00BFE01A00208D
:10434800E81A0020E41A0020EC1A0020F01A0020D5
:10435800F41A0020F81A0020FC1A0020001B002084
:10436800141B00201C1B0020041B0020181B00200D
:10437800201B0020081B00200C1B0020101B002005
:104388002C1B0020301B0020341B0020381B002071
:10439800241B0020281B00203C1B0020401B002061
:1043A8003F289ABF024B53F820000020704700BFF7
:1043B800E01800203F289ABF024B53F82000002045
:1043C800704700BFE019002030F8023CF7B50446FA
:1043D8000E46B0F8825073B101226846ADF801501C
:1043E8008DF80020ADF80330FEF74AFA18B1952190
:1043F8006320FCF701FA1C4B1B6813B1A4F12800D9
:1044080098471A4B1B680BB128469847184B1B68EE
:104418000BB12846984783230027A6F8035033702A
:10442800B770637AD4F89C00737108F0BDFC08B9C2
:10443800BA21DDE739462846FCF71EFE0221284648
:10444800FCF71AFE18B90B4B1B6803B198474FF4D9
:104458000173002003F004021B0A62F3070063F3F0
:104468000F2003B0F0BD00BF441B0020481B0020F4
:10447800501B00204C1B0020F7B5056804464FF67A
:10448800FF77D5F8C0600DF102010DF10102304649
:10449800ADF8027008F037FC01A9304608F055FC69
:1044A80048B1019808F01DFD2168A8310022027268
:1044B800FFF796FCE7E7044905F1280003B0BDE8DB
:1044C800F0400AF040BD00BFD1430000F0B50446FB
:1044D80085B00D46FF2600F8E96C10F8EA3CF3B108
:1044E800174F3B781BB162211F20FCF785F90C217F
:1044F800381DFCF7FDFF3E70002304F8E93C8A23D1
:104508002A4602F8033BD4F80930C5F80330D4F83A
:104518000D305360D4F81130936005B0F0BD01A898
:104528000C21FCF7E5FFA4F51773039A1A6001AB99
:1045380003CB44F8F20C44F8EE1C04F8EA6CDBE711
:104548000C13002010B5054C23782BB90C21201D25
:10455800FCF7CEFFFF23237010BD00BF0C13002013
:10456800024690F80632BBB990F8073203F0FF0113
:104578000BB100207047094B18780028F9D0197042
:10458800D9680433C2F8941003CBC2F8FE01C2F80C
:104598000212FF2382F80632012070470C13002014
:1045A800026870B5D37B04460D463BB1132B05D08A
:1045B800113B0F2B8CBF0120082070BDD2F8A4300E
:1045C800002B3BD192F8523013B920460AF085FEF1
:1045D800D5F80B302268C2F8F631D5F80F30C2F89A
:1045E800FA312368D5F81320C3F89020B3F8AA202D
:1045F800A3F8F922D5F80120C3F8FB22D5F8052045
:10460800C3F8FF222368B5F809200025A3F803237F
:10461800236883F8BE5183F8065220680B4900F5D9
:104628003C700AF08DFC2668204608F068FE1622C9
:1046380086F86A0028462368DA73BEE720460C220B
:104648000321BDE870400AF06EBE00BFD5440000EB
:10465800036810B5DA7B0446202A04D040F29D2175
:104668001F20FCF7C9F8002193F85220B3F8AA00DC
:1046780083F8511082B1C3F8C91183F85210A3F816
:10468800CD11A3F8CA0103F5E0700B490AF058FCF4
:1046980023680022DA7310BD0121A3F8B90183F859
:1046A800B82103F2AF1083F8BB1183F8BF21034987
:1046B800A3F8BC21EAE700BF87F600006FF6000008
:1046C80038B5046894F8A8501DB9E37B23B10120DC
:1046D8001AE02368DB07FAD4D1F801200D4BD1F892
:1046E800051013400C4AC4F86230C3F307630A404C
:1046F80043F00803C4F8662084F865300AF0EDFD3D
:104708001DB90423E373002038BD236843F0010377
:104718002360F8E72FC904F76FDB008038B503681A
:104728009A7B042A34D1D1F801204C1CD1F80550C9
:10473800C3F86220C2F30762C3F8665042F0080269
:1047480083F86520002283F84A209A73026892F859
:10475800A8200AB983F83F2193F84021B2B993F809
:10476800912102F0FF008AB9B3F8AA2083F89201D8
:1047780003F28910A3F89321D1F801200549C3F861
:1047880095216268C3F899210AF0DAFB002038BD48
:104798000120FCE765F70000036893F8402112B197
:1047A800094B1B68184793F891215AB9B3F8AA2006
:1047B80003F289100549A3F893211A2283F892215C
:1047C8000AF0BEBB704700BF541B002065F700000D
:1047D80010B50446FEF7A2FB044A054B0240092027
:1047E8000B40C4F80120C4F8053010BD2FC904F7E8
:1047F8006FDB008037B50C460568FEF78FFB0A4B68
:104808000A4A03400A4095F8621000930B4001924F
:104818008DF800306B4603CBC4F801000920C4F8BA
:10482800051003B030BD00BF2FC904F76FDB00804F
:1048380038B5DB04154604D5037D13B10023436363
:1048480038BD446B013444630BF00AF8836B9C4217
:10485800F6D30023034943632846BDE838400AF0ED
:1048680078BB00BFD3F7000070B504680546A37B8A
:1048780094F8A860012B07D01EB9E37B23B101206F
:1048880038E023689807FAD494F853309A0713D479
:104898004A78D80784F85D204A88A4F85E208A8878
:1048A800A4F8602043F0020284F853200FD516497B
:1048B80004F154000AF04DFB94F85330D90710D492
:1048C800CEB9E37B43B153214020FBF795FF94F821
:1048D8003E31002BEBD1EFE70123E37328460AF0C2
:1048E800FCFCA37B0020012B4FF0000304BFA37343
:1048F80084F84A3070BD23689A0701D55821E3E748
:1049080043F002032360E9E789F8000070B5056801
:10491800044604F045F8054B0146E8721B681BB1D4
:104928002046BDE87040184770BD00BF5C1B0020E2
:10493800024B1B6803B11847704700BF581B002083
:10494800F0B51F4D00242B7814709BB1013B6D68A6
:10495800DBB21E1B012E0FDC05EBC40655F83470C4
:1049680076688E4208BF874227D0B84271EB0606A8
:1049780012D214700020F0BD1E197710C6F3470636
:1049880055F837C005EBC70E8445DEF804708F4133
:104998002CBF33463446DCE705EBC30455F83350E7
:1049A80064688C4208BF854206D0A84271EB0404B3
:1049B80028BF01331370DDE71C4601201470DAE7C5
:1049C8002C13002010F0070208B503D063214820FB
:1049D800FBF712FF18B1034B197258601A70C80020
:1049E80008BD00BF2C130020014B00221A7070472D
:1049F8002C130020024B1879003818BF012070478B
:104A08003C130020FF23084A0B700D234B708223B0
:104A18008B701368C1F803305368C1F80730936886
:104A2800C1F80B30704700BF421300201622002146
:104A380001480CF044BC00BF42130020F8B51C4DDF
:104A480004466B7D9BB390F8A83023BBD0E97876F9
:104A58000AF08BFF94F82021164B523053F822307D
:104A68004FF47A7203F2E733B3FBF2F3DB19B4F8CD
:104A7800AA2046F100061B182A8046F100066B6042
:104A8800AE60E38805F10C0002220B496B80BDE89B
:104A9800F840FFF7B7B94B0609D5B0F8AA302B8014
:104AA800D0F880326B60D0F88432AB60E9E7F8BDAB
:104AB800421300201CA202000D4A0000094B53F8C3
:104AC800203003F5224370B5B13316464FF47A729D
:104AD8000C46B3FBF2F5344404F0D0FF2C442044D8
:104AE80070BD00BF08A202002DE9F04F98468BB0B8
:104AF800002304460F460392069390F821B109F06B
:104B0800BAFB064694F82B01FEF71EFF06440AF08E
:104B18002CFFE37B00F14805B6B2472B47D00D2B9D
:104B280045D094F80E90A9F14701D1F1000949EB5D
:104B38000109039B002B40F08580637B032B40F029
:104B48008180B9F1000F6AD0B4F8D832BB4266D17F
:104B5800D4F820322046B4F8F421C4F81032D4F83E
:104B6800C830C4F81432B4F892321344C4F8183276
:104B780003F078FE94F829A1BAF1000F09D0D4F80F
:104B8800E02241F64B539A428CBF4FF0000A4FF097
:104B9800010A94F8EC326BB9D4F8C820D4F8E032A2
:104BA8009A4221D0B4F8AA000BF05BFE1CE04FF04B
:104BB8000109BEE7B4F8AA000BF050FE20B940F294
:104BC80042713020FBF718FEB4F8E8324FF0000AC3
:104BD800A4F8DE30B4F8EA328381B4F8D832A0F809
:104BE8000EA04381013B038294F82A31002B4ED159
:104BF800BAF1000F4ED1D4F8DC3284F82AA1C4F8F7
:104C0800D830B4F8DA32A4F8DC30D4F8E032C4F89A
:104C1800C830D4F8E432C4F8D03002236373A17BDF
:104C2800292946D0A1F12C0251425141E27B292A7F
:104C380000D039B1B4F8D832FB1A1B0402D420468C
:104C480002F0CAFFB4F890A204F5187394F8210191
:104C5800A7EB0A0A0293E3880FFA8AFAFB1ABAF159
:104C6800000F0FFA83FC26DAE246D4E99E23C4E952
:104C7800A223002384F833320123627B032A00F243
:104C8800B581DFE812F01A002A0170004E01BAF16E
:104C9800000F07D04FF04D13C4F8E0300023A4F8FC
:104CA800E430A8E74FF09613A4F8E4A0C4F8E03085
:104CB800A1E70121BAE74346DFE7014694F8ED0191
:104CC80009F036FD8246D4F8D8003146504405F044
:104CD800D7FE3146C4F81C02D4F8C80005F0D0FE4F
:104CE80007A9C4F8200208A804F020FE079B009337
:104CF800DDE90823D4E9A2010BF0ACFE064604F175
:104D0800A8000AF0BBFED4F8943294F82101D4F834
:104D1800D8B0069304F0BAFE069B00F52240D4F8FA
:104D28001C124FF47A72203BB1305B445B1A30316D
:104D38005B1BB0FBF2F053442A469B1B1B1A94F8EA
:104D480021010693B4F8DC3003EB4101FFF7B6FE0E
:104D5800D4F89422069BC4F824029B1AB92B5CD879
:104D680040F2C7412DE7D4F8D8303146D4F81402C0
:104D7800184405F085FE3146C4F81C02D4F8C80072
:104D880005F07EFEC4F8200204F1A8000AF076FEC1
:104D9800D4F8D830D4F814621E44B4F8F431002B97
:104DA80040F09780B8F1000F00F0938094F821014B
:104DB80004F06CFED4F81C12D4F8803200F52240BE
:104DC800761A94F82121B130203E1E44A44B53F8A2
:104DD80022204FF47A7302F2E732D4E99EABB2FB99
:104DE800F3F2A6EB0A06B0FBF3F01644761B361A6C
:104DF800D4F81032D4F8182294F8210102FB0311D8
:104E0800B4F8DC302A460696303103EB4101FFF74F
:104E180055FE0123C4F824026373D4F8C83004F1A2
:104E2800E800D4F82022723B06999B1A5D1BD4F83F
:104E380024329D4228BF1D46002384F86032C4F8FE
:104E4800F051D4E9A2325B1842F10002C4E99C3265
:104E58000AF0FBF804232844A4F8907284F8693215
:104E6800C4F86402D4E99C23C4E9A22302F0CAFF6F
:104E780020B1D4F864321E33C4F86432B4F8E03197
:104E8800DB1B18B20028D4BF002301235B0084F881
:104E98006832B9F1000F40F0AC80B8F1000F40F073
:104EA800AB80637B002B00F0C380D4F8C81004F5F6
:104EB8001870D4F82032C91A09F0EBFB80B2002828
:104EC80000F0B680149B03B1188001200BB0BDE838
:104ED800F08FD4F81C12761A8AE7D4F82022D4F876
:104EE800C830D4F818129B1AD4F810620AFB03F3DE
:104EF8000693B4F8F4319C44D4F81C32ACEB010CA2
:104F080030330CF1FF3C06FB0133B4F8DC1002FB34
:104F18000C332A4601EB4301FFF7D0FDC4F8240205
:104F28007BE7D4F8C82002FB0AF20692B8F1000F1A
:104F38001CD0B4F8F411C9B984F83312D4F820128B
:104F480001FB1A2EB4F8F4A10291CDF818E06BB366
:104F5800BAF1000F2AD1D4E9A061D4E99E23B24264
:104F680073EB010108D340F20E512AE694F833128C
:104F780000297FF452AFE1E7394B203E53F82B105C
:104F88004FF47A7BD4E99E23CDE9042301F2E73379
:104F980001F52241049AB131B61AB3FBFBF3B1FB18
:104FA800FBF11E44761A761B76440696029BE24471
:104FB8002A4603FB0AFA0AF1300A4FEA4A0A51461E
:104FC800FFF77CFD41F64B53C4F82402D4F8C8001F
:104FD80098423FF622AF06AB2A465146009304F5A5
:104FE800097309F0C1FB84F8330216E740F2265131
:104FF800E7E5B8F1000F1BD0B4F8081239B3B4F8DC
:105008000A2294F80C32551CA4F80A2202FB033336
:1050180099420DDD00280BDD0023A4F80A5284F81C
:105028006832FEF721FF00F00700013084F80C0217
:10503800394608A8089408F067F904F5187104F5CA
:105048000E7006F0C5FC20B940F27651B9E50A4663
:10505800D7E7039B83F0010384F83032002035E75B
:1050680008A20200F0B5044685B018B9A521302081
:10507800FBF7C2FB052900F2DA80DFE811F0060031
:10508800D30038003300D800CE0090F83032C28800
:10509800FBB1B0F82E32934208BFB0F8E4319A1A47
:1050A800A0F8E621E3802046D4E99C23C4E99E23A6
:1050B80002F0FAFD94F84C30002B00F0AC805D4B08
:1050C8001B68002B00F0A780204605B0BDE8F04023
:1050D8001847B0F82C329B1AA0F8E631B0F82C32F9
:1050E8009BB2DFE705B0BDE8F04004F02BBC0BF045
:1050F800A9FCD4E99E23801A61EB0301012871F110
:10510800000302DA40F20161B1E76FF00103834264
:105118004FF000038B4102DA40F20261A7E7D4F8AE
:10512800C8300BB1B0FBF3F3E07BB4F82E2247286C
:105138000ED0A17B463901290AD90D2808D0E1886B
:105148000B449BB2D11A0D0443D501339BB242E004
:105158000132A4F82E22B4F8923203AEE588013366
:10516800354FA4F89232B4F842301D44B4F84030B8
:10517800013DED1AADB23B685BB1B4F82E120022C6
:105188002046013989B29847B4F82E321844A4F859
:105198002E02B4F82E126B1A18042CD400232046C1
:1051A80000961A46FFF7A0FC012834D1B4F82E2245
:1051B800B4F8E011BDF80C301344521A12049BB233
:1051C80004D5EA1A12F4004F18BF0B46A4F82E3281
:1051D800D1E7013293B2A4F82E3294F83132002B81
:1051E800B9D1B4F8E431B4F82E22934204BF0133A4
:1051F800A4F82E32AFE7A37C30460394002B14BFEB
:1052080008233E2384F83130FFF736F920460BF0A7
:1052180095FA0023637305B0F0BD05B0BDE8F04012
:1052280008F037B8437B042BF3D0C6211FE7CB2106
:105238001DE700BF601B0020681B00202DE9F84314
:105248000E46044618B9D3213020FBF7D5FA0529B4
:1052580000F2A780DFE801F00376413DA52E0BF0B0
:105268009DFCC4E95001204602F0A4F8D4F83401AA
:10527800A4380BF0E9FB20460BF04CF8054600BBC0
:10528800014620460AF0D6FE00F1AE06D4F83401F5
:10529800B04209D2301A0321192838BF19200BF05F
:1052A8004FFC60B10BF0D2FBC4F8346120460BF020
:1052B8006AF845B12046BDE8F8430BF065B801250A
:1052C800F2E70025F2E7D4E95023C4E94A23BDE810
:1052D800F883BDE8F84304F035BB0AF0ECFE04237C
:1052E8008146884684F839310BF0ACFB07220F461B
:1052F800A9FB023102FB0811D4E94A525B1941EBC0
:105308000205D4F810213AB159EA080204D09842AB
:1053180077EB050228BF012684F83861D4E95226C4
:10532800121A66EB070694F8581139B9012A76F172
:1053380000010BDA204602F045F803E0012A76F175
:105348000006F7DB002384F85031C0E7984277EB7A
:1053580005010FD259EA08080CD01B1A65EB0701A2
:105368009A4276EB010005DB012B71F10000A4BF26
:105378001A460E460C49012304F1E800914284F8CC
:1053880051314FF0000384F83031B341B8BF0A46B9
:1053980004F5987106F094FB002898D140F2B261A8
:1053A80052E7EF2150E700BF0040420F2DE9F843D4
:1053B80004460E46154690F8503103F0FF07002BBF
:1053C80040F0948000F1E8083946782240460BF016
:1053D80076FF2246464940460BF05DFCC4F8106152
:1053E800FF2384F8503166B1FEF756FD00F0070040
:1053F80032464049013086F80C0206F50E700BF073
:105408004AFC40F202434FF00009A4F8383184F80E
:10541800309105F08BFB00F1490620460AF07AFF2F
:105428000146B6B2C0B308F026FF00F128012846AD
:1054380089B205F025FB2844AE3DC4F834010BF0D1
:1054480001FB3018A4F8269041F10001C4E950018D
:10545800012084F814010BF065F82D1AC4F81851CE
:105468004FF0FF356FF000414046D4E95023C4E9BE
:105478005251002504F59871C4E94823C4E94A2328
:1054880084F8515142F2107206F01AFB38BB40F210
:10549800B9113020FBF7B0F92046DFF85C900AF02C
:1054A800C9FDAE30C4F83401B9F8000048B1E08C49
:1054B80038B1FEF7F1FCB9F80030B0FBF3F202FBAB
:1054C800130006440BF0BEFA361841F10001C4E996
:1054D8005061002DC4D0AD1941F10001C4E729463F
:1054E80020460AF053FF3846BDE8F8830C27FAE750
:1054F800455200006D50000058130020F0B50023FD
:1055080085B0CDE9003303238DF806306846FBF7F4
:10551800D7FD88B10123114EB3700023CDE90233C2
:1055280002238DF80E3002A8FBF7CAFD044638B1F5
:105538000023B37005B0F0BD00980AF0F5FAE5E76E
:10554800029D6B7B002BEED005F50E7738460BF0ED
:105558009EFA38460BF0A7FA6C73E4E7581300205C
:10556800044B0022DA709A7042F210721A80FFF728
:10557800C5BF00BF58130020014BD870704700BF4B
:105588005813002008B503F059FE044B5A688242AC
:105598002ABF9878002080F0010008BD5813002029
:1055A800F0B5044685B090F84C3003F0FF05002BA9
:1055B80068D1437B032B65D10BF044FAD4E99E23D1
:1055C800801A61EB0301012871F100035ADB6FF0C7
:1055D8000103834275EB010104DA40F2AA5130203D
:1055E800FBF70AF9D4F8C820E3880AB1B0FBF2F255
:1055F800013313449BB2A4F82C32B4F8E431B4F864
:105608002C229B1A1BB2002B3CDD04F50E700BF00C
:105618003EFA002836D0FF2384F83132B4F84230FD
:105628000DF10E07E588184E1D44B4F84030013DD1
:10563800ED1AADB2336863B1B4F82C1200222046DB
:10564800013989B29847B4F82C32184480B2A4F8CA
:105658002C02B4F82C32EB1A1B0413D4B4F82C1215
:1056680000230122204689B20097FFF73DFA01285E
:1056780008D1B4F82C32BDF80E2013449BB2A4F81C
:105688002C32D7E705B0F0BD681B00202DE9F743A1
:105698000446062900F2A980DFE801F00425142257
:1056A800282DA100524B9B7803F0FF0253B90092BA
:1056B8000123B0F8E411FFF717FA28B140F2CE61E0
:1056C800302031E00423637303F0A0FF06F06CF987
:1056D8000023E288A4F89232A4F82E2284F831320A
:1056E80003B0BDE8F08303234373F9E70BF0FFF839
:1056F800C4E9A001F4E73F4B00F1A8081B681BB1FF
:105708004246D0E9A00198471321B4F8AA00FBF754
:105718009DFC002861D094F82131022B5BD005D87C
:10572800012B08D0DC21B420FBF766F8033B012BE2
:10573800F8D81E3000E00A30858894F82101DFF897
:10574800B090C31E012B8CBF002728270AF07FF9D1
:105758006430D4F82022373FA842FFB234BF2B1A56
:105768000023D4F8C85099188D428ABFAD1A002575
:10577800ED1A99F8033023B9D4F8E8309D4228BFD0
:105788001D46D4F8F06104F1E80009F05EFC064417
:1057980002200BF0ABF90221AD1B25EAE575854225
:1057A80028BF054628460BF0CBF910B12E440BF064
:1057B8004DF901233A463146404609F052FDD4F8E6
:1057C800F031C9F80400D4F8C800184403B0BDE8A3
:1057D800F0430BF039B91430AEE79625ADE7A830A1
:1057E80003B0BDE8F0430AF049B940F29C7167E79D
:1057F80058130020641B0020014B1880704700BF1D
:1058080058130020044B1A78012AD0B203D0187814
:10581800831E584258417047601300200C4B4FF4C8
:105828007A7253F82130023903F2E733C9B2B3FB75
:10583800F2F3022900F1FF3210B54FEAC21296BF07
:10584800044CF02134F81110134400FB013010BD52
:105858001CA2020074A00200D928F0B5054628BF92
:10586800D925BDF814600446303501F5A57006F059
:105878000207ADB2FF2D28BFFF2516F0010621D182
:105888000FBB002B00F0C580911EC9B2022996BF3C
:105898007B4D40F6480135F811100844D92C7FD9C2
:1058A800D93C951EF721A4B2EDB2002B00F0CF80B1
:1058B800F634022DB4FBF1F400F2C680714B33F8D4
:1058C80015306BE0EFB1911EC9B2022997BF6E4D3A
:1058D8004FF4147105EB4101C9880144D01E012819
:1058E80037D801F614409830002E3BD0023AD2B295
:1058F800022A97BF644BC02303EB42035B8A184418
:105908004EE053B1911EC9B2022997BF5E4D40F6D1
:10591800480105EB41018989DFE7032A05D1691DA3
:1059280089B2890101F5C871D7E7042A05D1691D33
:1059380089B2090101F5BF71CFE7022A0BBF05F152
:105948000B0105F10A0189B289B20CBF8900C900AF
:10595800C3E7022A01F19C0114BF4FF4B070B420D0
:105968000844C0E7EBB1911EC9B2022996BF474D62
:1059780040F6480135F81110D92C084410D9D93C03
:10598800951EF721A4B2EDB24BB3F634022DB4FB49
:10599800F1F459D83C4B03EB45031B8B03FB040084
:1059A800F0BDF12C214628BFF121032A05D113317E
:1059B80089B2890101F5C871DEE7042A05D11331DE
:1059C80089B2090101F5BF71D6E7022A0BBF193167
:1059D800183189B289B20CBF8900C900CCE7B4FB81
:1059E800F1F3022DDBB239D8294931F8151001FB42
:1059F8000300C3EB4311C3EBC103E41AA3B2002BAA
:105A0800CED00833032A9BB22BD19B0103F21A4351
:105A180075E7032A06D10535ADB2AD0105F5C875A0
:105A280028443BE7042A05D10535ADB22D0105F51B
:105A3800BF75F5E7022A0BBF0B350A35ADB2ADB21B
:105A48000CBFAD00ED00EBE740F69213A6E7B4FB00
:105A5800F1F3022DDBB201D80E49C6E740F69211E8
:105A6800C5E7042A03D11B0103F5467347E7022A59
:105A78000BBF9B00DB0003F5BB7303F5CD733EE75B
:105A880080A002008CA0020074A0020080A0020086
:105A98008CA002008CA00200294B5A6A10B5D2F8DB
:105AA8000F30C0F8CC30537D117D1B0443EA01232D
:105AB800D17C0B436FF45061C0F8D430B2F8193080
:105AC800591806298DBF40F2E241A3F550634FF4FF
